{
	"project.sol": {
		"bankingApp": {
			"abi": [
				{
					"inputs": [
						{
							"internalType": "uint256",
							"name": "",
							"type": "uint256"
						}
					],
					"name": "arrTransactions",
					"outputs": [
						{
							"internalType": "uint256",
							"name": "idNum",
							"type": "uint256"
						},
						{
							"internalType": "address",
							"name": "user",
							"type": "address"
						},
						{
							"internalType": "uint256",
							"name": "time",
							"type": "uint256"
						},
						{
							"internalType": "string",
							"name": "ref",
							"type": "string"
						},
						{
							"internalType": "string",
							"name": "network",
							"type": "string"
						},
						{
							"internalType": "uint256",
							"name": "amt",
							"type": "uint256"
						},
						{
							"internalType": "uint256",
							"name": "userBalance",
							"type": "uint256"
						}
					],
					"stateMutability": "view",
					"type": "function"
				},
				{
					"inputs": [
						{
							"internalType": "uint256",
							"name": "_depositAmt",
							"type": "uint256"
						},
						{
							"internalType": "string",
							"name": "_ref",
							"type": "string"
						},
						{
							"internalType": "string",
							"name": "_network",
							"type": "string"
						}
					],
					"name": "deposit",
					"outputs": [],
					"stateMutability": "nonpayable",
					"type": "function"
				},
				{
					"inputs": [],
					"name": "transactionId",
					"outputs": [
						{
							"internalType": "uint256",
							"name": "",
							"type": "uint256"
						}
					],
					"stateMutability": "view",
					"type": "function"
				},
				{
					"inputs": [],
					"name": "userBalance",
					"outputs": [
						{
							"internalType": "uint256",
							"name": "",
							"type": "uint256"
						}
					],
					"stateMutability": "view",
					"type": "function"
				},
				{
					"inputs": [],
					"name": "viewAllTransactions",
					"outputs": [
						{
							"components": [
								{
									"internalType": "uint256",
									"name": "idNum",
									"type": "uint256"
								},
								{
									"internalType": "address",
									"name": "user",
									"type": "address"
								},
								{
									"internalType": "uint256",
									"name": "time",
									"type": "uint256"
								},
								{
									"internalType": "string",
									"name": "ref",
									"type": "string"
								},
								{
									"internalType": "string",
									"name": "network",
									"type": "string"
								},
								{
									"internalType": "uint256",
									"name": "amt",
									"type": "uint256"
								},
								{
									"internalType": "uint256",
									"name": "userBalance",
									"type": "uint256"
								}
							],
							"internalType": "struct bankingApp.transactions[]",
							"name": "",
							"type": "tuple[]"
						}
					],
					"stateMutability": "view",
					"type": "function"
				},
				{
					"inputs": [
						{
							"internalType": "uint256",
							"name": "_id",
							"type": "uint256"
						}
					],
					"name": "viewOneTransaction",
					"outputs": [
						{
							"components": [
								{
									"internalType": "uint256",
									"name": "idNum",
									"type": "uint256"
								},
								{
									"internalType": "address",
									"name": "user",
									"type": "address"
								},
								{
									"internalType": "uint256",
									"name": "time",
									"type": "uint256"
								},
								{
									"internalType": "string",
									"name": "ref",
									"type": "string"
								},
								{
									"internalType": "string",
									"name": "network",
									"type": "string"
								},
								{
									"internalType": "uint256",
									"name": "amt",
									"type": "uint256"
								},
								{
									"internalType": "uint256",
									"name": "userBalance",
									"type": "uint256"
								}
							],
							"internalType": "struct bankingApp.transactions",
							"name": "",
							"type": "tuple"
						}
					],
					"stateMutability": "view",
					"type": "function"
				},
				{
					"inputs": [
						{
							"internalType": "uint256",
							"name": "withdrawAmt",
							"type": "uint256"
						},
						{
							"internalType": "string",
							"name": "_ref",
							"type": "string"
						},
						{
							"internalType": "string",
							"name": "_network",
							"type": "string"
						}
					],
					"name": "withdraw",
					"outputs": [],
					"stateMutability": "nonpayable",
					"type": "function"
				}
			],
			"devdoc": {
				"kind": "dev",
				"methods": {},
				"version": 1
			},
			"evm": {
				"assembly": "    /* \"project.sol\":66:1447  contract bankingApp{... */\n  mstore(0x40, 0x80)\n  callvalue\n  dup1\n  iszero\n  tag_1\n  jumpi\n  0x00\n  dup1\n  revert\ntag_1:\n  pop\n  dataSize(sub_0)\n  dup1\n  dataOffset(sub_0)\n  0x00\n  codecopy\n  0x00\n  return\nstop\n\nsub_0: assembly {\n        /* \"project.sol\":66:1447  contract bankingApp{... */\n      mstore(0x40, 0x80)\n      callvalue\n      dup1\n      iszero\n      tag_1\n      jumpi\n      0x00\n      dup1\n      revert\n    tag_1:\n      pop\n      jumpi(tag_2, lt(calldatasize, 0x04))\n      shr(0xe0, calldataload(0x00))\n      dup1\n      0x98311875\n      gt\n      tag_10\n      jumpi\n      dup1\n      0x98311875\n      eq\n      tag_6\n      jumpi\n      dup1\n      0x9a493e75\n      eq\n      tag_7\n      jumpi\n      dup1\n      0xbf152765\n      eq\n      tag_8\n      jumpi\n      dup1\n      0xe6d7d14e\n      eq\n      tag_9\n      jumpi\n      jump(tag_2)\n    tag_10:\n      dup1\n      0x2d686b20\n      eq\n      tag_3\n      jumpi\n      dup1\n      0x7e2f42e7\n      eq\n      tag_4\n      jumpi\n      dup1\n      0x97695d93\n      eq\n      tag_5\n      jumpi\n    tag_2:\n      0x00\n      dup1\n      revert\n        /* \"project.sol\":1333:1443  function viewAllTransactions() public view returns (transactions [] memory){... */\n    tag_3:\n      tag_11\n      tag_12\n      jump\t// in\n    tag_11:\n      mload(0x40)\n      tag_13\n      swap2\n      swap1\n      tag_14\n      jump\t// in\n    tag_13:\n      mload(0x40)\n      dup1\n      swap2\n      sub\n      swap1\n      return\n        /* \"project.sol\":115:140  uint public transactionId */\n    tag_4:\n      tag_15\n      tag_16\n      jump\t// in\n    tag_15:\n      mload(0x40)\n      tag_17\n      swap2\n      swap1\n      tag_18\n      jump\t// in\n    tag_17:\n      mload(0x40)\n      dup1\n      swap2\n      sub\n      swap1\n      return\n        /* \"project.sol\":467:830  function deposit (uint _depositAmt,  string memory _ref, string memory _network ) public {... */\n    tag_5:\n      tag_19\n      0x04\n      dup1\n      calldatasize\n      sub\n      dup2\n      add\n      swap1\n      tag_20\n      swap2\n      swap1\n      tag_21\n      jump\t// in\n    tag_20:\n      tag_22\n      jump\t// in\n    tag_19:\n      stop\n        /* \"project.sol\":307:346  transactions [] public  arrTransactions */\n    tag_6:\n      tag_23\n      0x04\n      dup1\n      calldatasize\n      sub\n      dup2\n      add\n      swap1\n      tag_24\n      swap2\n      swap1\n      tag_25\n      jump\t// in\n    tag_24:\n      tag_26\n      jump\t// in\n    tag_23:\n      mload(0x40)\n      tag_27\n      swap8\n      swap7\n      swap6\n      swap5\n      swap4\n      swap3\n      swap2\n      swap1\n      tag_28\n      jump\t// in\n    tag_27:\n      mload(0x40)\n      dup1\n      swap2\n      sub\n      swap1\n      return\n        /* \"project.sol\":836:1192  function withdraw (uint withdrawAmt, string memory _ref, string memory _network ) public checkAmt(withdrawAmt) {... */\n    tag_7:\n      tag_29\n      0x04\n      dup1\n      calldatasize\n      sub\n      dup2\n      add\n      swap1\n      tag_30\n      swap2\n      swap1\n      tag_21\n      jump\t// in\n    tag_30:\n      tag_31\n      jump\t// in\n    tag_29:\n      stop\n        /* \"project.sol\":88:111  uint public userBalance */\n    tag_8:\n      tag_32\n      tag_33\n      jump\t// in\n    tag_32:\n      mload(0x40)\n      tag_34\n      swap2\n      swap1\n      tag_18\n      jump\t// in\n    tag_34:\n      mload(0x40)\n      dup1\n      swap2\n      sub\n      swap1\n      return\n        /* \"project.sol\":1204:1327  function viewOneTransaction ( uint _id)public view returns (transactions memory) {... */\n    tag_9:\n      tag_35\n      0x04\n      dup1\n      calldatasize\n      sub\n      dup2\n      add\n      swap1\n      tag_36\n      swap2\n      swap1\n      tag_25\n      jump\t// in\n    tag_36:\n      tag_37\n      jump\t// in\n    tag_35:\n      mload(0x40)\n      tag_38\n      swap2\n      swap1\n      tag_39\n      jump\t// in\n    tag_38:\n      mload(0x40)\n      dup1\n      swap2\n      sub\n      swap1\n      return\n        /* \"project.sol\":1333:1443  function viewAllTransactions() public view returns (transactions [] memory){... */\n    tag_12:\n        /* \"project.sol\":1385:1407  transactions [] memory */\n      0x60\n        /* \"project.sol\":1422:1437  arrTransactions */\n      0x02\n        /* \"project.sol\":1415:1437  return arrTransactions */\n      dup1\n      sload\n      dup1\n      0x20\n      mul\n      0x20\n      add\n      mload(0x40)\n      swap1\n      dup2\n      add\n      0x40\n      mstore\n      dup1\n      swap3\n      swap2\n      swap1\n      dup2\n      dup2\n      mstore\n      0x20\n      add\n      0x00\n      swap1\n    tag_41:\n      dup3\n      dup3\n      lt\n      iszero\n      tag_42\n      jumpi\n      dup4\n      dup3\n      swap1\n      0x00\n      mstore\n      keccak256(0x00, 0x20)\n      swap1\n      0x07\n      mul\n      add\n      mload(0x40)\n      dup1\n      0xe0\n      add\n      0x40\n      mstore\n      swap1\n      dup2\n      0x00\n      dup3\n      add\n      sload\n      dup2\n      mstore\n      0x20\n      add\n      0x01\n      dup3\n      add\n      0x00\n      swap1\n      sload\n      swap1\n      0x0100\n      exp\n      swap1\n      div\n      0xffffffffffffffffffffffffffffffffffffffff\n      and\n      0xffffffffffffffffffffffffffffffffffffffff\n      and\n      0xffffffffffffffffffffffffffffffffffffffff\n      and\n      dup2\n      mstore\n      0x20\n      add\n      0x02\n      dup3\n      add\n      sload\n      dup2\n      mstore\n      0x20\n      add\n      0x03\n      dup3\n      add\n      dup1\n      sload\n      tag_44\n      swap1\n      tag_45\n      jump\t// in\n    tag_44:\n      dup1\n      0x1f\n      add\n      0x20\n      dup1\n      swap2\n      div\n      mul\n      0x20\n      add\n      mload(0x40)\n      swap1\n      dup2\n      add\n      0x40\n      mstore\n      dup1\n      swap3\n      swap2\n      swap1\n      dup2\n      dup2\n      mstore\n      0x20\n      add\n      dup3\n      dup1\n      sload\n      tag_46\n      swap1\n      tag_45\n      jump\t// in\n    tag_46:\n      dup1\n      iszero\n      tag_47\n      jumpi\n      dup1\n      0x1f\n      lt\n      tag_48\n      jumpi\n      0x0100\n      dup1\n      dup4\n      sload\n      div\n      mul\n      dup4\n      mstore\n      swap2\n      0x20\n      add\n      swap2\n      jump(tag_47)\n    tag_48:\n      dup3\n      add\n      swap2\n      swap1\n      0x00\n      mstore\n      keccak256(0x00, 0x20)\n      swap1\n    tag_49:\n      dup2\n      sload\n      dup2\n      mstore\n      swap1\n      0x01\n      add\n      swap1\n      0x20\n      add\n      dup1\n      dup4\n      gt\n      tag_49\n      jumpi\n      dup3\n      swap1\n      sub\n      0x1f\n      and\n      dup3\n      add\n      swap2\n    tag_47:\n      pop\n      pop\n      pop\n      pop\n      pop\n      dup2\n      mstore\n      0x20\n      add\n      0x04\n      dup3\n      add\n      dup1\n      sload\n      tag_50\n      swap1\n      tag_45\n      jump\t// in\n    tag_50:\n      dup1\n      0x1f\n      add\n      0x20\n      dup1\n      swap2\n      div\n      mul\n      0x20\n      add\n      mload(0x40)\n      swap1\n      dup2\n      add\n      0x40\n      mstore\n      dup1\n      swap3\n      swap2\n      swap1\n      dup2\n      dup2\n      mstore\n      0x20\n      add\n      dup3\n      dup1\n      sload\n      tag_51\n      swap1\n      tag_45\n      jump\t// in\n    tag_51:\n      dup1\n      iszero\n      tag_52\n      jumpi\n      dup1\n      0x1f\n      lt\n      tag_53\n      jumpi\n      0x0100\n      dup1\n      dup4\n      sload\n      div\n      mul\n      dup4\n      mstore\n      swap2\n      0x20\n      add\n      swap2\n      jump(tag_52)\n    tag_53:\n      dup3\n      add\n      swap2\n      swap1\n      0x00\n      mstore\n      keccak256(0x00, 0x20)\n      swap1\n    tag_54:\n      dup2\n      sload\n      dup2\n      mstore\n      swap1\n      0x01\n      add\n      swap1\n      0x20\n      add\n      dup1\n      dup4\n      gt\n      tag_54\n      jumpi\n      dup3\n      swap1\n      sub\n      0x1f\n      and\n      dup3\n      add\n      swap2\n    tag_52:\n      pop\n      pop\n      pop\n      pop\n      pop\n      dup2\n      mstore\n      0x20\n      add\n      0x05\n      dup3\n      add\n      sload\n      dup2\n      mstore\n      0x20\n      add\n      0x06\n      dup3\n      add\n      sload\n      dup2\n      mstore\n      pop\n      pop\n      dup2\n      mstore\n      0x20\n      add\n      swap1\n      0x01\n      add\n      swap1\n      jump(tag_41)\n    tag_42:\n      pop\n      pop\n      pop\n      pop\n      swap1\n      pop\n        /* \"project.sol\":1333:1443  function viewAllTransactions() public view returns (transactions [] memory){... */\n      swap1\n      jump\t// out\n        /* \"project.sol\":115:140  uint public transactionId */\n    tag_16:\n      sload(0x01)\n      dup2\n      jump\t// out\n        /* \"project.sol\":467:830  function deposit (uint _depositAmt,  string memory _ref, string memory _network ) public {... */\n    tag_22:\n        /* \"project.sol\":560:573  transactionId */\n      0x01\n      0x00\n        /* \"project.sol\":560:575  transactionId++ */\n      dup2\n      sload\n      dup1\n      swap3\n      swap2\n      swap1\n      tag_56\n      swap1\n      tag_57\n      jump\t// in\n    tag_56:\n      swap2\n      swap1\n      pop\n      sstore\n      pop\n        /* \"project.sol\":602:613  _depositAmt */\n      dup3\n        /* \"project.sol\":587:598  userBalance */\n      0x00\n      dup1\n        /* \"project.sol\":587:613  userBalance += _depositAmt */\n      dup3\n      dup3\n      sload\n      tag_58\n      swap2\n      swap1\n      tag_59\n      jump\t// in\n    tag_58:\n      swap3\n      pop\n      pop\n      dup2\n      swap1\n      sstore\n      pop\n        /* \"project.sol\":632:647  arrTransactions */\n      0x02\n        /* \"project.sol\":653:819  transactions(... */\n      mload(0x40)\n      dup1\n      0xe0\n      add\n      0x40\n      mstore\n      dup1\n        /* \"project.sol\":676:689  transactionId */\n      sload(0x01)\n        /* \"project.sol\":653:819  transactions(... */\n      dup2\n      mstore\n      0x20\n      add\n        /* \"project.sol\":699:709  msg.sender */\n      caller\n        /* \"project.sol\":653:819  transactions(... */\n      0xffffffffffffffffffffffffffffffffffffffff\n      and\n      dup2\n      mstore\n      0x20\n      add\n        /* \"project.sol\":719:734  block.timestamp */\n      timestamp\n        /* \"project.sol\":653:819  transactions(... */\n      dup2\n      mstore\n      0x20\n      add\n        /* \"project.sol\":744:748  _ref */\n      dup5\n        /* \"project.sol\":653:819  transactions(... */\n      dup2\n      mstore\n      0x20\n      add\n        /* \"project.sol\":758:766  _network */\n      dup4\n        /* \"project.sol\":653:819  transactions(... */\n      dup2\n      mstore\n      0x20\n      add\n        /* \"project.sol\":776:787  _depositAmt */\n      dup6\n        /* \"project.sol\":653:819  transactions(... */\n      dup2\n      mstore\n      0x20\n      add\n        /* \"project.sol\":797:808  userBalance */\n      sload(0x00)\n        /* \"project.sol\":653:819  transactions(... */\n      dup2\n      mstore\n      pop\n        /* \"project.sol\":632:820  arrTransactions.push(transactions(... */\n      swap1\n      dup1\n      0x01\n      dup2\n      sload\n      add\n      dup1\n      dup3\n      sstore\n      dup1\n      swap2\n      pop\n      pop\n      0x01\n      swap1\n      sub\n      swap1\n      0x00\n      mstore\n      keccak256(0x00, 0x20)\n      swap1\n      0x07\n      mul\n      add\n      0x00\n      swap1\n      swap2\n      swap1\n      swap2\n      swap1\n      swap2\n      pop\n      0x00\n      dup3\n      add\n      mload\n      dup2\n      0x00\n      add\n      sstore\n      0x20\n      dup3\n      add\n      mload\n      dup2\n      0x01\n      add\n      exp(0x0100, 0x00)\n      dup2\n      sload\n      dup2\n      0xffffffffffffffffffffffffffffffffffffffff\n      mul\n      not\n      and\n      swap1\n      dup4\n      0xffffffffffffffffffffffffffffffffffffffff\n      and\n      mul\n      or\n      swap1\n      sstore\n      pop\n      0x40\n      dup3\n      add\n      mload\n      dup2\n      0x02\n      add\n      sstore\n      0x60\n      dup3\n      add\n      mload\n      dup2\n      0x03\n      add\n      swap1\n      dup2\n      tag_61\n      swap2\n      swap1\n      tag_62\n      jump\t// in\n    tag_61:\n      pop\n      0x80\n      dup3\n      add\n      mload\n      dup2\n      0x04\n      add\n      swap1\n      dup2\n      tag_63\n      swap2\n      swap1\n      tag_62\n      jump\t// in\n    tag_63:\n      pop\n      0xa0\n      dup3\n      add\n      mload\n      dup2\n      0x05\n      add\n      sstore\n      0xc0\n      dup3\n      add\n      mload\n      dup2\n      0x06\n      add\n      sstore\n      pop\n      pop\n        /* \"project.sol\":467:830  function deposit (uint _depositAmt,  string memory _ref, string memory _network ) public {... */\n      pop\n      pop\n      pop\n      jump\t// out\n        /* \"project.sol\":307:346  transactions [] public  arrTransactions */\n    tag_26:\n      0x02\n      dup2\n      dup2\n      sload\n      dup2\n      lt\n      tag_64\n      jumpi\n      0x00\n      dup1\n      revert\n    tag_64:\n      swap1\n      0x00\n      mstore\n      keccak256(0x00, 0x20)\n      swap1\n      0x07\n      mul\n      add\n      0x00\n      swap2\n      pop\n      swap1\n      pop\n      dup1\n      0x00\n      add\n      sload\n      swap1\n      dup1\n      0x01\n      add\n      0x00\n      swap1\n      sload\n      swap1\n      0x0100\n      exp\n      swap1\n      div\n      0xffffffffffffffffffffffffffffffffffffffff\n      and\n      swap1\n      dup1\n      0x02\n      add\n      sload\n      swap1\n      dup1\n      0x03\n      add\n      dup1\n      sload\n      tag_66\n      swap1\n      tag_45\n      jump\t// in\n    tag_66:\n      dup1\n      0x1f\n      add\n      0x20\n      dup1\n      swap2\n      div\n      mul\n      0x20\n      add\n      mload(0x40)\n      swap1\n      dup2\n      add\n      0x40\n      mstore\n      dup1\n      swap3\n      swap2\n      swap1\n      dup2\n      dup2\n      mstore\n      0x20\n      add\n      dup3\n      dup1\n      sload\n      tag_67\n      swap1\n      tag_45\n      jump\t// in\n    tag_67:\n      dup1\n      iszero\n      tag_68\n      jumpi\n      dup1\n      0x1f\n      lt\n      tag_69\n      jumpi\n      0x0100\n      dup1\n      dup4\n      sload\n      div\n      mul\n      dup4\n      mstore\n      swap2\n      0x20\n      add\n      swap2\n      jump(tag_68)\n    tag_69:\n      dup3\n      add\n      swap2\n      swap1\n      0x00\n      mstore\n      keccak256(0x00, 0x20)\n      swap1\n    tag_70:\n      dup2\n      sload\n      dup2\n      mstore\n      swap1\n      0x01\n      add\n      swap1\n      0x20\n      add\n      dup1\n      dup4\n      gt\n      tag_70\n      jumpi\n      dup3\n      swap1\n      sub\n      0x1f\n      and\n      dup3\n      add\n      swap2\n    tag_68:\n      pop\n      pop\n      pop\n      pop\n      pop\n      swap1\n      dup1\n      0x04\n      add\n      dup1\n      sload\n      tag_71\n      swap1\n      tag_45\n      jump\t// in\n    tag_71:\n      dup1\n      0x1f\n      add\n      0x20\n      dup1\n      swap2\n      div\n      mul\n      0x20\n      add\n      mload(0x40)\n      swap1\n      dup2\n      add\n      0x40\n      mstore\n      dup1\n      swap3\n      swap2\n      swap1\n      dup2\n      dup2\n      mstore\n      0x20\n      add\n      dup3\n      dup1\n      sload\n      tag_72\n      swap1\n      tag_45\n      jump\t// in\n    tag_72:\n      dup1\n      iszero\n      tag_73\n      jumpi\n      dup1\n      0x1f\n      lt\n      tag_74\n      jumpi\n      0x0100\n      dup1\n      dup4\n      sload\n      div\n      mul\n      dup4\n      mstore\n      swap2\n      0x20\n      add\n      swap2\n      jump(tag_73)\n    tag_74:\n      dup3\n      add\n      swap2\n      swap1\n      0x00\n      mstore\n      keccak256(0x00, 0x20)\n      swap1\n    tag_75:\n      dup2\n      sload\n      dup2\n      mstore\n      swap1\n      0x01\n      add\n      swap1\n      0x20\n      add\n      dup1\n      dup4\n      gt\n      tag_75\n      jumpi\n      dup3\n      swap1\n      sub\n      0x1f\n      and\n      dup3\n      add\n      swap2\n    tag_73:\n      pop\n      pop\n      pop\n      pop\n      pop\n      swap1\n      dup1\n      0x05\n      add\n      sload\n      swap1\n      dup1\n      0x06\n      add\n      sload\n      swap1\n      pop\n      dup8\n      jump\t// out\n        /* \"project.sol\":836:1192  function withdraw (uint withdrawAmt, string memory _ref, string memory _network ) public checkAmt(withdrawAmt) {... */\n    tag_31:\n        /* \"project.sol\":934:945  withdrawAmt */\n      dup3\n        /* \"project.sol\":404:415  userBalance */\n      sload(0x00)\n        /* \"project.sol\":397:400  amt */\n      dup2\n        /* \"project.sol\":397:415  amt <= userBalance */\n      gt\n      iszero\n        /* \"project.sol\":388:447  require (amt <= userBalance, \"Your account balance is low\") */\n      tag_77\n      jumpi\n      mload(0x40)\n      0x08c379a000000000000000000000000000000000000000000000000000000000\n      dup2\n      mstore\n      0x04\n      add\n      tag_78\n      swap1\n      tag_79\n      jump\t// in\n    tag_78:\n      mload(0x40)\n      dup1\n      swap2\n      sub\n      swap1\n      revert\n    tag_77:\n        /* \"project.sol\":953:966  transactionId */\n      0x01\n      0x00\n        /* \"project.sol\":953:968  transactionId++ */\n      dup2\n      sload\n      dup1\n      swap3\n      swap2\n      swap1\n      tag_81\n      swap1\n      tag_57\n      jump\t// in\n    tag_81:\n      swap2\n      swap1\n      pop\n      sstore\n      pop\n        /* \"project.sol\":990:1001  withdrawAmt */\n      dup4\n        /* \"project.sol\":975:986  userBalance */\n      0x00\n      dup1\n        /* \"project.sol\":975:1001  userBalance -= withdrawAmt */\n      dup3\n      dup3\n      sload\n      tag_82\n      swap2\n      swap1\n      tag_83\n      jump\t// in\n    tag_82:\n      swap3\n      pop\n      pop\n      dup2\n      swap1\n      sstore\n      pop\n        /* \"project.sol\":1010:1025  arrTransactions */\n      0x02\n        /* \"project.sol\":1031:1185  transactions(... */\n      mload(0x40)\n      dup1\n      0xe0\n      add\n      0x40\n      mstore\n      dup1\n        /* \"project.sol\":1052:1065  transactionId */\n      sload(0x01)\n        /* \"project.sol\":1031:1185  transactions(... */\n      dup2\n      mstore\n      0x20\n      add\n        /* \"project.sol\":1074:1084  msg.sender */\n      caller\n        /* \"project.sol\":1031:1185  transactions(... */\n      0xffffffffffffffffffffffffffffffffffffffff\n      and\n      dup2\n      mstore\n      0x20\n      add\n        /* \"project.sol\":1093:1108  block.timestamp */\n      timestamp\n        /* \"project.sol\":1031:1185  transactions(... */\n      dup2\n      mstore\n      0x20\n      add\n        /* \"project.sol\":1117:1121  _ref */\n      dup6\n        /* \"project.sol\":1031:1185  transactions(... */\n      dup2\n      mstore\n      0x20\n      add\n        /* \"project.sol\":1130:1138  _network */\n      dup5\n        /* \"project.sol\":1031:1185  transactions(... */\n      dup2\n      mstore\n      0x20\n      add\n        /* \"project.sol\":1147:1158  withdrawAmt */\n      dup7\n        /* \"project.sol\":1031:1185  transactions(... */\n      dup2\n      mstore\n      0x20\n      add\n        /* \"project.sol\":1167:1178  userBalance */\n      sload(0x00)\n        /* \"project.sol\":1031:1185  transactions(... */\n      dup2\n      mstore\n      pop\n        /* \"project.sol\":1010:1186  arrTransactions.push(transactions(... */\n      swap1\n      dup1\n      0x01\n      dup2\n      sload\n      add\n      dup1\n      dup3\n      sstore\n      dup1\n      swap2\n      pop\n      pop\n      0x01\n      swap1\n      sub\n      swap1\n      0x00\n      mstore\n      keccak256(0x00, 0x20)\n      swap1\n      0x07\n      mul\n      add\n      0x00\n      swap1\n      swap2\n      swap1\n      swap2\n      swap1\n      swap2\n      pop\n      0x00\n      dup3\n      add\n      mload\n      dup2\n      0x00\n      add\n      sstore\n      0x20\n      dup3\n      add\n      mload\n      dup2\n      0x01\n      add\n      exp(0x0100, 0x00)\n      dup2\n      sload\n      dup2\n      0xffffffffffffffffffffffffffffffffffffffff\n      mul\n      not\n      and\n      swap1\n      dup4\n      0xffffffffffffffffffffffffffffffffffffffff\n      and\n      mul\n      or\n      swap1\n      sstore\n      pop\n      0x40\n      dup3\n      add\n      mload\n      dup2\n      0x02\n      add\n      sstore\n      0x60\n      dup3\n      add\n      mload\n      dup2\n      0x03\n      add\n      swap1\n      dup2\n      tag_85\n      swap2\n      swap1\n      tag_62\n      jump\t// in\n    tag_85:\n      pop\n      0x80\n      dup3\n      add\n      mload\n      dup2\n      0x04\n      add\n      swap1\n      dup2\n      tag_86\n      swap2\n      swap1\n      tag_62\n      jump\t// in\n    tag_86:\n      pop\n      0xa0\n      dup3\n      add\n      mload\n      dup2\n      0x05\n      add\n      sstore\n      0xc0\n      dup3\n      add\n      mload\n      dup2\n      0x06\n      add\n      sstore\n      pop\n      pop\n        /* \"project.sol\":836:1192  function withdraw (uint withdrawAmt, string memory _ref, string memory _network ) public checkAmt(withdrawAmt) {... */\n      pop\n      pop\n      pop\n      pop\n      jump\t// out\n        /* \"project.sol\":88:111  uint public userBalance */\n    tag_33:\n      sload(0x00)\n      dup2\n      jump\t// out\n        /* \"project.sol\":1204:1327  function viewOneTransaction ( uint _id)public view returns (transactions memory) {... */\n    tag_37:\n        /* \"project.sol\":1264:1283  transactions memory */\n      tag_87\n      tag_88\n      jump\t// in\n    tag_87:\n        /* \"project.sol\":1299:1314  arrTransactions */\n      0x02\n        /* \"project.sol\":1315:1318  _id */\n      dup3\n        /* \"project.sol\":1299:1319  arrTransactions[_id] */\n      dup2\n      sload\n      dup2\n      lt\n      tag_90\n      jumpi\n      tag_91\n      tag_92\n      jump\t// in\n    tag_91:\n    tag_90:\n      swap1\n      0x00\n      mstore\n      keccak256(0x00, 0x20)\n      swap1\n      0x07\n      mul\n      add\n        /* \"project.sol\":1292:1319  return arrTransactions[_id] */\n      mload(0x40)\n      dup1\n      0xe0\n      add\n      0x40\n      mstore\n      swap1\n      dup2\n      0x00\n      dup3\n      add\n      sload\n      dup2\n      mstore\n      0x20\n      add\n      0x01\n      dup3\n      add\n      0x00\n      swap1\n      sload\n      swap1\n      0x0100\n      exp\n      swap1\n      div\n      0xffffffffffffffffffffffffffffffffffffffff\n      and\n      0xffffffffffffffffffffffffffffffffffffffff\n      and\n      0xffffffffffffffffffffffffffffffffffffffff\n      and\n      dup2\n      mstore\n      0x20\n      add\n      0x02\n      dup3\n      add\n      sload\n      dup2\n      mstore\n      0x20\n      add\n      0x03\n      dup3\n      add\n      dup1\n      sload\n      tag_94\n      swap1\n      tag_45\n      jump\t// in\n    tag_94:\n      dup1\n      0x1f\n      add\n      0x20\n      dup1\n      swap2\n      div\n      mul\n      0x20\n      add\n      mload(0x40)\n      swap1\n      dup2\n      add\n      0x40\n      mstore\n      dup1\n      swap3\n      swap2\n      swap1\n      dup2\n      dup2\n      mstore\n      0x20\n      add\n      dup3\n      dup1\n      sload\n      tag_95\n      swap1\n      tag_45\n      jump\t// in\n    tag_95:\n      dup1\n      iszero\n      tag_96\n      jumpi\n      dup1\n      0x1f\n      lt\n      tag_97\n      jumpi\n      0x0100\n      dup1\n      dup4\n      sload\n      div\n      mul\n      dup4\n      mstore\n      swap2\n      0x20\n      add\n      swap2\n      jump(tag_96)\n    tag_97:\n      dup3\n      add\n      swap2\n      swap1\n      0x00\n      mstore\n      keccak256(0x00, 0x20)\n      swap1\n    tag_98:\n      dup2\n      sload\n      dup2\n      mstore\n      swap1\n      0x01\n      add\n      swap1\n      0x20\n      add\n      dup1\n      dup4\n      gt\n      tag_98\n      jumpi\n      dup3\n      swap1\n      sub\n      0x1f\n      and\n      dup3\n      add\n      swap2\n    tag_96:\n      pop\n      pop\n      pop\n      pop\n      pop\n      dup2\n      mstore\n      0x20\n      add\n      0x04\n      dup3\n      add\n      dup1\n      sload\n      tag_99\n      swap1\n      tag_45\n      jump\t// in\n    tag_99:\n      dup1\n      0x1f\n      add\n      0x20\n      dup1\n      swap2\n      div\n      mul\n      0x20\n      add\n      mload(0x40)\n      swap1\n      dup2\n      add\n      0x40\n      mstore\n      dup1\n      swap3\n      swap2\n      swap1\n      dup2\n      dup2\n      mstore\n      0x20\n      add\n      dup3\n      dup1\n      sload\n      tag_100\n      swap1\n      tag_45\n      jump\t// in\n    tag_100:\n      dup1\n      iszero\n      tag_101\n      jumpi\n      dup1\n      0x1f\n      lt\n      tag_102\n      jumpi\n      0x0100\n      dup1\n      dup4\n      sload\n      div\n      mul\n      dup4\n      mstore\n      swap2\n      0x20\n      add\n      swap2\n      jump(tag_101)\n    tag_102:\n      dup3\n      add\n      swap2\n      swap1\n      0x00\n      mstore\n      keccak256(0x00, 0x20)\n      swap1\n    tag_103:\n      dup2\n      sload\n      dup2\n      mstore\n      swap1\n      0x01\n      add\n      swap1\n      0x20\n      add\n      dup1\n      dup4\n      gt\n      tag_103\n      jumpi\n      dup3\n      swap1\n      sub\n      0x1f\n      and\n      dup3\n      add\n      swap2\n    tag_101:\n      pop\n      pop\n      pop\n      pop\n      pop\n      dup2\n      mstore\n      0x20\n      add\n      0x05\n      dup3\n      add\n      sload\n      dup2\n      mstore\n      0x20\n      add\n      0x06\n      dup3\n      add\n      sload\n      dup2\n      mstore\n      pop\n      pop\n      swap1\n      pop\n        /* \"project.sol\":1204:1327  function viewOneTransaction ( uint _id)public view returns (transactions memory) {... */\n      swap2\n      swap1\n      pop\n      jump\t// out\n    tag_88:\n      mload(0x40)\n      dup1\n      0xe0\n      add\n      0x40\n      mstore\n      dup1\n      0x00\n      dup2\n      mstore\n      0x20\n      add\n      and(0xffffffffffffffffffffffffffffffffffffffff, 0x00)\n      dup2\n      mstore\n      0x20\n      add\n      0x00\n      dup2\n      mstore\n      0x20\n      add\n      0x60\n      dup2\n      mstore\n      0x20\n      add\n      0x60\n      dup2\n      mstore\n      0x20\n      add\n      0x00\n      dup2\n      mstore\n      0x20\n      add\n      0x00\n      dup2\n      mstore\n      pop\n      swap1\n      jump\t// out\n        /* \"#utility.yul\":7:149   */\n    tag_104:\n        /* \"#utility.yul\":102:108   */\n      0x00\n        /* \"#utility.yul\":136:141   */\n      dup2\n        /* \"#utility.yul\":130:142   */\n      mload\n        /* \"#utility.yul\":120:142   */\n      swap1\n      pop\n        /* \"#utility.yul\":7:149   */\n      swap2\n      swap1\n      pop\n      jump\t// out\n        /* \"#utility.yul\":155:367   */\n    tag_105:\n        /* \"#utility.yul\":282:293   */\n      0x00\n        /* \"#utility.yul\":316:322   */\n      dup3\n        /* \"#utility.yul\":311:314   */\n      dup3\n        /* \"#utility.yul\":304:323   */\n      mstore\n        /* \"#utility.yul\":356:360   */\n      0x20\n        /* \"#utility.yul\":351:354   */\n      dup3\n        /* \"#utility.yul\":347:361   */\n      add\n        /* \"#utility.yul\":332:361   */\n      swap1\n      pop\n        /* \"#utility.yul\":155:367   */\n      swap3\n      swap2\n      pop\n      pop\n      jump\t// out\n        /* \"#utility.yul\":373:533   */\n    tag_106:\n        /* \"#utility.yul\":468:472   */\n      0x00\n        /* \"#utility.yul\":491:494   */\n      dup2\n        /* \"#utility.yul\":483:494   */\n      swap1\n      pop\n        /* \"#utility.yul\":521:525   */\n      0x20\n        /* \"#utility.yul\":516:519   */\n      dup3\n        /* \"#utility.yul\":512:526   */\n      add\n        /* \"#utility.yul\":504:526   */\n      swap1\n      pop\n        /* \"#utility.yul\":373:533   */\n      swap2\n      swap1\n      pop\n      jump\t// out\n        /* \"#utility.yul\":539:616   */\n    tag_107:\n        /* \"#utility.yul\":576:583   */\n      0x00\n        /* \"#utility.yul\":605:610   */\n      dup2\n        /* \"#utility.yul\":594:610   */\n      swap1\n      pop\n        /* \"#utility.yul\":539:616   */\n      swap2\n      swap1\n      pop\n      jump\t// out\n        /* \"#utility.yul\":622:730   */\n    tag_108:\n        /* \"#utility.yul\":699:723   */\n      tag_165\n        /* \"#utility.yul\":717:722   */\n      dup2\n        /* \"#utility.yul\":699:723   */\n      tag_107\n      jump\t// in\n    tag_165:\n        /* \"#utility.yul\":694:697   */\n      dup3\n        /* \"#utility.yul\":687:724   */\n      mstore\n        /* \"#utility.yul\":622:730   */\n      pop\n      pop\n      jump\t// out\n        /* \"#utility.yul\":736:862   */\n    tag_109:\n        /* \"#utility.yul\":773:780   */\n      0x00\n        /* \"#utility.yul\":813:855   */\n      0xffffffffffffffffffffffffffffffffffffffff\n        /* \"#utility.yul\":806:811   */\n      dup3\n        /* \"#utility.yul\":802:856   */\n      and\n        /* \"#utility.yul\":791:856   */\n      swap1\n      pop\n        /* \"#utility.yul\":736:862   */\n      swap2\n      swap1\n      pop\n      jump\t// out\n        /* \"#utility.yul\":868:964   */\n    tag_110:\n        /* \"#utility.yul\":905:912   */\n      0x00\n        /* \"#utility.yul\":934:958   */\n      tag_168\n        /* \"#utility.yul\":952:957   */\n      dup3\n        /* \"#utility.yul\":934:958   */\n      tag_109\n      jump\t// in\n    tag_168:\n        /* \"#utility.yul\":923:958   */\n      swap1\n      pop\n        /* \"#utility.yul\":868:964   */\n      swap2\n      swap1\n      pop\n      jump\t// out\n        /* \"#utility.yul\":970:1078   */\n    tag_111:\n        /* \"#utility.yul\":1047:1071   */\n      tag_170\n        /* \"#utility.yul\":1065:1070   */\n      dup2\n        /* \"#utility.yul\":1047:1071   */\n      tag_110\n      jump\t// in\n    tag_170:\n        /* \"#utility.yul\":1042:1045   */\n      dup3\n        /* \"#utility.yul\":1035:1072   */\n      mstore\n        /* \"#utility.yul\":970:1078   */\n      pop\n      pop\n      jump\t// out\n        /* \"#utility.yul\":1084:1183   */\n    tag_112:\n        /* \"#utility.yul\":1136:1142   */\n      0x00\n        /* \"#utility.yul\":1170:1175   */\n      dup2\n        /* \"#utility.yul\":1164:1176   */\n      mload\n        /* \"#utility.yul\":1154:1176   */\n      swap1\n      pop\n        /* \"#utility.yul\":1084:1183   */\n      swap2\n      swap1\n      pop\n      jump\t// out\n        /* \"#utility.yul\":1189:1348   */\n    tag_113:\n        /* \"#utility.yul\":1263:1274   */\n      0x00\n        /* \"#utility.yul\":1297:1303   */\n      dup3\n        /* \"#utility.yul\":1292:1295   */\n      dup3\n        /* \"#utility.yul\":1285:1304   */\n      mstore\n        /* \"#utility.yul\":1337:1341   */\n      0x20\n        /* \"#utility.yul\":1332:1335   */\n      dup3\n        /* \"#utility.yul\":1328:1342   */\n      add\n        /* \"#utility.yul\":1313:1342   */\n      swap1\n      pop\n        /* \"#utility.yul\":1189:1348   */\n      swap3\n      swap2\n      pop\n      pop\n      jump\t// out\n        /* \"#utility.yul\":1354:1493   */\n    tag_114:\n        /* \"#utility.yul\":1443:1449   */\n      dup3\n        /* \"#utility.yul\":1438:1441   */\n      dup2\n        /* \"#utility.yul\":1433:1436   */\n      dup4\n        /* \"#utility.yul\":1427:1450   */\n      mcopy\n        /* \"#utility.yul\":1484:1485   */\n      0x00\n        /* \"#utility.yul\":1475:1481   */\n      dup4\n        /* \"#utility.yul\":1470:1473   */\n      dup4\n        /* \"#utility.yul\":1466:1482   */\n      add\n        /* \"#utility.yul\":1459:1486   */\n      mstore\n        /* \"#utility.yul\":1354:1493   */\n      pop\n      pop\n      pop\n      jump\t// out\n        /* \"#utility.yul\":1499:1601   */\n    tag_115:\n        /* \"#utility.yul\":1540:1546   */\n      0x00\n        /* \"#utility.yul\":1591:1593   */\n      0x1f\n        /* \"#utility.yul\":1587:1594   */\n      not\n        /* \"#utility.yul\":1582:1584   */\n      0x1f\n        /* \"#utility.yul\":1575:1580   */\n      dup4\n        /* \"#utility.yul\":1571:1585   */\n      add\n        /* \"#utility.yul\":1567:1595   */\n      and\n        /* \"#utility.yul\":1557:1595   */\n      swap1\n      pop\n        /* \"#utility.yul\":1499:1601   */\n      swap2\n      swap1\n      pop\n      jump\t// out\n        /* \"#utility.yul\":1607:1964   */\n    tag_116:\n        /* \"#utility.yul\":1685:1688   */\n      0x00\n        /* \"#utility.yul\":1713:1752   */\n      tag_176\n        /* \"#utility.yul\":1746:1751   */\n      dup3\n        /* \"#utility.yul\":1713:1752   */\n      tag_112\n      jump\t// in\n    tag_176:\n        /* \"#utility.yul\":1768:1829   */\n      tag_177\n        /* \"#utility.yul\":1822:1828   */\n      dup2\n        /* \"#utility.yul\":1817:1820   */\n      dup6\n        /* \"#utility.yul\":1768:1829   */\n      tag_113\n      jump\t// in\n    tag_177:\n        /* \"#utility.yul\":1761:1829   */\n      swap4\n      pop\n        /* \"#utility.yul\":1838:1903   */\n      tag_178\n        /* \"#utility.yul\":1896:1902   */\n      dup2\n        /* \"#utility.yul\":1891:1894   */\n      dup6\n        /* \"#utility.yul\":1884:1888   */\n      0x20\n        /* \"#utility.yul\":1877:1882   */\n      dup7\n        /* \"#utility.yul\":1873:1889   */\n      add\n        /* \"#utility.yul\":1838:1903   */\n      tag_114\n      jump\t// in\n    tag_178:\n        /* \"#utility.yul\":1928:1957   */\n      tag_179\n        /* \"#utility.yul\":1950:1956   */\n      dup2\n        /* \"#utility.yul\":1928:1957   */\n      tag_115\n      jump\t// in\n    tag_179:\n        /* \"#utility.yul\":1923:1926   */\n      dup5\n        /* \"#utility.yul\":1919:1958   */\n      add\n        /* \"#utility.yul\":1912:1958   */\n      swap2\n      pop\n        /* \"#utility.yul\":1689:1964   */\n      pop\n        /* \"#utility.yul\":1607:1964   */\n      swap3\n      swap2\n      pop\n      pop\n      jump\t// out\n        /* \"#utility.yul\":2042:3594   */\n    tag_117:\n        /* \"#utility.yul\":2157:2160   */\n      0x00\n        /* \"#utility.yul\":2193:2197   */\n      0xe0\n        /* \"#utility.yul\":2188:2191   */\n      dup4\n        /* \"#utility.yul\":2184:2198   */\n      add\n        /* \"#utility.yul\":2281:2285   */\n      0x00\n        /* \"#utility.yul\":2274:2279   */\n      dup4\n        /* \"#utility.yul\":2270:2286   */\n      add\n        /* \"#utility.yul\":2264:2287   */\n      mload\n        /* \"#utility.yul\":2300:2363   */\n      tag_181\n        /* \"#utility.yul\":2357:2361   */\n      0x00\n        /* \"#utility.yul\":2352:2355   */\n      dup7\n        /* \"#utility.yul\":2348:2362   */\n      add\n        /* \"#utility.yul\":2334:2346   */\n      dup3\n        /* \"#utility.yul\":2300:2363   */\n      tag_108\n      jump\t// in\n    tag_181:\n        /* \"#utility.yul\":2208:2373   */\n      pop\n        /* \"#utility.yul\":2455:2459   */\n      0x20\n        /* \"#utility.yul\":2448:2453   */\n      dup4\n        /* \"#utility.yul\":2444:2460   */\n      add\n        /* \"#utility.yul\":2438:2461   */\n      mload\n        /* \"#utility.yul\":2474:2537   */\n      tag_182\n        /* \"#utility.yul\":2531:2535   */\n      0x20\n        /* \"#utility.yul\":2526:2529   */\n      dup7\n        /* \"#utility.yul\":2522:2536   */\n      add\n        /* \"#utility.yul\":2508:2520   */\n      dup3\n        /* \"#utility.yul\":2474:2537   */\n      tag_111\n      jump\t// in\n    tag_182:\n        /* \"#utility.yul\":2383:2547   */\n      pop\n        /* \"#utility.yul\":2629:2633   */\n      0x40\n        /* \"#utility.yul\":2622:2627   */\n      dup4\n        /* \"#utility.yul\":2618:2634   */\n      add\n        /* \"#utility.yul\":2612:2635   */\n      mload\n        /* \"#utility.yul\":2648:2711   */\n      tag_183\n        /* \"#utility.yul\":2705:2709   */\n      0x40\n        /* \"#utility.yul\":2700:2703   */\n      dup7\n        /* \"#utility.yul\":2696:2710   */\n      add\n        /* \"#utility.yul\":2682:2694   */\n      dup3\n        /* \"#utility.yul\":2648:2711   */\n      tag_108\n      jump\t// in\n    tag_183:\n        /* \"#utility.yul\":2557:2721   */\n      pop\n        /* \"#utility.yul\":2802:2806   */\n      0x60\n        /* \"#utility.yul\":2795:2800   */\n      dup4\n        /* \"#utility.yul\":2791:2807   */\n      add\n        /* \"#utility.yul\":2785:2808   */\n      mload\n        /* \"#utility.yul\":2855:2858   */\n      dup5\n        /* \"#utility.yul\":2849:2853   */\n      dup3\n        /* \"#utility.yul\":2845:2859   */\n      sub\n        /* \"#utility.yul\":2838:2842   */\n      0x60\n        /* \"#utility.yul\":2833:2836   */\n      dup7\n        /* \"#utility.yul\":2829:2843   */\n      add\n        /* \"#utility.yul\":2822:2860   */\n      mstore\n        /* \"#utility.yul\":2881:2954   */\n      tag_184\n        /* \"#utility.yul\":2949:2953   */\n      dup3\n        /* \"#utility.yul\":2935:2947   */\n      dup3\n        /* \"#utility.yul\":2881:2954   */\n      tag_116\n      jump\t// in\n    tag_184:\n        /* \"#utility.yul\":2873:2954   */\n      swap2\n      pop\n        /* \"#utility.yul\":2731:2965   */\n      pop\n        /* \"#utility.yul\":3050:3054   */\n      0x80\n        /* \"#utility.yul\":3043:3048   */\n      dup4\n        /* \"#utility.yul\":3039:3055   */\n      add\n        /* \"#utility.yul\":3033:3056   */\n      mload\n        /* \"#utility.yul\":3103:3106   */\n      dup5\n        /* \"#utility.yul\":3097:3101   */\n      dup3\n        /* \"#utility.yul\":3093:3107   */\n      sub\n        /* \"#utility.yul\":3086:3090   */\n      0x80\n        /* \"#utility.yul\":3081:3084   */\n      dup7\n        /* \"#utility.yul\":3077:3091   */\n      add\n        /* \"#utility.yul\":3070:3108   */\n      mstore\n        /* \"#utility.yul\":3129:3202   */\n      tag_185\n        /* \"#utility.yul\":3197:3201   */\n      dup3\n        /* \"#utility.yul\":3183:3195   */\n      dup3\n        /* \"#utility.yul\":3129:3202   */\n      tag_116\n      jump\t// in\n    tag_185:\n        /* \"#utility.yul\":3121:3202   */\n      swap2\n      pop\n        /* \"#utility.yul\":2975:3213   */\n      pop\n        /* \"#utility.yul\":3294:3298   */\n      0xa0\n        /* \"#utility.yul\":3287:3292   */\n      dup4\n        /* \"#utility.yul\":3283:3299   */\n      add\n        /* \"#utility.yul\":3277:3300   */\n      mload\n        /* \"#utility.yul\":3313:3376   */\n      tag_186\n        /* \"#utility.yul\":3370:3374   */\n      0xa0\n        /* \"#utility.yul\":3365:3368   */\n      dup7\n        /* \"#utility.yul\":3361:3375   */\n      add\n        /* \"#utility.yul\":3347:3359   */\n      dup3\n        /* \"#utility.yul\":3313:3376   */\n      tag_108\n      jump\t// in\n    tag_186:\n        /* \"#utility.yul\":3223:3386   */\n      pop\n        /* \"#utility.yul\":3475:3479   */\n      0xc0\n        /* \"#utility.yul\":3468:3473   */\n      dup4\n        /* \"#utility.yul\":3464:3480   */\n      add\n        /* \"#utility.yul\":3458:3481   */\n      mload\n        /* \"#utility.yul\":3494:3557   */\n      tag_187\n        /* \"#utility.yul\":3551:3555   */\n      0xc0\n        /* \"#utility.yul\":3546:3549   */\n      dup7\n        /* \"#utility.yul\":3542:3556   */\n      add\n        /* \"#utility.yul\":3528:3540   */\n      dup3\n        /* \"#utility.yul\":3494:3557   */\n      tag_108\n      jump\t// in\n    tag_187:\n        /* \"#utility.yul\":3396:3567   */\n      pop\n        /* \"#utility.yul\":3584:3588   */\n      dup1\n        /* \"#utility.yul\":3577:3588   */\n      swap2\n      pop\n        /* \"#utility.yul\":2162:3594   */\n      pop\n        /* \"#utility.yul\":2042:3594   */\n      swap3\n      swap2\n      pop\n      pop\n      jump\t// out\n        /* \"#utility.yul\":3600:3868   */\n    tag_118:\n        /* \"#utility.yul\":3725:3735   */\n      0x00\n        /* \"#utility.yul\":3760:3862   */\n      tag_189\n        /* \"#utility.yul\":3858:3861   */\n      dup4\n        /* \"#utility.yul\":3850:3856   */\n      dup4\n        /* \"#utility.yul\":3760:3862   */\n      tag_117\n      jump\t// in\n    tag_189:\n        /* \"#utility.yul\":3746:3862   */\n      swap1\n      pop\n        /* \"#utility.yul\":3600:3868   */\n      swap3\n      swap2\n      pop\n      pop\n      jump\t// out\n        /* \"#utility.yul\":3874:4015   */\n    tag_119:\n        /* \"#utility.yul\":3972:3976   */\n      0x00\n        /* \"#utility.yul\":4004:4008   */\n      0x20\n        /* \"#utility.yul\":3999:4002   */\n      dup3\n        /* \"#utility.yul\":3995:4009   */\n      add\n        /* \"#utility.yul\":3987:4009   */\n      swap1\n      pop\n        /* \"#utility.yul\":3874:4015   */\n      swap2\n      swap1\n      pop\n      jump\t// out\n        /* \"#utility.yul\":4097:5232   */\n    tag_120:\n        /* \"#utility.yul\":4272:4275   */\n      0x00\n        /* \"#utility.yul\":4301:4383   */\n      tag_192\n        /* \"#utility.yul\":4377:4382   */\n      dup3\n        /* \"#utility.yul\":4301:4383   */\n      tag_104\n      jump\t// in\n    tag_192:\n        /* \"#utility.yul\":4399:4513   */\n      tag_193\n        /* \"#utility.yul\":4506:4512   */\n      dup2\n        /* \"#utility.yul\":4501:4504   */\n      dup6\n        /* \"#utility.yul\":4399:4513   */\n      tag_105\n      jump\t// in\n    tag_193:\n        /* \"#utility.yul\":4392:4513   */\n      swap4\n      pop\n        /* \"#utility.yul\":4539:4542   */\n      dup4\n        /* \"#utility.yul\":4584:4588   */\n      0x20\n        /* \"#utility.yul\":4576:4582   */\n      dup3\n        /* \"#utility.yul\":4572:4589   */\n      mul\n        /* \"#utility.yul\":4567:4570   */\n      dup6\n        /* \"#utility.yul\":4563:4590   */\n      add\n        /* \"#utility.yul\":4614:4698   */\n      tag_194\n        /* \"#utility.yul\":4692:4697   */\n      dup6\n        /* \"#utility.yul\":4614:4698   */\n      tag_106\n      jump\t// in\n    tag_194:\n        /* \"#utility.yul\":4721:4728   */\n      dup1\n        /* \"#utility.yul\":4752:4753   */\n      0x00\n        /* \"#utility.yul\":4737:5187   */\n    tag_195:\n        /* \"#utility.yul\":4762:4768   */\n      dup6\n        /* \"#utility.yul\":4759:4760   */\n      dup2\n        /* \"#utility.yul\":4756:4769   */\n      lt\n        /* \"#utility.yul\":4737:5187   */\n      iszero\n      tag_197\n      jumpi\n        /* \"#utility.yul\":4833:4842   */\n      dup5\n        /* \"#utility.yul\":4827:4831   */\n      dup5\n        /* \"#utility.yul\":4823:4843   */\n      sub\n        /* \"#utility.yul\":4818:4821   */\n      dup10\n        /* \"#utility.yul\":4811:4844   */\n      mstore\n        /* \"#utility.yul\":4884:4890   */\n      dup2\n        /* \"#utility.yul\":4878:4891   */\n      mload\n        /* \"#utility.yul\":4912:5032   */\n      tag_198\n        /* \"#utility.yul\":5027:5031   */\n      dup6\n        /* \"#utility.yul\":5012:5025   */\n      dup3\n        /* \"#utility.yul\":4912:5032   */\n      tag_118\n      jump\t// in\n    tag_198:\n        /* \"#utility.yul\":4904:5032   */\n      swap5\n      pop\n        /* \"#utility.yul\":5055:5143   */\n      tag_199\n        /* \"#utility.yul\":5136:5142   */\n      dup4\n        /* \"#utility.yul\":5055:5143   */\n      tag_119\n      jump\t// in\n    tag_199:\n        /* \"#utility.yul\":5045:5143   */\n      swap3\n      pop\n        /* \"#utility.yul\":5172:5176   */\n      0x20\n        /* \"#utility.yul\":5167:5170   */\n      dup11\n        /* \"#utility.yul\":5163:5177   */\n      add\n        /* \"#utility.yul\":5156:5177   */\n      swap10\n      pop\n        /* \"#utility.yul\":4797:5187   */\n      pop\n        /* \"#utility.yul\":4784:4785   */\n      0x01\n        /* \"#utility.yul\":4781:4782   */\n      dup2\n        /* \"#utility.yul\":4777:4786   */\n      add\n        /* \"#utility.yul\":4772:4786   */\n      swap1\n      pop\n        /* \"#utility.yul\":4737:5187   */\n      jump(tag_195)\n    tag_197:\n        /* \"#utility.yul\":4741:4755   */\n      pop\n        /* \"#utility.yul\":5203:5207   */\n      dup3\n        /* \"#utility.yul\":5196:5207   */\n      swap8\n      pop\n        /* \"#utility.yul\":5223:5226   */\n      dup8\n        /* \"#utility.yul\":5216:5226   */\n      swap6\n      pop\n        /* \"#utility.yul\":4277:5232   */\n      pop\n      pop\n      pop\n      pop\n      pop\n        /* \"#utility.yul\":4097:5232   */\n      swap3\n      swap2\n      pop\n      pop\n      jump\t// out\n        /* \"#utility.yul\":5238:5723   */\n    tag_14:\n        /* \"#utility.yul\":5437:5441   */\n      0x00\n        /* \"#utility.yul\":5475:5477   */\n      0x20\n        /* \"#utility.yul\":5464:5473   */\n      dup3\n        /* \"#utility.yul\":5460:5478   */\n      add\n        /* \"#utility.yul\":5452:5478   */\n      swap1\n      pop\n        /* \"#utility.yul\":5524:5533   */\n      dup2\n        /* \"#utility.yul\":5518:5522   */\n      dup2\n        /* \"#utility.yul\":5514:5534   */\n      sub\n        /* \"#utility.yul\":5510:5511   */\n      0x00\n        /* \"#utility.yul\":5499:5508   */\n      dup4\n        /* \"#utility.yul\":5495:5512   */\n      add\n        /* \"#utility.yul\":5488:5535   */\n      mstore\n        /* \"#utility.yul\":5552:5716   */\n      tag_201\n        /* \"#utility.yul\":5711:5715   */\n      dup2\n        /* \"#utility.yul\":5702:5708   */\n      dup5\n        /* \"#utility.yul\":5552:5716   */\n      tag_120\n      jump\t// in\n    tag_201:\n        /* \"#utility.yul\":5544:5716   */\n      swap1\n      pop\n        /* \"#utility.yul\":5238:5723   */\n      swap3\n      swap2\n      pop\n      pop\n      jump\t// out\n        /* \"#utility.yul\":5729:5847   */\n    tag_121:\n        /* \"#utility.yul\":5816:5840   */\n      tag_203\n        /* \"#utility.yul\":5834:5839   */\n      dup2\n        /* \"#utility.yul\":5816:5840   */\n      tag_107\n      jump\t// in\n    tag_203:\n        /* \"#utility.yul\":5811:5814   */\n      dup3\n        /* \"#utility.yul\":5804:5841   */\n      mstore\n        /* \"#utility.yul\":5729:5847   */\n      pop\n      pop\n      jump\t// out\n        /* \"#utility.yul\":5853:6075   */\n    tag_18:\n        /* \"#utility.yul\":5946:5950   */\n      0x00\n        /* \"#utility.yul\":5984:5986   */\n      0x20\n        /* \"#utility.yul\":5973:5982   */\n      dup3\n        /* \"#utility.yul\":5969:5987   */\n      add\n        /* \"#utility.yul\":5961:5987   */\n      swap1\n      pop\n        /* \"#utility.yul\":5997:6068   */\n      tag_205\n        /* \"#utility.yul\":6065:6066   */\n      0x00\n        /* \"#utility.yul\":6054:6063   */\n      dup4\n        /* \"#utility.yul\":6050:6067   */\n      add\n        /* \"#utility.yul\":6041:6047   */\n      dup5\n        /* \"#utility.yul\":5997:6068   */\n      tag_121\n      jump\t// in\n    tag_205:\n        /* \"#utility.yul\":5853:6075   */\n      swap3\n      swap2\n      pop\n      pop\n      jump\t// out\n        /* \"#utility.yul\":6081:6156   */\n    tag_122:\n        /* \"#utility.yul\":6114:6120   */\n      0x00\n        /* \"#utility.yul\":6147:6149   */\n      0x40\n        /* \"#utility.yul\":6141:6150   */\n      mload\n        /* \"#utility.yul\":6131:6150   */\n      swap1\n      pop\n        /* \"#utility.yul\":6081:6156   */\n      swap1\n      jump\t// out\n        /* \"#utility.yul\":6162:6279   */\n    tag_123:\n        /* \"#utility.yul\":6271:6272   */\n      0x00\n        /* \"#utility.yul\":6268:6269   */\n      dup1\n        /* \"#utility.yul\":6261:6273   */\n      revert\n        /* \"#utility.yul\":6285:6402   */\n    tag_124:\n        /* \"#utility.yul\":6394:6395   */\n      0x00\n        /* \"#utility.yul\":6391:6392   */\n      dup1\n        /* \"#utility.yul\":6384:6396   */\n      revert\n        /* \"#utility.yul\":6408:6530   */\n    tag_125:\n        /* \"#utility.yul\":6481:6505   */\n      tag_210\n        /* \"#utility.yul\":6499:6504   */\n      dup2\n        /* \"#utility.yul\":6481:6505   */\n      tag_107\n      jump\t// in\n    tag_210:\n        /* \"#utility.yul\":6474:6479   */\n      dup2\n        /* \"#utility.yul\":6471:6506   */\n      eq\n        /* \"#utility.yul\":6461:6524   */\n      tag_211\n      jumpi\n        /* \"#utility.yul\":6520:6521   */\n      0x00\n        /* \"#utility.yul\":6517:6518   */\n      dup1\n        /* \"#utility.yul\":6510:6522   */\n      revert\n        /* \"#utility.yul\":6461:6524   */\n    tag_211:\n        /* \"#utility.yul\":6408:6530   */\n      pop\n      jump\t// out\n        /* \"#utility.yul\":6536:6675   */\n    tag_126:\n        /* \"#utility.yul\":6582:6587   */\n      0x00\n        /* \"#utility.yul\":6620:6626   */\n      dup2\n        /* \"#utility.yul\":6607:6627   */\n      calldataload\n        /* \"#utility.yul\":6598:6627   */\n      swap1\n      pop\n        /* \"#utility.yul\":6636:6669   */\n      tag_213\n        /* \"#utility.yul\":6663:6668   */\n      dup2\n        /* \"#utility.yul\":6636:6669   */\n      tag_125\n      jump\t// in\n    tag_213:\n        /* \"#utility.yul\":6536:6675   */\n      swap3\n      swap2\n      pop\n      pop\n      jump\t// out\n        /* \"#utility.yul\":6681:6798   */\n    tag_127:\n        /* \"#utility.yul\":6790:6791   */\n      0x00\n        /* \"#utility.yul\":6787:6788   */\n      dup1\n        /* \"#utility.yul\":6780:6792   */\n      revert\n        /* \"#utility.yul\":6804:6921   */\n    tag_128:\n        /* \"#utility.yul\":6913:6914   */\n      0x00\n        /* \"#utility.yul\":6910:6911   */\n      dup1\n        /* \"#utility.yul\":6903:6915   */\n      revert\n        /* \"#utility.yul\":6927:7107   */\n    tag_129:\n        /* \"#utility.yul\":6975:7052   */\n      0x4e487b7100000000000000000000000000000000000000000000000000000000\n        /* \"#utility.yul\":6972:6973   */\n      0x00\n        /* \"#utility.yul\":6965:7053   */\n      mstore\n        /* \"#utility.yul\":7072:7076   */\n      0x41\n        /* \"#utility.yul\":7069:7070   */\n      0x04\n        /* \"#utility.yul\":7062:7077   */\n      mstore\n        /* \"#utility.yul\":7096:7100   */\n      0x24\n        /* \"#utility.yul\":7093:7094   */\n      0x00\n        /* \"#utility.yul\":7086:7101   */\n      revert\n        /* \"#utility.yul\":7113:7394   */\n    tag_130:\n        /* \"#utility.yul\":7196:7223   */\n      tag_218\n        /* \"#utility.yul\":7218:7222   */\n      dup3\n        /* \"#utility.yul\":7196:7223   */\n      tag_115\n      jump\t// in\n    tag_218:\n        /* \"#utility.yul\":7188:7194   */\n      dup2\n        /* \"#utility.yul\":7184:7224   */\n      add\n        /* \"#utility.yul\":7326:7332   */\n      dup2\n        /* \"#utility.yul\":7314:7324   */\n      dup2\n        /* \"#utility.yul\":7311:7333   */\n      lt\n        /* \"#utility.yul\":7290:7308   */\n      0xffffffffffffffff\n        /* \"#utility.yul\":7278:7288   */\n      dup3\n        /* \"#utility.yul\":7275:7309   */\n      gt\n        /* \"#utility.yul\":7272:7334   */\n      or\n        /* \"#utility.yul\":7269:7357   */\n      iszero\n      tag_219\n      jumpi\n        /* \"#utility.yul\":7337:7355   */\n      tag_220\n      tag_129\n      jump\t// in\n    tag_220:\n        /* \"#utility.yul\":7269:7357   */\n    tag_219:\n        /* \"#utility.yul\":7377:7387   */\n      dup1\n        /* \"#utility.yul\":7373:7375   */\n      0x40\n        /* \"#utility.yul\":7366:7388   */\n      mstore\n        /* \"#utility.yul\":7156:7394   */\n      pop\n        /* \"#utility.yul\":7113:7394   */\n      pop\n      pop\n      jump\t// out\n        /* \"#utility.yul\":7400:7529   */\n    tag_131:\n        /* \"#utility.yul\":7434:7440   */\n      0x00\n        /* \"#utility.yul\":7461:7481   */\n      tag_222\n      tag_122\n      jump\t// in\n    tag_222:\n        /* \"#utility.yul\":7451:7481   */\n      swap1\n      pop\n        /* \"#utility.yul\":7490:7523   */\n      tag_223\n        /* \"#utility.yul\":7518:7522   */\n      dup3\n        /* \"#utility.yul\":7510:7516   */\n      dup3\n        /* \"#utility.yul\":7490:7523   */\n      tag_130\n      jump\t// in\n    tag_223:\n        /* \"#utility.yul\":7400:7529   */\n      swap2\n      swap1\n      pop\n      jump\t// out\n        /* \"#utility.yul\":7535:7843   */\n    tag_132:\n        /* \"#utility.yul\":7597:7601   */\n      0x00\n        /* \"#utility.yul\":7687:7705   */\n      0xffffffffffffffff\n        /* \"#utility.yul\":7679:7685   */\n      dup3\n        /* \"#utility.yul\":7676:7706   */\n      gt\n        /* \"#utility.yul\":7673:7729   */\n      iszero\n      tag_225\n      jumpi\n        /* \"#utility.yul\":7709:7727   */\n      tag_226\n      tag_129\n      jump\t// in\n    tag_226:\n        /* \"#utility.yul\":7673:7729   */\n    tag_225:\n        /* \"#utility.yul\":7747:7776   */\n      tag_227\n        /* \"#utility.yul\":7769:7775   */\n      dup3\n        /* \"#utility.yul\":7747:7776   */\n      tag_115\n      jump\t// in\n    tag_227:\n        /* \"#utility.yul\":7739:7776   */\n      swap1\n      pop\n        /* \"#utility.yul\":7831:7835   */\n      0x20\n        /* \"#utility.yul\":7825:7829   */\n      dup2\n        /* \"#utility.yul\":7821:7836   */\n      add\n        /* \"#utility.yul\":7813:7836   */\n      swap1\n      pop\n        /* \"#utility.yul\":7535:7843   */\n      swap2\n      swap1\n      pop\n      jump\t// out\n        /* \"#utility.yul\":7849:7997   */\n    tag_133:\n        /* \"#utility.yul\":7947:7953   */\n      dup3\n        /* \"#utility.yul\":7942:7945   */\n      dup2\n        /* \"#utility.yul\":7937:7940   */\n      dup4\n        /* \"#utility.yul\":7924:7954   */\n      calldatacopy\n        /* \"#utility.yul\":7988:7989   */\n      0x00\n        /* \"#utility.yul\":7979:7985   */\n      dup4\n        /* \"#utility.yul\":7974:7977   */\n      dup4\n        /* \"#utility.yul\":7970:7986   */\n      add\n        /* \"#utility.yul\":7963:7990   */\n      mstore\n        /* \"#utility.yul\":7849:7997   */\n      pop\n      pop\n      pop\n      jump\t// out\n        /* \"#utility.yul\":8003:8428   */\n    tag_134:\n        /* \"#utility.yul\":8081:8086   */\n      0x00\n        /* \"#utility.yul\":8106:8172   */\n      tag_230\n        /* \"#utility.yul\":8122:8171   */\n      tag_231\n        /* \"#utility.yul\":8164:8170   */\n      dup5\n        /* \"#utility.yul\":8122:8171   */\n      tag_132\n      jump\t// in\n    tag_231:\n        /* \"#utility.yul\":8106:8172   */\n      tag_131\n      jump\t// in\n    tag_230:\n        /* \"#utility.yul\":8097:8172   */\n      swap1\n      pop\n        /* \"#utility.yul\":8195:8201   */\n      dup3\n        /* \"#utility.yul\":8188:8193   */\n      dup2\n        /* \"#utility.yul\":8181:8202   */\n      mstore\n        /* \"#utility.yul\":8233:8237   */\n      0x20\n        /* \"#utility.yul\":8226:8231   */\n      dup2\n        /* \"#utility.yul\":8222:8238   */\n      add\n        /* \"#utility.yul\":8271:8274   */\n      dup5\n        /* \"#utility.yul\":8262:8268   */\n      dup5\n        /* \"#utility.yul\":8257:8260   */\n      dup5\n        /* \"#utility.yul\":8253:8269   */\n      add\n        /* \"#utility.yul\":8250:8275   */\n      gt\n        /* \"#utility.yul\":8247:8359   */\n      iszero\n      tag_232\n      jumpi\n        /* \"#utility.yul\":8278:8357   */\n      tag_233\n      tag_128\n      jump\t// in\n    tag_233:\n        /* \"#utility.yul\":8247:8359   */\n    tag_232:\n        /* \"#utility.yul\":8368:8422   */\n      tag_234\n        /* \"#utility.yul\":8415:8421   */\n      dup5\n        /* \"#utility.yul\":8410:8413   */\n      dup3\n        /* \"#utility.yul\":8405:8408   */\n      dup6\n        /* \"#utility.yul\":8368:8422   */\n      tag_133\n      jump\t// in\n    tag_234:\n        /* \"#utility.yul\":8087:8428   */\n      pop\n        /* \"#utility.yul\":8003:8428   */\n      swap4\n      swap3\n      pop\n      pop\n      pop\n      jump\t// out\n        /* \"#utility.yul\":8448:8788   */\n    tag_135:\n        /* \"#utility.yul\":8504:8509   */\n      0x00\n        /* \"#utility.yul\":8553:8556   */\n      dup3\n        /* \"#utility.yul\":8546:8550   */\n      0x1f\n        /* \"#utility.yul\":8538:8544   */\n      dup4\n        /* \"#utility.yul\":8534:8551   */\n      add\n        /* \"#utility.yul\":8530:8557   */\n      slt\n        /* \"#utility.yul\":8520:8642   */\n      tag_236\n      jumpi\n        /* \"#utility.yul\":8561:8640   */\n      tag_237\n      tag_127\n      jump\t// in\n    tag_237:\n        /* \"#utility.yul\":8520:8642   */\n    tag_236:\n        /* \"#utility.yul\":8678:8684   */\n      dup2\n        /* \"#utility.yul\":8665:8685   */\n      calldataload\n        /* \"#utility.yul\":8703:8782   */\n      tag_238\n        /* \"#utility.yul\":8778:8781   */\n      dup5\n        /* \"#utility.yul\":8770:8776   */\n      dup3\n        /* \"#utility.yul\":8763:8767   */\n      0x20\n        /* \"#utility.yul\":8755:8761   */\n      dup7\n        /* \"#utility.yul\":8751:8768   */\n      add\n        /* \"#utility.yul\":8703:8782   */\n      tag_134\n      jump\t// in\n    tag_238:\n        /* \"#utility.yul\":8694:8782   */\n      swap2\n      pop\n        /* \"#utility.yul\":8510:8788   */\n      pop\n        /* \"#utility.yul\":8448:8788   */\n      swap3\n      swap2\n      pop\n      pop\n      jump\t// out\n        /* \"#utility.yul\":8794:9773   */\n    tag_21:\n        /* \"#utility.yul\":8891:8897   */\n      0x00\n        /* \"#utility.yul\":8899:8905   */\n      dup1\n        /* \"#utility.yul\":8907:8913   */\n      0x00\n        /* \"#utility.yul\":8956:8958   */\n      0x60\n        /* \"#utility.yul\":8944:8953   */\n      dup5\n        /* \"#utility.yul\":8935:8942   */\n      dup7\n        /* \"#utility.yul\":8931:8954   */\n      sub\n        /* \"#utility.yul\":8927:8959   */\n      slt\n        /* \"#utility.yul\":8924:9043   */\n      iszero\n      tag_240\n      jumpi\n        /* \"#utility.yul\":8962:9041   */\n      tag_241\n      tag_123\n      jump\t// in\n    tag_241:\n        /* \"#utility.yul\":8924:9043   */\n    tag_240:\n        /* \"#utility.yul\":9082:9083   */\n      0x00\n        /* \"#utility.yul\":9107:9160   */\n      tag_242\n        /* \"#utility.yul\":9152:9159   */\n      dup7\n        /* \"#utility.yul\":9143:9149   */\n      dup3\n        /* \"#utility.yul\":9132:9141   */\n      dup8\n        /* \"#utility.yul\":9128:9150   */\n      add\n        /* \"#utility.yul\":9107:9160   */\n      tag_126\n      jump\t// in\n    tag_242:\n        /* \"#utility.yul\":9097:9160   */\n      swap4\n      pop\n        /* \"#utility.yul\":9053:9170   */\n      pop\n        /* \"#utility.yul\":9237:9239   */\n      0x20\n        /* \"#utility.yul\":9226:9235   */\n      dup5\n        /* \"#utility.yul\":9222:9240   */\n      add\n        /* \"#utility.yul\":9209:9241   */\n      calldataload\n        /* \"#utility.yul\":9268:9286   */\n      0xffffffffffffffff\n        /* \"#utility.yul\":9260:9266   */\n      dup2\n        /* \"#utility.yul\":9257:9287   */\n      gt\n        /* \"#utility.yul\":9254:9371   */\n      iszero\n      tag_243\n      jumpi\n        /* \"#utility.yul\":9290:9369   */\n      tag_244\n      tag_124\n      jump\t// in\n    tag_244:\n        /* \"#utility.yul\":9254:9371   */\n    tag_243:\n        /* \"#utility.yul\":9395:9458   */\n      tag_245\n        /* \"#utility.yul\":9450:9457   */\n      dup7\n        /* \"#utility.yul\":9441:9447   */\n      dup3\n        /* \"#utility.yul\":9430:9439   */\n      dup8\n        /* \"#utility.yul\":9426:9448   */\n      add\n        /* \"#utility.yul\":9395:9458   */\n      tag_135\n      jump\t// in\n    tag_245:\n        /* \"#utility.yul\":9385:9458   */\n      swap3\n      pop\n        /* \"#utility.yul\":9180:9468   */\n      pop\n        /* \"#utility.yul\":9535:9537   */\n      0x40\n        /* \"#utility.yul\":9524:9533   */\n      dup5\n        /* \"#utility.yul\":9520:9538   */\n      add\n        /* \"#utility.yul\":9507:9539   */\n      calldataload\n        /* \"#utility.yul\":9566:9584   */\n      0xffffffffffffffff\n        /* \"#utility.yul\":9558:9564   */\n      dup2\n        /* \"#utility.yul\":9555:9585   */\n      gt\n        /* \"#utility.yul\":9552:9669   */\n      iszero\n      tag_246\n      jumpi\n        /* \"#utility.yul\":9588:9667   */\n      tag_247\n      tag_124\n      jump\t// in\n    tag_247:\n        /* \"#utility.yul\":9552:9669   */\n    tag_246:\n        /* \"#utility.yul\":9693:9756   */\n      tag_248\n        /* \"#utility.yul\":9748:9755   */\n      dup7\n        /* \"#utility.yul\":9739:9745   */\n      dup3\n        /* \"#utility.yul\":9728:9737   */\n      dup8\n        /* \"#utility.yul\":9724:9746   */\n      add\n        /* \"#utility.yul\":9693:9756   */\n      tag_135\n      jump\t// in\n    tag_248:\n        /* \"#utility.yul\":9683:9756   */\n      swap2\n      pop\n        /* \"#utility.yul\":9478:9766   */\n      pop\n        /* \"#utility.yul\":8794:9773   */\n      swap3\n      pop\n      swap3\n      pop\n      swap3\n      jump\t// out\n        /* \"#utility.yul\":9779:10108   */\n    tag_25:\n        /* \"#utility.yul\":9838:9844   */\n      0x00\n        /* \"#utility.yul\":9887:9889   */\n      0x20\n        /* \"#utility.yul\":9875:9884   */\n      dup3\n        /* \"#utility.yul\":9866:9873   */\n      dup5\n        /* \"#utility.yul\":9862:9885   */\n      sub\n        /* \"#utility.yul\":9858:9890   */\n      slt\n        /* \"#utility.yul\":9855:9974   */\n      iszero\n      tag_250\n      jumpi\n        /* \"#utility.yul\":9893:9972   */\n      tag_251\n      tag_123\n      jump\t// in\n    tag_251:\n        /* \"#utility.yul\":9855:9974   */\n    tag_250:\n        /* \"#utility.yul\":10013:10014   */\n      0x00\n        /* \"#utility.yul\":10038:10091   */\n      tag_252\n        /* \"#utility.yul\":10083:10090   */\n      dup5\n        /* \"#utility.yul\":10074:10080   */\n      dup3\n        /* \"#utility.yul\":10063:10072   */\n      dup6\n        /* \"#utility.yul\":10059:10081   */\n      add\n        /* \"#utility.yul\":10038:10091   */\n      tag_126\n      jump\t// in\n    tag_252:\n        /* \"#utility.yul\":10028:10091   */\n      swap2\n      pop\n        /* \"#utility.yul\":9984:10101   */\n      pop\n        /* \"#utility.yul\":9779:10108   */\n      swap3\n      swap2\n      pop\n      pop\n      jump\t// out\n        /* \"#utility.yul\":10114:10232   */\n    tag_136:\n        /* \"#utility.yul\":10201:10225   */\n      tag_254\n        /* \"#utility.yul\":10219:10224   */\n      dup2\n        /* \"#utility.yul\":10201:10225   */\n      tag_110\n      jump\t// in\n    tag_254:\n        /* \"#utility.yul\":10196:10199   */\n      dup3\n        /* \"#utility.yul\":10189:10226   */\n      mstore\n        /* \"#utility.yul\":10114:10232   */\n      pop\n      pop\n      jump\t// out\n        /* \"#utility.yul\":10238:10407   */\n    tag_137:\n        /* \"#utility.yul\":10322:10333   */\n      0x00\n        /* \"#utility.yul\":10356:10362   */\n      dup3\n        /* \"#utility.yul\":10351:10354   */\n      dup3\n        /* \"#utility.yul\":10344:10363   */\n      mstore\n        /* \"#utility.yul\":10396:10400   */\n      0x20\n        /* \"#utility.yul\":10391:10394   */\n      dup3\n        /* \"#utility.yul\":10387:10401   */\n      add\n        /* \"#utility.yul\":10372:10401   */\n      swap1\n      pop\n        /* \"#utility.yul\":10238:10407   */\n      swap3\n      swap2\n      pop\n      pop\n      jump\t// out\n        /* \"#utility.yul\":10413:10790   */\n    tag_138:\n        /* \"#utility.yul\":10501:10504   */\n      0x00\n        /* \"#utility.yul\":10529:10568   */\n      tag_257\n        /* \"#utility.yul\":10562:10567   */\n      dup3\n        /* \"#utility.yul\":10529:10568   */\n      tag_112\n      jump\t// in\n    tag_257:\n        /* \"#utility.yul\":10584:10655   */\n      tag_258\n        /* \"#utility.yul\":10648:10654   */\n      dup2\n        /* \"#utility.yul\":10643:10646   */\n      dup6\n        /* \"#utility.yul\":10584:10655   */\n      tag_137\n      jump\t// in\n    tag_258:\n        /* \"#utility.yul\":10577:10655   */\n      swap4\n      pop\n        /* \"#utility.yul\":10664:10729   */\n      tag_259\n        /* \"#utility.yul\":10722:10728   */\n      dup2\n        /* \"#utility.yul\":10717:10720   */\n      dup6\n        /* \"#utility.yul\":10710:10714   */\n      0x20\n        /* \"#utility.yul\":10703:10708   */\n      dup7\n        /* \"#utility.yul\":10699:10715   */\n      add\n        /* \"#utility.yul\":10664:10729   */\n      tag_114\n      jump\t// in\n    tag_259:\n        /* \"#utility.yul\":10754:10783   */\n      tag_260\n        /* \"#utility.yul\":10776:10782   */\n      dup2\n        /* \"#utility.yul\":10754:10783   */\n      tag_115\n      jump\t// in\n    tag_260:\n        /* \"#utility.yul\":10749:10752   */\n      dup5\n        /* \"#utility.yul\":10745:10784   */\n      add\n        /* \"#utility.yul\":10738:10784   */\n      swap2\n      pop\n        /* \"#utility.yul\":10505:10790   */\n      pop\n        /* \"#utility.yul\":10413:10790   */\n      swap3\n      swap2\n      pop\n      pop\n      jump\t// out\n        /* \"#utility.yul\":10796:11864   */\n    tag_28:\n        /* \"#utility.yul\":11097:11101   */\n      0x00\n        /* \"#utility.yul\":11135:11138   */\n      0xe0\n        /* \"#utility.yul\":11124:11133   */\n      dup3\n        /* \"#utility.yul\":11120:11139   */\n      add\n        /* \"#utility.yul\":11112:11139   */\n      swap1\n      pop\n        /* \"#utility.yul\":11149:11220   */\n      tag_262\n        /* \"#utility.yul\":11217:11218   */\n      0x00\n        /* \"#utility.yul\":11206:11215   */\n      dup4\n        /* \"#utility.yul\":11202:11219   */\n      add\n        /* \"#utility.yul\":11193:11199   */\n      dup11\n        /* \"#utility.yul\":11149:11220   */\n      tag_121\n      jump\t// in\n    tag_262:\n        /* \"#utility.yul\":11230:11302   */\n      tag_263\n        /* \"#utility.yul\":11298:11300   */\n      0x20\n        /* \"#utility.yul\":11287:11296   */\n      dup4\n        /* \"#utility.yul\":11283:11301   */\n      add\n        /* \"#utility.yul\":11274:11280   */\n      dup10\n        /* \"#utility.yul\":11230:11302   */\n      tag_136\n      jump\t// in\n    tag_263:\n        /* \"#utility.yul\":11312:11384   */\n      tag_264\n        /* \"#utility.yul\":11380:11382   */\n      0x40\n        /* \"#utility.yul\":11369:11378   */\n      dup4\n        /* \"#utility.yul\":11365:11383   */\n      add\n        /* \"#utility.yul\":11356:11362   */\n      dup9\n        /* \"#utility.yul\":11312:11384   */\n      tag_121\n      jump\t// in\n    tag_264:\n        /* \"#utility.yul\":11431:11440   */\n      dup2\n        /* \"#utility.yul\":11425:11429   */\n      dup2\n        /* \"#utility.yul\":11421:11441   */\n      sub\n        /* \"#utility.yul\":11416:11418   */\n      0x60\n        /* \"#utility.yul\":11405:11414   */\n      dup4\n        /* \"#utility.yul\":11401:11419   */\n      add\n        /* \"#utility.yul\":11394:11442   */\n      mstore\n        /* \"#utility.yul\":11459:11537   */\n      tag_265\n        /* \"#utility.yul\":11532:11536   */\n      dup2\n        /* \"#utility.yul\":11523:11529   */\n      dup8\n        /* \"#utility.yul\":11459:11537   */\n      tag_138\n      jump\t// in\n    tag_265:\n        /* \"#utility.yul\":11451:11537   */\n      swap1\n      pop\n        /* \"#utility.yul\":11585:11594   */\n      dup2\n        /* \"#utility.yul\":11579:11583   */\n      dup2\n        /* \"#utility.yul\":11575:11595   */\n      sub\n        /* \"#utility.yul\":11569:11572   */\n      0x80\n        /* \"#utility.yul\":11558:11567   */\n      dup4\n        /* \"#utility.yul\":11554:11573   */\n      add\n        /* \"#utility.yul\":11547:11596   */\n      mstore\n        /* \"#utility.yul\":11613:11691   */\n      tag_266\n        /* \"#utility.yul\":11686:11690   */\n      dup2\n        /* \"#utility.yul\":11677:11683   */\n      dup7\n        /* \"#utility.yul\":11613:11691   */\n      tag_138\n      jump\t// in\n    tag_266:\n        /* \"#utility.yul\":11605:11691   */\n      swap1\n      pop\n        /* \"#utility.yul\":11701:11774   */\n      tag_267\n        /* \"#utility.yul\":11769:11772   */\n      0xa0\n        /* \"#utility.yul\":11758:11767   */\n      dup4\n        /* \"#utility.yul\":11754:11773   */\n      add\n        /* \"#utility.yul\":11745:11751   */\n      dup6\n        /* \"#utility.yul\":11701:11774   */\n      tag_121\n      jump\t// in\n    tag_267:\n        /* \"#utility.yul\":11784:11857   */\n      tag_268\n        /* \"#utility.yul\":11852:11855   */\n      0xc0\n        /* \"#utility.yul\":11841:11850   */\n      dup4\n        /* \"#utility.yul\":11837:11856   */\n      add\n        /* \"#utility.yul\":11828:11834   */\n      dup5\n        /* \"#utility.yul\":11784:11857   */\n      tag_121\n      jump\t// in\n    tag_268:\n        /* \"#utility.yul\":10796:11864   */\n      swap9\n      swap8\n      pop\n      pop\n      pop\n      pop\n      pop\n      pop\n      pop\n      pop\n      jump\t// out\n        /* \"#utility.yul\":11942:13504   */\n    tag_139:\n        /* \"#utility.yul\":12067:12070   */\n      0x00\n        /* \"#utility.yul\":12103:12107   */\n      0xe0\n        /* \"#utility.yul\":12098:12101   */\n      dup4\n        /* \"#utility.yul\":12094:12108   */\n      add\n        /* \"#utility.yul\":12191:12195   */\n      0x00\n        /* \"#utility.yul\":12184:12189   */\n      dup4\n        /* \"#utility.yul\":12180:12196   */\n      add\n        /* \"#utility.yul\":12174:12197   */\n      mload\n        /* \"#utility.yul\":12210:12273   */\n      tag_270\n        /* \"#utility.yul\":12267:12271   */\n      0x00\n        /* \"#utility.yul\":12262:12265   */\n      dup7\n        /* \"#utility.yul\":12258:12272   */\n      add\n        /* \"#utility.yul\":12244:12256   */\n      dup3\n        /* \"#utility.yul\":12210:12273   */\n      tag_108\n      jump\t// in\n    tag_270:\n        /* \"#utility.yul\":12118:12283   */\n      pop\n        /* \"#utility.yul\":12365:12369   */\n      0x20\n        /* \"#utility.yul\":12358:12363   */\n      dup4\n        /* \"#utility.yul\":12354:12370   */\n      add\n        /* \"#utility.yul\":12348:12371   */\n      mload\n        /* \"#utility.yul\":12384:12447   */\n      tag_271\n        /* \"#utility.yul\":12441:12445   */\n      0x20\n        /* \"#utility.yul\":12436:12439   */\n      dup7\n        /* \"#utility.yul\":12432:12446   */\n      add\n        /* \"#utility.yul\":12418:12430   */\n      dup3\n        /* \"#utility.yul\":12384:12447   */\n      tag_111\n      jump\t// in\n    tag_271:\n        /* \"#utility.yul\":12293:12457   */\n      pop\n        /* \"#utility.yul\":12539:12543   */\n      0x40\n        /* \"#utility.yul\":12532:12537   */\n      dup4\n        /* \"#utility.yul\":12528:12544   */\n      add\n        /* \"#utility.yul\":12522:12545   */\n      mload\n        /* \"#utility.yul\":12558:12621   */\n      tag_272\n        /* \"#utility.yul\":12615:12619   */\n      0x40\n        /* \"#utility.yul\":12610:12613   */\n      dup7\n        /* \"#utility.yul\":12606:12620   */\n      add\n        /* \"#utility.yul\":12592:12604   */\n      dup3\n        /* \"#utility.yul\":12558:12621   */\n      tag_108\n      jump\t// in\n    tag_272:\n        /* \"#utility.yul\":12467:12631   */\n      pop\n        /* \"#utility.yul\":12712:12716   */\n      0x60\n        /* \"#utility.yul\":12705:12710   */\n      dup4\n        /* \"#utility.yul\":12701:12717   */\n      add\n        /* \"#utility.yul\":12695:12718   */\n      mload\n        /* \"#utility.yul\":12765:12768   */\n      dup5\n        /* \"#utility.yul\":12759:12763   */\n      dup3\n        /* \"#utility.yul\":12755:12769   */\n      sub\n        /* \"#utility.yul\":12748:12752   */\n      0x60\n        /* \"#utility.yul\":12743:12746   */\n      dup7\n        /* \"#utility.yul\":12739:12753   */\n      add\n        /* \"#utility.yul\":12732:12770   */\n      mstore\n        /* \"#utility.yul\":12791:12864   */\n      tag_273\n        /* \"#utility.yul\":12859:12863   */\n      dup3\n        /* \"#utility.yul\":12845:12857   */\n      dup3\n        /* \"#utility.yul\":12791:12864   */\n      tag_116\n      jump\t// in\n    tag_273:\n        /* \"#utility.yul\":12783:12864   */\n      swap2\n      pop\n        /* \"#utility.yul\":12641:12875   */\n      pop\n        /* \"#utility.yul\":12960:12964   */\n      0x80\n        /* \"#utility.yul\":12953:12958   */\n      dup4\n        /* \"#utility.yul\":12949:12965   */\n      add\n        /* \"#utility.yul\":12943:12966   */\n      mload\n        /* \"#utility.yul\":13013:13016   */\n      dup5\n        /* \"#utility.yul\":13007:13011   */\n      dup3\n        /* \"#utility.yul\":13003:13017   */\n      sub\n        /* \"#utility.yul\":12996:13000   */\n      0x80\n        /* \"#utility.yul\":12991:12994   */\n      dup7\n        /* \"#utility.yul\":12987:13001   */\n      add\n        /* \"#utility.yul\":12980:13018   */\n      mstore\n        /* \"#utility.yul\":13039:13112   */\n      tag_274\n        /* \"#utility.yul\":13107:13111   */\n      dup3\n        /* \"#utility.yul\":13093:13105   */\n      dup3\n        /* \"#utility.yul\":13039:13112   */\n      tag_116\n      jump\t// in\n    tag_274:\n        /* \"#utility.yul\":13031:13112   */\n      swap2\n      pop\n        /* \"#utility.yul\":12885:13123   */\n      pop\n        /* \"#utility.yul\":13204:13208   */\n      0xa0\n        /* \"#utility.yul\":13197:13202   */\n      dup4\n        /* \"#utility.yul\":13193:13209   */\n      add\n        /* \"#utility.yul\":13187:13210   */\n      mload\n        /* \"#utility.yul\":13223:13286   */\n      tag_275\n        /* \"#utility.yul\":13280:13284   */\n      0xa0\n        /* \"#utility.yul\":13275:13278   */\n      dup7\n        /* \"#utility.yul\":13271:13285   */\n      add\n        /* \"#utility.yul\":13257:13269   */\n      dup3\n        /* \"#utility.yul\":13223:13286   */\n      tag_108\n      jump\t// in\n    tag_275:\n        /* \"#utility.yul\":13133:13296   */\n      pop\n        /* \"#utility.yul\":13385:13389   */\n      0xc0\n        /* \"#utility.yul\":13378:13383   */\n      dup4\n        /* \"#utility.yul\":13374:13390   */\n      add\n        /* \"#utility.yul\":13368:13391   */\n      mload\n        /* \"#utility.yul\":13404:13467   */\n      tag_276\n        /* \"#utility.yul\":13461:13465   */\n      0xc0\n        /* \"#utility.yul\":13456:13459   */\n      dup7\n        /* \"#utility.yul\":13452:13466   */\n      add\n        /* \"#utility.yul\":13438:13450   */\n      dup3\n        /* \"#utility.yul\":13404:13467   */\n      tag_108\n      jump\t// in\n    tag_276:\n        /* \"#utility.yul\":13306:13477   */\n      pop\n        /* \"#utility.yul\":13494:13498   */\n      dup1\n        /* \"#utility.yul\":13487:13498   */\n      swap2\n      pop\n        /* \"#utility.yul\":12072:13504   */\n      pop\n        /* \"#utility.yul\":11942:13504   */\n      swap3\n      swap2\n      pop\n      pop\n      jump\t// out\n        /* \"#utility.yul\":13510:13895   */\n    tag_39:\n        /* \"#utility.yul\":13659:13663   */\n      0x00\n        /* \"#utility.yul\":13697:13699   */\n      0x20\n        /* \"#utility.yul\":13686:13695   */\n      dup3\n        /* \"#utility.yul\":13682:13700   */\n      add\n        /* \"#utility.yul\":13674:13700   */\n      swap1\n      pop\n        /* \"#utility.yul\":13746:13755   */\n      dup2\n        /* \"#utility.yul\":13740:13744   */\n      dup2\n        /* \"#utility.yul\":13736:13756   */\n      sub\n        /* \"#utility.yul\":13732:13733   */\n      0x00\n        /* \"#utility.yul\":13721:13730   */\n      dup4\n        /* \"#utility.yul\":13717:13734   */\n      add\n        /* \"#utility.yul\":13710:13757   */\n      mstore\n        /* \"#utility.yul\":13774:13888   */\n      tag_278\n        /* \"#utility.yul\":13883:13887   */\n      dup2\n        /* \"#utility.yul\":13874:13880   */\n      dup5\n        /* \"#utility.yul\":13774:13888   */\n      tag_139\n      jump\t// in\n    tag_278:\n        /* \"#utility.yul\":13766:13888   */\n      swap1\n      pop\n        /* \"#utility.yul\":13510:13895   */\n      swap3\n      swap2\n      pop\n      pop\n      jump\t// out\n        /* \"#utility.yul\":13901:14081   */\n    tag_140:\n        /* \"#utility.yul\":13949:14026   */\n      0x4e487b7100000000000000000000000000000000000000000000000000000000\n        /* \"#utility.yul\":13946:13947   */\n      0x00\n        /* \"#utility.yul\":13939:14027   */\n      mstore\n        /* \"#utility.yul\":14046:14050   */\n      0x22\n        /* \"#utility.yul\":14043:14044   */\n      0x04\n        /* \"#utility.yul\":14036:14051   */\n      mstore\n        /* \"#utility.yul\":14070:14074   */\n      0x24\n        /* \"#utility.yul\":14067:14068   */\n      0x00\n        /* \"#utility.yul\":14060:14075   */\n      revert\n        /* \"#utility.yul\":14087:14407   */\n    tag_45:\n        /* \"#utility.yul\":14131:14137   */\n      0x00\n        /* \"#utility.yul\":14168:14169   */\n      0x02\n        /* \"#utility.yul\":14162:14166   */\n      dup3\n        /* \"#utility.yul\":14158:14170   */\n      div\n        /* \"#utility.yul\":14148:14170   */\n      swap1\n      pop\n        /* \"#utility.yul\":14215:14216   */\n      0x01\n        /* \"#utility.yul\":14209:14213   */\n      dup3\n        /* \"#utility.yul\":14205:14217   */\n      and\n        /* \"#utility.yul\":14236:14254   */\n      dup1\n        /* \"#utility.yul\":14226:14307   */\n      tag_281\n      jumpi\n        /* \"#utility.yul\":14292:14296   */\n      0x7f\n        /* \"#utility.yul\":14284:14290   */\n      dup3\n        /* \"#utility.yul\":14280:14297   */\n      and\n        /* \"#utility.yul\":14270:14297   */\n      swap2\n      pop\n        /* \"#utility.yul\":14226:14307   */\n    tag_281:\n        /* \"#utility.yul\":14354:14356   */\n      0x20\n        /* \"#utility.yul\":14346:14352   */\n      dup3\n        /* \"#utility.yul\":14343:14357   */\n      lt\n        /* \"#utility.yul\":14323:14341   */\n      dup2\n        /* \"#utility.yul\":14320:14358   */\n      sub\n        /* \"#utility.yul\":14317:14401   */\n      tag_282\n      jumpi\n        /* \"#utility.yul\":14373:14391   */\n      tag_283\n      tag_140\n      jump\t// in\n    tag_283:\n        /* \"#utility.yul\":14317:14401   */\n    tag_282:\n        /* \"#utility.yul\":14138:14407   */\n      pop\n        /* \"#utility.yul\":14087:14407   */\n      swap2\n      swap1\n      pop\n      jump\t// out\n        /* \"#utility.yul\":14413:14593   */\n    tag_141:\n        /* \"#utility.yul\":14461:14538   */\n      0x4e487b7100000000000000000000000000000000000000000000000000000000\n        /* \"#utility.yul\":14458:14459   */\n      0x00\n        /* \"#utility.yul\":14451:14539   */\n      mstore\n        /* \"#utility.yul\":14558:14562   */\n      0x11\n        /* \"#utility.yul\":14555:14556   */\n      0x04\n        /* \"#utility.yul\":14548:14563   */\n      mstore\n        /* \"#utility.yul\":14582:14586   */\n      0x24\n        /* \"#utility.yul\":14579:14580   */\n      0x00\n        /* \"#utility.yul\":14572:14587   */\n      revert\n        /* \"#utility.yul\":14599:14832   */\n    tag_57:\n        /* \"#utility.yul\":14638:14641   */\n      0x00\n        /* \"#utility.yul\":14661:14685   */\n      tag_286\n        /* \"#utility.yul\":14679:14684   */\n      dup3\n        /* \"#utility.yul\":14661:14685   */\n      tag_107\n      jump\t// in\n    tag_286:\n        /* \"#utility.yul\":14652:14685   */\n      swap2\n      pop\n        /* \"#utility.yul\":14707:14773   */\n      0xffffffffffffffffffffffffffffffffffffffffffffffffffffffffffffffff\n        /* \"#utility.yul\":14700:14705   */\n      dup3\n        /* \"#utility.yul\":14697:14774   */\n      sub\n        /* \"#utility.yul\":14694:14797   */\n      tag_287\n      jumpi\n        /* \"#utility.yul\":14777:14795   */\n      tag_288\n      tag_141\n      jump\t// in\n    tag_288:\n        /* \"#utility.yul\":14694:14797   */\n    tag_287:\n        /* \"#utility.yul\":14824:14825   */\n      0x01\n        /* \"#utility.yul\":14817:14822   */\n      dup3\n        /* \"#utility.yul\":14813:14826   */\n      add\n        /* \"#utility.yul\":14806:14826   */\n      swap1\n      pop\n        /* \"#utility.yul\":14599:14832   */\n      swap2\n      swap1\n      pop\n      jump\t// out\n        /* \"#utility.yul\":14838:15029   */\n    tag_59:\n        /* \"#utility.yul\":14878:14881   */\n      0x00\n        /* \"#utility.yul\":14897:14917   */\n      tag_290\n        /* \"#utility.yul\":14915:14916   */\n      dup3\n        /* \"#utility.yul\":14897:14917   */\n      tag_107\n      jump\t// in\n    tag_290:\n        /* \"#utility.yul\":14892:14917   */\n      swap2\n      pop\n        /* \"#utility.yul\":14931:14951   */\n      tag_291\n        /* \"#utility.yul\":14949:14950   */\n      dup4\n        /* \"#utility.yul\":14931:14951   */\n      tag_107\n      jump\t// in\n    tag_291:\n        /* \"#utility.yul\":14926:14951   */\n      swap3\n      pop\n        /* \"#utility.yul\":14974:14975   */\n      dup3\n        /* \"#utility.yul\":14971:14972   */\n      dup3\n        /* \"#utility.yul\":14967:14976   */\n      add\n        /* \"#utility.yul\":14960:14976   */\n      swap1\n      pop\n        /* \"#utility.yul\":14995:14998   */\n      dup1\n        /* \"#utility.yul\":14992:14993   */\n      dup3\n        /* \"#utility.yul\":14989:14999   */\n      gt\n        /* \"#utility.yul\":14986:15022   */\n      iszero\n      tag_292\n      jumpi\n        /* \"#utility.yul\":15002:15020   */\n      tag_293\n      tag_141\n      jump\t// in\n    tag_293:\n        /* \"#utility.yul\":14986:15022   */\n    tag_292:\n        /* \"#utility.yul\":14838:15029   */\n      swap3\n      swap2\n      pop\n      pop\n      jump\t// out\n        /* \"#utility.yul\":15035:15176   */\n    tag_142:\n        /* \"#utility.yul\":15084:15088   */\n      0x00\n        /* \"#utility.yul\":15107:15110   */\n      dup2\n        /* \"#utility.yul\":15099:15110   */\n      swap1\n      pop\n        /* \"#utility.yul\":15130:15133   */\n      dup2\n        /* \"#utility.yul\":15127:15128   */\n      0x00\n        /* \"#utility.yul\":15120:15134   */\n      mstore\n        /* \"#utility.yul\":15164:15168   */\n      0x20\n        /* \"#utility.yul\":15161:15162   */\n      0x00\n        /* \"#utility.yul\":15151:15169   */\n      keccak256\n        /* \"#utility.yul\":15143:15169   */\n      swap1\n      pop\n        /* \"#utility.yul\":15035:15176   */\n      swap2\n      swap1\n      pop\n      jump\t// out\n        /* \"#utility.yul\":15182:15275   */\n    tag_143:\n        /* \"#utility.yul\":15219:15225   */\n      0x00\n        /* \"#utility.yul\":15266:15268   */\n      0x20\n        /* \"#utility.yul\":15261:15263   */\n      0x1f\n        /* \"#utility.yul\":15254:15259   */\n      dup4\n        /* \"#utility.yul\":15250:15264   */\n      add\n        /* \"#utility.yul\":15246:15269   */\n      div\n        /* \"#utility.yul\":15236:15269   */\n      swap1\n      pop\n        /* \"#utility.yul\":15182:15275   */\n      swap2\n      swap1\n      pop\n      jump\t// out\n        /* \"#utility.yul\":15281:15388   */\n    tag_144:\n        /* \"#utility.yul\":15325:15333   */\n      0x00\n        /* \"#utility.yul\":15375:15380   */\n      dup3\n        /* \"#utility.yul\":15369:15373   */\n      dup3\n        /* \"#utility.yul\":15365:15381   */\n      shl\n        /* \"#utility.yul\":15344:15381   */\n      swap1\n      pop\n        /* \"#utility.yul\":15281:15388   */\n      swap3\n      swap2\n      pop\n      pop\n      jump\t// out\n        /* \"#utility.yul\":15394:15787   */\n    tag_145:\n        /* \"#utility.yul\":15463:15469   */\n      0x00\n        /* \"#utility.yul\":15513:15514   */\n      0x08\n        /* \"#utility.yul\":15501:15511   */\n      dup4\n        /* \"#utility.yul\":15497:15515   */\n      mul\n        /* \"#utility.yul\":15536:15633   */\n      tag_298\n        /* \"#utility.yul\":15566:15632   */\n      0xffffffffffffffffffffffffffffffffffffffffffffffffffffffffffffffff\n        /* \"#utility.yul\":15555:15564   */\n      dup3\n        /* \"#utility.yul\":15536:15633   */\n      tag_144\n      jump\t// in\n    tag_298:\n        /* \"#utility.yul\":15654:15693   */\n      tag_299\n        /* \"#utility.yul\":15684:15692   */\n      dup7\n        /* \"#utility.yul\":15673:15682   */\n      dup4\n        /* \"#utility.yul\":15654:15693   */\n      tag_144\n      jump\t// in\n    tag_299:\n        /* \"#utility.yul\":15642:15693   */\n      swap6\n      pop\n        /* \"#utility.yul\":15726:15730   */\n      dup1\n        /* \"#utility.yul\":15722:15731   */\n      not\n        /* \"#utility.yul\":15715:15720   */\n      dup5\n        /* \"#utility.yul\":15711:15732   */\n      and\n        /* \"#utility.yul\":15702:15732   */\n      swap4\n      pop\n        /* \"#utility.yul\":15775:15779   */\n      dup1\n        /* \"#utility.yul\":15765:15773   */\n      dup7\n        /* \"#utility.yul\":15761:15780   */\n      and\n        /* \"#utility.yul\":15754:15759   */\n      dup5\n        /* \"#utility.yul\":15751:15781   */\n      or\n        /* \"#utility.yul\":15741:15781   */\n      swap3\n      pop\n        /* \"#utility.yul\":15470:15787   */\n      pop\n      pop\n        /* \"#utility.yul\":15394:15787   */\n      swap4\n      swap3\n      pop\n      pop\n      pop\n      jump\t// out\n        /* \"#utility.yul\":15793:15853   */\n    tag_146:\n        /* \"#utility.yul\":15821:15824   */\n      0x00\n        /* \"#utility.yul\":15842:15847   */\n      dup2\n        /* \"#utility.yul\":15835:15847   */\n      swap1\n      pop\n        /* \"#utility.yul\":15793:15853   */\n      swap2\n      swap1\n      pop\n      jump\t// out\n        /* \"#utility.yul\":15859:16001   */\n    tag_147:\n        /* \"#utility.yul\":15909:15918   */\n      0x00\n        /* \"#utility.yul\":15942:15995   */\n      tag_302\n        /* \"#utility.yul\":15960:15994   */\n      tag_303\n        /* \"#utility.yul\":15969:15993   */\n      tag_304\n        /* \"#utility.yul\":15987:15992   */\n      dup5\n        /* \"#utility.yul\":15969:15993   */\n      tag_107\n      jump\t// in\n    tag_304:\n        /* \"#utility.yul\":15960:15994   */\n      tag_146\n      jump\t// in\n    tag_303:\n        /* \"#utility.yul\":15942:15995   */\n      tag_107\n      jump\t// in\n    tag_302:\n        /* \"#utility.yul\":15929:15995   */\n      swap1\n      pop\n        /* \"#utility.yul\":15859:16001   */\n      swap2\n      swap1\n      pop\n      jump\t// out\n        /* \"#utility.yul\":16007:16082   */\n    tag_148:\n        /* \"#utility.yul\":16050:16053   */\n      0x00\n        /* \"#utility.yul\":16071:16076   */\n      dup2\n        /* \"#utility.yul\":16064:16076   */\n      swap1\n      pop\n        /* \"#utility.yul\":16007:16082   */\n      swap2\n      swap1\n      pop\n      jump\t// out\n        /* \"#utility.yul\":16088:16357   */\n    tag_149:\n        /* \"#utility.yul\":16198:16237   */\n      tag_307\n        /* \"#utility.yul\":16229:16236   */\n      dup4\n        /* \"#utility.yul\":16198:16237   */\n      tag_147\n      jump\t// in\n    tag_307:\n        /* \"#utility.yul\":16259:16350   */\n      tag_308\n        /* \"#utility.yul\":16308:16349   */\n      tag_309\n        /* \"#utility.yul\":16332:16348   */\n      dup3\n        /* \"#utility.yul\":16308:16349   */\n      tag_148\n      jump\t// in\n    tag_309:\n        /* \"#utility.yul\":16300:16306   */\n      dup5\n        /* \"#utility.yul\":16293:16297   */\n      dup5\n        /* \"#utility.yul\":16287:16298   */\n      sload\n        /* \"#utility.yul\":16259:16350   */\n      tag_145\n      jump\t// in\n    tag_308:\n        /* \"#utility.yul\":16253:16257   */\n      dup3\n        /* \"#utility.yul\":16246:16351   */\n      sstore\n        /* \"#utility.yul\":16164:16357   */\n      pop\n        /* \"#utility.yul\":16088:16357   */\n      pop\n      pop\n      pop\n      jump\t// out\n        /* \"#utility.yul\":16363:16436   */\n    tag_150:\n        /* \"#utility.yul\":16408:16411   */\n      0x00\n        /* \"#utility.yul\":16363:16436   */\n      swap1\n      jump\t// out\n        /* \"#utility.yul\":16442:16631   */\n    tag_151:\n        /* \"#utility.yul\":16519:16551   */\n      tag_312\n      tag_150\n      jump\t// in\n    tag_312:\n        /* \"#utility.yul\":16560:16625   */\n      tag_313\n        /* \"#utility.yul\":16618:16624   */\n      dup2\n        /* \"#utility.yul\":16610:16616   */\n      dup5\n        /* \"#utility.yul\":16604:16608   */\n      dup5\n        /* \"#utility.yul\":16560:16625   */\n      tag_149\n      jump\t// in\n    tag_313:\n        /* \"#utility.yul\":16495:16631   */\n      pop\n        /* \"#utility.yul\":16442:16631   */\n      pop\n      pop\n      jump\t// out\n        /* \"#utility.yul\":16637:16823   */\n    tag_152:\n        /* \"#utility.yul\":16697:16817   */\n    tag_315:\n        /* \"#utility.yul\":16714:16717   */\n      dup2\n        /* \"#utility.yul\":16707:16712   */\n      dup2\n        /* \"#utility.yul\":16704:16718   */\n      lt\n        /* \"#utility.yul\":16697:16817   */\n      iszero\n      tag_317\n      jumpi\n        /* \"#utility.yul\":16768:16807   */\n      tag_318\n        /* \"#utility.yul\":16805:16806   */\n      0x00\n        /* \"#utility.yul\":16798:16803   */\n      dup3\n        /* \"#utility.yul\":16768:16807   */\n      tag_151\n      jump\t// in\n    tag_318:\n        /* \"#utility.yul\":16741:16742   */\n      0x01\n        /* \"#utility.yul\":16734:16739   */\n      dup2\n        /* \"#utility.yul\":16730:16743   */\n      add\n        /* \"#utility.yul\":16721:16743   */\n      swap1\n      pop\n        /* \"#utility.yul\":16697:16817   */\n      jump(tag_315)\n    tag_317:\n        /* \"#utility.yul\":16637:16823   */\n      pop\n      pop\n      jump\t// out\n        /* \"#utility.yul\":16829:17372   */\n    tag_153:\n        /* \"#utility.yul\":16930:16932   */\n      0x1f\n        /* \"#utility.yul\":16925:16928   */\n      dup3\n        /* \"#utility.yul\":16922:16933   */\n      gt\n        /* \"#utility.yul\":16919:17365   */\n      iszero\n      tag_320\n      jumpi\n        /* \"#utility.yul\":16964:17002   */\n      tag_321\n        /* \"#utility.yul\":16996:17001   */\n      dup2\n        /* \"#utility.yul\":16964:17002   */\n      tag_142\n      jump\t// in\n    tag_321:\n        /* \"#utility.yul\":17048:17077   */\n      tag_322\n        /* \"#utility.yul\":17066:17076   */\n      dup5\n        /* \"#utility.yul\":17048:17077   */\n      tag_143\n      jump\t// in\n    tag_322:\n        /* \"#utility.yul\":17038:17046   */\n      dup2\n        /* \"#utility.yul\":17034:17078   */\n      add\n        /* \"#utility.yul\":17231:17233   */\n      0x20\n        /* \"#utility.yul\":17219:17229   */\n      dup6\n        /* \"#utility.yul\":17216:17234   */\n      lt\n        /* \"#utility.yul\":17213:17262   */\n      iszero\n      tag_323\n      jumpi\n        /* \"#utility.yul\":17252:17260   */\n      dup2\n        /* \"#utility.yul\":17237:17260   */\n      swap1\n      pop\n        /* \"#utility.yul\":17213:17262   */\n    tag_323:\n        /* \"#utility.yul\":17275:17355   */\n      tag_324\n        /* \"#utility.yul\":17331:17353   */\n      tag_325\n        /* \"#utility.yul\":17349:17352   */\n      dup6\n        /* \"#utility.yul\":17331:17353   */\n      tag_143\n      jump\t// in\n    tag_325:\n        /* \"#utility.yul\":17321:17329   */\n      dup4\n        /* \"#utility.yul\":17317:17354   */\n      add\n        /* \"#utility.yul\":17304:17315   */\n      dup3\n        /* \"#utility.yul\":17275:17355   */\n      tag_152\n      jump\t// in\n    tag_324:\n        /* \"#utility.yul\":16934:17365   */\n      pop\n      pop\n        /* \"#utility.yul\":16919:17365   */\n    tag_320:\n        /* \"#utility.yul\":16829:17372   */\n      pop\n      pop\n      pop\n      jump\t// out\n        /* \"#utility.yul\":17378:17495   */\n    tag_154:\n        /* \"#utility.yul\":17432:17440   */\n      0x00\n        /* \"#utility.yul\":17482:17487   */\n      dup3\n        /* \"#utility.yul\":17476:17480   */\n      dup3\n        /* \"#utility.yul\":17472:17488   */\n      shr\n        /* \"#utility.yul\":17451:17488   */\n      swap1\n      pop\n        /* \"#utility.yul\":17378:17495   */\n      swap3\n      swap2\n      pop\n      pop\n      jump\t// out\n        /* \"#utility.yul\":17501:17670   */\n    tag_155:\n        /* \"#utility.yul\":17545:17551   */\n      0x00\n        /* \"#utility.yul\":17578:17629   */\n      tag_328\n        /* \"#utility.yul\":17626:17627   */\n      0x00\n        /* \"#utility.yul\":17622:17628   */\n      not\n        /* \"#utility.yul\":17614:17619   */\n      dup5\n        /* \"#utility.yul\":17611:17612   */\n      0x08\n        /* \"#utility.yul\":17607:17620   */\n      mul\n        /* \"#utility.yul\":17578:17629   */\n      tag_154\n      jump\t// in\n    tag_328:\n        /* \"#utility.yul\":17574:17630   */\n      not\n        /* \"#utility.yul\":17659:17663   */\n      dup1\n        /* \"#utility.yul\":17653:17657   */\n      dup4\n        /* \"#utility.yul\":17649:17664   */\n      and\n        /* \"#utility.yul\":17639:17664   */\n      swap2\n      pop\n        /* \"#utility.yul\":17552:17670   */\n      pop\n        /* \"#utility.yul\":17501:17670   */\n      swap3\n      swap2\n      pop\n      pop\n      jump\t// out\n        /* \"#utility.yul\":17675:17970   */\n    tag_156:\n        /* \"#utility.yul\":17751:17755   */\n      0x00\n        /* \"#utility.yul\":17897:17926   */\n      tag_330\n        /* \"#utility.yul\":17922:17925   */\n      dup4\n        /* \"#utility.yul\":17916:17920   */\n      dup4\n        /* \"#utility.yul\":17897:17926   */\n      tag_155\n      jump\t// in\n    tag_330:\n        /* \"#utility.yul\":17889:17926   */\n      swap2\n      pop\n        /* \"#utility.yul\":17959:17962   */\n      dup3\n        /* \"#utility.yul\":17956:17957   */\n      0x02\n        /* \"#utility.yul\":17952:17963   */\n      mul\n        /* \"#utility.yul\":17946:17950   */\n      dup3\n        /* \"#utility.yul\":17943:17964   */\n      or\n        /* \"#utility.yul\":17935:17964   */\n      swap1\n      pop\n        /* \"#utility.yul\":17675:17970   */\n      swap3\n      swap2\n      pop\n      pop\n      jump\t// out\n        /* \"#utility.yul\":17975:19370   */\n    tag_62:\n        /* \"#utility.yul\":18092:18129   */\n      tag_332\n        /* \"#utility.yul\":18125:18128   */\n      dup3\n        /* \"#utility.yul\":18092:18129   */\n      tag_112\n      jump\t// in\n    tag_332:\n        /* \"#utility.yul\":18194:18212   */\n      0xffffffffffffffff\n        /* \"#utility.yul\":18186:18192   */\n      dup2\n        /* \"#utility.yul\":18183:18213   */\n      gt\n        /* \"#utility.yul\":18180:18236   */\n      iszero\n      tag_333\n      jumpi\n        /* \"#utility.yul\":18216:18234   */\n      tag_334\n      tag_129\n      jump\t// in\n    tag_334:\n        /* \"#utility.yul\":18180:18236   */\n    tag_333:\n        /* \"#utility.yul\":18260:18298   */\n      tag_335\n        /* \"#utility.yul\":18292:18296   */\n      dup3\n        /* \"#utility.yul\":18286:18297   */\n      sload\n        /* \"#utility.yul\":18260:18298   */\n      tag_45\n      jump\t// in\n    tag_335:\n        /* \"#utility.yul\":18345:18412   */\n      tag_336\n        /* \"#utility.yul\":18405:18411   */\n      dup3\n        /* \"#utility.yul\":18397:18403   */\n      dup3\n        /* \"#utility.yul\":18391:18395   */\n      dup6\n        /* \"#utility.yul\":18345:18412   */\n      tag_153\n      jump\t// in\n    tag_336:\n        /* \"#utility.yul\":18439:18440   */\n      0x00\n        /* \"#utility.yul\":18463:18467   */\n      0x20\n        /* \"#utility.yul\":18450:18467   */\n      swap1\n      pop\n        /* \"#utility.yul\":18495:18497   */\n      0x1f\n        /* \"#utility.yul\":18487:18493   */\n      dup4\n        /* \"#utility.yul\":18484:18498   */\n      gt\n        /* \"#utility.yul\":18512:18513   */\n      0x01\n        /* \"#utility.yul\":18507:19125   */\n      dup2\n      eq\n      tag_338\n      jumpi\n        /* \"#utility.yul\":19169:19170   */\n      0x00\n        /* \"#utility.yul\":19186:19192   */\n      dup5\n        /* \"#utility.yul\":19183:19260   */\n      iszero\n      tag_339\n      jumpi\n        /* \"#utility.yul\":19235:19244   */\n      dup3\n        /* \"#utility.yul\":19230:19233   */\n      dup8\n        /* \"#utility.yul\":19226:19245   */\n      add\n        /* \"#utility.yul\":19220:19246   */\n      mload\n        /* \"#utility.yul\":19211:19246   */\n      swap1\n      pop\n        /* \"#utility.yul\":19183:19260   */\n    tag_339:\n        /* \"#utility.yul\":19286:19353   */\n      tag_340\n        /* \"#utility.yul\":19346:19352   */\n      dup6\n        /* \"#utility.yul\":19339:19344   */\n      dup3\n        /* \"#utility.yul\":19286:19353   */\n      tag_156\n      jump\t// in\n    tag_340:\n        /* \"#utility.yul\":19280:19284   */\n      dup7\n        /* \"#utility.yul\":19273:19354   */\n      sstore\n        /* \"#utility.yul\":19142:19364   */\n      pop\n        /* \"#utility.yul\":18477:19364   */\n      jump(tag_337)\n        /* \"#utility.yul\":18507:19125   */\n    tag_338:\n        /* \"#utility.yul\":18559:18563   */\n      0x1f\n        /* \"#utility.yul\":18555:18564   */\n      not\n        /* \"#utility.yul\":18547:18553   */\n      dup5\n        /* \"#utility.yul\":18543:18565   */\n      and\n        /* \"#utility.yul\":18593:18630   */\n      tag_341\n        /* \"#utility.yul\":18625:18629   */\n      dup7\n        /* \"#utility.yul\":18593:18630   */\n      tag_142\n      jump\t// in\n    tag_341:\n        /* \"#utility.yul\":18652:18653   */\n      0x00\n        /* \"#utility.yul\":18666:18874   */\n    tag_342:\n        /* \"#utility.yul\":18680:18687   */\n      dup3\n        /* \"#utility.yul\":18677:18678   */\n      dup2\n        /* \"#utility.yul\":18674:18688   */\n      lt\n        /* \"#utility.yul\":18666:18874   */\n      iszero\n      tag_344\n      jumpi\n        /* \"#utility.yul\":18759:18768   */\n      dup5\n        /* \"#utility.yul\":18754:18757   */\n      dup10\n        /* \"#utility.yul\":18750:18769   */\n      add\n        /* \"#utility.yul\":18744:18770   */\n      mload\n        /* \"#utility.yul\":18736:18742   */\n      dup3\n        /* \"#utility.yul\":18729:18771   */\n      sstore\n        /* \"#utility.yul\":18810:18811   */\n      0x01\n        /* \"#utility.yul\":18802:18808   */\n      dup3\n        /* \"#utility.yul\":18798:18812   */\n      add\n        /* \"#utility.yul\":18788:18812   */\n      swap2\n      pop\n        /* \"#utility.yul\":18857:18859   */\n      0x20\n        /* \"#utility.yul\":18846:18855   */\n      dup6\n        /* \"#utility.yul\":18842:18860   */\n      add\n        /* \"#utility.yul\":18829:18860   */\n      swap5\n      pop\n        /* \"#utility.yul\":18703:18707   */\n      0x20\n        /* \"#utility.yul\":18700:18701   */\n      dup2\n        /* \"#utility.yul\":18696:18708   */\n      add\n        /* \"#utility.yul\":18691:18708   */\n      swap1\n      pop\n        /* \"#utility.yul\":18666:18874   */\n      jump(tag_342)\n    tag_344:\n        /* \"#utility.yul\":18902:18908   */\n      dup7\n        /* \"#utility.yul\":18893:18900   */\n      dup4\n        /* \"#utility.yul\":18890:18909   */\n      lt\n        /* \"#utility.yul\":18887:19066   */\n      iszero\n      tag_345\n      jumpi\n        /* \"#utility.yul\":18960:18969   */\n      dup5\n        /* \"#utility.yul\":18955:18958   */\n      dup10\n        /* \"#utility.yul\":18951:18970   */\n      add\n        /* \"#utility.yul\":18945:18971   */\n      mload\n        /* \"#utility.yul\":19003:19051   */\n      tag_346\n        /* \"#utility.yul\":19045:19049   */\n      0x1f\n        /* \"#utility.yul\":19037:19043   */\n      dup10\n        /* \"#utility.yul\":19033:19050   */\n      and\n        /* \"#utility.yul\":19022:19031   */\n      dup3\n        /* \"#utility.yul\":19003:19051   */\n      tag_155\n      jump\t// in\n    tag_346:\n        /* \"#utility.yul\":18995:19001   */\n      dup4\n        /* \"#utility.yul\":18988:19052   */\n      sstore\n        /* \"#utility.yul\":18910:19066   */\n      pop\n        /* \"#utility.yul\":18887:19066   */\n    tag_345:\n        /* \"#utility.yul\":19112:19113   */\n      0x01\n        /* \"#utility.yul\":19108:19109   */\n      0x02\n        /* \"#utility.yul\":19100:19106   */\n      dup9\n        /* \"#utility.yul\":19096:19110   */\n      mul\n        /* \"#utility.yul\":19092:19114   */\n      add\n        /* \"#utility.yul\":19086:19090   */\n      dup9\n        /* \"#utility.yul\":19079:19115   */\n      sstore\n        /* \"#utility.yul\":18514:19125   */\n      pop\n      pop\n      pop\n        /* \"#utility.yul\":18477:19364   */\n    tag_337:\n      pop\n        /* \"#utility.yul\":18067:19370   */\n      pop\n      pop\n      pop\n        /* \"#utility.yul\":17975:19370   */\n      pop\n      pop\n      jump\t// out\n        /* \"#utility.yul\":19376:19553   */\n    tag_157:\n        /* \"#utility.yul\":19516:19545   */\n      0x596f7572206163636f756e742062616c616e6365206973206c6f770000000000\n        /* \"#utility.yul\":19512:19513   */\n      0x00\n        /* \"#utility.yul\":19504:19510   */\n      dup3\n        /* \"#utility.yul\":19500:19514   */\n      add\n        /* \"#utility.yul\":19493:19546   */\n      mstore\n        /* \"#utility.yul\":19376:19553   */\n      pop\n      jump\t// out\n        /* \"#utility.yul\":19559:19925   */\n    tag_158:\n        /* \"#utility.yul\":19701:19704   */\n      0x00\n        /* \"#utility.yul\":19722:19789   */\n      tag_349\n        /* \"#utility.yul\":19786:19788   */\n      0x1b\n        /* \"#utility.yul\":19781:19784   */\n      dup4\n        /* \"#utility.yul\":19722:19789   */\n      tag_137\n      jump\t// in\n    tag_349:\n        /* \"#utility.yul\":19715:19789   */\n      swap2\n      pop\n        /* \"#utility.yul\":19798:19891   */\n      tag_350\n        /* \"#utility.yul\":19887:19890   */\n      dup3\n        /* \"#utility.yul\":19798:19891   */\n      tag_157\n      jump\t// in\n    tag_350:\n        /* \"#utility.yul\":19916:19918   */\n      0x20\n        /* \"#utility.yul\":19911:19914   */\n      dup3\n        /* \"#utility.yul\":19907:19919   */\n      add\n        /* \"#utility.yul\":19900:19919   */\n      swap1\n      pop\n        /* \"#utility.yul\":19559:19925   */\n      swap2\n      swap1\n      pop\n      jump\t// out\n        /* \"#utility.yul\":19931:20350   */\n    tag_79:\n        /* \"#utility.yul\":20097:20101   */\n      0x00\n        /* \"#utility.yul\":20135:20137   */\n      0x20\n        /* \"#utility.yul\":20124:20133   */\n      dup3\n        /* \"#utility.yul\":20120:20138   */\n      add\n        /* \"#utility.yul\":20112:20138   */\n      swap1\n      pop\n        /* \"#utility.yul\":20184:20193   */\n      dup2\n        /* \"#utility.yul\":20178:20182   */\n      dup2\n        /* \"#utility.yul\":20174:20194   */\n      sub\n        /* \"#utility.yul\":20170:20171   */\n      0x00\n        /* \"#utility.yul\":20159:20168   */\n      dup4\n        /* \"#utility.yul\":20155:20172   */\n      add\n        /* \"#utility.yul\":20148:20195   */\n      mstore\n        /* \"#utility.yul\":20212:20343   */\n      tag_352\n        /* \"#utility.yul\":20338:20342   */\n      dup2\n        /* \"#utility.yul\":20212:20343   */\n      tag_158\n      jump\t// in\n    tag_352:\n        /* \"#utility.yul\":20204:20343   */\n      swap1\n      pop\n        /* \"#utility.yul\":19931:20350   */\n      swap2\n      swap1\n      pop\n      jump\t// out\n        /* \"#utility.yul\":20356:20550   */\n    tag_83:\n        /* \"#utility.yul\":20396:20400   */\n      0x00\n        /* \"#utility.yul\":20416:20436   */\n      tag_354\n        /* \"#utility.yul\":20434:20435   */\n      dup3\n        /* \"#utility.yul\":20416:20436   */\n      tag_107\n      jump\t// in\n    tag_354:\n        /* \"#utility.yul\":20411:20436   */\n      swap2\n      pop\n        /* \"#utility.yul\":20450:20470   */\n      tag_355\n        /* \"#utility.yul\":20468:20469   */\n      dup4\n        /* \"#utility.yul\":20450:20470   */\n      tag_107\n      jump\t// in\n    tag_355:\n        /* \"#utility.yul\":20445:20470   */\n      swap3\n      pop\n        /* \"#utility.yul\":20494:20495   */\n      dup3\n        /* \"#utility.yul\":20491:20492   */\n      dup3\n        /* \"#utility.yul\":20487:20496   */\n      sub\n        /* \"#utility.yul\":20479:20496   */\n      swap1\n      pop\n        /* \"#utility.yul\":20518:20519   */\n      dup2\n        /* \"#utility.yul\":20512:20516   */\n      dup2\n        /* \"#utility.yul\":20509:20520   */\n      gt\n        /* \"#utility.yul\":20506:20543   */\n      iszero\n      tag_356\n      jumpi\n        /* \"#utility.yul\":20523:20541   */\n      tag_357\n      tag_141\n      jump\t// in\n    tag_357:\n        /* \"#utility.yul\":20506:20543   */\n    tag_356:\n        /* \"#utility.yul\":20356:20550   */\n      swap3\n      swap2\n      pop\n      pop\n      jump\t// out\n        /* \"#utility.yul\":20556:20736   */\n    tag_92:\n        /* \"#utility.yul\":20604:20681   */\n      0x4e487b7100000000000000000000000000000000000000000000000000000000\n        /* \"#utility.yul\":20601:20602   */\n      0x00\n        /* \"#utility.yul\":20594:20682   */\n      mstore\n        /* \"#utility.yul\":20701:20705   */\n      0x32\n        /* \"#utility.yul\":20698:20699   */\n      0x04\n        /* \"#utility.yul\":20691:20706   */\n      mstore\n        /* \"#utility.yul\":20725:20729   */\n      0x24\n        /* \"#utility.yul\":20722:20723   */\n      0x00\n        /* \"#utility.yul\":20715:20730   */\n      revert\n\n    auxdata: 0xa264697066735822122048eadc430b90ef151cafd7151f0b06a96785eabb014f190ef0c362af173bc1c164736f6c634300081a0033\n}\n",
				"bytecode": {
					"linkReferences": {},
					"object": "6080604052348015600e575f80fd5b506114628061001c5f395ff3fe608060405234801561000f575f80fd5b506004361061007b575f3560e01c8063983118751161005957806398311875146100d75780639a493e751461010d578063bf15276514610129578063e6d7d14e146101475761007b565b80632d686b201461007f5780637e2f42e71461009d57806397695d93146100bb575b5f80fd5b610087610177565b6040516100949190610c00565b60405180910390f35b6100a561036f565b6040516100b29190610c2f565b60405180910390f35b6100d560048036038101906100d09190610daf565b610375565b005b6100f160048036038101906100ec9190610e37565b6104b6565b6040516101049796959493929190610eb9565b60405180910390f35b61012760048036038101906101229190610daf565b61062e565b005b6101316107b5565b60405161013e9190610c2f565b60405180910390f35b610161600480360381019061015c9190610e37565b6107ba565b60405161016e9190610fd4565b60405180910390f35b60606002805480602002602001604051908101604052809291908181526020015f905b82821015610366578382905f5260205f2090600702016040518060e00160405290815f8201548152602001600182015f9054906101000a900473ffffffffffffffffffffffffffffffffffffffff1673ffffffffffffffffffffffffffffffffffffffff1673ffffffffffffffffffffffffffffffffffffffff1681526020016002820154815260200160038201805461023390611021565b80601f016020809104026020016040519081016040528092919081815260200182805461025f90611021565b80156102aa5780601f10610281576101008083540402835291602001916102aa565b820191905f5260205f20905b81548152906001019060200180831161028d57829003601f168201915b505050505081526020016004820180546102c390611021565b80601f01602080910402602001604051908101604052809291908181526020018280546102ef90611021565b801561033a5780601f106103115761010080835404028352916020019161033a565b820191905f5260205f20905b81548152906001019060200180831161031d57829003601f168201915b50505050508152602001600582015481526020016006820154815250508152602001906001019061019a565b50505050905090565b60015481565b60015f8154809291906103879061107e565b9190505550825f8082825461039c91906110c5565b9250508190555060026040518060e0016040528060015481526020013373ffffffffffffffffffffffffffffffffffffffff1681526020014281526020018481526020018381526020018581526020015f54815250908060018154018082558091505060019003905f5260205f2090600702015f909190919091505f820151815f01556020820151816001015f6101000a81548173ffffffffffffffffffffffffffffffffffffffff021916908373ffffffffffffffffffffffffffffffffffffffff1602179055506040820151816002015560608201518160030190816104849190611295565b50608082015181600401908161049a9190611295565b5060a0820151816005015560c082015181600601555050505050565b600281815481106104c5575f80fd5b905f5260205f2090600702015f91509050805f015490806001015f9054906101000a900473ffffffffffffffffffffffffffffffffffffffff169080600201549080600301805461051590611021565b80601f016020809104026020016040519081016040528092919081815260200182805461054190611021565b801561058c5780601f106105635761010080835404028352916020019161058c565b820191905f5260205f20905b81548152906001019060200180831161056f57829003601f168201915b5050505050908060040180546105a190611021565b80601f01602080910402602001604051908101604052809291908181526020018280546105cd90611021565b80156106185780601f106105ef57610100808354040283529160200191610618565b820191905f5260205f20905b8154815290600101906020018083116105fb57829003601f168201915b5050505050908060050154908060060154905087565b825f54811115610673576040517f08c379a000000000000000000000000000000000000000000000000000000000815260040161066a906113ae565b60405180910390fd5b60015f8154809291906106859061107e565b9190505550835f8082825461069a91906113cc565b9250508190555060026040518060e0016040528060015481526020013373ffffffffffffffffffffffffffffffffffffffff1681526020014281526020018581526020018481526020018681526020015f54815250908060018154018082558091505060019003905f5260205f2090600702015f909190919091505f820151815f01556020820151816001015f6101000a81548173ffffffffffffffffffffffffffffffffffffffff021916908373ffffffffffffffffffffffffffffffffffffffff1602179055506040820151816002015560608201518160030190816107829190611295565b5060808201518160040190816107989190611295565b5060a0820151816005015560c08201518160060155505050505050565b5f5481565b6107c2610990565b600282815481106107d6576107d56113ff565b5b905f5260205f2090600702016040518060e00160405290815f8201548152602001600182015f9054906101000a900473ffffffffffffffffffffffffffffffffffffffff1673ffffffffffffffffffffffffffffffffffffffff1673ffffffffffffffffffffffffffffffffffffffff1681526020016002820154815260200160038201805461086590611021565b80601f016020809104026020016040519081016040528092919081815260200182805461089190611021565b80156108dc5780601f106108b3576101008083540402835291602001916108dc565b820191905f5260205f20905b8154815290600101906020018083116108bf57829003601f168201915b505050505081526020016004820180546108f590611021565b80601f016020809104026020016040519081016040528092919081815260200182805461092190611021565b801561096c5780601f106109435761010080835404028352916020019161096c565b820191905f5260205f20905b81548152906001019060200180831161094f57829003601f168201915b50505050508152602001600582015481526020016006820154815250509050919050565b6040518060e001604052805f81526020015f73ffffffffffffffffffffffffffffffffffffffff1681526020015f815260200160608152602001606081526020015f81526020015f81525090565b5f81519050919050565b5f82825260208201905092915050565b5f819050602082019050919050565b5f819050919050565b610a1981610a07565b82525050565b5f73ffffffffffffffffffffffffffffffffffffffff82169050919050565b5f610a4882610a1f565b9050919050565b610a5881610a3e565b82525050565b5f81519050919050565b5f82825260208201905092915050565b8281835e5f83830152505050565b5f601f19601f8301169050919050565b5f610aa082610a5e565b610aaa8185610a68565b9350610aba818560208601610a78565b610ac381610a86565b840191505092915050565b5f60e083015f830151610ae35f860182610a10565b506020830151610af66020860182610a4f565b506040830151610b096040860182610a10565b5060608301518482036060860152610b218282610a96565b91505060808301518482036080860152610b3b8282610a96565b91505060a0830151610b5060a0860182610a10565b5060c0830151610b6360c0860182610a10565b508091505092915050565b5f610b798383610ace565b905092915050565b5f602082019050919050565b5f610b97826109de565b610ba181856109e8565b935083602082028501610bb3856109f8565b805f5b85811015610bee5784840389528151610bcf8582610b6e565b9450610bda83610b81565b925060208a01995050600181019050610bb6565b50829750879550505050505092915050565b5f6020820190508181035f830152610c188184610b8d565b905092915050565b610c2981610a07565b82525050565b5f602082019050610c425f830184610c20565b92915050565b5f604051905090565b5f80fd5b5f80fd5b610c6281610a07565b8114610c6c575f80fd5b50565b5f81359050610c7d81610c59565b92915050565b5f80fd5b5f80fd5b7f4e487b71000000000000000000000000000000000000000000000000000000005f52604160045260245ffd5b610cc182610a86565b810181811067ffffffffffffffff82111715610ce057610cdf610c8b565b5b80604052505050565b5f610cf2610c48565b9050610cfe8282610cb8565b919050565b5f67ffffffffffffffff821115610d1d57610d1c610c8b565b5b610d2682610a86565b9050602081019050919050565b828183375f83830152505050565b5f610d53610d4e84610d03565b610ce9565b905082815260208101848484011115610d6f57610d6e610c87565b5b610d7a848285610d33565b509392505050565b5f82601f830112610d9657610d95610c83565b5b8135610da6848260208601610d41565b91505092915050565b5f805f60608486031215610dc657610dc5610c51565b5b5f610dd386828701610c6f565b935050602084013567ffffffffffffffff811115610df457610df3610c55565b5b610e0086828701610d82565b925050604084013567ffffffffffffffff811115610e2157610e20610c55565b5b610e2d86828701610d82565b9150509250925092565b5f60208284031215610e4c57610e4b610c51565b5b5f610e5984828501610c6f565b91505092915050565b610e6b81610a3e565b82525050565b5f82825260208201905092915050565b5f610e8b82610a5e565b610e958185610e71565b9350610ea5818560208601610a78565b610eae81610a86565b840191505092915050565b5f60e082019050610ecc5f83018a610c20565b610ed96020830189610e62565b610ee66040830188610c20565b8181036060830152610ef88187610e81565b90508181036080830152610f0c8186610e81565b9050610f1b60a0830185610c20565b610f2860c0830184610c20565b98975050505050505050565b5f60e083015f830151610f495f860182610a10565b506020830151610f5c6020860182610a4f565b506040830151610f6f6040860182610a10565b5060608301518482036060860152610f878282610a96565b91505060808301518482036080860152610fa18282610a96565b91505060a0830151610fb660a0860182610a10565b5060c0830151610fc960c0860182610a10565b508091505092915050565b5f6020820190508181035f830152610fec8184610f34565b905092915050565b7f4e487b71000000000000000000000000000000000000000000000000000000005f52602260045260245ffd5b5f600282049050600182168061103857607f821691505b60208210810361104b5761104a610ff4565b5b50919050565b7f4e487b71000000000000000000000000000000000000000000000000000000005f52601160045260245ffd5b5f61108882610a07565b91507fffffffffffffffffffffffffffffffffffffffffffffffffffffffffffffffff82036110ba576110b9611051565b5b600182019050919050565b5f6110cf82610a07565b91506110da83610a07565b92508282019050808211156110f2576110f1611051565b5b92915050565b5f819050815f5260205f209050919050565b5f6020601f8301049050919050565b5f82821b905092915050565b5f600883026111547fffffffffffffffffffffffffffffffffffffffffffffffffffffffffffffffff82611119565b61115e8683611119565b95508019841693508086168417925050509392505050565b5f819050919050565b5f61119961119461118f84610a07565b611176565b610a07565b9050919050565b5f819050919050565b6111b28361117f565b6111c66111be826111a0565b848454611125565b825550505050565b5f90565b6111da6111ce565b6111e58184846111a9565b505050565b5b81811015611208576111fd5f826111d2565b6001810190506111eb565b5050565b601f82111561124d5761121e816110f8565b6112278461110a565b81016020851015611236578190505b61124a6112428561110a565b8301826111ea565b50505b505050565b5f82821c905092915050565b5f61126d5f1984600802611252565b1980831691505092915050565b5f611285838361125e565b9150826002028217905092915050565b61129e82610a5e565b67ffffffffffffffff8111156112b7576112b6610c8b565b5b6112c18254611021565b6112cc82828561120c565b5f60209050601f8311600181146112fd575f84156112eb578287015190505b6112f5858261127a565b86555061135c565b601f19841661130b866110f8565b5f5b828110156113325784890151825560018201915060208501945060208101905061130d565b8683101561134f578489015161134b601f89168261125e565b8355505b6001600288020188555050505b505050505050565b7f596f7572206163636f756e742062616c616e6365206973206c6f7700000000005f82015250565b5f611398601b83610e71565b91506113a382611364565b602082019050919050565b5f6020820190508181035f8301526113c58161138c565b9050919050565b5f6113d682610a07565b91506113e183610a07565b92508282039050818111156113f9576113f8611051565b5b92915050565b7f4e487b71000000000000000000000000000000000000000000000000000000005f52603260045260245ffdfea264697066735822122048eadc430b90ef151cafd7151f0b06a96785eabb014f190ef0c362af173bc1c164736f6c634300081a0033",
					"opcodes": "PUSH1 0x80 PUSH1 0x40 MSTORE CALLVALUE DUP1 ISZERO PUSH1 0xE JUMPI PUSH0 DUP1 REVERT JUMPDEST POP PUSH2 0x1462 DUP1 PUSH2 0x1C PUSH0 CODECOPY PUSH0 RETURN INVALID PUSH1 0x80 PUSH1 0x40 MSTORE CALLVALUE DUP1 ISZERO PUSH2 0xF JUMPI PUSH0 DUP1 REVERT JUMPDEST POP PUSH1 0x4 CALLDATASIZE LT PUSH2 0x7B JUMPI PUSH0 CALLDATALOAD PUSH1 0xE0 SHR DUP1 PUSH4 0x98311875 GT PUSH2 0x59 JUMPI DUP1 PUSH4 0x98311875 EQ PUSH2 0xD7 JUMPI DUP1 PUSH4 0x9A493E75 EQ PUSH2 0x10D JUMPI DUP1 PUSH4 0xBF152765 EQ PUSH2 0x129 JUMPI DUP1 PUSH4 0xE6D7D14E EQ PUSH2 0x147 JUMPI PUSH2 0x7B JUMP JUMPDEST DUP1 PUSH4 0x2D686B20 EQ PUSH2 0x7F JUMPI DUP1 PUSH4 0x7E2F42E7 EQ PUSH2 0x9D JUMPI DUP1 PUSH4 0x97695D93 EQ PUSH2 0xBB JUMPI JUMPDEST PUSH0 DUP1 REVERT JUMPDEST PUSH2 0x87 PUSH2 0x177 JUMP JUMPDEST PUSH1 0x40 MLOAD PUSH2 0x94 SWAP2 SWAP1 PUSH2 0xC00 JUMP JUMPDEST PUSH1 0x40 MLOAD DUP1 SWAP2 SUB SWAP1 RETURN JUMPDEST PUSH2 0xA5 PUSH2 0x36F JUMP JUMPDEST PUSH1 0x40 MLOAD PUSH2 0xB2 SWAP2 SWAP1 PUSH2 0xC2F JUMP JUMPDEST PUSH1 0x40 MLOAD DUP1 SWAP2 SUB SWAP1 RETURN JUMPDEST PUSH2 0xD5 PUSH1 0x4 DUP1 CALLDATASIZE SUB DUP2 ADD SWAP1 PUSH2 0xD0 SWAP2 SWAP1 PUSH2 0xDAF JUMP JUMPDEST PUSH2 0x375 JUMP JUMPDEST STOP JUMPDEST PUSH2 0xF1 PUSH1 0x4 DUP1 CALLDATASIZE SUB DUP2 ADD SWAP1 PUSH2 0xEC SWAP2 SWAP1 PUSH2 0xE37 JUMP JUMPDEST PUSH2 0x4B6 JUMP JUMPDEST PUSH1 0x40 MLOAD PUSH2 0x104 SWAP8 SWAP7 SWAP6 SWAP5 SWAP4 SWAP3 SWAP2 SWAP1 PUSH2 0xEB9 JUMP JUMPDEST PUSH1 0x40 MLOAD DUP1 SWAP2 SUB SWAP1 RETURN JUMPDEST PUSH2 0x127 PUSH1 0x4 DUP1 CALLDATASIZE SUB DUP2 ADD SWAP1 PUSH2 0x122 SWAP2 SWAP1 PUSH2 0xDAF JUMP JUMPDEST PUSH2 0x62E JUMP JUMPDEST STOP JUMPDEST PUSH2 0x131 PUSH2 0x7B5 JUMP JUMPDEST PUSH1 0x40 MLOAD PUSH2 0x13E SWAP2 SWAP1 PUSH2 0xC2F JUMP JUMPDEST PUSH1 0x40 MLOAD DUP1 SWAP2 SUB SWAP1 RETURN JUMPDEST PUSH2 0x161 PUSH1 0x4 DUP1 CALLDATASIZE SUB DUP2 ADD SWAP1 PUSH2 0x15C SWAP2 SWAP1 PUSH2 0xE37 JUMP JUMPDEST PUSH2 0x7BA JUMP JUMPDEST PUSH1 0x40 MLOAD PUSH2 0x16E SWAP2 SWAP1 PUSH2 0xFD4 JUMP JUMPDEST PUSH1 0x40 MLOAD DUP1 SWAP2 SUB SWAP1 RETURN JUMPDEST PUSH1 0x60 PUSH1 0x2 DUP1 SLOAD DUP1 PUSH1 0x20 MUL PUSH1 0x20 ADD PUSH1 0x40 MLOAD SWAP1 DUP2 ADD PUSH1 0x40 MSTORE DUP1 SWAP3 SWAP2 SWAP1 DUP2 DUP2 MSTORE PUSH1 0x20 ADD PUSH0 SWAP1 JUMPDEST DUP3 DUP3 LT ISZERO PUSH2 0x366 JUMPI DUP4 DUP3 SWAP1 PUSH0 MSTORE PUSH1 0x20 PUSH0 KECCAK256 SWAP1 PUSH1 0x7 MUL ADD PUSH1 0x40 MLOAD DUP1 PUSH1 0xE0 ADD PUSH1 0x40 MSTORE SWAP1 DUP2 PUSH0 DUP3 ADD SLOAD DUP2 MSTORE PUSH1 0x20 ADD PUSH1 0x1 DUP3 ADD PUSH0 SWAP1 SLOAD SWAP1 PUSH2 0x100 EXP SWAP1 DIV PUSH20 0xFFFFFFFFFFFFFFFFFFFFFFFFFFFFFFFFFFFFFFFF AND PUSH20 0xFFFFFFFFFFFFFFFFFFFFFFFFFFFFFFFFFFFFFFFF AND PUSH20 0xFFFFFFFFFFFFFFFFFFFFFFFFFFFFFFFFFFFFFFFF AND DUP2 MSTORE PUSH1 0x20 ADD PUSH1 0x2 DUP3 ADD SLOAD DUP2 MSTORE PUSH1 0x20 ADD PUSH1 0x3 DUP3 ADD DUP1 SLOAD PUSH2 0x233 SWAP1 PUSH2 0x1021 JUMP JUMPDEST DUP1 PUSH1 0x1F ADD PUSH1 0x20 DUP1 SWAP2 DIV MUL PUSH1 0x20 ADD PUSH1 0x40 MLOAD SWAP1 DUP2 ADD PUSH1 0x40 MSTORE DUP1 SWAP3 SWAP2 SWAP1 DUP2 DUP2 MSTORE PUSH1 0x20 ADD DUP3 DUP1 SLOAD PUSH2 0x25F SWAP1 PUSH2 0x1021 JUMP JUMPDEST DUP1 ISZERO PUSH2 0x2AA JUMPI DUP1 PUSH1 0x1F LT PUSH2 0x281 JUMPI PUSH2 0x100 DUP1 DUP4 SLOAD DIV MUL DUP4 MSTORE SWAP2 PUSH1 0x20 ADD SWAP2 PUSH2 0x2AA JUMP JUMPDEST DUP3 ADD SWAP2 SWAP1 PUSH0 MSTORE PUSH1 0x20 PUSH0 KECCAK256 SWAP1 JUMPDEST DUP2 SLOAD DUP2 MSTORE SWAP1 PUSH1 0x1 ADD SWAP1 PUSH1 0x20 ADD DUP1 DUP4 GT PUSH2 0x28D JUMPI DUP3 SWAP1 SUB PUSH1 0x1F AND DUP3 ADD SWAP2 JUMPDEST POP POP POP POP POP DUP2 MSTORE PUSH1 0x20 ADD PUSH1 0x4 DUP3 ADD DUP1 SLOAD PUSH2 0x2C3 SWAP1 PUSH2 0x1021 JUMP JUMPDEST DUP1 PUSH1 0x1F ADD PUSH1 0x20 DUP1 SWAP2 DIV MUL PUSH1 0x20 ADD PUSH1 0x40 MLOAD SWAP1 DUP2 ADD PUSH1 0x40 MSTORE DUP1 SWAP3 SWAP2 SWAP1 DUP2 DUP2 MSTORE PUSH1 0x20 ADD DUP3 DUP1 SLOAD PUSH2 0x2EF SWAP1 PUSH2 0x1021 JUMP JUMPDEST DUP1 ISZERO PUSH2 0x33A JUMPI DUP1 PUSH1 0x1F LT PUSH2 0x311 JUMPI PUSH2 0x100 DUP1 DUP4 SLOAD DIV MUL DUP4 MSTORE SWAP2 PUSH1 0x20 ADD SWAP2 PUSH2 0x33A JUMP JUMPDEST DUP3 ADD SWAP2 SWAP1 PUSH0 MSTORE PUSH1 0x20 PUSH0 KECCAK256 SWAP1 JUMPDEST DUP2 SLOAD DUP2 MSTORE SWAP1 PUSH1 0x1 ADD SWAP1 PUSH1 0x20 ADD DUP1 DUP4 GT PUSH2 0x31D JUMPI DUP3 SWAP1 SUB PUSH1 0x1F AND DUP3 ADD SWAP2 JUMPDEST POP POP POP POP POP DUP2 MSTORE PUSH1 0x20 ADD PUSH1 0x5 DUP3 ADD SLOAD DUP2 MSTORE PUSH1 0x20 ADD PUSH1 0x6 DUP3 ADD SLOAD DUP2 MSTORE POP POP DUP2 MSTORE PUSH1 0x20 ADD SWAP1 PUSH1 0x1 ADD SWAP1 PUSH2 0x19A JUMP JUMPDEST POP POP POP POP SWAP1 POP SWAP1 JUMP JUMPDEST PUSH1 0x1 SLOAD DUP2 JUMP JUMPDEST PUSH1 0x1 PUSH0 DUP2 SLOAD DUP1 SWAP3 SWAP2 SWAP1 PUSH2 0x387 SWAP1 PUSH2 0x107E JUMP JUMPDEST SWAP2 SWAP1 POP SSTORE POP DUP3 PUSH0 DUP1 DUP3 DUP3 SLOAD PUSH2 0x39C SWAP2 SWAP1 PUSH2 0x10C5 JUMP JUMPDEST SWAP3 POP POP DUP2 SWAP1 SSTORE POP PUSH1 0x2 PUSH1 0x40 MLOAD DUP1 PUSH1 0xE0 ADD PUSH1 0x40 MSTORE DUP1 PUSH1 0x1 SLOAD DUP2 MSTORE PUSH1 0x20 ADD CALLER PUSH20 0xFFFFFFFFFFFFFFFFFFFFFFFFFFFFFFFFFFFFFFFF AND DUP2 MSTORE PUSH1 0x20 ADD TIMESTAMP DUP2 MSTORE PUSH1 0x20 ADD DUP5 DUP2 MSTORE PUSH1 0x20 ADD DUP4 DUP2 MSTORE PUSH1 0x20 ADD DUP6 DUP2 MSTORE PUSH1 0x20 ADD PUSH0 SLOAD DUP2 MSTORE POP SWAP1 DUP1 PUSH1 0x1 DUP2 SLOAD ADD DUP1 DUP3 SSTORE DUP1 SWAP2 POP POP PUSH1 0x1 SWAP1 SUB SWAP1 PUSH0 MSTORE PUSH1 0x20 PUSH0 KECCAK256 SWAP1 PUSH1 0x7 MUL ADD PUSH0 SWAP1 SWAP2 SWAP1 SWAP2 SWAP1 SWAP2 POP PUSH0 DUP3 ADD MLOAD DUP2 PUSH0 ADD SSTORE PUSH1 0x20 DUP3 ADD MLOAD DUP2 PUSH1 0x1 ADD PUSH0 PUSH2 0x100 EXP DUP2 SLOAD DUP2 PUSH20 0xFFFFFFFFFFFFFFFFFFFFFFFFFFFFFFFFFFFFFFFF MUL NOT AND SWAP1 DUP4 PUSH20 0xFFFFFFFFFFFFFFFFFFFFFFFFFFFFFFFFFFFFFFFF AND MUL OR SWAP1 SSTORE POP PUSH1 0x40 DUP3 ADD MLOAD DUP2 PUSH1 0x2 ADD SSTORE PUSH1 0x60 DUP3 ADD MLOAD DUP2 PUSH1 0x3 ADD SWAP1 DUP2 PUSH2 0x484 SWAP2 SWAP1 PUSH2 0x1295 JUMP JUMPDEST POP PUSH1 0x80 DUP3 ADD MLOAD DUP2 PUSH1 0x4 ADD SWAP1 DUP2 PUSH2 0x49A SWAP2 SWAP1 PUSH2 0x1295 JUMP JUMPDEST POP PUSH1 0xA0 DUP3 ADD MLOAD DUP2 PUSH1 0x5 ADD SSTORE PUSH1 0xC0 DUP3 ADD MLOAD DUP2 PUSH1 0x6 ADD SSTORE POP POP POP POP POP JUMP JUMPDEST PUSH1 0x2 DUP2 DUP2 SLOAD DUP2 LT PUSH2 0x4C5 JUMPI PUSH0 DUP1 REVERT JUMPDEST SWAP1 PUSH0 MSTORE PUSH1 0x20 PUSH0 KECCAK256 SWAP1 PUSH1 0x7 MUL ADD PUSH0 SWAP2 POP SWAP1 POP DUP1 PUSH0 ADD SLOAD SWAP1 DUP1 PUSH1 0x1 ADD PUSH0 SWAP1 SLOAD SWAP1 PUSH2 0x100 EXP SWAP1 DIV PUSH20 0xFFFFFFFFFFFFFFFFFFFFFFFFFFFFFFFFFFFFFFFF AND SWAP1 DUP1 PUSH1 0x2 ADD SLOAD SWAP1 DUP1 PUSH1 0x3 ADD DUP1 SLOAD PUSH2 0x515 SWAP1 PUSH2 0x1021 JUMP JUMPDEST DUP1 PUSH1 0x1F ADD PUSH1 0x20 DUP1 SWAP2 DIV MUL PUSH1 0x20 ADD PUSH1 0x40 MLOAD SWAP1 DUP2 ADD PUSH1 0x40 MSTORE DUP1 SWAP3 SWAP2 SWAP1 DUP2 DUP2 MSTORE PUSH1 0x20 ADD DUP3 DUP1 SLOAD PUSH2 0x541 SWAP1 PUSH2 0x1021 JUMP JUMPDEST DUP1 ISZERO PUSH2 0x58C JUMPI DUP1 PUSH1 0x1F LT PUSH2 0x563 JUMPI PUSH2 0x100 DUP1 DUP4 SLOAD DIV MUL DUP4 MSTORE SWAP2 PUSH1 0x20 ADD SWAP2 PUSH2 0x58C JUMP JUMPDEST DUP3 ADD SWAP2 SWAP1 PUSH0 MSTORE PUSH1 0x20 PUSH0 KECCAK256 SWAP1 JUMPDEST DUP2 SLOAD DUP2 MSTORE SWAP1 PUSH1 0x1 ADD SWAP1 PUSH1 0x20 ADD DUP1 DUP4 GT PUSH2 0x56F JUMPI DUP3 SWAP1 SUB PUSH1 0x1F AND DUP3 ADD SWAP2 JUMPDEST POP POP POP POP POP SWAP1 DUP1 PUSH1 0x4 ADD DUP1 SLOAD PUSH2 0x5A1 SWAP1 PUSH2 0x1021 JUMP JUMPDEST DUP1 PUSH1 0x1F ADD PUSH1 0x20 DUP1 SWAP2 DIV MUL PUSH1 0x20 ADD PUSH1 0x40 MLOAD SWAP1 DUP2 ADD PUSH1 0x40 MSTORE DUP1 SWAP3 SWAP2 SWAP1 DUP2 DUP2 MSTORE PUSH1 0x20 ADD DUP3 DUP1 SLOAD PUSH2 0x5CD SWAP1 PUSH2 0x1021 JUMP JUMPDEST DUP1 ISZERO PUSH2 0x618 JUMPI DUP1 PUSH1 0x1F LT PUSH2 0x5EF JUMPI PUSH2 0x100 DUP1 DUP4 SLOAD DIV MUL DUP4 MSTORE SWAP2 PUSH1 0x20 ADD SWAP2 PUSH2 0x618 JUMP JUMPDEST DUP3 ADD SWAP2 SWAP1 PUSH0 MSTORE PUSH1 0x20 PUSH0 KECCAK256 SWAP1 JUMPDEST DUP2 SLOAD DUP2 MSTORE SWAP1 PUSH1 0x1 ADD SWAP1 PUSH1 0x20 ADD DUP1 DUP4 GT PUSH2 0x5FB JUMPI DUP3 SWAP1 SUB PUSH1 0x1F AND DUP3 ADD SWAP2 JUMPDEST POP POP POP POP POP SWAP1 DUP1 PUSH1 0x5 ADD SLOAD SWAP1 DUP1 PUSH1 0x6 ADD SLOAD SWAP1 POP DUP8 JUMP JUMPDEST DUP3 PUSH0 SLOAD DUP2 GT ISZERO PUSH2 0x673 JUMPI PUSH1 0x40 MLOAD PUSH32 0x8C379A000000000000000000000000000000000000000000000000000000000 DUP2 MSTORE PUSH1 0x4 ADD PUSH2 0x66A SWAP1 PUSH2 0x13AE JUMP JUMPDEST PUSH1 0x40 MLOAD DUP1 SWAP2 SUB SWAP1 REVERT JUMPDEST PUSH1 0x1 PUSH0 DUP2 SLOAD DUP1 SWAP3 SWAP2 SWAP1 PUSH2 0x685 SWAP1 PUSH2 0x107E JUMP JUMPDEST SWAP2 SWAP1 POP SSTORE POP DUP4 PUSH0 DUP1 DUP3 DUP3 SLOAD PUSH2 0x69A SWAP2 SWAP1 PUSH2 0x13CC JUMP JUMPDEST SWAP3 POP POP DUP2 SWAP1 SSTORE POP PUSH1 0x2 PUSH1 0x40 MLOAD DUP1 PUSH1 0xE0 ADD PUSH1 0x40 MSTORE DUP1 PUSH1 0x1 SLOAD DUP2 MSTORE PUSH1 0x20 ADD CALLER PUSH20 0xFFFFFFFFFFFFFFFFFFFFFFFFFFFFFFFFFFFFFFFF AND DUP2 MSTORE PUSH1 0x20 ADD TIMESTAMP DUP2 MSTORE PUSH1 0x20 ADD DUP6 DUP2 MSTORE PUSH1 0x20 ADD DUP5 DUP2 MSTORE PUSH1 0x20 ADD DUP7 DUP2 MSTORE PUSH1 0x20 ADD PUSH0 SLOAD DUP2 MSTORE POP SWAP1 DUP1 PUSH1 0x1 DUP2 SLOAD ADD DUP1 DUP3 SSTORE DUP1 SWAP2 POP POP PUSH1 0x1 SWAP1 SUB SWAP1 PUSH0 MSTORE PUSH1 0x20 PUSH0 KECCAK256 SWAP1 PUSH1 0x7 MUL ADD PUSH0 SWAP1 SWAP2 SWAP1 SWAP2 SWAP1 SWAP2 POP PUSH0 DUP3 ADD MLOAD DUP2 PUSH0 ADD SSTORE PUSH1 0x20 DUP3 ADD MLOAD DUP2 PUSH1 0x1 ADD PUSH0 PUSH2 0x100 EXP DUP2 SLOAD DUP2 PUSH20 0xFFFFFFFFFFFFFFFFFFFFFFFFFFFFFFFFFFFFFFFF MUL NOT AND SWAP1 DUP4 PUSH20 0xFFFFFFFFFFFFFFFFFFFFFFFFFFFFFFFFFFFFFFFF AND MUL OR SWAP1 SSTORE POP PUSH1 0x40 DUP3 ADD MLOAD DUP2 PUSH1 0x2 ADD SSTORE PUSH1 0x60 DUP3 ADD MLOAD DUP2 PUSH1 0x3 ADD SWAP1 DUP2 PUSH2 0x782 SWAP2 SWAP1 PUSH2 0x1295 JUMP JUMPDEST POP PUSH1 0x80 DUP3 ADD MLOAD DUP2 PUSH1 0x4 ADD SWAP1 DUP2 PUSH2 0x798 SWAP2 SWAP1 PUSH2 0x1295 JUMP JUMPDEST POP PUSH1 0xA0 DUP3 ADD MLOAD DUP2 PUSH1 0x5 ADD SSTORE PUSH1 0xC0 DUP3 ADD MLOAD DUP2 PUSH1 0x6 ADD SSTORE POP POP POP POP POP POP JUMP JUMPDEST PUSH0 SLOAD DUP2 JUMP JUMPDEST PUSH2 0x7C2 PUSH2 0x990 JUMP JUMPDEST PUSH1 0x2 DUP3 DUP2 SLOAD DUP2 LT PUSH2 0x7D6 JUMPI PUSH2 0x7D5 PUSH2 0x13FF JUMP JUMPDEST JUMPDEST SWAP1 PUSH0 MSTORE PUSH1 0x20 PUSH0 KECCAK256 SWAP1 PUSH1 0x7 MUL ADD PUSH1 0x40 MLOAD DUP1 PUSH1 0xE0 ADD PUSH1 0x40 MSTORE SWAP1 DUP2 PUSH0 DUP3 ADD SLOAD DUP2 MSTORE PUSH1 0x20 ADD PUSH1 0x1 DUP3 ADD PUSH0 SWAP1 SLOAD SWAP1 PUSH2 0x100 EXP SWAP1 DIV PUSH20 0xFFFFFFFFFFFFFFFFFFFFFFFFFFFFFFFFFFFFFFFF AND PUSH20 0xFFFFFFFFFFFFFFFFFFFFFFFFFFFFFFFFFFFFFFFF AND PUSH20 0xFFFFFFFFFFFFFFFFFFFFFFFFFFFFFFFFFFFFFFFF AND DUP2 MSTORE PUSH1 0x20 ADD PUSH1 0x2 DUP3 ADD SLOAD DUP2 MSTORE PUSH1 0x20 ADD PUSH1 0x3 DUP3 ADD DUP1 SLOAD PUSH2 0x865 SWAP1 PUSH2 0x1021 JUMP JUMPDEST DUP1 PUSH1 0x1F ADD PUSH1 0x20 DUP1 SWAP2 DIV MUL PUSH1 0x20 ADD PUSH1 0x40 MLOAD SWAP1 DUP2 ADD PUSH1 0x40 MSTORE DUP1 SWAP3 SWAP2 SWAP1 DUP2 DUP2 MSTORE PUSH1 0x20 ADD DUP3 DUP1 SLOAD PUSH2 0x891 SWAP1 PUSH2 0x1021 JUMP JUMPDEST DUP1 ISZERO PUSH2 0x8DC JUMPI DUP1 PUSH1 0x1F LT PUSH2 0x8B3 JUMPI PUSH2 0x100 DUP1 DUP4 SLOAD DIV MUL DUP4 MSTORE SWAP2 PUSH1 0x20 ADD SWAP2 PUSH2 0x8DC JUMP JUMPDEST DUP3 ADD SWAP2 SWAP1 PUSH0 MSTORE PUSH1 0x20 PUSH0 KECCAK256 SWAP1 JUMPDEST DUP2 SLOAD DUP2 MSTORE SWAP1 PUSH1 0x1 ADD SWAP1 PUSH1 0x20 ADD DUP1 DUP4 GT PUSH2 0x8BF JUMPI DUP3 SWAP1 SUB PUSH1 0x1F AND DUP3 ADD SWAP2 JUMPDEST POP POP POP POP POP DUP2 MSTORE PUSH1 0x20 ADD PUSH1 0x4 DUP3 ADD DUP1 SLOAD PUSH2 0x8F5 SWAP1 PUSH2 0x1021 JUMP JUMPDEST DUP1 PUSH1 0x1F ADD PUSH1 0x20 DUP1 SWAP2 DIV MUL PUSH1 0x20 ADD PUSH1 0x40 MLOAD SWAP1 DUP2 ADD PUSH1 0x40 MSTORE DUP1 SWAP3 SWAP2 SWAP1 DUP2 DUP2 MSTORE PUSH1 0x20 ADD DUP3 DUP1 SLOAD PUSH2 0x921 SWAP1 PUSH2 0x1021 JUMP JUMPDEST DUP1 ISZERO PUSH2 0x96C JUMPI DUP1 PUSH1 0x1F LT PUSH2 0x943 JUMPI PUSH2 0x100 DUP1 DUP4 SLOAD DIV MUL DUP4 MSTORE SWAP2 PUSH1 0x20 ADD SWAP2 PUSH2 0x96C JUMP JUMPDEST DUP3 ADD SWAP2 SWAP1 PUSH0 MSTORE PUSH1 0x20 PUSH0 KECCAK256 SWAP1 JUMPDEST DUP2 SLOAD DUP2 MSTORE SWAP1 PUSH1 0x1 ADD SWAP1 PUSH1 0x20 ADD DUP1 DUP4 GT PUSH2 0x94F JUMPI DUP3 SWAP1 SUB PUSH1 0x1F AND DUP3 ADD SWAP2 JUMPDEST POP POP POP POP POP DUP2 MSTORE PUSH1 0x20 ADD PUSH1 0x5 DUP3 ADD SLOAD DUP2 MSTORE PUSH1 0x20 ADD PUSH1 0x6 DUP3 ADD SLOAD DUP2 MSTORE POP POP SWAP1 POP SWAP2 SWAP1 POP JUMP JUMPDEST PUSH1 0x40 MLOAD DUP1 PUSH1 0xE0 ADD PUSH1 0x40 MSTORE DUP1 PUSH0 DUP2 MSTORE PUSH1 0x20 ADD PUSH0 PUSH20 0xFFFFFFFFFFFFFFFFFFFFFFFFFFFFFFFFFFFFFFFF AND DUP2 MSTORE PUSH1 0x20 ADD PUSH0 DUP2 MSTORE PUSH1 0x20 ADD PUSH1 0x60 DUP2 MSTORE PUSH1 0x20 ADD PUSH1 0x60 DUP2 MSTORE PUSH1 0x20 ADD PUSH0 DUP2 MSTORE PUSH1 0x20 ADD PUSH0 DUP2 MSTORE POP SWAP1 JUMP JUMPDEST PUSH0 DUP2 MLOAD SWAP1 POP SWAP2 SWAP1 POP JUMP JUMPDEST PUSH0 DUP3 DUP3 MSTORE PUSH1 0x20 DUP3 ADD SWAP1 POP SWAP3 SWAP2 POP POP JUMP JUMPDEST PUSH0 DUP2 SWAP1 POP PUSH1 0x20 DUP3 ADD SWAP1 POP SWAP2 SWAP1 POP JUMP JUMPDEST PUSH0 DUP2 SWAP1 POP SWAP2 SWAP1 POP JUMP JUMPDEST PUSH2 0xA19 DUP2 PUSH2 0xA07 JUMP JUMPDEST DUP3 MSTORE POP POP JUMP JUMPDEST PUSH0 PUSH20 0xFFFFFFFFFFFFFFFFFFFFFFFFFFFFFFFFFFFFFFFF DUP3 AND SWAP1 POP SWAP2 SWAP1 POP JUMP JUMPDEST PUSH0 PUSH2 0xA48 DUP3 PUSH2 0xA1F JUMP JUMPDEST SWAP1 POP SWAP2 SWAP1 POP JUMP JUMPDEST PUSH2 0xA58 DUP2 PUSH2 0xA3E JUMP JUMPDEST DUP3 MSTORE POP POP JUMP JUMPDEST PUSH0 DUP2 MLOAD SWAP1 POP SWAP2 SWAP1 POP JUMP JUMPDEST PUSH0 DUP3 DUP3 MSTORE PUSH1 0x20 DUP3 ADD SWAP1 POP SWAP3 SWAP2 POP POP JUMP JUMPDEST DUP3 DUP2 DUP4 MCOPY PUSH0 DUP4 DUP4 ADD MSTORE POP POP POP JUMP JUMPDEST PUSH0 PUSH1 0x1F NOT PUSH1 0x1F DUP4 ADD AND SWAP1 POP SWAP2 SWAP1 POP JUMP JUMPDEST PUSH0 PUSH2 0xAA0 DUP3 PUSH2 0xA5E JUMP JUMPDEST PUSH2 0xAAA DUP2 DUP6 PUSH2 0xA68 JUMP JUMPDEST SWAP4 POP PUSH2 0xABA DUP2 DUP6 PUSH1 0x20 DUP7 ADD PUSH2 0xA78 JUMP JUMPDEST PUSH2 0xAC3 DUP2 PUSH2 0xA86 JUMP JUMPDEST DUP5 ADD SWAP2 POP POP SWAP3 SWAP2 POP POP JUMP JUMPDEST PUSH0 PUSH1 0xE0 DUP4 ADD PUSH0 DUP4 ADD MLOAD PUSH2 0xAE3 PUSH0 DUP7 ADD DUP3 PUSH2 0xA10 JUMP JUMPDEST POP PUSH1 0x20 DUP4 ADD MLOAD PUSH2 0xAF6 PUSH1 0x20 DUP7 ADD DUP3 PUSH2 0xA4F JUMP JUMPDEST POP PUSH1 0x40 DUP4 ADD MLOAD PUSH2 0xB09 PUSH1 0x40 DUP7 ADD DUP3 PUSH2 0xA10 JUMP JUMPDEST POP PUSH1 0x60 DUP4 ADD MLOAD DUP5 DUP3 SUB PUSH1 0x60 DUP7 ADD MSTORE PUSH2 0xB21 DUP3 DUP3 PUSH2 0xA96 JUMP JUMPDEST SWAP2 POP POP PUSH1 0x80 DUP4 ADD MLOAD DUP5 DUP3 SUB PUSH1 0x80 DUP7 ADD MSTORE PUSH2 0xB3B DUP3 DUP3 PUSH2 0xA96 JUMP JUMPDEST SWAP2 POP POP PUSH1 0xA0 DUP4 ADD MLOAD PUSH2 0xB50 PUSH1 0xA0 DUP7 ADD DUP3 PUSH2 0xA10 JUMP JUMPDEST POP PUSH1 0xC0 DUP4 ADD MLOAD PUSH2 0xB63 PUSH1 0xC0 DUP7 ADD DUP3 PUSH2 0xA10 JUMP JUMPDEST POP DUP1 SWAP2 POP POP SWAP3 SWAP2 POP POP JUMP JUMPDEST PUSH0 PUSH2 0xB79 DUP4 DUP4 PUSH2 0xACE JUMP JUMPDEST SWAP1 POP SWAP3 SWAP2 POP POP JUMP JUMPDEST PUSH0 PUSH1 0x20 DUP3 ADD SWAP1 POP SWAP2 SWAP1 POP JUMP JUMPDEST PUSH0 PUSH2 0xB97 DUP3 PUSH2 0x9DE JUMP JUMPDEST PUSH2 0xBA1 DUP2 DUP6 PUSH2 0x9E8 JUMP JUMPDEST SWAP4 POP DUP4 PUSH1 0x20 DUP3 MUL DUP6 ADD PUSH2 0xBB3 DUP6 PUSH2 0x9F8 JUMP JUMPDEST DUP1 PUSH0 JUMPDEST DUP6 DUP2 LT ISZERO PUSH2 0xBEE JUMPI DUP5 DUP5 SUB DUP10 MSTORE DUP2 MLOAD PUSH2 0xBCF DUP6 DUP3 PUSH2 0xB6E JUMP JUMPDEST SWAP5 POP PUSH2 0xBDA DUP4 PUSH2 0xB81 JUMP JUMPDEST SWAP3 POP PUSH1 0x20 DUP11 ADD SWAP10 POP POP PUSH1 0x1 DUP2 ADD SWAP1 POP PUSH2 0xBB6 JUMP JUMPDEST POP DUP3 SWAP8 POP DUP8 SWAP6 POP POP POP POP POP POP SWAP3 SWAP2 POP POP JUMP JUMPDEST PUSH0 PUSH1 0x20 DUP3 ADD SWAP1 POP DUP2 DUP2 SUB PUSH0 DUP4 ADD MSTORE PUSH2 0xC18 DUP2 DUP5 PUSH2 0xB8D JUMP JUMPDEST SWAP1 POP SWAP3 SWAP2 POP POP JUMP JUMPDEST PUSH2 0xC29 DUP2 PUSH2 0xA07 JUMP JUMPDEST DUP3 MSTORE POP POP JUMP JUMPDEST PUSH0 PUSH1 0x20 DUP3 ADD SWAP1 POP PUSH2 0xC42 PUSH0 DUP4 ADD DUP5 PUSH2 0xC20 JUMP JUMPDEST SWAP3 SWAP2 POP POP JUMP JUMPDEST PUSH0 PUSH1 0x40 MLOAD SWAP1 POP SWAP1 JUMP JUMPDEST PUSH0 DUP1 REVERT JUMPDEST PUSH0 DUP1 REVERT JUMPDEST PUSH2 0xC62 DUP2 PUSH2 0xA07 JUMP JUMPDEST DUP2 EQ PUSH2 0xC6C JUMPI PUSH0 DUP1 REVERT JUMPDEST POP JUMP JUMPDEST PUSH0 DUP2 CALLDATALOAD SWAP1 POP PUSH2 0xC7D DUP2 PUSH2 0xC59 JUMP JUMPDEST SWAP3 SWAP2 POP POP JUMP JUMPDEST PUSH0 DUP1 REVERT JUMPDEST PUSH0 DUP1 REVERT JUMPDEST PUSH32 0x4E487B7100000000000000000000000000000000000000000000000000000000 PUSH0 MSTORE PUSH1 0x41 PUSH1 0x4 MSTORE PUSH1 0x24 PUSH0 REVERT JUMPDEST PUSH2 0xCC1 DUP3 PUSH2 0xA86 JUMP JUMPDEST DUP2 ADD DUP2 DUP2 LT PUSH8 0xFFFFFFFFFFFFFFFF DUP3 GT OR ISZERO PUSH2 0xCE0 JUMPI PUSH2 0xCDF PUSH2 0xC8B JUMP JUMPDEST JUMPDEST DUP1 PUSH1 0x40 MSTORE POP POP POP JUMP JUMPDEST PUSH0 PUSH2 0xCF2 PUSH2 0xC48 JUMP JUMPDEST SWAP1 POP PUSH2 0xCFE DUP3 DUP3 PUSH2 0xCB8 JUMP JUMPDEST SWAP2 SWAP1 POP JUMP JUMPDEST PUSH0 PUSH8 0xFFFFFFFFFFFFFFFF DUP3 GT ISZERO PUSH2 0xD1D JUMPI PUSH2 0xD1C PUSH2 0xC8B JUMP JUMPDEST JUMPDEST PUSH2 0xD26 DUP3 PUSH2 0xA86 JUMP JUMPDEST SWAP1 POP PUSH1 0x20 DUP2 ADD SWAP1 POP SWAP2 SWAP1 POP JUMP JUMPDEST DUP3 DUP2 DUP4 CALLDATACOPY PUSH0 DUP4 DUP4 ADD MSTORE POP POP POP JUMP JUMPDEST PUSH0 PUSH2 0xD53 PUSH2 0xD4E DUP5 PUSH2 0xD03 JUMP JUMPDEST PUSH2 0xCE9 JUMP JUMPDEST SWAP1 POP DUP3 DUP2 MSTORE PUSH1 0x20 DUP2 ADD DUP5 DUP5 DUP5 ADD GT ISZERO PUSH2 0xD6F JUMPI PUSH2 0xD6E PUSH2 0xC87 JUMP JUMPDEST JUMPDEST PUSH2 0xD7A DUP5 DUP3 DUP6 PUSH2 0xD33 JUMP JUMPDEST POP SWAP4 SWAP3 POP POP POP JUMP JUMPDEST PUSH0 DUP3 PUSH1 0x1F DUP4 ADD SLT PUSH2 0xD96 JUMPI PUSH2 0xD95 PUSH2 0xC83 JUMP JUMPDEST JUMPDEST DUP2 CALLDATALOAD PUSH2 0xDA6 DUP5 DUP3 PUSH1 0x20 DUP7 ADD PUSH2 0xD41 JUMP JUMPDEST SWAP2 POP POP SWAP3 SWAP2 POP POP JUMP JUMPDEST PUSH0 DUP1 PUSH0 PUSH1 0x60 DUP5 DUP7 SUB SLT ISZERO PUSH2 0xDC6 JUMPI PUSH2 0xDC5 PUSH2 0xC51 JUMP JUMPDEST JUMPDEST PUSH0 PUSH2 0xDD3 DUP7 DUP3 DUP8 ADD PUSH2 0xC6F JUMP JUMPDEST SWAP4 POP POP PUSH1 0x20 DUP5 ADD CALLDATALOAD PUSH8 0xFFFFFFFFFFFFFFFF DUP2 GT ISZERO PUSH2 0xDF4 JUMPI PUSH2 0xDF3 PUSH2 0xC55 JUMP JUMPDEST JUMPDEST PUSH2 0xE00 DUP7 DUP3 DUP8 ADD PUSH2 0xD82 JUMP JUMPDEST SWAP3 POP POP PUSH1 0x40 DUP5 ADD CALLDATALOAD PUSH8 0xFFFFFFFFFFFFFFFF DUP2 GT ISZERO PUSH2 0xE21 JUMPI PUSH2 0xE20 PUSH2 0xC55 JUMP JUMPDEST JUMPDEST PUSH2 0xE2D DUP7 DUP3 DUP8 ADD PUSH2 0xD82 JUMP JUMPDEST SWAP2 POP POP SWAP3 POP SWAP3 POP SWAP3 JUMP JUMPDEST PUSH0 PUSH1 0x20 DUP3 DUP5 SUB SLT ISZERO PUSH2 0xE4C JUMPI PUSH2 0xE4B PUSH2 0xC51 JUMP JUMPDEST JUMPDEST PUSH0 PUSH2 0xE59 DUP5 DUP3 DUP6 ADD PUSH2 0xC6F JUMP JUMPDEST SWAP2 POP POP SWAP3 SWAP2 POP POP JUMP JUMPDEST PUSH2 0xE6B DUP2 PUSH2 0xA3E JUMP JUMPDEST DUP3 MSTORE POP POP JUMP JUMPDEST PUSH0 DUP3 DUP3 MSTORE PUSH1 0x20 DUP3 ADD SWAP1 POP SWAP3 SWAP2 POP POP JUMP JUMPDEST PUSH0 PUSH2 0xE8B DUP3 PUSH2 0xA5E JUMP JUMPDEST PUSH2 0xE95 DUP2 DUP6 PUSH2 0xE71 JUMP JUMPDEST SWAP4 POP PUSH2 0xEA5 DUP2 DUP6 PUSH1 0x20 DUP7 ADD PUSH2 0xA78 JUMP JUMPDEST PUSH2 0xEAE DUP2 PUSH2 0xA86 JUMP JUMPDEST DUP5 ADD SWAP2 POP POP SWAP3 SWAP2 POP POP JUMP JUMPDEST PUSH0 PUSH1 0xE0 DUP3 ADD SWAP1 POP PUSH2 0xECC PUSH0 DUP4 ADD DUP11 PUSH2 0xC20 JUMP JUMPDEST PUSH2 0xED9 PUSH1 0x20 DUP4 ADD DUP10 PUSH2 0xE62 JUMP JUMPDEST PUSH2 0xEE6 PUSH1 0x40 DUP4 ADD DUP9 PUSH2 0xC20 JUMP JUMPDEST DUP2 DUP2 SUB PUSH1 0x60 DUP4 ADD MSTORE PUSH2 0xEF8 DUP2 DUP8 PUSH2 0xE81 JUMP JUMPDEST SWAP1 POP DUP2 DUP2 SUB PUSH1 0x80 DUP4 ADD MSTORE PUSH2 0xF0C DUP2 DUP7 PUSH2 0xE81 JUMP JUMPDEST SWAP1 POP PUSH2 0xF1B PUSH1 0xA0 DUP4 ADD DUP6 PUSH2 0xC20 JUMP JUMPDEST PUSH2 0xF28 PUSH1 0xC0 DUP4 ADD DUP5 PUSH2 0xC20 JUMP JUMPDEST SWAP9 SWAP8 POP POP POP POP POP POP POP POP JUMP JUMPDEST PUSH0 PUSH1 0xE0 DUP4 ADD PUSH0 DUP4 ADD MLOAD PUSH2 0xF49 PUSH0 DUP7 ADD DUP3 PUSH2 0xA10 JUMP JUMPDEST POP PUSH1 0x20 DUP4 ADD MLOAD PUSH2 0xF5C PUSH1 0x20 DUP7 ADD DUP3 PUSH2 0xA4F JUMP JUMPDEST POP PUSH1 0x40 DUP4 ADD MLOAD PUSH2 0xF6F PUSH1 0x40 DUP7 ADD DUP3 PUSH2 0xA10 JUMP JUMPDEST POP PUSH1 0x60 DUP4 ADD MLOAD DUP5 DUP3 SUB PUSH1 0x60 DUP7 ADD MSTORE PUSH2 0xF87 DUP3 DUP3 PUSH2 0xA96 JUMP JUMPDEST SWAP2 POP POP PUSH1 0x80 DUP4 ADD MLOAD DUP5 DUP3 SUB PUSH1 0x80 DUP7 ADD MSTORE PUSH2 0xFA1 DUP3 DUP3 PUSH2 0xA96 JUMP JUMPDEST SWAP2 POP POP PUSH1 0xA0 DUP4 ADD MLOAD PUSH2 0xFB6 PUSH1 0xA0 DUP7 ADD DUP3 PUSH2 0xA10 JUMP JUMPDEST POP PUSH1 0xC0 DUP4 ADD MLOAD PUSH2 0xFC9 PUSH1 0xC0 DUP7 ADD DUP3 PUSH2 0xA10 JUMP JUMPDEST POP DUP1 SWAP2 POP POP SWAP3 SWAP2 POP POP JUMP JUMPDEST PUSH0 PUSH1 0x20 DUP3 ADD SWAP1 POP DUP2 DUP2 SUB PUSH0 DUP4 ADD MSTORE PUSH2 0xFEC DUP2 DUP5 PUSH2 0xF34 JUMP JUMPDEST SWAP1 POP SWAP3 SWAP2 POP POP JUMP JUMPDEST PUSH32 0x4E487B7100000000000000000000000000000000000000000000000000000000 PUSH0 MSTORE PUSH1 0x22 PUSH1 0x4 MSTORE PUSH1 0x24 PUSH0 REVERT JUMPDEST PUSH0 PUSH1 0x2 DUP3 DIV SWAP1 POP PUSH1 0x1 DUP3 AND DUP1 PUSH2 0x1038 JUMPI PUSH1 0x7F DUP3 AND SWAP2 POP JUMPDEST PUSH1 0x20 DUP3 LT DUP2 SUB PUSH2 0x104B JUMPI PUSH2 0x104A PUSH2 0xFF4 JUMP JUMPDEST JUMPDEST POP SWAP2 SWAP1 POP JUMP JUMPDEST PUSH32 0x4E487B7100000000000000000000000000000000000000000000000000000000 PUSH0 MSTORE PUSH1 0x11 PUSH1 0x4 MSTORE PUSH1 0x24 PUSH0 REVERT JUMPDEST PUSH0 PUSH2 0x1088 DUP3 PUSH2 0xA07 JUMP JUMPDEST SWAP2 POP PUSH32 0xFFFFFFFFFFFFFFFFFFFFFFFFFFFFFFFFFFFFFFFFFFFFFFFFFFFFFFFFFFFFFFFF DUP3 SUB PUSH2 0x10BA JUMPI PUSH2 0x10B9 PUSH2 0x1051 JUMP JUMPDEST JUMPDEST PUSH1 0x1 DUP3 ADD SWAP1 POP SWAP2 SWAP1 POP JUMP JUMPDEST PUSH0 PUSH2 0x10CF DUP3 PUSH2 0xA07 JUMP JUMPDEST SWAP2 POP PUSH2 0x10DA DUP4 PUSH2 0xA07 JUMP JUMPDEST SWAP3 POP DUP3 DUP3 ADD SWAP1 POP DUP1 DUP3 GT ISZERO PUSH2 0x10F2 JUMPI PUSH2 0x10F1 PUSH2 0x1051 JUMP JUMPDEST JUMPDEST SWAP3 SWAP2 POP POP JUMP JUMPDEST PUSH0 DUP2 SWAP1 POP DUP2 PUSH0 MSTORE PUSH1 0x20 PUSH0 KECCAK256 SWAP1 POP SWAP2 SWAP1 POP JUMP JUMPDEST PUSH0 PUSH1 0x20 PUSH1 0x1F DUP4 ADD DIV SWAP1 POP SWAP2 SWAP1 POP JUMP JUMPDEST PUSH0 DUP3 DUP3 SHL SWAP1 POP SWAP3 SWAP2 POP POP JUMP JUMPDEST PUSH0 PUSH1 0x8 DUP4 MUL PUSH2 0x1154 PUSH32 0xFFFFFFFFFFFFFFFFFFFFFFFFFFFFFFFFFFFFFFFFFFFFFFFFFFFFFFFFFFFFFFFF DUP3 PUSH2 0x1119 JUMP JUMPDEST PUSH2 0x115E DUP7 DUP4 PUSH2 0x1119 JUMP JUMPDEST SWAP6 POP DUP1 NOT DUP5 AND SWAP4 POP DUP1 DUP7 AND DUP5 OR SWAP3 POP POP POP SWAP4 SWAP3 POP POP POP JUMP JUMPDEST PUSH0 DUP2 SWAP1 POP SWAP2 SWAP1 POP JUMP JUMPDEST PUSH0 PUSH2 0x1199 PUSH2 0x1194 PUSH2 0x118F DUP5 PUSH2 0xA07 JUMP JUMPDEST PUSH2 0x1176 JUMP JUMPDEST PUSH2 0xA07 JUMP JUMPDEST SWAP1 POP SWAP2 SWAP1 POP JUMP JUMPDEST PUSH0 DUP2 SWAP1 POP SWAP2 SWAP1 POP JUMP JUMPDEST PUSH2 0x11B2 DUP4 PUSH2 0x117F JUMP JUMPDEST PUSH2 0x11C6 PUSH2 0x11BE DUP3 PUSH2 0x11A0 JUMP JUMPDEST DUP5 DUP5 SLOAD PUSH2 0x1125 JUMP JUMPDEST DUP3 SSTORE POP POP POP POP JUMP JUMPDEST PUSH0 SWAP1 JUMP JUMPDEST PUSH2 0x11DA PUSH2 0x11CE JUMP JUMPDEST PUSH2 0x11E5 DUP2 DUP5 DUP5 PUSH2 0x11A9 JUMP JUMPDEST POP POP POP JUMP JUMPDEST JUMPDEST DUP2 DUP2 LT ISZERO PUSH2 0x1208 JUMPI PUSH2 0x11FD PUSH0 DUP3 PUSH2 0x11D2 JUMP JUMPDEST PUSH1 0x1 DUP2 ADD SWAP1 POP PUSH2 0x11EB JUMP JUMPDEST POP POP JUMP JUMPDEST PUSH1 0x1F DUP3 GT ISZERO PUSH2 0x124D JUMPI PUSH2 0x121E DUP2 PUSH2 0x10F8 JUMP JUMPDEST PUSH2 0x1227 DUP5 PUSH2 0x110A JUMP JUMPDEST DUP2 ADD PUSH1 0x20 DUP6 LT ISZERO PUSH2 0x1236 JUMPI DUP2 SWAP1 POP JUMPDEST PUSH2 0x124A PUSH2 0x1242 DUP6 PUSH2 0x110A JUMP JUMPDEST DUP4 ADD DUP3 PUSH2 0x11EA JUMP JUMPDEST POP POP JUMPDEST POP POP POP JUMP JUMPDEST PUSH0 DUP3 DUP3 SHR SWAP1 POP SWAP3 SWAP2 POP POP JUMP JUMPDEST PUSH0 PUSH2 0x126D PUSH0 NOT DUP5 PUSH1 0x8 MUL PUSH2 0x1252 JUMP JUMPDEST NOT DUP1 DUP4 AND SWAP2 POP POP SWAP3 SWAP2 POP POP JUMP JUMPDEST PUSH0 PUSH2 0x1285 DUP4 DUP4 PUSH2 0x125E JUMP JUMPDEST SWAP2 POP DUP3 PUSH1 0x2 MUL DUP3 OR SWAP1 POP SWAP3 SWAP2 POP POP JUMP JUMPDEST PUSH2 0x129E DUP3 PUSH2 0xA5E JUMP JUMPDEST PUSH8 0xFFFFFFFFFFFFFFFF DUP2 GT ISZERO PUSH2 0x12B7 JUMPI PUSH2 0x12B6 PUSH2 0xC8B JUMP JUMPDEST JUMPDEST PUSH2 0x12C1 DUP3 SLOAD PUSH2 0x1021 JUMP JUMPDEST PUSH2 0x12CC DUP3 DUP3 DUP6 PUSH2 0x120C JUMP JUMPDEST PUSH0 PUSH1 0x20 SWAP1 POP PUSH1 0x1F DUP4 GT PUSH1 0x1 DUP2 EQ PUSH2 0x12FD JUMPI PUSH0 DUP5 ISZERO PUSH2 0x12EB JUMPI DUP3 DUP8 ADD MLOAD SWAP1 POP JUMPDEST PUSH2 0x12F5 DUP6 DUP3 PUSH2 0x127A JUMP JUMPDEST DUP7 SSTORE POP PUSH2 0x135C JUMP JUMPDEST PUSH1 0x1F NOT DUP5 AND PUSH2 0x130B DUP7 PUSH2 0x10F8 JUMP JUMPDEST PUSH0 JUMPDEST DUP3 DUP2 LT ISZERO PUSH2 0x1332 JUMPI DUP5 DUP10 ADD MLOAD DUP3 SSTORE PUSH1 0x1 DUP3 ADD SWAP2 POP PUSH1 0x20 DUP6 ADD SWAP5 POP PUSH1 0x20 DUP2 ADD SWAP1 POP PUSH2 0x130D JUMP JUMPDEST DUP7 DUP4 LT ISZERO PUSH2 0x134F JUMPI DUP5 DUP10 ADD MLOAD PUSH2 0x134B PUSH1 0x1F DUP10 AND DUP3 PUSH2 0x125E JUMP JUMPDEST DUP4 SSTORE POP JUMPDEST PUSH1 0x1 PUSH1 0x2 DUP9 MUL ADD DUP9 SSTORE POP POP POP JUMPDEST POP POP POP POP POP POP JUMP JUMPDEST PUSH32 0x596F7572206163636F756E742062616C616E6365206973206C6F770000000000 PUSH0 DUP3 ADD MSTORE POP JUMP JUMPDEST PUSH0 PUSH2 0x1398 PUSH1 0x1B DUP4 PUSH2 0xE71 JUMP JUMPDEST SWAP2 POP PUSH2 0x13A3 DUP3 PUSH2 0x1364 JUMP JUMPDEST PUSH1 0x20 DUP3 ADD SWAP1 POP SWAP2 SWAP1 POP JUMP JUMPDEST PUSH0 PUSH1 0x20 DUP3 ADD SWAP1 POP DUP2 DUP2 SUB PUSH0 DUP4 ADD MSTORE PUSH2 0x13C5 DUP2 PUSH2 0x138C JUMP JUMPDEST SWAP1 POP SWAP2 SWAP1 POP JUMP JUMPDEST PUSH0 PUSH2 0x13D6 DUP3 PUSH2 0xA07 JUMP JUMPDEST SWAP2 POP PUSH2 0x13E1 DUP4 PUSH2 0xA07 JUMP JUMPDEST SWAP3 POP DUP3 DUP3 SUB SWAP1 POP DUP2 DUP2 GT ISZERO PUSH2 0x13F9 JUMPI PUSH2 0x13F8 PUSH2 0x1051 JUMP JUMPDEST JUMPDEST SWAP3 SWAP2 POP POP JUMP JUMPDEST PUSH32 0x4E487B7100000000000000000000000000000000000000000000000000000000 PUSH0 MSTORE PUSH1 0x32 PUSH1 0x4 MSTORE PUSH1 0x24 PUSH0 REVERT INVALID LOG2 PUSH5 0x6970667358 0x22 SLT KECCAK256 BASEFEE 0xEA 0xDC NUMBER SIGNEXTEND SWAP1 0xEF ISZERO SHR 0xAF 0xD7 ISZERO 0x1F SIGNEXTEND MOD 0xA9 PUSH8 0x85EABB014F190EF0 0xC3 PUSH3 0xAF173B 0xC1 0xC1 PUSH5 0x736F6C6343 STOP ADDMOD BYTE STOP CALLER "
				},
				"gasEstimates": {
					"creation": {
						"codeDepositCost": "1043600",
						"executionCost": "1085",
						"totalCost": "1044685"
					},
					"external": {
						"arrTransactions(uint256)": "infinite",
						"deposit(uint256,string,string)": "infinite",
						"transactionId()": "2448",
						"userBalance()": "2468",
						"viewAllTransactions()": "infinite",
						"viewOneTransaction(uint256)": "infinite",
						"withdraw(uint256,string,string)": "infinite"
					}
				},
				"methodIdentifiers": {
					"arrTransactions(uint256)": "98311875",
					"deposit(uint256,string,string)": "97695d93",
					"transactionId()": "7e2f42e7",
					"userBalance()": "bf152765",
					"viewAllTransactions()": "2d686b20",
					"viewOneTransaction(uint256)": "e6d7d14e",
					"withdraw(uint256,string,string)": "9a493e75"
				}
			},
			"storageLayout": {
				"storage": [
					{
						"astId": 3,
						"contract": "project.sol:bankingApp",
						"label": "userBalance",
						"offset": 0,
						"slot": "0",
						"type": "t_uint256"
					},
					{
						"astId": 5,
						"contract": "project.sol:bankingApp",
						"label": "transactionId",
						"offset": 0,
						"slot": "1",
						"type": "t_uint256"
					},
					{
						"astId": 24,
						"contract": "project.sol:bankingApp",
						"label": "arrTransactions",
						"offset": 0,
						"slot": "2",
						"type": "t_array(t_struct(transactions)20_storage)dyn_storage"
					}
				],
				"types": {
					"t_address": {
						"encoding": "inplace",
						"label": "address",
						"numberOfBytes": "20"
					},
					"t_array(t_struct(transactions)20_storage)dyn_storage": {
						"base": "t_struct(transactions)20_storage",
						"encoding": "dynamic_array",
						"label": "struct bankingApp.transactions[]",
						"numberOfBytes": "32"
					},
					"t_string_storage": {
						"encoding": "bytes",
						"label": "string",
						"numberOfBytes": "32"
					},
					"t_struct(transactions)20_storage": {
						"encoding": "inplace",
						"label": "struct bankingApp.transactions",
						"members": [
							{
								"astId": 7,
								"contract": "project.sol:bankingApp",
								"label": "idNum",
								"offset": 0,
								"slot": "0",
								"type": "t_uint256"
							},
							{
								"astId": 9,
								"contract": "project.sol:bankingApp",
								"label": "user",
								"offset": 0,
								"slot": "1",
								"type": "t_address"
							},
							{
								"astId": 11,
								"contract": "project.sol:bankingApp",
								"label": "time",
								"offset": 0,
								"slot": "2",
								"type": "t_uint256"
							},
							{
								"astId": 13,
								"contract": "project.sol:bankingApp",
								"label": "ref",
								"offset": 0,
								"slot": "3",
								"type": "t_string_storage"
							},
							{
								"astId": 15,
								"contract": "project.sol:bankingApp",
								"label": "network",
								"offset": 0,
								"slot": "4",
								"type": "t_string_storage"
							},
							{
								"astId": 17,
								"contract": "project.sol:bankingApp",
								"label": "amt",
								"offset": 0,
								"slot": "5",
								"type": "t_uint256"
							},
							{
								"astId": 19,
								"contract": "project.sol:bankingApp",
								"label": "userBalance",
								"offset": 0,
								"slot": "6",
								"type": "t_uint256"
							}
						],
						"numberOfBytes": "224"
					},
					"t_uint256": {
						"encoding": "inplace",
						"label": "uint256",
						"numberOfBytes": "32"
					}
				}
			},
			"userdoc": {
				"kind": "user",
				"methods": {},
				"version": 1
			}
		}
	}
}