{
	"twitterDapp.sol": {
		"Twitter": {
			"abi": [
				{
					"inputs": [],
					"stateMutability": "nonpayable",
					"type": "constructor"
				},
				{
					"anonymous": false,
					"inputs": [
						{
							"indexed": true,
							"internalType": "address",
							"name": "followedUser",
							"type": "address"
						},
						{
							"indexed": true,
							"internalType": "address",
							"name": "follower",
							"type": "address"
						},
						{
							"indexed": false,
							"internalType": "uint256",
							"name": "timestamp",
							"type": "uint256"
						}
					],
					"name": "Followed",
					"type": "event"
				},
				{
					"anonymous": false,
					"inputs": [
						{
							"indexed": true,
							"internalType": "address",
							"name": "follower",
							"type": "address"
						},
						{
							"indexed": true,
							"internalType": "address",
							"name": "followedUser",
							"type": "address"
						},
						{
							"indexed": false,
							"internalType": "uint256",
							"name": "timestamp",
							"type": "uint256"
						}
					],
					"name": "NewFollower",
					"type": "event"
				},
				{
					"anonymous": false,
					"inputs": [
						{
							"indexed": false,
							"internalType": "uint256",
							"name": "id",
							"type": "uint256"
						},
						{
							"indexed": true,
							"internalType": "address",
							"name": "author",
							"type": "address"
						},
						{
							"indexed": false,
							"internalType": "string",
							"name": "content",
							"type": "string"
						},
						{
							"indexed": false,
							"internalType": "uint256",
							"name": "timestamp",
							"type": "uint256"
						},
						{
							"indexed": false,
							"internalType": "uint256",
							"name": "likes",
							"type": "uint256"
						}
					],
					"name": "TweetCreated",
					"type": "event"
				},
				{
					"anonymous": false,
					"inputs": [
						{
							"indexed": true,
							"internalType": "address",
							"name": "owner",
							"type": "address"
						},
						{
							"indexed": false,
							"internalType": "uint16",
							"name": "tweetlength",
							"type": "uint16"
						}
					],
					"name": "TweetLengthChanged",
					"type": "event"
				},
				{
					"anonymous": false,
					"inputs": [
						{
							"indexed": true,
							"internalType": "address",
							"name": "author",
							"type": "address"
						},
						{
							"indexed": false,
							"internalType": "uint256",
							"name": "likes",
							"type": "uint256"
						}
					],
					"name": "TweetLiked",
					"type": "event"
				},
				{
					"anonymous": false,
					"inputs": [
						{
							"indexed": true,
							"internalType": "address",
							"name": "author",
							"type": "address"
						},
						{
							"indexed": false,
							"internalType": "uint256",
							"name": "likes",
							"type": "uint256"
						}
					],
					"name": "TweetUnLiked",
					"type": "event"
				},
				{
					"inputs": [],
					"name": "MAX_TWEET_LIMIT",
					"outputs": [
						{
							"internalType": "uint16",
							"name": "",
							"type": "uint16"
						}
					],
					"stateMutability": "view",
					"type": "function"
				},
				{
					"inputs": [
						{
							"internalType": "uint16",
							"name": "_newTweetLength",
							"type": "uint16"
						}
					],
					"name": "changeTweetLength",
					"outputs": [],
					"stateMutability": "nonpayable",
					"type": "function"
				},
				{
					"inputs": [
						{
							"internalType": "string",
							"name": "_tweet",
							"type": "string"
						}
					],
					"name": "createTweet",
					"outputs": [],
					"stateMutability": "nonpayable",
					"type": "function"
				},
				{
					"inputs": [
						{
							"internalType": "address",
							"name": "_user",
							"type": "address"
						}
					],
					"name": "follow",
					"outputs": [],
					"stateMutability": "nonpayable",
					"type": "function"
				},
				{
					"inputs": [
						{
							"internalType": "address",
							"name": "",
							"type": "address"
						},
						{
							"internalType": "uint256",
							"name": "",
							"type": "uint256"
						}
					],
					"name": "followers",
					"outputs": [
						{
							"internalType": "address",
							"name": "user",
							"type": "address"
						},
						{
							"internalType": "uint256",
							"name": "timestamp",
							"type": "uint256"
						}
					],
					"stateMutability": "view",
					"type": "function"
				},
				{
					"inputs": [
						{
							"internalType": "address",
							"name": "",
							"type": "address"
						},
						{
							"internalType": "uint256",
							"name": "",
							"type": "uint256"
						}
					],
					"name": "following",
					"outputs": [
						{
							"internalType": "address",
							"name": "user",
							"type": "address"
						},
						{
							"internalType": "uint256",
							"name": "timestamp",
							"type": "uint256"
						}
					],
					"stateMutability": "view",
					"type": "function"
				},
				{
					"inputs": [
						{
							"internalType": "address",
							"name": "_owner",
							"type": "address"
						}
					],
					"name": "getAllTweets",
					"outputs": [
						{
							"components": [
								{
									"internalType": "uint256",
									"name": "id",
									"type": "uint256"
								},
								{
									"internalType": "address",
									"name": "author",
									"type": "address"
								},
								{
									"internalType": "string",
									"name": "content",
									"type": "string"
								},
								{
									"internalType": "uint256",
									"name": "timestamp",
									"type": "uint256"
								},
								{
									"internalType": "uint256",
									"name": "likes",
									"type": "uint256"
								}
							],
							"internalType": "struct Twitter.Tweet[]",
							"name": "",
							"type": "tuple[]"
						}
					],
					"stateMutability": "view",
					"type": "function"
				},
				{
					"inputs": [
						{
							"internalType": "address",
							"name": "author",
							"type": "address"
						},
						{
							"internalType": "uint256",
							"name": "id",
							"type": "uint256"
						}
					],
					"name": "likeTweet",
					"outputs": [],
					"stateMutability": "nonpayable",
					"type": "function"
				},
				{
					"inputs": [],
					"name": "numberOfTweets",
					"outputs": [
						{
							"internalType": "uint256",
							"name": "",
							"type": "uint256"
						}
					],
					"stateMutability": "view",
					"type": "function"
				},
				{
					"inputs": [],
					"name": "owner",
					"outputs": [
						{
							"internalType": "address",
							"name": "",
							"type": "address"
						}
					],
					"stateMutability": "view",
					"type": "function"
				},
				{
					"inputs": [
						{
							"internalType": "address",
							"name": "",
							"type": "address"
						},
						{
							"internalType": "uint256",
							"name": "",
							"type": "uint256"
						}
					],
					"name": "tweets",
					"outputs": [
						{
							"internalType": "uint256",
							"name": "id",
							"type": "uint256"
						},
						{
							"internalType": "address",
							"name": "author",
							"type": "address"
						},
						{
							"internalType": "string",
							"name": "content",
							"type": "string"
						},
						{
							"internalType": "uint256",
							"name": "timestamp",
							"type": "uint256"
						},
						{
							"internalType": "uint256",
							"name": "likes",
							"type": "uint256"
						}
					],
					"stateMutability": "view",
					"type": "function"
				},
				{
					"inputs": [
						{
							"internalType": "address",
							"name": "author",
							"type": "address"
						},
						{
							"internalType": "uint256",
							"name": "id",
							"type": "uint256"
						}
					],
					"name": "unLlikeTweet",
					"outputs": [],
					"stateMutability": "nonpayable",
					"type": "function"
				},
				{
					"inputs": [
						{
							"internalType": "address",
							"name": "_owner",
							"type": "address"
						},
						{
							"internalType": "uint256",
							"name": "_i",
							"type": "uint256"
						}
					],
					"name": "viewTweet",
					"outputs": [
						{
							"components": [
								{
									"internalType": "uint256",
									"name": "id",
									"type": "uint256"
								},
								{
									"internalType": "address",
									"name": "author",
									"type": "address"
								},
								{
									"internalType": "string",
									"name": "content",
									"type": "string"
								},
								{
									"internalType": "uint256",
									"name": "timestamp",
									"type": "uint256"
								},
								{
									"internalType": "uint256",
									"name": "likes",
									"type": "uint256"
								}
							],
							"internalType": "struct Twitter.Tweet",
							"name": "",
							"type": "tuple"
						}
					],
					"stateMutability": "view",
					"type": "function"
				}
			],
			"devdoc": {
				"kind": "dev",
				"methods": {},
				"version": 1
			},
			"evm": {
				"assembly": "    /* \"twitterDapp.sol\":60:3369  contract Twitter{... */\n  mstore(0x40, 0x80)\n    /* \"twitterDapp.sol\":362:365  200 */\n  0xc8\n    /* \"twitterDapp.sol\":330:365  uint16 public MAX_TWEET_LIMIT = 200 */\n  0x00\n  dup1\n  0x0100\n  exp\n  dup2\n  sload\n  dup2\n  0xffff\n  mul\n  not\n  and\n  swap1\n  dup4\n  0xffff\n  and\n  mul\n  or\n  swap1\n  sstore\n  pop\n    /* \"twitterDapp.sol\":593:643  constructor(){... */\n  callvalue\n  dup1\n  iszero\n  tag_1\n  jumpi\n  0x00\n  dup1\n  revert\ntag_1:\n  pop\n    /* \"twitterDapp.sol\":625:635  msg.sender */\n  caller\n    /* \"twitterDapp.sol\":617:622  owner */\n  0x00\n  0x02\n    /* \"twitterDapp.sol\":617:635  owner = msg.sender */\n  0x0100\n  exp\n  dup2\n  sload\n  dup2\n  0xffffffffffffffffffffffffffffffffffffffff\n  mul\n  not\n  and\n  swap1\n  dup4\n  0xffffffffffffffffffffffffffffffffffffffff\n  and\n  mul\n  or\n  swap1\n  sstore\n  pop\n    /* \"twitterDapp.sol\":60:3369  contract Twitter{... */\n  dataSize(sub_0)\n  dup1\n  dataOffset(sub_0)\n  0x00\n  codecopy\n  0x00\n  return\nstop\n\nsub_0: assembly {\n        /* \"twitterDapp.sol\":60:3369  contract Twitter{... */\n      mstore(0x40, 0x80)\n      callvalue\n      dup1\n      iszero\n      tag_1\n      jumpi\n      0x00\n      dup1\n      revert\n    tag_1:\n      pop\n      jumpi(tag_2, lt(calldatasize, 0x04))\n      shr(0xe0, calldataload(0x00))\n      dup1\n      0x62a9edca\n      gt\n      tag_16\n      jumpi\n      dup1\n      0x7c9cd2bc\n      gt\n      tag_17\n      jumpi\n      dup1\n      0x7c9cd2bc\n      eq\n      tag_12\n      jumpi\n      dup1\n      0x8da5cb5b\n      eq\n      tag_13\n      jumpi\n      dup1\n      0x9139cda5\n      eq\n      tag_14\n      jumpi\n      dup1\n      0xebd009d3\n      eq\n      tag_15\n      jumpi\n      jump(tag_2)\n    tag_17:\n      dup1\n      0x62a9edca\n      eq\n      tag_9\n      jumpi\n      dup1\n      0x63378216\n      eq\n      tag_10\n      jumpi\n      dup1\n      0x728540c0\n      eq\n      tag_11\n      jumpi\n      jump(tag_2)\n    tag_16:\n      dup1\n      0x05a1b4a9\n      eq\n      tag_3\n      jumpi\n      dup1\n      0x12e7ee1c\n      eq\n      tag_4\n      jumpi\n      dup1\n      0x32b0aa6a\n      eq\n      tag_5\n      jumpi\n      dup1\n      0x4dbf27cc\n      eq\n      tag_6\n      jumpi\n      dup1\n      0x58bfa4ab\n      eq\n      tag_7\n      jumpi\n      dup1\n      0x5a34bd5e\n      eq\n      tag_8\n      jumpi\n    tag_2:\n      0x00\n      dup1\n      revert\n        /* \"twitterDapp.sol\":417:458  mapping(address => Tweet[]) public tweets */\n    tag_3:\n      tag_18\n      0x04\n      dup1\n      calldatasize\n      sub\n      dup2\n      add\n      swap1\n      tag_19\n      swap2\n      swap1\n      tag_20\n      jump\t// in\n    tag_19:\n      tag_21\n      jump\t// in\n    tag_18:\n      mload(0x40)\n      tag_22\n      swap6\n      swap5\n      swap4\n      swap3\n      swap2\n      swap1\n      tag_23\n      jump\t// in\n    tag_22:\n      mload(0x40)\n      dup1\n      swap2\n      sub\n      swap1\n      return\n        /* \"twitterDapp.sol\":2178:2292  function getAllTweets(address _owner) public view returns(Tweet [] memory){... */\n    tag_4:\n      tag_24\n      0x04\n      dup1\n      calldatasize\n      sub\n      dup2\n      add\n      swap1\n      tag_25\n      swap2\n      swap1\n      tag_26\n      jump\t// in\n    tag_25:\n      tag_27\n      jump\t// in\n    tag_24:\n      mload(0x40)\n      tag_28\n      swap2\n      swap1\n      tag_29\n      jump\t// in\n    tag_28:\n      mload(0x40)\n      dup1\n      swap2\n      sub\n      swap1\n      return\n        /* \"twitterDapp.sol\":2729:3035  function unLlikeTweet(address author, uint id) public{... */\n    tag_5:\n      tag_30\n      0x04\n      dup1\n      calldatasize\n      sub\n      dup2\n      add\n      swap1\n      tag_31\n      swap2\n      swap1\n      tag_20\n      jump\t// in\n    tag_31:\n      tag_32\n      jump\t// in\n    tag_30:\n      stop\n        /* \"twitterDapp.sol\":3039:3366  function follow (address _user)  public {... */\n    tag_6:\n      tag_33\n      0x04\n      dup1\n      calldatasize\n      sub\n      dup2\n      add\n      swap1\n      tag_34\n      swap2\n      swap1\n      tag_26\n      jump\t// in\n    tag_34:\n      tag_35\n      jump\t// in\n    tag_33:\n      stop\n        /* \"twitterDapp.sol\":2300:2482  function changeTweetLength(uint16 _newTweetLength) public onlyOwner {... */\n    tag_7:\n      tag_36\n      0x04\n      dup1\n      calldatasize\n      sub\n      dup2\n      add\n      swap1\n      tag_37\n      swap2\n      swap1\n      tag_38\n      jump\t// in\n    tag_37:\n      tag_39\n      jump\t// in\n    tag_36:\n      stop\n        /* \"twitterDapp.sol\":1933:2041  function numberOfTweets() public view returns (uint) {... */\n    tag_8:\n      tag_40\n      tag_41\n      jump\t// in\n    tag_40:\n      mload(0x40)\n      tag_42\n      swap2\n      swap1\n      tag_43\n      jump\t// in\n    tag_42:\n      mload(0x40)\n      dup1\n      swap2\n      sub\n      swap1\n      return\n        /* \"twitterDapp.sol\":330:365  uint16 public MAX_TWEET_LIMIT = 200 */\n    tag_9:\n      tag_44\n      tag_45\n      jump\t// in\n    tag_44:\n      mload(0x40)\n      tag_46\n      swap2\n      swap1\n      tag_47\n      jump\t// in\n    tag_46:\n      mload(0x40)\n      dup1\n      swap2\n      sub\n      swap1\n      return\n        /* \"twitterDapp.sol\":2490:2721  function likeTweet(address author, uint id) public{... */\n    tag_10:\n      tag_48\n      0x04\n      dup1\n      calldatasize\n      sub\n      dup2\n      add\n      swap1\n      tag_49\n      swap2\n      swap1\n      tag_20\n      jump\t// in\n    tag_49:\n      tag_50\n      jump\t// in\n    tag_48:\n      stop\n        /* \"twitterDapp.sol\":2049:2170  function viewTweet(address _owner, uint _i) public view returns(Tweet memory){... */\n    tag_11:\n      tag_51\n      0x04\n      dup1\n      calldatasize\n      sub\n      dup2\n      add\n      swap1\n      tag_52\n      swap2\n      swap1\n      tag_20\n      jump\t// in\n    tag_52:\n      tag_53\n      jump\t// in\n    tag_51:\n      mload(0x40)\n      tag_54\n      swap2\n      swap1\n      tag_55\n      jump\t// in\n    tag_54:\n      mload(0x40)\n      dup1\n      swap2\n      sub\n      swap1\n      return\n        /* \"twitterDapp.sol\":1308:1923  function createTweet(string memory _tweet) public {... */\n    tag_12:\n      tag_56\n      0x04\n      dup1\n      calldatasize\n      sub\n      dup2\n      add\n      swap1\n      tag_57\n      swap2\n      swap1\n      tag_58\n      jump\t// in\n    tag_57:\n      tag_59\n      jump\t// in\n    tag_56:\n      stop\n        /* \"twitterDapp.sol\":372:392  address public owner */\n    tag_13:\n      tag_60\n      tag_61\n      jump\t// in\n    tag_60:\n      mload(0x40)\n      tag_62\n      swap2\n      swap1\n      tag_63\n      jump\t// in\n    tag_62:\n      mload(0x40)\n      dup1\n      swap2\n      sub\n      swap1\n      return\n        /* \"twitterDapp.sol\":518:565  mapping  (address => Follow[]) public following */\n    tag_14:\n      tag_64\n      0x04\n      dup1\n      calldatasize\n      sub\n      dup2\n      add\n      swap1\n      tag_65\n      swap2\n      swap1\n      tag_20\n      jump\t// in\n    tag_65:\n      tag_66\n      jump\t// in\n    tag_64:\n      mload(0x40)\n      tag_67\n      swap3\n      swap2\n      swap1\n      tag_68\n      jump\t// in\n    tag_67:\n      mload(0x40)\n      dup1\n      swap2\n      sub\n      swap1\n      return\n        /* \"twitterDapp.sol\":465:511  mapping (address => Follow[]) public followers */\n    tag_15:\n      tag_69\n      0x04\n      dup1\n      calldatasize\n      sub\n      dup2\n      add\n      swap1\n      tag_70\n      swap2\n      swap1\n      tag_20\n      jump\t// in\n    tag_70:\n      tag_71\n      jump\t// in\n    tag_69:\n      mload(0x40)\n      tag_72\n      swap3\n      swap2\n      swap1\n      tag_68\n      jump\t// in\n    tag_72:\n      mload(0x40)\n      dup1\n      swap2\n      sub\n      swap1\n      return\n        /* \"twitterDapp.sol\":417:458  mapping(address => Tweet[]) public tweets */\n    tag_21:\n      mstore(0x20, 0x01)\n      dup2\n      0x00\n      mstore\n      keccak256(0x00, 0x40)\n      dup2\n      dup2\n      sload\n      dup2\n      lt\n      tag_73\n      jumpi\n      0x00\n      dup1\n      revert\n    tag_73:\n      swap1\n      0x00\n      mstore\n      keccak256(0x00, 0x20)\n      swap1\n      0x05\n      mul\n      add\n      0x00\n      swap2\n      pop\n      swap2\n      pop\n      pop\n      dup1\n      0x00\n      add\n      sload\n      swap1\n      dup1\n      0x01\n      add\n      0x00\n      swap1\n      sload\n      swap1\n      0x0100\n      exp\n      swap1\n      div\n      0xffffffffffffffffffffffffffffffffffffffff\n      and\n      swap1\n      dup1\n      0x02\n      add\n      dup1\n      sload\n      tag_75\n      swap1\n      tag_76\n      jump\t// in\n    tag_75:\n      dup1\n      0x1f\n      add\n      0x20\n      dup1\n      swap2\n      div\n      mul\n      0x20\n      add\n      mload(0x40)\n      swap1\n      dup2\n      add\n      0x40\n      mstore\n      dup1\n      swap3\n      swap2\n      swap1\n      dup2\n      dup2\n      mstore\n      0x20\n      add\n      dup3\n      dup1\n      sload\n      tag_77\n      swap1\n      tag_76\n      jump\t// in\n    tag_77:\n      dup1\n      iszero\n      tag_78\n      jumpi\n      dup1\n      0x1f\n      lt\n      tag_79\n      jumpi\n      0x0100\n      dup1\n      dup4\n      sload\n      div\n      mul\n      dup4\n      mstore\n      swap2\n      0x20\n      add\n      swap2\n      jump(tag_78)\n    tag_79:\n      dup3\n      add\n      swap2\n      swap1\n      0x00\n      mstore\n      keccak256(0x00, 0x20)\n      swap1\n    tag_80:\n      dup2\n      sload\n      dup2\n      mstore\n      swap1\n      0x01\n      add\n      swap1\n      0x20\n      add\n      dup1\n      dup4\n      gt\n      tag_80\n      jumpi\n      dup3\n      swap1\n      sub\n      0x1f\n      and\n      dup3\n      add\n      swap2\n    tag_78:\n      pop\n      pop\n      pop\n      pop\n      pop\n      swap1\n      dup1\n      0x03\n      add\n      sload\n      swap1\n      dup1\n      0x04\n      add\n      sload\n      swap1\n      pop\n      dup6\n      jump\t// out\n        /* \"twitterDapp.sol\":2178:2292  function getAllTweets(address _owner) public view returns(Tweet [] memory){... */\n    tag_27:\n        /* \"twitterDapp.sol\":2236:2251  Tweet [] memory */\n      0x60\n        /* \"twitterDapp.sol\":2270:2276  tweets */\n      0x01\n        /* \"twitterDapp.sol\":2270:2284  tweets[_owner] */\n      0x00\n        /* \"twitterDapp.sol\":2277:2283  _owner */\n      dup4\n        /* \"twitterDapp.sol\":2270:2284  tweets[_owner] */\n      0xffffffffffffffffffffffffffffffffffffffff\n      and\n      0xffffffffffffffffffffffffffffffffffffffff\n      and\n      dup2\n      mstore\n      0x20\n      add\n      swap1\n      dup2\n      mstore\n      0x20\n      add\n      0x00\n      keccak256\n        /* \"twitterDapp.sol\":2263:2284  return tweets[_owner] */\n      dup1\n      sload\n      dup1\n      0x20\n      mul\n      0x20\n      add\n      mload(0x40)\n      swap1\n      dup2\n      add\n      0x40\n      mstore\n      dup1\n      swap3\n      swap2\n      swap1\n      dup2\n      dup2\n      mstore\n      0x20\n      add\n      0x00\n      swap1\n    tag_82:\n      dup3\n      dup3\n      lt\n      iszero\n      tag_83\n      jumpi\n      dup4\n      dup3\n      swap1\n      0x00\n      mstore\n      keccak256(0x00, 0x20)\n      swap1\n      0x05\n      mul\n      add\n      mload(0x40)\n      dup1\n      0xa0\n      add\n      0x40\n      mstore\n      swap1\n      dup2\n      0x00\n      dup3\n      add\n      sload\n      dup2\n      mstore\n      0x20\n      add\n      0x01\n      dup3\n      add\n      0x00\n      swap1\n      sload\n      swap1\n      0x0100\n      exp\n      swap1\n      div\n      0xffffffffffffffffffffffffffffffffffffffff\n      and\n      0xffffffffffffffffffffffffffffffffffffffff\n      and\n      0xffffffffffffffffffffffffffffffffffffffff\n      and\n      dup2\n      mstore\n      0x20\n      add\n      0x02\n      dup3\n      add\n      dup1\n      sload\n      tag_85\n      swap1\n      tag_76\n      jump\t// in\n    tag_85:\n      dup1\n      0x1f\n      add\n      0x20\n      dup1\n      swap2\n      div\n      mul\n      0x20\n      add\n      mload(0x40)\n      swap1\n      dup2\n      add\n      0x40\n      mstore\n      dup1\n      swap3\n      swap2\n      swap1\n      dup2\n      dup2\n      mstore\n      0x20\n      add\n      dup3\n      dup1\n      sload\n      tag_86\n      swap1\n      tag_76\n      jump\t// in\n    tag_86:\n      dup1\n      iszero\n      tag_87\n      jumpi\n      dup1\n      0x1f\n      lt\n      tag_88\n      jumpi\n      0x0100\n      dup1\n      dup4\n      sload\n      div\n      mul\n      dup4\n      mstore\n      swap2\n      0x20\n      add\n      swap2\n      jump(tag_87)\n    tag_88:\n      dup3\n      add\n      swap2\n      swap1\n      0x00\n      mstore\n      keccak256(0x00, 0x20)\n      swap1\n    tag_89:\n      dup2\n      sload\n      dup2\n      mstore\n      swap1\n      0x01\n      add\n      swap1\n      0x20\n      add\n      dup1\n      dup4\n      gt\n      tag_89\n      jumpi\n      dup3\n      swap1\n      sub\n      0x1f\n      and\n      dup3\n      add\n      swap2\n    tag_87:\n      pop\n      pop\n      pop\n      pop\n      pop\n      dup2\n      mstore\n      0x20\n      add\n      0x03\n      dup3\n      add\n      sload\n      dup2\n      mstore\n      0x20\n      add\n      0x04\n      dup3\n      add\n      sload\n      dup2\n      mstore\n      pop\n      pop\n      dup2\n      mstore\n      0x20\n      add\n      swap1\n      0x01\n      add\n      swap1\n      jump(tag_82)\n    tag_83:\n      pop\n      pop\n      pop\n      pop\n      swap1\n      pop\n        /* \"twitterDapp.sol\":2178:2292  function getAllTweets(address _owner) public view returns(Tweet [] memory){... */\n      swap2\n      swap1\n      pop\n      jump\t// out\n        /* \"twitterDapp.sol\":2729:3035  function unLlikeTweet(address author, uint id) public{... */\n    tag_32:\n        /* \"twitterDapp.sol\":2826:2828  id */\n      dup1\n        /* \"twitterDapp.sol\":2801:2807  tweets */\n      0x01\n        /* \"twitterDapp.sol\":2801:2815  tweets[author] */\n      0x00\n        /* \"twitterDapp.sol\":2808:2814  author */\n      dup5\n        /* \"twitterDapp.sol\":2801:2815  tweets[author] */\n      0xffffffffffffffffffffffffffffffffffffffff\n      and\n      0xffffffffffffffffffffffffffffffffffffffff\n      and\n      dup2\n      mstore\n      0x20\n      add\n      swap1\n      dup2\n      mstore\n      0x20\n      add\n      0x00\n      keccak256\n        /* \"twitterDapp.sol\":2816:2818  id */\n      dup3\n        /* \"twitterDapp.sol\":2801:2819  tweets[author][id] */\n      dup2\n      sload\n      dup2\n      lt\n      tag_91\n      jumpi\n      tag_92\n      tag_93\n      jump\t// in\n    tag_92:\n    tag_91:\n      swap1\n      0x00\n      mstore\n      keccak256(0x00, 0x20)\n      swap1\n      0x05\n      mul\n      add\n        /* \"twitterDapp.sol\":2801:2822  tweets[author][id].id */\n      0x00\n      add\n      sload\n        /* \"twitterDapp.sol\":2801:2828  tweets[author][id].id == id */\n      eq\n        /* \"twitterDapp.sol\":2793:2852  require(tweets[author][id].id == id, \"TWEET DOESN'T EXIST\") */\n      tag_95\n      jumpi\n      mload(0x40)\n      0x08c379a000000000000000000000000000000000000000000000000000000000\n      dup2\n      mstore\n      0x04\n      add\n      tag_96\n      swap1\n      tag_97\n      jump\t// in\n    tag_96:\n      mload(0x40)\n      dup1\n      swap2\n      sub\n      swap1\n      revert\n    tag_95:\n        /* \"twitterDapp.sol\":2898:2899  0 */\n      0x00\n        /* \"twitterDapp.sol\":2871:2877  tweets */\n      0x01\n        /* \"twitterDapp.sol\":2871:2885  tweets[author] */\n      0x00\n        /* \"twitterDapp.sol\":2878:2884  author */\n      dup5\n        /* \"twitterDapp.sol\":2871:2885  tweets[author] */\n      0xffffffffffffffffffffffffffffffffffffffff\n      and\n      0xffffffffffffffffffffffffffffffffffffffff\n      and\n      dup2\n      mstore\n      0x20\n      add\n      swap1\n      dup2\n      mstore\n      0x20\n      add\n      0x00\n      keccak256\n        /* \"twitterDapp.sol\":2886:2888  id */\n      dup3\n        /* \"twitterDapp.sol\":2871:2889  tweets[author][id] */\n      dup2\n      sload\n      dup2\n      lt\n      tag_98\n      jumpi\n      tag_99\n      tag_93\n      jump\t// in\n    tag_99:\n    tag_98:\n      swap1\n      0x00\n      mstore\n      keccak256(0x00, 0x20)\n      swap1\n      0x05\n      mul\n      add\n        /* \"twitterDapp.sol\":2871:2895  tweets[author][id].likes */\n      0x04\n      add\n      sload\n        /* \"twitterDapp.sol\":2871:2899  tweets[author][id].likes > 0 */\n      gt\n        /* \"twitterDapp.sol\":2863:2922  require(tweets[author][id].likes > 0, \"THERE ARE NO LIKES\") */\n      tag_101\n      jumpi\n      mload(0x40)\n      0x08c379a000000000000000000000000000000000000000000000000000000000\n      dup2\n      mstore\n      0x04\n      add\n      tag_102\n      swap1\n      tag_103\n      jump\t// in\n    tag_102:\n      mload(0x40)\n      dup1\n      swap2\n      sub\n      swap1\n      revert\n    tag_101:\n        /* \"twitterDapp.sol\":2933:2939  tweets */\n      0x01\n        /* \"twitterDapp.sol\":2933:2947  tweets[author] */\n      0x00\n        /* \"twitterDapp.sol\":2940:2946  author */\n      dup4\n        /* \"twitterDapp.sol\":2933:2947  tweets[author] */\n      0xffffffffffffffffffffffffffffffffffffffff\n      and\n      0xffffffffffffffffffffffffffffffffffffffff\n      and\n      dup2\n      mstore\n      0x20\n      add\n      swap1\n      dup2\n      mstore\n      0x20\n      add\n      0x00\n      keccak256\n        /* \"twitterDapp.sol\":2948:2950  id */\n      dup2\n        /* \"twitterDapp.sol\":2933:2951  tweets[author][id] */\n      dup2\n      sload\n      dup2\n      lt\n      tag_104\n      jumpi\n      tag_105\n      tag_93\n      jump\t// in\n    tag_105:\n    tag_104:\n      swap1\n      0x00\n      mstore\n      keccak256(0x00, 0x20)\n      swap1\n      0x05\n      mul\n      add\n        /* \"twitterDapp.sol\":2933:2957  tweets[author][id].likes */\n      0x04\n      add\n      0x00\n        /* \"twitterDapp.sol\":2933:2959  tweets[author][id].likes-- */\n      dup2\n      sload\n      dup1\n      swap3\n      swap2\n      swap1\n      tag_107\n      swap1\n      tag_108\n      jump\t// in\n    tag_107:\n      swap2\n      swap1\n      pop\n      sstore\n      pop\n        /* \"twitterDapp.sol\":2990:2996  author */\n      dup2\n        /* \"twitterDapp.sol\":2977:3027  TweetUnLiked(author, tweets[msg.sender][id].likes) */\n      0xffffffffffffffffffffffffffffffffffffffff\n      and\n      0xc06fdb2b696e45a97339c90f1d695147e89ad3202c3ff65f8b27d76937e7b515\n        /* \"twitterDapp.sol\":2998:3004  tweets */\n      0x01\n        /* \"twitterDapp.sol\":2998:3016  tweets[msg.sender] */\n      0x00\n        /* \"twitterDapp.sol\":3005:3015  msg.sender */\n      caller\n        /* \"twitterDapp.sol\":2998:3016  tweets[msg.sender] */\n      0xffffffffffffffffffffffffffffffffffffffff\n      and\n      0xffffffffffffffffffffffffffffffffffffffff\n      and\n      dup2\n      mstore\n      0x20\n      add\n      swap1\n      dup2\n      mstore\n      0x20\n      add\n      0x00\n      keccak256\n        /* \"twitterDapp.sol\":3017:3019  id */\n      dup4\n        /* \"twitterDapp.sol\":2998:3020  tweets[msg.sender][id] */\n      dup2\n      sload\n      dup2\n      lt\n      tag_109\n      jumpi\n      tag_110\n      tag_93\n      jump\t// in\n    tag_110:\n    tag_109:\n      swap1\n      0x00\n      mstore\n      keccak256(0x00, 0x20)\n      swap1\n      0x05\n      mul\n      add\n        /* \"twitterDapp.sol\":2998:3026  tweets[msg.sender][id].likes */\n      0x04\n      add\n      sload\n        /* \"twitterDapp.sol\":2977:3027  TweetUnLiked(author, tweets[msg.sender][id].likes) */\n      mload(0x40)\n      tag_112\n      swap2\n      swap1\n      tag_43\n      jump\t// in\n    tag_112:\n      mload(0x40)\n      dup1\n      swap2\n      sub\n      swap1\n      log2\n        /* \"twitterDapp.sol\":2729:3035  function unLlikeTweet(address author, uint id) public{... */\n      pop\n      pop\n      jump\t// out\n        /* \"twitterDapp.sol\":3039:3366  function follow (address _user)  public {... */\n    tag_35:\n        /* \"twitterDapp.sol\":3103:3113  msg.sender */\n      caller\n        /* \"twitterDapp.sol\":3094:3113  _user != msg.sender */\n      0xffffffffffffffffffffffffffffffffffffffff\n      and\n        /* \"twitterDapp.sol\":3094:3099  _user */\n      dup2\n        /* \"twitterDapp.sol\":3094:3113  _user != msg.sender */\n      0xffffffffffffffffffffffffffffffffffffffff\n      and\n      sub\n        /* \"twitterDapp.sol\":3086:3143  require(_user != msg.sender, \"You can't follow yourself\") */\n      tag_114\n      jumpi\n      mload(0x40)\n      0x08c379a000000000000000000000000000000000000000000000000000000000\n      dup2\n      mstore\n      0x04\n      add\n      tag_115\n      swap1\n      tag_116\n      jump\t// in\n    tag_115:\n      mload(0x40)\n      dup1\n      swap2\n      sub\n      swap1\n      revert\n    tag_114:\n        /* \"twitterDapp.sol\":3147:3170  Follow memory newFollow */\n      0x00\n        /* \"twitterDapp.sol\":3173:3225  Follow({ user:_user , timestamp : block.timestamp }) */\n      mload(0x40)\n      dup1\n      0x40\n      add\n      0x40\n      mstore\n      dup1\n        /* \"twitterDapp.sol\":3187:3192  _user */\n      dup4\n        /* \"twitterDapp.sol\":3173:3225  Follow({ user:_user , timestamp : block.timestamp }) */\n      0xffffffffffffffffffffffffffffffffffffffff\n      and\n      dup2\n      mstore\n      0x20\n      add\n        /* \"twitterDapp.sol\":3207:3222  block.timestamp */\n      timestamp\n        /* \"twitterDapp.sol\":3173:3225  Follow({ user:_user , timestamp : block.timestamp }) */\n      dup2\n      mstore\n      pop\n        /* \"twitterDapp.sol\":3147:3225  Follow memory newFollow = Follow({ user:_user , timestamp : block.timestamp }) */\n      swap1\n      pop\n        /* \"twitterDapp.sol\":3228:3237  followers */\n      0x02\n        /* \"twitterDapp.sol\":3228:3249  followers[msg.sender] */\n      0x00\n        /* \"twitterDapp.sol\":3238:3248  msg.sender */\n      caller\n        /* \"twitterDapp.sol\":3228:3249  followers[msg.sender] */\n      0xffffffffffffffffffffffffffffffffffffffff\n      and\n      0xffffffffffffffffffffffffffffffffffffffff\n      and\n      dup2\n      mstore\n      0x20\n      add\n      swap1\n      dup2\n      mstore\n      0x20\n      add\n      0x00\n      keccak256\n        /* \"twitterDapp.sol\":3255:3264  newFollow */\n      dup2\n        /* \"twitterDapp.sol\":3228:3265  followers[msg.sender].push(newFollow) */\n      swap1\n      dup1\n      0x01\n      dup2\n      sload\n      add\n      dup1\n      dup3\n      sstore\n      dup1\n      swap2\n      pop\n      pop\n      0x01\n      swap1\n      sub\n      swap1\n      0x00\n      mstore\n      keccak256(0x00, 0x20)\n      swap1\n      0x02\n      mul\n      add\n      0x00\n      swap1\n      swap2\n      swap1\n      swap2\n      swap1\n      swap2\n      pop\n      0x00\n      dup3\n      add\n      mload\n      dup2\n      0x00\n      add\n      exp(0x0100, 0x00)\n      dup2\n      sload\n      dup2\n      0xffffffffffffffffffffffffffffffffffffffff\n      mul\n      not\n      and\n      swap1\n      dup4\n      0xffffffffffffffffffffffffffffffffffffffff\n      and\n      mul\n      or\n      swap1\n      sstore\n      pop\n      0x20\n      dup3\n      add\n      mload\n      dup2\n      0x01\n      add\n      sstore\n      pop\n      pop\n        /* \"twitterDapp.sol\":3299:3304  _user */\n      dup2\n        /* \"twitterDapp.sol\":3274:3324  NewFollower (msg.sender, _user  ,block.timestamp ) */\n      0xffffffffffffffffffffffffffffffffffffffff\n      and\n        /* \"twitterDapp.sol\":3287:3297  msg.sender */\n      caller\n        /* \"twitterDapp.sol\":3274:3324  NewFollower (msg.sender, _user  ,block.timestamp ) */\n      0xffffffffffffffffffffffffffffffffffffffff\n      and\n      0xdca1d35ba6427504c77f0d9182e8566bccaf25e2f14b29ff7960040b7a209ef6\n        /* \"twitterDapp.sol\":3307:3322  block.timestamp */\n      timestamp\n        /* \"twitterDapp.sol\":3274:3324  NewFollower (msg.sender, _user  ,block.timestamp ) */\n      mload(0x40)\n      tag_118\n      swap2\n      swap1\n      tag_43\n      jump\t// in\n    tag_118:\n      mload(0x40)\n      dup1\n      swap2\n      sub\n      swap1\n      log3\n        /* \"twitterDapp.sol\":3328:3337  following */\n      0x03\n        /* \"twitterDapp.sol\":3328:3344  following[_user] */\n      0x00\n        /* \"twitterDapp.sol\":3338:3343  _user */\n      dup4\n        /* \"twitterDapp.sol\":3328:3344  following[_user] */\n      0xffffffffffffffffffffffffffffffffffffffff\n      and\n      0xffffffffffffffffffffffffffffffffffffffff\n      and\n      dup2\n      mstore\n      0x20\n      add\n      swap1\n      dup2\n      mstore\n      0x20\n      add\n      0x00\n      keccak256\n        /* \"twitterDapp.sol\":3350:3359  newFollow */\n      dup2\n        /* \"twitterDapp.sol\":3328:3360  following[_user].push(newFollow) */\n      swap1\n      dup1\n      0x01\n      dup2\n      sload\n      add\n      dup1\n      dup3\n      sstore\n      dup1\n      swap2\n      pop\n      pop\n      0x01\n      swap1\n      sub\n      swap1\n      0x00\n      mstore\n      keccak256(0x00, 0x20)\n      swap1\n      0x02\n      mul\n      add\n      0x00\n      swap1\n      swap2\n      swap1\n      swap2\n      swap1\n      swap2\n      pop\n      0x00\n      dup3\n      add\n      mload\n      dup2\n      0x00\n      add\n      exp(0x0100, 0x00)\n      dup2\n      sload\n      dup2\n      0xffffffffffffffffffffffffffffffffffffffff\n      mul\n      not\n      and\n      swap1\n      dup4\n      0xffffffffffffffffffffffffffffffffffffffff\n      and\n      mul\n      or\n      swap1\n      sstore\n      pop\n      0x20\n      dup3\n      add\n      mload\n      dup2\n      0x01\n      add\n      sstore\n      pop\n      pop\n        /* \"twitterDapp.sol\":3079:3366  {... */\n      pop\n        /* \"twitterDapp.sol\":3039:3366  function follow (address _user)  public {... */\n      pop\n      jump\t// out\n        /* \"twitterDapp.sol\":2300:2482  function changeTweetLength(uint16 _newTweetLength) public onlyOwner {... */\n    tag_39:\n        /* \"twitterDapp.sol\":721:726  owner */\n      0x00\n      0x02\n      swap1\n      sload\n      swap1\n      0x0100\n      exp\n      swap1\n      div\n      0xffffffffffffffffffffffffffffffffffffffff\n      and\n        /* \"twitterDapp.sol\":707:726  msg.sender == owner */\n      0xffffffffffffffffffffffffffffffffffffffff\n      and\n        /* \"twitterDapp.sol\":707:717  msg.sender */\n      caller\n        /* \"twitterDapp.sol\":707:726  msg.sender == owner */\n      0xffffffffffffffffffffffffffffffffffffffff\n      and\n      eq\n        /* \"twitterDapp.sol\":699:751  require(msg.sender == owner, \"YOU'RE NOT THE OWNER\") */\n      tag_121\n      jumpi\n      mload(0x40)\n      0x08c379a000000000000000000000000000000000000000000000000000000000\n      dup2\n      mstore\n      0x04\n      add\n      tag_122\n      swap1\n      tag_123\n      jump\t// in\n    tag_122:\n      mload(0x40)\n      dup1\n      swap2\n      sub\n      swap1\n      revert\n    tag_121:\n        /* \"twitterDapp.sol\":2397:2412  _newTweetLength */\n      dup1\n        /* \"twitterDapp.sol\":2379:2394  MAX_TWEET_LIMIT */\n      0x00\n      dup1\n        /* \"twitterDapp.sol\":2379:2412  MAX_TWEET_LIMIT = _newTweetLength */\n      0x0100\n      exp\n      dup2\n      sload\n      dup2\n      0xffff\n      mul\n      not\n      and\n      swap1\n      dup4\n      0xffff\n      and\n      mul\n      or\n      swap1\n      sstore\n      pop\n        /* \"twitterDapp.sol\":2447:2457  msg.sender */\n      caller\n        /* \"twitterDapp.sol\":2428:2474  TweetLengthChanged(msg.sender,_newTweetLength) */\n      0xffffffffffffffffffffffffffffffffffffffff\n      and\n      0x8323d82658670a49edff6f681164658b57381017bf33c952fe8a116e1c6b1a67\n        /* \"twitterDapp.sol\":2458:2473  _newTweetLength */\n      dup3\n        /* \"twitterDapp.sol\":2428:2474  TweetLengthChanged(msg.sender,_newTweetLength) */\n      mload(0x40)\n      tag_125\n      swap2\n      swap1\n      tag_47\n      jump\t// in\n    tag_125:\n      mload(0x40)\n      dup1\n      swap2\n      sub\n      swap1\n      log2\n        /* \"twitterDapp.sol\":2300:2482  function changeTweetLength(uint16 _newTweetLength) public onlyOwner {... */\n      pop\n      jump\t// out\n        /* \"twitterDapp.sol\":1933:2041  function numberOfTweets() public view returns (uint) {... */\n    tag_41:\n        /* \"twitterDapp.sol\":1980:1984  uint */\n      0x00\n        /* \"twitterDapp.sol\":2004:2010  tweets */\n      0x01\n        /* \"twitterDapp.sol\":2004:2022  tweets[msg.sender] */\n      0x00\n        /* \"twitterDapp.sol\":2011:2021  msg.sender */\n      caller\n        /* \"twitterDapp.sol\":2004:2022  tweets[msg.sender] */\n      0xffffffffffffffffffffffffffffffffffffffff\n      and\n      0xffffffffffffffffffffffffffffffffffffffff\n      and\n      dup2\n      mstore\n      0x20\n      add\n      swap1\n      dup2\n      mstore\n      0x20\n      add\n      0x00\n      keccak256\n        /* \"twitterDapp.sol\":2004:2029  tweets[msg.sender].length */\n      dup1\n      sload\n      swap1\n      pop\n        /* \"twitterDapp.sol\":1997:2029  return tweets[msg.sender].length */\n      swap1\n      pop\n        /* \"twitterDapp.sol\":1933:2041  function numberOfTweets() public view returns (uint) {... */\n      swap1\n      jump\t// out\n        /* \"twitterDapp.sol\":330:365  uint16 public MAX_TWEET_LIMIT = 200 */\n    tag_45:\n      0x00\n      dup1\n      sload\n      swap1\n      0x0100\n      exp\n      swap1\n      div\n      0xffff\n      and\n      dup2\n      jump\t// out\n        /* \"twitterDapp.sol\":2490:2721  function likeTweet(address author, uint id) public{... */\n    tag_50:\n        /* \"twitterDapp.sol\":2584:2586  id */\n      dup1\n        /* \"twitterDapp.sol\":2559:2565  tweets */\n      0x01\n        /* \"twitterDapp.sol\":2559:2573  tweets[author] */\n      0x00\n        /* \"twitterDapp.sol\":2566:2572  author */\n      dup5\n        /* \"twitterDapp.sol\":2559:2573  tweets[author] */\n      0xffffffffffffffffffffffffffffffffffffffff\n      and\n      0xffffffffffffffffffffffffffffffffffffffff\n      and\n      dup2\n      mstore\n      0x20\n      add\n      swap1\n      dup2\n      mstore\n      0x20\n      add\n      0x00\n      keccak256\n        /* \"twitterDapp.sol\":2574:2576  id */\n      dup3\n        /* \"twitterDapp.sol\":2559:2577  tweets[author][id] */\n      dup2\n      sload\n      dup2\n      lt\n      tag_128\n      jumpi\n      tag_129\n      tag_93\n      jump\t// in\n    tag_129:\n    tag_128:\n      swap1\n      0x00\n      mstore\n      keccak256(0x00, 0x20)\n      swap1\n      0x05\n      mul\n      add\n        /* \"twitterDapp.sol\":2559:2580  tweets[author][id].id */\n      0x00\n      add\n      sload\n        /* \"twitterDapp.sol\":2559:2586  tweets[author][id].id == id */\n      eq\n        /* \"twitterDapp.sol\":2551:2610  require(tweets[author][id].id == id, \"TWEET DOESN'T EXIST\") */\n      tag_131\n      jumpi\n      mload(0x40)\n      0x08c379a000000000000000000000000000000000000000000000000000000000\n      dup2\n      mstore\n      0x04\n      add\n      tag_132\n      swap1\n      tag_97\n      jump\t// in\n    tag_132:\n      mload(0x40)\n      dup1\n      swap2\n      sub\n      swap1\n      revert\n    tag_131:\n        /* \"twitterDapp.sol\":2621:2627  tweets */\n      0x01\n        /* \"twitterDapp.sol\":2621:2635  tweets[author] */\n      0x00\n        /* \"twitterDapp.sol\":2628:2634  author */\n      dup4\n        /* \"twitterDapp.sol\":2621:2635  tweets[author] */\n      0xffffffffffffffffffffffffffffffffffffffff\n      and\n      0xffffffffffffffffffffffffffffffffffffffff\n      and\n      dup2\n      mstore\n      0x20\n      add\n      swap1\n      dup2\n      mstore\n      0x20\n      add\n      0x00\n      keccak256\n        /* \"twitterDapp.sol\":2636:2638  id */\n      dup2\n        /* \"twitterDapp.sol\":2621:2639  tweets[author][id] */\n      dup2\n      sload\n      dup2\n      lt\n      tag_133\n      jumpi\n      tag_134\n      tag_93\n      jump\t// in\n    tag_134:\n    tag_133:\n      swap1\n      0x00\n      mstore\n      keccak256(0x00, 0x20)\n      swap1\n      0x05\n      mul\n      add\n        /* \"twitterDapp.sol\":2621:2645  tweets[author][id].likes */\n      0x04\n      add\n      0x00\n        /* \"twitterDapp.sol\":2621:2647  tweets[author][id].likes++ */\n      dup2\n      sload\n      dup1\n      swap3\n      swap2\n      swap1\n      tag_136\n      swap1\n      tag_137\n      jump\t// in\n    tag_136:\n      swap2\n      swap1\n      pop\n      sstore\n      pop\n        /* \"twitterDapp.sol\":2676:2682  author */\n      dup2\n        /* \"twitterDapp.sol\":2665:2713  TweetLiked(author, tweets[msg.sender][id].likes) */\n      0xffffffffffffffffffffffffffffffffffffffff\n      and\n      0x8a386948f7e93ab4fcd287c576a77bebdc96097ff7ce25d207a8242bb1de398b\n        /* \"twitterDapp.sol\":2684:2690  tweets */\n      0x01\n        /* \"twitterDapp.sol\":2684:2702  tweets[msg.sender] */\n      0x00\n        /* \"twitterDapp.sol\":2691:2701  msg.sender */\n      caller\n        /* \"twitterDapp.sol\":2684:2702  tweets[msg.sender] */\n      0xffffffffffffffffffffffffffffffffffffffff\n      and\n      0xffffffffffffffffffffffffffffffffffffffff\n      and\n      dup2\n      mstore\n      0x20\n      add\n      swap1\n      dup2\n      mstore\n      0x20\n      add\n      0x00\n      keccak256\n        /* \"twitterDapp.sol\":2703:2705  id */\n      dup4\n        /* \"twitterDapp.sol\":2684:2706  tweets[msg.sender][id] */\n      dup2\n      sload\n      dup2\n      lt\n      tag_138\n      jumpi\n      tag_139\n      tag_93\n      jump\t// in\n    tag_139:\n    tag_138:\n      swap1\n      0x00\n      mstore\n      keccak256(0x00, 0x20)\n      swap1\n      0x05\n      mul\n      add\n        /* \"twitterDapp.sol\":2684:2712  tweets[msg.sender][id].likes */\n      0x04\n      add\n      sload\n        /* \"twitterDapp.sol\":2665:2713  TweetLiked(author, tweets[msg.sender][id].likes) */\n      mload(0x40)\n      tag_141\n      swap2\n      swap1\n      tag_43\n      jump\t// in\n    tag_141:\n      mload(0x40)\n      dup1\n      swap2\n      sub\n      swap1\n      log2\n        /* \"twitterDapp.sol\":2490:2721  function likeTweet(address author, uint id) public{... */\n      pop\n      pop\n      jump\t// out\n        /* \"twitterDapp.sol\":2049:2170  function viewTweet(address _owner, uint _i) public view returns(Tweet memory){... */\n    tag_53:\n        /* \"twitterDapp.sol\":2113:2125  Tweet memory */\n      tag_142\n      tag_143\n      jump\t// in\n    tag_142:\n        /* \"twitterDapp.sol\":2144:2150  tweets */\n      0x01\n        /* \"twitterDapp.sol\":2144:2158  tweets[_owner] */\n      0x00\n        /* \"twitterDapp.sol\":2151:2157  _owner */\n      dup5\n        /* \"twitterDapp.sol\":2144:2158  tweets[_owner] */\n      0xffffffffffffffffffffffffffffffffffffffff\n      and\n      0xffffffffffffffffffffffffffffffffffffffff\n      and\n      dup2\n      mstore\n      0x20\n      add\n      swap1\n      dup2\n      mstore\n      0x20\n      add\n      0x00\n      keccak256\n        /* \"twitterDapp.sol\":2159:2161  _i */\n      dup3\n        /* \"twitterDapp.sol\":2144:2162  tweets[_owner][_i] */\n      dup2\n      sload\n      dup2\n      lt\n      tag_145\n      jumpi\n      tag_146\n      tag_93\n      jump\t// in\n    tag_146:\n    tag_145:\n      swap1\n      0x00\n      mstore\n      keccak256(0x00, 0x20)\n      swap1\n      0x05\n      mul\n      add\n        /* \"twitterDapp.sol\":2137:2162  return tweets[_owner][_i] */\n      mload(0x40)\n      dup1\n      0xa0\n      add\n      0x40\n      mstore\n      swap1\n      dup2\n      0x00\n      dup3\n      add\n      sload\n      dup2\n      mstore\n      0x20\n      add\n      0x01\n      dup3\n      add\n      0x00\n      swap1\n      sload\n      swap1\n      0x0100\n      exp\n      swap1\n      div\n      0xffffffffffffffffffffffffffffffffffffffff\n      and\n      0xffffffffffffffffffffffffffffffffffffffff\n      and\n      0xffffffffffffffffffffffffffffffffffffffff\n      and\n      dup2\n      mstore\n      0x20\n      add\n      0x02\n      dup3\n      add\n      dup1\n      sload\n      tag_148\n      swap1\n      tag_76\n      jump\t// in\n    tag_148:\n      dup1\n      0x1f\n      add\n      0x20\n      dup1\n      swap2\n      div\n      mul\n      0x20\n      add\n      mload(0x40)\n      swap1\n      dup2\n      add\n      0x40\n      mstore\n      dup1\n      swap3\n      swap2\n      swap1\n      dup2\n      dup2\n      mstore\n      0x20\n      add\n      dup3\n      dup1\n      sload\n      tag_149\n      swap1\n      tag_76\n      jump\t// in\n    tag_149:\n      dup1\n      iszero\n      tag_150\n      jumpi\n      dup1\n      0x1f\n      lt\n      tag_151\n      jumpi\n      0x0100\n      dup1\n      dup4\n      sload\n      div\n      mul\n      dup4\n      mstore\n      swap2\n      0x20\n      add\n      swap2\n      jump(tag_150)\n    tag_151:\n      dup3\n      add\n      swap2\n      swap1\n      0x00\n      mstore\n      keccak256(0x00, 0x20)\n      swap1\n    tag_152:\n      dup2\n      sload\n      dup2\n      mstore\n      swap1\n      0x01\n      add\n      swap1\n      0x20\n      add\n      dup1\n      dup4\n      gt\n      tag_152\n      jumpi\n      dup3\n      swap1\n      sub\n      0x1f\n      and\n      dup3\n      add\n      swap2\n    tag_150:\n      pop\n      pop\n      pop\n      pop\n      pop\n      dup2\n      mstore\n      0x20\n      add\n      0x03\n      dup3\n      add\n      sload\n      dup2\n      mstore\n      0x20\n      add\n      0x04\n      dup3\n      add\n      sload\n      dup2\n      mstore\n      pop\n      pop\n      swap1\n      pop\n        /* \"twitterDapp.sol\":2049:2170  function viewTweet(address _owner, uint _i) public view returns(Tweet memory){... */\n      swap3\n      swap2\n      pop\n      pop\n      jump\t// out\n        /* \"twitterDapp.sol\":1308:1923  function createTweet(string memory _tweet) public {... */\n    tag_59:\n        /* \"twitterDapp.sol\":1400:1401  0 */\n      0x00\n        /* \"twitterDapp.sol\":1383:1389  _tweet */\n      dup2\n        /* \"twitterDapp.sol\":1377:1397  bytes(_tweet).length */\n      mload\n        /* \"twitterDapp.sol\":1377:1401  bytes(_tweet).length > 0 */\n      gt\n        /* \"twitterDapp.sol\":1369:1439  require(bytes(_tweet).length > 0,\"NO CONTENT, PLEASE WRITE SOMETHING\") */\n      tag_154\n      jumpi\n      mload(0x40)\n      0x08c379a000000000000000000000000000000000000000000000000000000000\n      dup2\n      mstore\n      0x04\n      add\n      tag_155\n      swap1\n      tag_156\n      jump\t// in\n    tag_155:\n      mload(0x40)\n      dup1\n      swap2\n      sub\n      swap1\n      revert\n    tag_154:\n        /* \"twitterDapp.sol\":1486:1501  MAX_TWEET_LIMIT */\n      0x00\n      dup1\n      sload\n      swap1\n      0x0100\n      exp\n      swap1\n      div\n      0xffff\n      and\n        /* \"twitterDapp.sol\":1458:1501  tweets[msg.sender].length < MAX_TWEET_LIMIT */\n      0xffff\n      and\n        /* \"twitterDapp.sol\":1458:1464  tweets */\n      0x01\n        /* \"twitterDapp.sol\":1458:1476  tweets[msg.sender] */\n      0x00\n        /* \"twitterDapp.sol\":1465:1475  msg.sender */\n      caller\n        /* \"twitterDapp.sol\":1458:1476  tweets[msg.sender] */\n      0xffffffffffffffffffffffffffffffffffffffff\n      and\n      0xffffffffffffffffffffffffffffffffffffffff\n      and\n      dup2\n      mstore\n      0x20\n      add\n      swap1\n      dup2\n      mstore\n      0x20\n      add\n      0x00\n      keccak256\n        /* \"twitterDapp.sol\":1458:1483  tweets[msg.sender].length */\n      dup1\n      sload\n      swap1\n      pop\n        /* \"twitterDapp.sol\":1458:1501  tweets[msg.sender].length < MAX_TWEET_LIMIT */\n      lt\n        /* \"twitterDapp.sol\":1450:1532  require(tweets[msg.sender].length < MAX_TWEET_LIMIT, \"THE MAXIMUM TWEETS REACHED\") */\n      tag_157\n      jumpi\n      mload(0x40)\n      0x08c379a000000000000000000000000000000000000000000000000000000000\n      dup2\n      mstore\n      0x04\n      add\n      tag_158\n      swap1\n      tag_159\n      jump\t// in\n    tag_158:\n      mload(0x40)\n      dup1\n      swap2\n      sub\n      swap1\n      revert\n    tag_157:\n        /* \"twitterDapp.sol\":1543:1564  Tweet memory newTweet */\n      0x00\n        /* \"twitterDapp.sol\":1567:1757  Tweet({... */\n      mload(0x40)\n      dup1\n      0xa0\n      add\n      0x40\n      mstore\n      dup1\n        /* \"twitterDapp.sol\":1592:1598  tweets */\n      0x01\n        /* \"twitterDapp.sol\":1592:1610  tweets[msg.sender] */\n      0x00\n        /* \"twitterDapp.sol\":1599:1609  msg.sender */\n      caller\n        /* \"twitterDapp.sol\":1592:1610  tweets[msg.sender] */\n      0xffffffffffffffffffffffffffffffffffffffff\n      and\n      0xffffffffffffffffffffffffffffffffffffffff\n      and\n      dup2\n      mstore\n      0x20\n      add\n      swap1\n      dup2\n      mstore\n      0x20\n      add\n      0x00\n      keccak256\n        /* \"twitterDapp.sol\":1592:1617  tweets[msg.sender].length */\n      dup1\n      sload\n      swap1\n      pop\n        /* \"twitterDapp.sol\":1567:1757  Tweet({... */\n      dup2\n      mstore\n      0x20\n      add\n        /* \"twitterDapp.sol\":1640:1650  msg.sender */\n      caller\n        /* \"twitterDapp.sol\":1567:1757  Tweet({... */\n      0xffffffffffffffffffffffffffffffffffffffff\n      and\n      dup2\n      mstore\n      0x20\n      add\n        /* \"twitterDapp.sol\":1674:1680  _tweet */\n      dup4\n        /* \"twitterDapp.sol\":1567:1757  Tweet({... */\n      dup2\n      mstore\n      0x20\n      add\n        /* \"twitterDapp.sol\":1706:1721  block.timestamp */\n      timestamp\n        /* \"twitterDapp.sol\":1567:1757  Tweet({... */\n      dup2\n      mstore\n      0x20\n      add\n        /* \"twitterDapp.sol\":1744:1745  0 */\n      0x00\n        /* \"twitterDapp.sol\":1567:1757  Tweet({... */\n      dup2\n      mstore\n      pop\n        /* \"twitterDapp.sol\":1543:1757  Tweet memory newTweet = Tweet({... */\n      swap1\n      pop\n        /* \"twitterDapp.sol\":1770:1776  tweets */\n      0x01\n        /* \"twitterDapp.sol\":1770:1788  tweets[msg.sender] */\n      0x00\n        /* \"twitterDapp.sol\":1777:1787  msg.sender */\n      caller\n        /* \"twitterDapp.sol\":1770:1788  tweets[msg.sender] */\n      0xffffffffffffffffffffffffffffffffffffffff\n      and\n      0xffffffffffffffffffffffffffffffffffffffff\n      and\n      dup2\n      mstore\n      0x20\n      add\n      swap1\n      dup2\n      mstore\n      0x20\n      add\n      0x00\n      keccak256\n        /* \"twitterDapp.sol\":1794:1802  newTweet */\n      dup2\n        /* \"twitterDapp.sol\":1770:1803  tweets[msg.sender].push(newTweet) */\n      swap1\n      dup1\n      0x01\n      dup2\n      sload\n      add\n      dup1\n      dup3\n      sstore\n      dup1\n      swap2\n      pop\n      pop\n      0x01\n      swap1\n      sub\n      swap1\n      0x00\n      mstore\n      keccak256(0x00, 0x20)\n      swap1\n      0x05\n      mul\n      add\n      0x00\n      swap1\n      swap2\n      swap1\n      swap2\n      swap1\n      swap2\n      pop\n      0x00\n      dup3\n      add\n      mload\n      dup2\n      0x00\n      add\n      sstore\n      0x20\n      dup3\n      add\n      mload\n      dup2\n      0x01\n      add\n      exp(0x0100, 0x00)\n      dup2\n      sload\n      dup2\n      0xffffffffffffffffffffffffffffffffffffffff\n      mul\n      not\n      and\n      swap1\n      dup4\n      0xffffffffffffffffffffffffffffffffffffffff\n      and\n      mul\n      or\n      swap1\n      sstore\n      pop\n      0x40\n      dup3\n      add\n      mload\n      dup2\n      0x02\n      add\n      swap1\n      dup2\n      tag_161\n      swap2\n      swap1\n      tag_162\n      jump\t// in\n    tag_161:\n      pop\n      0x60\n      dup3\n      add\n      mload\n      dup2\n      0x03\n      add\n      sstore\n      0x80\n      dup3\n      add\n      mload\n      dup2\n      0x04\n      add\n      sstore\n      pop\n      pop\n        /* \"twitterDapp.sol\":1845:1853  newTweet */\n      dup1\n        /* \"twitterDapp.sol\":1845:1860  newTweet.author */\n      0x20\n      add\n      mload\n        /* \"twitterDapp.sol\":1819:1915  TweetCreated(newTweet.id, newTweet.author, newTweet.content, newTweet.timestamp, newTweet.likes) */\n      0xffffffffffffffffffffffffffffffffffffffff\n      and\n      0x881ee5e736450a2211622934b24ae6488e14ca8444788d6e26fdbe582d098391\n        /* \"twitterDapp.sol\":1832:1840  newTweet */\n      dup3\n        /* \"twitterDapp.sol\":1832:1843  newTweet.id */\n      0x00\n      add\n      mload\n        /* \"twitterDapp.sol\":1862:1870  newTweet */\n      dup4\n        /* \"twitterDapp.sol\":1862:1878  newTweet.content */\n      0x40\n      add\n      mload\n        /* \"twitterDapp.sol\":1880:1888  newTweet */\n      dup5\n        /* \"twitterDapp.sol\":1880:1898  newTweet.timestamp */\n      0x60\n      add\n      mload\n        /* \"twitterDapp.sol\":1900:1908  newTweet */\n      dup6\n        /* \"twitterDapp.sol\":1900:1914  newTweet.likes */\n      0x80\n      add\n      mload\n        /* \"twitterDapp.sol\":1819:1915  TweetCreated(newTweet.id, newTweet.author, newTweet.content, newTweet.timestamp, newTweet.likes) */\n      mload(0x40)\n      tag_163\n      swap5\n      swap4\n      swap3\n      swap2\n      swap1\n      tag_164\n      jump\t// in\n    tag_163:\n      mload(0x40)\n      dup1\n      swap2\n      sub\n      swap1\n      log2\n        /* \"twitterDapp.sol\":1358:1923  {... */\n      pop\n        /* \"twitterDapp.sol\":1308:1923  function createTweet(string memory _tweet) public {... */\n      pop\n      jump\t// out\n        /* \"twitterDapp.sol\":372:392  address public owner */\n    tag_61:\n      0x00\n      0x02\n      swap1\n      sload\n      swap1\n      0x0100\n      exp\n      swap1\n      div\n      0xffffffffffffffffffffffffffffffffffffffff\n      and\n      dup2\n      jump\t// out\n        /* \"twitterDapp.sol\":518:565  mapping  (address => Follow[]) public following */\n    tag_66:\n      mstore(0x20, 0x03)\n      dup2\n      0x00\n      mstore\n      keccak256(0x00, 0x40)\n      dup2\n      dup2\n      sload\n      dup2\n      lt\n      tag_165\n      jumpi\n      0x00\n      dup1\n      revert\n    tag_165:\n      swap1\n      0x00\n      mstore\n      keccak256(0x00, 0x20)\n      swap1\n      0x02\n      mul\n      add\n      0x00\n      swap2\n      pop\n      swap2\n      pop\n      pop\n      dup1\n      0x00\n      add\n      0x00\n      swap1\n      sload\n      swap1\n      0x0100\n      exp\n      swap1\n      div\n      0xffffffffffffffffffffffffffffffffffffffff\n      and\n      swap1\n      dup1\n      0x01\n      add\n      sload\n      swap1\n      pop\n      dup3\n      jump\t// out\n        /* \"twitterDapp.sol\":465:511  mapping (address => Follow[]) public followers */\n    tag_71:\n      mstore(0x20, 0x02)\n      dup2\n      0x00\n      mstore\n      keccak256(0x00, 0x40)\n      dup2\n      dup2\n      sload\n      dup2\n      lt\n      tag_167\n      jumpi\n      0x00\n      dup1\n      revert\n    tag_167:\n      swap1\n      0x00\n      mstore\n      keccak256(0x00, 0x20)\n      swap1\n      0x02\n      mul\n      add\n      0x00\n      swap2\n      pop\n      swap2\n      pop\n      pop\n      dup1\n      0x00\n      add\n      0x00\n      swap1\n      sload\n      swap1\n      0x0100\n      exp\n      swap1\n      div\n      0xffffffffffffffffffffffffffffffffffffffff\n      and\n      swap1\n      dup1\n      0x01\n      add\n      sload\n      swap1\n      pop\n      dup3\n      jump\t// out\n    tag_143:\n      mload(0x40)\n      dup1\n      0xa0\n      add\n      0x40\n      mstore\n      dup1\n      0x00\n      dup2\n      mstore\n      0x20\n      add\n      and(0xffffffffffffffffffffffffffffffffffffffff, 0x00)\n      dup2\n      mstore\n      0x20\n      add\n      0x60\n      dup2\n      mstore\n      0x20\n      add\n      0x00\n      dup2\n      mstore\n      0x20\n      add\n      0x00\n      dup2\n      mstore\n      pop\n      swap1\n      jump\t// out\n        /* \"#utility.yul\":7:82   */\n    tag_169:\n        /* \"#utility.yul\":40:46   */\n      0x00\n        /* \"#utility.yul\":73:75   */\n      0x40\n        /* \"#utility.yul\":67:76   */\n      mload\n        /* \"#utility.yul\":57:76   */\n      swap1\n      pop\n        /* \"#utility.yul\":7:82   */\n      swap1\n      jump\t// out\n        /* \"#utility.yul\":88:205   */\n    tag_170:\n        /* \"#utility.yul\":197:198   */\n      0x00\n        /* \"#utility.yul\":194:195   */\n      dup1\n        /* \"#utility.yul\":187:199   */\n      revert\n        /* \"#utility.yul\":211:328   */\n    tag_171:\n        /* \"#utility.yul\":320:321   */\n      0x00\n        /* \"#utility.yul\":317:318   */\n      dup1\n        /* \"#utility.yul\":310:322   */\n      revert\n        /* \"#utility.yul\":334:460   */\n    tag_172:\n        /* \"#utility.yul\":371:378   */\n      0x00\n        /* \"#utility.yul\":411:453   */\n      0xffffffffffffffffffffffffffffffffffffffff\n        /* \"#utility.yul\":404:409   */\n      dup3\n        /* \"#utility.yul\":400:454   */\n      and\n        /* \"#utility.yul\":389:454   */\n      swap1\n      pop\n        /* \"#utility.yul\":334:460   */\n      swap2\n      swap1\n      pop\n      jump\t// out\n        /* \"#utility.yul\":466:562   */\n    tag_173:\n        /* \"#utility.yul\":503:510   */\n      0x00\n        /* \"#utility.yul\":532:556   */\n      tag_246\n        /* \"#utility.yul\":550:555   */\n      dup3\n        /* \"#utility.yul\":532:556   */\n      tag_172\n      jump\t// in\n    tag_246:\n        /* \"#utility.yul\":521:556   */\n      swap1\n      pop\n        /* \"#utility.yul\":466:562   */\n      swap2\n      swap1\n      pop\n      jump\t// out\n        /* \"#utility.yul\":568:690   */\n    tag_174:\n        /* \"#utility.yul\":641:665   */\n      tag_248\n        /* \"#utility.yul\":659:664   */\n      dup2\n        /* \"#utility.yul\":641:665   */\n      tag_173\n      jump\t// in\n    tag_248:\n        /* \"#utility.yul\":634:639   */\n      dup2\n        /* \"#utility.yul\":631:666   */\n      eq\n        /* \"#utility.yul\":621:684   */\n      tag_249\n      jumpi\n        /* \"#utility.yul\":680:681   */\n      0x00\n        /* \"#utility.yul\":677:678   */\n      dup1\n        /* \"#utility.yul\":670:682   */\n      revert\n        /* \"#utility.yul\":621:684   */\n    tag_249:\n        /* \"#utility.yul\":568:690   */\n      pop\n      jump\t// out\n        /* \"#utility.yul\":696:835   */\n    tag_175:\n        /* \"#utility.yul\":742:747   */\n      0x00\n        /* \"#utility.yul\":780:786   */\n      dup2\n        /* \"#utility.yul\":767:787   */\n      calldataload\n        /* \"#utility.yul\":758:787   */\n      swap1\n      pop\n        /* \"#utility.yul\":796:829   */\n      tag_251\n        /* \"#utility.yul\":823:828   */\n      dup2\n        /* \"#utility.yul\":796:829   */\n      tag_174\n      jump\t// in\n    tag_251:\n        /* \"#utility.yul\":696:835   */\n      swap3\n      swap2\n      pop\n      pop\n      jump\t// out\n        /* \"#utility.yul\":841:918   */\n    tag_176:\n        /* \"#utility.yul\":878:885   */\n      0x00\n        /* \"#utility.yul\":907:912   */\n      dup2\n        /* \"#utility.yul\":896:912   */\n      swap1\n      pop\n        /* \"#utility.yul\":841:918   */\n      swap2\n      swap1\n      pop\n      jump\t// out\n        /* \"#utility.yul\":924:1046   */\n    tag_177:\n        /* \"#utility.yul\":997:1021   */\n      tag_254\n        /* \"#utility.yul\":1015:1020   */\n      dup2\n        /* \"#utility.yul\":997:1021   */\n      tag_176\n      jump\t// in\n    tag_254:\n        /* \"#utility.yul\":990:995   */\n      dup2\n        /* \"#utility.yul\":987:1022   */\n      eq\n        /* \"#utility.yul\":977:1040   */\n      tag_255\n      jumpi\n        /* \"#utility.yul\":1036:1037   */\n      0x00\n        /* \"#utility.yul\":1033:1034   */\n      dup1\n        /* \"#utility.yul\":1026:1038   */\n      revert\n        /* \"#utility.yul\":977:1040   */\n    tag_255:\n        /* \"#utility.yul\":924:1046   */\n      pop\n      jump\t// out\n        /* \"#utility.yul\":1052:1191   */\n    tag_178:\n        /* \"#utility.yul\":1098:1103   */\n      0x00\n        /* \"#utility.yul\":1136:1142   */\n      dup2\n        /* \"#utility.yul\":1123:1143   */\n      calldataload\n        /* \"#utility.yul\":1114:1143   */\n      swap1\n      pop\n        /* \"#utility.yul\":1152:1185   */\n      tag_257\n        /* \"#utility.yul\":1179:1184   */\n      dup2\n        /* \"#utility.yul\":1152:1185   */\n      tag_177\n      jump\t// in\n    tag_257:\n        /* \"#utility.yul\":1052:1191   */\n      swap3\n      swap2\n      pop\n      pop\n      jump\t// out\n        /* \"#utility.yul\":1197:1671   */\n    tag_20:\n        /* \"#utility.yul\":1265:1271   */\n      0x00\n        /* \"#utility.yul\":1273:1279   */\n      dup1\n        /* \"#utility.yul\":1322:1324   */\n      0x40\n        /* \"#utility.yul\":1310:1319   */\n      dup4\n        /* \"#utility.yul\":1301:1308   */\n      dup6\n        /* \"#utility.yul\":1297:1320   */\n      sub\n        /* \"#utility.yul\":1293:1325   */\n      slt\n        /* \"#utility.yul\":1290:1409   */\n      iszero\n      tag_259\n      jumpi\n        /* \"#utility.yul\":1328:1407   */\n      tag_260\n      tag_170\n      jump\t// in\n    tag_260:\n        /* \"#utility.yul\":1290:1409   */\n    tag_259:\n        /* \"#utility.yul\":1448:1449   */\n      0x00\n        /* \"#utility.yul\":1473:1526   */\n      tag_261\n        /* \"#utility.yul\":1518:1525   */\n      dup6\n        /* \"#utility.yul\":1509:1515   */\n      dup3\n        /* \"#utility.yul\":1498:1507   */\n      dup7\n        /* \"#utility.yul\":1494:1516   */\n      add\n        /* \"#utility.yul\":1473:1526   */\n      tag_175\n      jump\t// in\n    tag_261:\n        /* \"#utility.yul\":1463:1526   */\n      swap3\n      pop\n        /* \"#utility.yul\":1419:1536   */\n      pop\n        /* \"#utility.yul\":1575:1577   */\n      0x20\n        /* \"#utility.yul\":1601:1654   */\n      tag_262\n        /* \"#utility.yul\":1646:1653   */\n      dup6\n        /* \"#utility.yul\":1637:1643   */\n      dup3\n        /* \"#utility.yul\":1626:1635   */\n      dup7\n        /* \"#utility.yul\":1622:1644   */\n      add\n        /* \"#utility.yul\":1601:1654   */\n      tag_178\n      jump\t// in\n    tag_262:\n        /* \"#utility.yul\":1591:1654   */\n      swap2\n      pop\n        /* \"#utility.yul\":1546:1664   */\n      pop\n        /* \"#utility.yul\":1197:1671   */\n      swap3\n      pop\n      swap3\n      swap1\n      pop\n      jump\t// out\n        /* \"#utility.yul\":1677:1795   */\n    tag_179:\n        /* \"#utility.yul\":1764:1788   */\n      tag_264\n        /* \"#utility.yul\":1782:1787   */\n      dup2\n        /* \"#utility.yul\":1764:1788   */\n      tag_176\n      jump\t// in\n    tag_264:\n        /* \"#utility.yul\":1759:1762   */\n      dup3\n        /* \"#utility.yul\":1752:1789   */\n      mstore\n        /* \"#utility.yul\":1677:1795   */\n      pop\n      pop\n      jump\t// out\n        /* \"#utility.yul\":1801:1919   */\n    tag_180:\n        /* \"#utility.yul\":1888:1912   */\n      tag_266\n        /* \"#utility.yul\":1906:1911   */\n      dup2\n        /* \"#utility.yul\":1888:1912   */\n      tag_173\n      jump\t// in\n    tag_266:\n        /* \"#utility.yul\":1883:1886   */\n      dup3\n        /* \"#utility.yul\":1876:1913   */\n      mstore\n        /* \"#utility.yul\":1801:1919   */\n      pop\n      pop\n      jump\t// out\n        /* \"#utility.yul\":1925:2024   */\n    tag_181:\n        /* \"#utility.yul\":1977:1983   */\n      0x00\n        /* \"#utility.yul\":2011:2016   */\n      dup2\n        /* \"#utility.yul\":2005:2017   */\n      mload\n        /* \"#utility.yul\":1995:2017   */\n      swap1\n      pop\n        /* \"#utility.yul\":1925:2024   */\n      swap2\n      swap1\n      pop\n      jump\t// out\n        /* \"#utility.yul\":2030:2199   */\n    tag_182:\n        /* \"#utility.yul\":2114:2125   */\n      0x00\n        /* \"#utility.yul\":2148:2154   */\n      dup3\n        /* \"#utility.yul\":2143:2146   */\n      dup3\n        /* \"#utility.yul\":2136:2155   */\n      mstore\n        /* \"#utility.yul\":2188:2192   */\n      0x20\n        /* \"#utility.yul\":2183:2186   */\n      dup3\n        /* \"#utility.yul\":2179:2193   */\n      add\n        /* \"#utility.yul\":2164:2193   */\n      swap1\n      pop\n        /* \"#utility.yul\":2030:2199   */\n      swap3\n      swap2\n      pop\n      pop\n      jump\t// out\n        /* \"#utility.yul\":2205:2344   */\n    tag_183:\n        /* \"#utility.yul\":2294:2300   */\n      dup3\n        /* \"#utility.yul\":2289:2292   */\n      dup2\n        /* \"#utility.yul\":2284:2287   */\n      dup4\n        /* \"#utility.yul\":2278:2301   */\n      mcopy\n        /* \"#utility.yul\":2335:2336   */\n      0x00\n        /* \"#utility.yul\":2326:2332   */\n      dup4\n        /* \"#utility.yul\":2321:2324   */\n      dup4\n        /* \"#utility.yul\":2317:2333   */\n      add\n        /* \"#utility.yul\":2310:2337   */\n      mstore\n        /* \"#utility.yul\":2205:2344   */\n      pop\n      pop\n      pop\n      jump\t// out\n        /* \"#utility.yul\":2350:2452   */\n    tag_184:\n        /* \"#utility.yul\":2391:2397   */\n      0x00\n        /* \"#utility.yul\":2442:2444   */\n      0x1f\n        /* \"#utility.yul\":2438:2445   */\n      not\n        /* \"#utility.yul\":2433:2435   */\n      0x1f\n        /* \"#utility.yul\":2426:2431   */\n      dup4\n        /* \"#utility.yul\":2422:2436   */\n      add\n        /* \"#utility.yul\":2418:2446   */\n      and\n        /* \"#utility.yul\":2408:2446   */\n      swap1\n      pop\n        /* \"#utility.yul\":2350:2452   */\n      swap2\n      swap1\n      pop\n      jump\t// out\n        /* \"#utility.yul\":2458:2835   */\n    tag_185:\n        /* \"#utility.yul\":2546:2549   */\n      0x00\n        /* \"#utility.yul\":2574:2613   */\n      tag_272\n        /* \"#utility.yul\":2607:2612   */\n      dup3\n        /* \"#utility.yul\":2574:2613   */\n      tag_181\n      jump\t// in\n    tag_272:\n        /* \"#utility.yul\":2629:2700   */\n      tag_273\n        /* \"#utility.yul\":2693:2699   */\n      dup2\n        /* \"#utility.yul\":2688:2691   */\n      dup6\n        /* \"#utility.yul\":2629:2700   */\n      tag_182\n      jump\t// in\n    tag_273:\n        /* \"#utility.yul\":2622:2700   */\n      swap4\n      pop\n        /* \"#utility.yul\":2709:2774   */\n      tag_274\n        /* \"#utility.yul\":2767:2773   */\n      dup2\n        /* \"#utility.yul\":2762:2765   */\n      dup6\n        /* \"#utility.yul\":2755:2759   */\n      0x20\n        /* \"#utility.yul\":2748:2753   */\n      dup7\n        /* \"#utility.yul\":2744:2760   */\n      add\n        /* \"#utility.yul\":2709:2774   */\n      tag_183\n      jump\t// in\n    tag_274:\n        /* \"#utility.yul\":2799:2828   */\n      tag_275\n        /* \"#utility.yul\":2821:2827   */\n      dup2\n        /* \"#utility.yul\":2799:2828   */\n      tag_184\n      jump\t// in\n    tag_275:\n        /* \"#utility.yul\":2794:2797   */\n      dup5\n        /* \"#utility.yul\":2790:2829   */\n      add\n        /* \"#utility.yul\":2783:2829   */\n      swap2\n      pop\n        /* \"#utility.yul\":2550:2835   */\n      pop\n        /* \"#utility.yul\":2458:2835   */\n      swap3\n      swap2\n      pop\n      pop\n      jump\t// out\n        /* \"#utility.yul\":2841:3596   */\n    tag_23:\n        /* \"#utility.yul\":3066:3070   */\n      0x00\n        /* \"#utility.yul\":3104:3107   */\n      0xa0\n        /* \"#utility.yul\":3093:3102   */\n      dup3\n        /* \"#utility.yul\":3089:3108   */\n      add\n        /* \"#utility.yul\":3081:3108   */\n      swap1\n      pop\n        /* \"#utility.yul\":3118:3189   */\n      tag_277\n        /* \"#utility.yul\":3186:3187   */\n      0x00\n        /* \"#utility.yul\":3175:3184   */\n      dup4\n        /* \"#utility.yul\":3171:3188   */\n      add\n        /* \"#utility.yul\":3162:3168   */\n      dup9\n        /* \"#utility.yul\":3118:3189   */\n      tag_179\n      jump\t// in\n    tag_277:\n        /* \"#utility.yul\":3199:3271   */\n      tag_278\n        /* \"#utility.yul\":3267:3269   */\n      0x20\n        /* \"#utility.yul\":3256:3265   */\n      dup4\n        /* \"#utility.yul\":3252:3270   */\n      add\n        /* \"#utility.yul\":3243:3249   */\n      dup8\n        /* \"#utility.yul\":3199:3271   */\n      tag_180\n      jump\t// in\n    tag_278:\n        /* \"#utility.yul\":3318:3327   */\n      dup2\n        /* \"#utility.yul\":3312:3316   */\n      dup2\n        /* \"#utility.yul\":3308:3328   */\n      sub\n        /* \"#utility.yul\":3303:3305   */\n      0x40\n        /* \"#utility.yul\":3292:3301   */\n      dup4\n        /* \"#utility.yul\":3288:3306   */\n      add\n        /* \"#utility.yul\":3281:3329   */\n      mstore\n        /* \"#utility.yul\":3346:3424   */\n      tag_279\n        /* \"#utility.yul\":3419:3423   */\n      dup2\n        /* \"#utility.yul\":3410:3416   */\n      dup7\n        /* \"#utility.yul\":3346:3424   */\n      tag_185\n      jump\t// in\n    tag_279:\n        /* \"#utility.yul\":3338:3424   */\n      swap1\n      pop\n        /* \"#utility.yul\":3434:3506   */\n      tag_280\n        /* \"#utility.yul\":3502:3504   */\n      0x60\n        /* \"#utility.yul\":3491:3500   */\n      dup4\n        /* \"#utility.yul\":3487:3505   */\n      add\n        /* \"#utility.yul\":3478:3484   */\n      dup6\n        /* \"#utility.yul\":3434:3506   */\n      tag_179\n      jump\t// in\n    tag_280:\n        /* \"#utility.yul\":3516:3589   */\n      tag_281\n        /* \"#utility.yul\":3584:3587   */\n      0x80\n        /* \"#utility.yul\":3573:3582   */\n      dup4\n        /* \"#utility.yul\":3569:3588   */\n      add\n        /* \"#utility.yul\":3560:3566   */\n      dup5\n        /* \"#utility.yul\":3516:3589   */\n      tag_179\n      jump\t// in\n    tag_281:\n        /* \"#utility.yul\":2841:3596   */\n      swap7\n      swap6\n      pop\n      pop\n      pop\n      pop\n      pop\n      pop\n      jump\t// out\n        /* \"#utility.yul\":3602:3931   */\n    tag_26:\n        /* \"#utility.yul\":3661:3667   */\n      0x00\n        /* \"#utility.yul\":3710:3712   */\n      0x20\n        /* \"#utility.yul\":3698:3707   */\n      dup3\n        /* \"#utility.yul\":3689:3696   */\n      dup5\n        /* \"#utility.yul\":3685:3708   */\n      sub\n        /* \"#utility.yul\":3681:3713   */\n      slt\n        /* \"#utility.yul\":3678:3797   */\n      iszero\n      tag_283\n      jumpi\n        /* \"#utility.yul\":3716:3795   */\n      tag_284\n      tag_170\n      jump\t// in\n    tag_284:\n        /* \"#utility.yul\":3678:3797   */\n    tag_283:\n        /* \"#utility.yul\":3836:3837   */\n      0x00\n        /* \"#utility.yul\":3861:3914   */\n      tag_285\n        /* \"#utility.yul\":3906:3913   */\n      dup5\n        /* \"#utility.yul\":3897:3903   */\n      dup3\n        /* \"#utility.yul\":3886:3895   */\n      dup6\n        /* \"#utility.yul\":3882:3904   */\n      add\n        /* \"#utility.yul\":3861:3914   */\n      tag_175\n      jump\t// in\n    tag_285:\n        /* \"#utility.yul\":3851:3914   */\n      swap2\n      pop\n        /* \"#utility.yul\":3807:3924   */\n      pop\n        /* \"#utility.yul\":3602:3931   */\n      swap3\n      swap2\n      pop\n      pop\n      jump\t// out\n        /* \"#utility.yul\":3937:4072   */\n    tag_186:\n        /* \"#utility.yul\":4025:4031   */\n      0x00\n        /* \"#utility.yul\":4059:4064   */\n      dup2\n        /* \"#utility.yul\":4053:4065   */\n      mload\n        /* \"#utility.yul\":4043:4065   */\n      swap1\n      pop\n        /* \"#utility.yul\":3937:4072   */\n      swap2\n      swap1\n      pop\n      jump\t// out\n        /* \"#utility.yul\":4078:4283   */\n    tag_187:\n        /* \"#utility.yul\":4198:4209   */\n      0x00\n        /* \"#utility.yul\":4232:4238   */\n      dup3\n        /* \"#utility.yul\":4227:4230   */\n      dup3\n        /* \"#utility.yul\":4220:4239   */\n      mstore\n        /* \"#utility.yul\":4272:4276   */\n      0x20\n        /* \"#utility.yul\":4267:4270   */\n      dup3\n        /* \"#utility.yul\":4263:4277   */\n      add\n        /* \"#utility.yul\":4248:4277   */\n      swap1\n      pop\n        /* \"#utility.yul\":4078:4283   */\n      swap3\n      swap2\n      pop\n      pop\n      jump\t// out\n        /* \"#utility.yul\":4289:4442   */\n    tag_188:\n        /* \"#utility.yul\":4377:4381   */\n      0x00\n        /* \"#utility.yul\":4400:4403   */\n      dup2\n        /* \"#utility.yul\":4392:4403   */\n      swap1\n      pop\n        /* \"#utility.yul\":4430:4434   */\n      0x20\n        /* \"#utility.yul\":4425:4428   */\n      dup3\n        /* \"#utility.yul\":4421:4435   */\n      add\n        /* \"#utility.yul\":4413:4435   */\n      swap1\n      pop\n        /* \"#utility.yul\":4289:4442   */\n      swap2\n      swap1\n      pop\n      jump\t// out\n        /* \"#utility.yul\":4448:4556   */\n    tag_189:\n        /* \"#utility.yul\":4525:4549   */\n      tag_290\n        /* \"#utility.yul\":4543:4548   */\n      dup2\n        /* \"#utility.yul\":4525:4549   */\n      tag_176\n      jump\t// in\n    tag_290:\n        /* \"#utility.yul\":4520:4523   */\n      dup3\n        /* \"#utility.yul\":4513:4550   */\n      mstore\n        /* \"#utility.yul\":4448:4556   */\n      pop\n      pop\n      jump\t// out\n        /* \"#utility.yul\":4562:4670   */\n    tag_190:\n        /* \"#utility.yul\":4639:4663   */\n      tag_292\n        /* \"#utility.yul\":4657:4662   */\n      dup2\n        /* \"#utility.yul\":4639:4663   */\n      tag_173\n      jump\t// in\n    tag_292:\n        /* \"#utility.yul\":4634:4637   */\n      dup3\n        /* \"#utility.yul\":4627:4664   */\n      mstore\n        /* \"#utility.yul\":4562:4670   */\n      pop\n      pop\n      jump\t// out\n        /* \"#utility.yul\":4676:4835   */\n    tag_191:\n        /* \"#utility.yul\":4750:4761   */\n      0x00\n        /* \"#utility.yul\":4784:4790   */\n      dup3\n        /* \"#utility.yul\":4779:4782   */\n      dup3\n        /* \"#utility.yul\":4772:4791   */\n      mstore\n        /* \"#utility.yul\":4824:4828   */\n      0x20\n        /* \"#utility.yul\":4819:4822   */\n      dup3\n        /* \"#utility.yul\":4815:4829   */\n      add\n        /* \"#utility.yul\":4800:4829   */\n      swap1\n      pop\n        /* \"#utility.yul\":4676:4835   */\n      swap3\n      swap2\n      pop\n      pop\n      jump\t// out\n        /* \"#utility.yul\":4841:5198   */\n    tag_192:\n        /* \"#utility.yul\":4919:4922   */\n      0x00\n        /* \"#utility.yul\":4947:4986   */\n      tag_295\n        /* \"#utility.yul\":4980:4985   */\n      dup3\n        /* \"#utility.yul\":4947:4986   */\n      tag_181\n      jump\t// in\n    tag_295:\n        /* \"#utility.yul\":5002:5063   */\n      tag_296\n        /* \"#utility.yul\":5056:5062   */\n      dup2\n        /* \"#utility.yul\":5051:5054   */\n      dup6\n        /* \"#utility.yul\":5002:5063   */\n      tag_191\n      jump\t// in\n    tag_296:\n        /* \"#utility.yul\":4995:5063   */\n      swap4\n      pop\n        /* \"#utility.yul\":5072:5137   */\n      tag_297\n        /* \"#utility.yul\":5130:5136   */\n      dup2\n        /* \"#utility.yul\":5125:5128   */\n      dup6\n        /* \"#utility.yul\":5118:5122   */\n      0x20\n        /* \"#utility.yul\":5111:5116   */\n      dup7\n        /* \"#utility.yul\":5107:5123   */\n      add\n        /* \"#utility.yul\":5072:5137   */\n      tag_183\n      jump\t// in\n    tag_297:\n        /* \"#utility.yul\":5162:5191   */\n      tag_298\n        /* \"#utility.yul\":5184:5190   */\n      dup2\n        /* \"#utility.yul\":5162:5191   */\n      tag_184\n      jump\t// in\n    tag_298:\n        /* \"#utility.yul\":5157:5160   */\n      dup5\n        /* \"#utility.yul\":5153:5192   */\n      add\n        /* \"#utility.yul\":5146:5192   */\n      swap2\n      pop\n        /* \"#utility.yul\":4923:5198   */\n      pop\n        /* \"#utility.yul\":4841:5198   */\n      swap3\n      swap2\n      pop\n      pop\n      jump\t// out\n        /* \"#utility.yul\":5256:6375   */\n    tag_193:\n        /* \"#utility.yul\":5357:5360   */\n      0x00\n        /* \"#utility.yul\":5393:5397   */\n      0xa0\n        /* \"#utility.yul\":5388:5391   */\n      dup4\n        /* \"#utility.yul\":5384:5398   */\n      add\n        /* \"#utility.yul\":5478:5482   */\n      0x00\n        /* \"#utility.yul\":5471:5476   */\n      dup4\n        /* \"#utility.yul\":5467:5483   */\n      add\n        /* \"#utility.yul\":5461:5484   */\n      mload\n        /* \"#utility.yul\":5497:5560   */\n      tag_300\n        /* \"#utility.yul\":5554:5558   */\n      0x00\n        /* \"#utility.yul\":5549:5552   */\n      dup7\n        /* \"#utility.yul\":5545:5559   */\n      add\n        /* \"#utility.yul\":5531:5543   */\n      dup3\n        /* \"#utility.yul\":5497:5560   */\n      tag_189\n      jump\t// in\n    tag_300:\n        /* \"#utility.yul\":5408:5570   */\n      pop\n        /* \"#utility.yul\":5654:5658   */\n      0x20\n        /* \"#utility.yul\":5647:5652   */\n      dup4\n        /* \"#utility.yul\":5643:5659   */\n      add\n        /* \"#utility.yul\":5637:5660   */\n      mload\n        /* \"#utility.yul\":5673:5736   */\n      tag_301\n        /* \"#utility.yul\":5730:5734   */\n      0x20\n        /* \"#utility.yul\":5725:5728   */\n      dup7\n        /* \"#utility.yul\":5721:5735   */\n      add\n        /* \"#utility.yul\":5707:5719   */\n      dup3\n        /* \"#utility.yul\":5673:5736   */\n      tag_190\n      jump\t// in\n    tag_301:\n        /* \"#utility.yul\":5580:5746   */\n      pop\n        /* \"#utility.yul\":5831:5835   */\n      0x40\n        /* \"#utility.yul\":5824:5829   */\n      dup4\n        /* \"#utility.yul\":5820:5836   */\n      add\n        /* \"#utility.yul\":5814:5837   */\n      mload\n        /* \"#utility.yul\":5884:5887   */\n      dup5\n        /* \"#utility.yul\":5878:5882   */\n      dup3\n        /* \"#utility.yul\":5874:5888   */\n      sub\n        /* \"#utility.yul\":5867:5871   */\n      0x40\n        /* \"#utility.yul\":5862:5865   */\n      dup7\n        /* \"#utility.yul\":5858:5872   */\n      add\n        /* \"#utility.yul\":5851:5889   */\n      mstore\n        /* \"#utility.yul\":5910:5983   */\n      tag_302\n        /* \"#utility.yul\":5978:5982   */\n      dup3\n        /* \"#utility.yul\":5964:5976   */\n      dup3\n        /* \"#utility.yul\":5910:5983   */\n      tag_192\n      jump\t// in\n    tag_302:\n        /* \"#utility.yul\":5902:5983   */\n      swap2\n      pop\n        /* \"#utility.yul\":5756:5994   */\n      pop\n        /* \"#utility.yul\":6081:6085   */\n      0x60\n        /* \"#utility.yul\":6074:6079   */\n      dup4\n        /* \"#utility.yul\":6070:6086   */\n      add\n        /* \"#utility.yul\":6064:6087   */\n      mload\n        /* \"#utility.yul\":6100:6163   */\n      tag_303\n        /* \"#utility.yul\":6157:6161   */\n      0x60\n        /* \"#utility.yul\":6152:6155   */\n      dup7\n        /* \"#utility.yul\":6148:6162   */\n      add\n        /* \"#utility.yul\":6134:6146   */\n      dup3\n        /* \"#utility.yul\":6100:6163   */\n      tag_189\n      jump\t// in\n    tag_303:\n        /* \"#utility.yul\":6004:6173   */\n      pop\n        /* \"#utility.yul\":6256:6260   */\n      0x80\n        /* \"#utility.yul\":6249:6254   */\n      dup4\n        /* \"#utility.yul\":6245:6261   */\n      add\n        /* \"#utility.yul\":6239:6262   */\n      mload\n        /* \"#utility.yul\":6275:6338   */\n      tag_304\n        /* \"#utility.yul\":6332:6336   */\n      0x80\n        /* \"#utility.yul\":6327:6330   */\n      dup7\n        /* \"#utility.yul\":6323:6337   */\n      add\n        /* \"#utility.yul\":6309:6321   */\n      dup3\n        /* \"#utility.yul\":6275:6338   */\n      tag_189\n      jump\t// in\n    tag_304:\n        /* \"#utility.yul\":6183:6348   */\n      pop\n        /* \"#utility.yul\":6365:6369   */\n      dup1\n        /* \"#utility.yul\":6358:6369   */\n      swap2\n      pop\n        /* \"#utility.yul\":5362:6375   */\n      pop\n        /* \"#utility.yul\":5256:6375   */\n      swap3\n      swap2\n      pop\n      pop\n      jump\t// out\n        /* \"#utility.yul\":6381:6621   */\n    tag_194:\n        /* \"#utility.yul\":6492:6502   */\n      0x00\n        /* \"#utility.yul\":6527:6615   */\n      tag_306\n        /* \"#utility.yul\":6611:6614   */\n      dup4\n        /* \"#utility.yul\":6603:6609   */\n      dup4\n        /* \"#utility.yul\":6527:6615   */\n      tag_193\n      jump\t// in\n    tag_306:\n        /* \"#utility.yul\":6513:6615   */\n      swap1\n      pop\n        /* \"#utility.yul\":6381:6621   */\n      swap3\n      swap2\n      pop\n      pop\n      jump\t// out\n        /* \"#utility.yul\":6627:6761   */\n    tag_195:\n        /* \"#utility.yul\":6718:6722   */\n      0x00\n        /* \"#utility.yul\":6750:6754   */\n      0x20\n        /* \"#utility.yul\":6745:6748   */\n      dup3\n        /* \"#utility.yul\":6741:6755   */\n      add\n        /* \"#utility.yul\":6733:6755   */\n      swap1\n      pop\n        /* \"#utility.yul\":6627:6761   */\n      swap2\n      swap1\n      pop\n      jump\t// out\n        /* \"#utility.yul\":6823:7902   */\n    tag_196:\n        /* \"#utility.yul\":6984:6987   */\n      0x00\n        /* \"#utility.yul\":7013:7088   */\n      tag_309\n        /* \"#utility.yul\":7082:7087   */\n      dup3\n        /* \"#utility.yul\":7013:7088   */\n      tag_186\n      jump\t// in\n    tag_309:\n        /* \"#utility.yul\":7104:7211   */\n      tag_310\n        /* \"#utility.yul\":7204:7210   */\n      dup2\n        /* \"#utility.yul\":7199:7202   */\n      dup6\n        /* \"#utility.yul\":7104:7211   */\n      tag_187\n      jump\t// in\n    tag_310:\n        /* \"#utility.yul\":7097:7211   */\n      swap4\n      pop\n        /* \"#utility.yul\":7237:7240   */\n      dup4\n        /* \"#utility.yul\":7282:7286   */\n      0x20\n        /* \"#utility.yul\":7274:7280   */\n      dup3\n        /* \"#utility.yul\":7270:7287   */\n      mul\n        /* \"#utility.yul\":7265:7268   */\n      dup6\n        /* \"#utility.yul\":7261:7288   */\n      add\n        /* \"#utility.yul\":7312:7389   */\n      tag_311\n        /* \"#utility.yul\":7383:7388   */\n      dup6\n        /* \"#utility.yul\":7312:7389   */\n      tag_188\n      jump\t// in\n    tag_311:\n        /* \"#utility.yul\":7412:7419   */\n      dup1\n        /* \"#utility.yul\":7443:7444   */\n      0x00\n        /* \"#utility.yul\":7428:7857   */\n    tag_312:\n        /* \"#utility.yul\":7453:7459   */\n      dup6\n        /* \"#utility.yul\":7450:7451   */\n      dup2\n        /* \"#utility.yul\":7447:7460   */\n      lt\n        /* \"#utility.yul\":7428:7857   */\n      iszero\n      tag_314\n      jumpi\n        /* \"#utility.yul\":7524:7533   */\n      dup5\n        /* \"#utility.yul\":7518:7522   */\n      dup5\n        /* \"#utility.yul\":7514:7534   */\n      sub\n        /* \"#utility.yul\":7509:7512   */\n      dup10\n        /* \"#utility.yul\":7502:7535   */\n      mstore\n        /* \"#utility.yul\":7575:7581   */\n      dup2\n        /* \"#utility.yul\":7569:7582   */\n      mload\n        /* \"#utility.yul\":7603:7709   */\n      tag_315\n        /* \"#utility.yul\":7704:7708   */\n      dup6\n        /* \"#utility.yul\":7689:7702   */\n      dup3\n        /* \"#utility.yul\":7603:7709   */\n      tag_194\n      jump\t// in\n    tag_315:\n        /* \"#utility.yul\":7595:7709   */\n      swap5\n      pop\n        /* \"#utility.yul\":7732:7813   */\n      tag_316\n        /* \"#utility.yul\":7806:7812   */\n      dup4\n        /* \"#utility.yul\":7732:7813   */\n      tag_195\n      jump\t// in\n    tag_316:\n        /* \"#utility.yul\":7722:7813   */\n      swap3\n      pop\n        /* \"#utility.yul\":7842:7846   */\n      0x20\n        /* \"#utility.yul\":7837:7840   */\n      dup11\n        /* \"#utility.yul\":7833:7847   */\n      add\n        /* \"#utility.yul\":7826:7847   */\n      swap10\n      pop\n        /* \"#utility.yul\":7488:7857   */\n      pop\n        /* \"#utility.yul\":7475:7476   */\n      0x01\n        /* \"#utility.yul\":7472:7473   */\n      dup2\n        /* \"#utility.yul\":7468:7477   */\n      add\n        /* \"#utility.yul\":7463:7477   */\n      swap1\n      pop\n        /* \"#utility.yul\":7428:7857   */\n      jump(tag_312)\n    tag_314:\n        /* \"#utility.yul\":7432:7446   */\n      pop\n        /* \"#utility.yul\":7873:7877   */\n      dup3\n        /* \"#utility.yul\":7866:7877   */\n      swap8\n      pop\n        /* \"#utility.yul\":7893:7896   */\n      dup8\n        /* \"#utility.yul\":7886:7896   */\n      swap6\n      pop\n        /* \"#utility.yul\":6989:7902   */\n      pop\n      pop\n      pop\n      pop\n      pop\n        /* \"#utility.yul\":6823:7902   */\n      swap3\n      swap2\n      pop\n      pop\n      jump\t// out\n        /* \"#utility.yul\":7908:8365   */\n    tag_29:\n        /* \"#utility.yul\":8093:8097   */\n      0x00\n        /* \"#utility.yul\":8131:8133   */\n      0x20\n        /* \"#utility.yul\":8120:8129   */\n      dup3\n        /* \"#utility.yul\":8116:8134   */\n      add\n        /* \"#utility.yul\":8108:8134   */\n      swap1\n      pop\n        /* \"#utility.yul\":8180:8189   */\n      dup2\n        /* \"#utility.yul\":8174:8178   */\n      dup2\n        /* \"#utility.yul\":8170:8190   */\n      sub\n        /* \"#utility.yul\":8166:8167   */\n      0x00\n        /* \"#utility.yul\":8155:8164   */\n      dup4\n        /* \"#utility.yul\":8151:8168   */\n      add\n        /* \"#utility.yul\":8144:8191   */\n      mstore\n        /* \"#utility.yul\":8208:8358   */\n      tag_318\n        /* \"#utility.yul\":8353:8357   */\n      dup2\n        /* \"#utility.yul\":8344:8350   */\n      dup5\n        /* \"#utility.yul\":8208:8358   */\n      tag_196\n      jump\t// in\n    tag_318:\n        /* \"#utility.yul\":8200:8358   */\n      swap1\n      pop\n        /* \"#utility.yul\":7908:8365   */\n      swap3\n      swap2\n      pop\n      pop\n      jump\t// out\n        /* \"#utility.yul\":8371:8460   */\n    tag_197:\n        /* \"#utility.yul\":8407:8414   */\n      0x00\n        /* \"#utility.yul\":8447:8453   */\n      0xffff\n        /* \"#utility.yul\":8440:8445   */\n      dup3\n        /* \"#utility.yul\":8436:8454   */\n      and\n        /* \"#utility.yul\":8425:8454   */\n      swap1\n      pop\n        /* \"#utility.yul\":8371:8460   */\n      swap2\n      swap1\n      pop\n      jump\t// out\n        /* \"#utility.yul\":8466:8586   */\n    tag_198:\n        /* \"#utility.yul\":8538:8561   */\n      tag_321\n        /* \"#utility.yul\":8555:8560   */\n      dup2\n        /* \"#utility.yul\":8538:8561   */\n      tag_197\n      jump\t// in\n    tag_321:\n        /* \"#utility.yul\":8531:8536   */\n      dup2\n        /* \"#utility.yul\":8528:8562   */\n      eq\n        /* \"#utility.yul\":8518:8580   */\n      tag_322\n      jumpi\n        /* \"#utility.yul\":8576:8577   */\n      0x00\n        /* \"#utility.yul\":8573:8574   */\n      dup1\n        /* \"#utility.yul\":8566:8578   */\n      revert\n        /* \"#utility.yul\":8518:8580   */\n    tag_322:\n        /* \"#utility.yul\":8466:8586   */\n      pop\n      jump\t// out\n        /* \"#utility.yul\":8592:8729   */\n    tag_199:\n        /* \"#utility.yul\":8637:8642   */\n      0x00\n        /* \"#utility.yul\":8675:8681   */\n      dup2\n        /* \"#utility.yul\":8662:8682   */\n      calldataload\n        /* \"#utility.yul\":8653:8682   */\n      swap1\n      pop\n        /* \"#utility.yul\":8691:8723   */\n      tag_324\n        /* \"#utility.yul\":8717:8722   */\n      dup2\n        /* \"#utility.yul\":8691:8723   */\n      tag_198\n      jump\t// in\n    tag_324:\n        /* \"#utility.yul\":8592:8729   */\n      swap3\n      swap2\n      pop\n      pop\n      jump\t// out\n        /* \"#utility.yul\":8735:9062   */\n    tag_38:\n        /* \"#utility.yul\":8793:8799   */\n      0x00\n        /* \"#utility.yul\":8842:8844   */\n      0x20\n        /* \"#utility.yul\":8830:8839   */\n      dup3\n        /* \"#utility.yul\":8821:8828   */\n      dup5\n        /* \"#utility.yul\":8817:8840   */\n      sub\n        /* \"#utility.yul\":8813:8845   */\n      slt\n        /* \"#utility.yul\":8810:8929   */\n      iszero\n      tag_326\n      jumpi\n        /* \"#utility.yul\":8848:8927   */\n      tag_327\n      tag_170\n      jump\t// in\n    tag_327:\n        /* \"#utility.yul\":8810:8929   */\n    tag_326:\n        /* \"#utility.yul\":8968:8969   */\n      0x00\n        /* \"#utility.yul\":8993:9045   */\n      tag_328\n        /* \"#utility.yul\":9037:9044   */\n      dup5\n        /* \"#utility.yul\":9028:9034   */\n      dup3\n        /* \"#utility.yul\":9017:9026   */\n      dup6\n        /* \"#utility.yul\":9013:9035   */\n      add\n        /* \"#utility.yul\":8993:9045   */\n      tag_199\n      jump\t// in\n    tag_328:\n        /* \"#utility.yul\":8983:9045   */\n      swap2\n      pop\n        /* \"#utility.yul\":8939:9055   */\n      pop\n        /* \"#utility.yul\":8735:9062   */\n      swap3\n      swap2\n      pop\n      pop\n      jump\t// out\n        /* \"#utility.yul\":9068:9290   */\n    tag_43:\n        /* \"#utility.yul\":9161:9165   */\n      0x00\n        /* \"#utility.yul\":9199:9201   */\n      0x20\n        /* \"#utility.yul\":9188:9197   */\n      dup3\n        /* \"#utility.yul\":9184:9202   */\n      add\n        /* \"#utility.yul\":9176:9202   */\n      swap1\n      pop\n        /* \"#utility.yul\":9212:9283   */\n      tag_330\n        /* \"#utility.yul\":9280:9281   */\n      0x00\n        /* \"#utility.yul\":9269:9278   */\n      dup4\n        /* \"#utility.yul\":9265:9282   */\n      add\n        /* \"#utility.yul\":9256:9262   */\n      dup5\n        /* \"#utility.yul\":9212:9283   */\n      tag_179\n      jump\t// in\n    tag_330:\n        /* \"#utility.yul\":9068:9290   */\n      swap3\n      swap2\n      pop\n      pop\n      jump\t// out\n        /* \"#utility.yul\":9296:9411   */\n    tag_200:\n        /* \"#utility.yul\":9381:9404   */\n      tag_332\n        /* \"#utility.yul\":9398:9403   */\n      dup2\n        /* \"#utility.yul\":9381:9404   */\n      tag_197\n      jump\t// in\n    tag_332:\n        /* \"#utility.yul\":9376:9379   */\n      dup3\n        /* \"#utility.yul\":9369:9405   */\n      mstore\n        /* \"#utility.yul\":9296:9411   */\n      pop\n      pop\n      jump\t// out\n        /* \"#utility.yul\":9417:9635   */\n    tag_47:\n        /* \"#utility.yul\":9508:9512   */\n      0x00\n        /* \"#utility.yul\":9546:9548   */\n      0x20\n        /* \"#utility.yul\":9535:9544   */\n      dup3\n        /* \"#utility.yul\":9531:9549   */\n      add\n        /* \"#utility.yul\":9523:9549   */\n      swap1\n      pop\n        /* \"#utility.yul\":9559:9628   */\n      tag_334\n        /* \"#utility.yul\":9625:9626   */\n      0x00\n        /* \"#utility.yul\":9614:9623   */\n      dup4\n        /* \"#utility.yul\":9610:9627   */\n      add\n        /* \"#utility.yul\":9601:9607   */\n      dup5\n        /* \"#utility.yul\":9559:9628   */\n      tag_200\n      jump\t// in\n    tag_334:\n        /* \"#utility.yul\":9417:9635   */\n      swap3\n      swap2\n      pop\n      pop\n      jump\t// out\n        /* \"#utility.yul\":9693:10822   */\n    tag_201:\n        /* \"#utility.yul\":9804:9807   */\n      0x00\n        /* \"#utility.yul\":9840:9844   */\n      0xa0\n        /* \"#utility.yul\":9835:9838   */\n      dup4\n        /* \"#utility.yul\":9831:9845   */\n      add\n        /* \"#utility.yul\":9925:9929   */\n      0x00\n        /* \"#utility.yul\":9918:9923   */\n      dup4\n        /* \"#utility.yul\":9914:9930   */\n      add\n        /* \"#utility.yul\":9908:9931   */\n      mload\n        /* \"#utility.yul\":9944:10007   */\n      tag_336\n        /* \"#utility.yul\":10001:10005   */\n      0x00\n        /* \"#utility.yul\":9996:9999   */\n      dup7\n        /* \"#utility.yul\":9992:10006   */\n      add\n        /* \"#utility.yul\":9978:9990   */\n      dup3\n        /* \"#utility.yul\":9944:10007   */\n      tag_189\n      jump\t// in\n    tag_336:\n        /* \"#utility.yul\":9855:10017   */\n      pop\n        /* \"#utility.yul\":10101:10105   */\n      0x20\n        /* \"#utility.yul\":10094:10099   */\n      dup4\n        /* \"#utility.yul\":10090:10106   */\n      add\n        /* \"#utility.yul\":10084:10107   */\n      mload\n        /* \"#utility.yul\":10120:10183   */\n      tag_337\n        /* \"#utility.yul\":10177:10181   */\n      0x20\n        /* \"#utility.yul\":10172:10175   */\n      dup7\n        /* \"#utility.yul\":10168:10182   */\n      add\n        /* \"#utility.yul\":10154:10166   */\n      dup3\n        /* \"#utility.yul\":10120:10183   */\n      tag_190\n      jump\t// in\n    tag_337:\n        /* \"#utility.yul\":10027:10193   */\n      pop\n        /* \"#utility.yul\":10278:10282   */\n      0x40\n        /* \"#utility.yul\":10271:10276   */\n      dup4\n        /* \"#utility.yul\":10267:10283   */\n      add\n        /* \"#utility.yul\":10261:10284   */\n      mload\n        /* \"#utility.yul\":10331:10334   */\n      dup5\n        /* \"#utility.yul\":10325:10329   */\n      dup3\n        /* \"#utility.yul\":10321:10335   */\n      sub\n        /* \"#utility.yul\":10314:10318   */\n      0x40\n        /* \"#utility.yul\":10309:10312   */\n      dup7\n        /* \"#utility.yul\":10305:10319   */\n      add\n        /* \"#utility.yul\":10298:10336   */\n      mstore\n        /* \"#utility.yul\":10357:10430   */\n      tag_338\n        /* \"#utility.yul\":10425:10429   */\n      dup3\n        /* \"#utility.yul\":10411:10423   */\n      dup3\n        /* \"#utility.yul\":10357:10430   */\n      tag_192\n      jump\t// in\n    tag_338:\n        /* \"#utility.yul\":10349:10430   */\n      swap2\n      pop\n        /* \"#utility.yul\":10203:10441   */\n      pop\n        /* \"#utility.yul\":10528:10532   */\n      0x60\n        /* \"#utility.yul\":10521:10526   */\n      dup4\n        /* \"#utility.yul\":10517:10533   */\n      add\n        /* \"#utility.yul\":10511:10534   */\n      mload\n        /* \"#utility.yul\":10547:10610   */\n      tag_339\n        /* \"#utility.yul\":10604:10608   */\n      0x60\n        /* \"#utility.yul\":10599:10602   */\n      dup7\n        /* \"#utility.yul\":10595:10609   */\n      add\n        /* \"#utility.yul\":10581:10593   */\n      dup3\n        /* \"#utility.yul\":10547:10610   */\n      tag_189\n      jump\t// in\n    tag_339:\n        /* \"#utility.yul\":10451:10620   */\n      pop\n        /* \"#utility.yul\":10703:10707   */\n      0x80\n        /* \"#utility.yul\":10696:10701   */\n      dup4\n        /* \"#utility.yul\":10692:10708   */\n      add\n        /* \"#utility.yul\":10686:10709   */\n      mload\n        /* \"#utility.yul\":10722:10785   */\n      tag_340\n        /* \"#utility.yul\":10779:10783   */\n      0x80\n        /* \"#utility.yul\":10774:10777   */\n      dup7\n        /* \"#utility.yul\":10770:10784   */\n      add\n        /* \"#utility.yul\":10756:10768   */\n      dup3\n        /* \"#utility.yul\":10722:10785   */\n      tag_189\n      jump\t// in\n    tag_340:\n        /* \"#utility.yul\":10630:10795   */\n      pop\n        /* \"#utility.yul\":10812:10816   */\n      dup1\n        /* \"#utility.yul\":10805:10816   */\n      swap2\n      pop\n        /* \"#utility.yul\":9809:10822   */\n      pop\n        /* \"#utility.yul\":9693:10822   */\n      swap3\n      swap2\n      pop\n      pop\n      jump\t// out\n        /* \"#utility.yul\":10828:11185   */\n    tag_55:\n        /* \"#utility.yul\":10963:10967   */\n      0x00\n        /* \"#utility.yul\":11001:11003   */\n      0x20\n        /* \"#utility.yul\":10990:10999   */\n      dup3\n        /* \"#utility.yul\":10986:11004   */\n      add\n        /* \"#utility.yul\":10978:11004   */\n      swap1\n      pop\n        /* \"#utility.yul\":11050:11059   */\n      dup2\n        /* \"#utility.yul\":11044:11048   */\n      dup2\n        /* \"#utility.yul\":11040:11060   */\n      sub\n        /* \"#utility.yul\":11036:11037   */\n      0x00\n        /* \"#utility.yul\":11025:11034   */\n      dup4\n        /* \"#utility.yul\":11021:11038   */\n      add\n        /* \"#utility.yul\":11014:11061   */\n      mstore\n        /* \"#utility.yul\":11078:11178   */\n      tag_342\n        /* \"#utility.yul\":11173:11177   */\n      dup2\n        /* \"#utility.yul\":11164:11170   */\n      dup5\n        /* \"#utility.yul\":11078:11178   */\n      tag_201\n      jump\t// in\n    tag_342:\n        /* \"#utility.yul\":11070:11178   */\n      swap1\n      pop\n        /* \"#utility.yul\":10828:11185   */\n      swap3\n      swap2\n      pop\n      pop\n      jump\t// out\n        /* \"#utility.yul\":11191:11308   */\n    tag_202:\n        /* \"#utility.yul\":11300:11301   */\n      0x00\n        /* \"#utility.yul\":11297:11298   */\n      dup1\n        /* \"#utility.yul\":11290:11302   */\n      revert\n        /* \"#utility.yul\":11314:11431   */\n    tag_203:\n        /* \"#utility.yul\":11423:11424   */\n      0x00\n        /* \"#utility.yul\":11420:11421   */\n      dup1\n        /* \"#utility.yul\":11413:11425   */\n      revert\n        /* \"#utility.yul\":11437:11617   */\n    tag_204:\n        /* \"#utility.yul\":11485:11562   */\n      0x4e487b7100000000000000000000000000000000000000000000000000000000\n        /* \"#utility.yul\":11482:11483   */\n      0x00\n        /* \"#utility.yul\":11475:11563   */\n      mstore\n        /* \"#utility.yul\":11582:11586   */\n      0x41\n        /* \"#utility.yul\":11579:11580   */\n      0x04\n        /* \"#utility.yul\":11572:11587   */\n      mstore\n        /* \"#utility.yul\":11606:11610   */\n      0x24\n        /* \"#utility.yul\":11603:11604   */\n      0x00\n        /* \"#utility.yul\":11596:11611   */\n      revert\n        /* \"#utility.yul\":11623:11904   */\n    tag_205:\n        /* \"#utility.yul\":11706:11733   */\n      tag_347\n        /* \"#utility.yul\":11728:11732   */\n      dup3\n        /* \"#utility.yul\":11706:11733   */\n      tag_184\n      jump\t// in\n    tag_347:\n        /* \"#utility.yul\":11698:11704   */\n      dup2\n        /* \"#utility.yul\":11694:11734   */\n      add\n        /* \"#utility.yul\":11836:11842   */\n      dup2\n        /* \"#utility.yul\":11824:11834   */\n      dup2\n        /* \"#utility.yul\":11821:11843   */\n      lt\n        /* \"#utility.yul\":11800:11818   */\n      0xffffffffffffffff\n        /* \"#utility.yul\":11788:11798   */\n      dup3\n        /* \"#utility.yul\":11785:11819   */\n      gt\n        /* \"#utility.yul\":11782:11844   */\n      or\n        /* \"#utility.yul\":11779:11867   */\n      iszero\n      tag_348\n      jumpi\n        /* \"#utility.yul\":11847:11865   */\n      tag_349\n      tag_204\n      jump\t// in\n    tag_349:\n        /* \"#utility.yul\":11779:11867   */\n    tag_348:\n        /* \"#utility.yul\":11887:11897   */\n      dup1\n        /* \"#utility.yul\":11883:11885   */\n      0x40\n        /* \"#utility.yul\":11876:11898   */\n      mstore\n        /* \"#utility.yul\":11666:11904   */\n      pop\n        /* \"#utility.yul\":11623:11904   */\n      pop\n      pop\n      jump\t// out\n        /* \"#utility.yul\":11910:12039   */\n    tag_206:\n        /* \"#utility.yul\":11944:11950   */\n      0x00\n        /* \"#utility.yul\":11971:11991   */\n      tag_351\n      tag_169\n      jump\t// in\n    tag_351:\n        /* \"#utility.yul\":11961:11991   */\n      swap1\n      pop\n        /* \"#utility.yul\":12000:12033   */\n      tag_352\n        /* \"#utility.yul\":12028:12032   */\n      dup3\n        /* \"#utility.yul\":12020:12026   */\n      dup3\n        /* \"#utility.yul\":12000:12033   */\n      tag_205\n      jump\t// in\n    tag_352:\n        /* \"#utility.yul\":11910:12039   */\n      swap2\n      swap1\n      pop\n      jump\t// out\n        /* \"#utility.yul\":12045:12353   */\n    tag_207:\n        /* \"#utility.yul\":12107:12111   */\n      0x00\n        /* \"#utility.yul\":12197:12215   */\n      0xffffffffffffffff\n        /* \"#utility.yul\":12189:12195   */\n      dup3\n        /* \"#utility.yul\":12186:12216   */\n      gt\n        /* \"#utility.yul\":12183:12239   */\n      iszero\n      tag_354\n      jumpi\n        /* \"#utility.yul\":12219:12237   */\n      tag_355\n      tag_204\n      jump\t// in\n    tag_355:\n        /* \"#utility.yul\":12183:12239   */\n    tag_354:\n        /* \"#utility.yul\":12257:12286   */\n      tag_356\n        /* \"#utility.yul\":12279:12285   */\n      dup3\n        /* \"#utility.yul\":12257:12286   */\n      tag_184\n      jump\t// in\n    tag_356:\n        /* \"#utility.yul\":12249:12286   */\n      swap1\n      pop\n        /* \"#utility.yul\":12341:12345   */\n      0x20\n        /* \"#utility.yul\":12335:12339   */\n      dup2\n        /* \"#utility.yul\":12331:12346   */\n      add\n        /* \"#utility.yul\":12323:12346   */\n      swap1\n      pop\n        /* \"#utility.yul\":12045:12353   */\n      swap2\n      swap1\n      pop\n      jump\t// out\n        /* \"#utility.yul\":12359:12507   */\n    tag_208:\n        /* \"#utility.yul\":12457:12463   */\n      dup3\n        /* \"#utility.yul\":12452:12455   */\n      dup2\n        /* \"#utility.yul\":12447:12450   */\n      dup4\n        /* \"#utility.yul\":12434:12464   */\n      calldatacopy\n        /* \"#utility.yul\":12498:12499   */\n      0x00\n        /* \"#utility.yul\":12489:12495   */\n      dup4\n        /* \"#utility.yul\":12484:12487   */\n      dup4\n        /* \"#utility.yul\":12480:12496   */\n      add\n        /* \"#utility.yul\":12473:12500   */\n      mstore\n        /* \"#utility.yul\":12359:12507   */\n      pop\n      pop\n      pop\n      jump\t// out\n        /* \"#utility.yul\":12513:12938   */\n    tag_209:\n        /* \"#utility.yul\":12591:12596   */\n      0x00\n        /* \"#utility.yul\":12616:12682   */\n      tag_359\n        /* \"#utility.yul\":12632:12681   */\n      tag_360\n        /* \"#utility.yul\":12674:12680   */\n      dup5\n        /* \"#utility.yul\":12632:12681   */\n      tag_207\n      jump\t// in\n    tag_360:\n        /* \"#utility.yul\":12616:12682   */\n      tag_206\n      jump\t// in\n    tag_359:\n        /* \"#utility.yul\":12607:12682   */\n      swap1\n      pop\n        /* \"#utility.yul\":12705:12711   */\n      dup3\n        /* \"#utility.yul\":12698:12703   */\n      dup2\n        /* \"#utility.yul\":12691:12712   */\n      mstore\n        /* \"#utility.yul\":12743:12747   */\n      0x20\n        /* \"#utility.yul\":12736:12741   */\n      dup2\n        /* \"#utility.yul\":12732:12748   */\n      add\n        /* \"#utility.yul\":12781:12784   */\n      dup5\n        /* \"#utility.yul\":12772:12778   */\n      dup5\n        /* \"#utility.yul\":12767:12770   */\n      dup5\n        /* \"#utility.yul\":12763:12779   */\n      add\n        /* \"#utility.yul\":12760:12785   */\n      gt\n        /* \"#utility.yul\":12757:12869   */\n      iszero\n      tag_361\n      jumpi\n        /* \"#utility.yul\":12788:12867   */\n      tag_362\n      tag_203\n      jump\t// in\n    tag_362:\n        /* \"#utility.yul\":12757:12869   */\n    tag_361:\n        /* \"#utility.yul\":12878:12932   */\n      tag_363\n        /* \"#utility.yul\":12925:12931   */\n      dup5\n        /* \"#utility.yul\":12920:12923   */\n      dup3\n        /* \"#utility.yul\":12915:12918   */\n      dup6\n        /* \"#utility.yul\":12878:12932   */\n      tag_208\n      jump\t// in\n    tag_363:\n        /* \"#utility.yul\":12597:12938   */\n      pop\n        /* \"#utility.yul\":12513:12938   */\n      swap4\n      swap3\n      pop\n      pop\n      pop\n      jump\t// out\n        /* \"#utility.yul\":12958:13298   */\n    tag_210:\n        /* \"#utility.yul\":13014:13019   */\n      0x00\n        /* \"#utility.yul\":13063:13066   */\n      dup3\n        /* \"#utility.yul\":13056:13060   */\n      0x1f\n        /* \"#utility.yul\":13048:13054   */\n      dup4\n        /* \"#utility.yul\":13044:13061   */\n      add\n        /* \"#utility.yul\":13040:13067   */\n      slt\n        /* \"#utility.yul\":13030:13152   */\n      tag_365\n      jumpi\n        /* \"#utility.yul\":13071:13150   */\n      tag_366\n      tag_202\n      jump\t// in\n    tag_366:\n        /* \"#utility.yul\":13030:13152   */\n    tag_365:\n        /* \"#utility.yul\":13188:13194   */\n      dup2\n        /* \"#utility.yul\":13175:13195   */\n      calldataload\n        /* \"#utility.yul\":13213:13292   */\n      tag_367\n        /* \"#utility.yul\":13288:13291   */\n      dup5\n        /* \"#utility.yul\":13280:13286   */\n      dup3\n        /* \"#utility.yul\":13273:13277   */\n      0x20\n        /* \"#utility.yul\":13265:13271   */\n      dup7\n        /* \"#utility.yul\":13261:13278   */\n      add\n        /* \"#utility.yul\":13213:13292   */\n      tag_209\n      jump\t// in\n    tag_367:\n        /* \"#utility.yul\":13204:13292   */\n      swap2\n      pop\n        /* \"#utility.yul\":13020:13298   */\n      pop\n        /* \"#utility.yul\":12958:13298   */\n      swap3\n      swap2\n      pop\n      pop\n      jump\t// out\n        /* \"#utility.yul\":13304:13813   */\n    tag_58:\n        /* \"#utility.yul\":13373:13379   */\n      0x00\n        /* \"#utility.yul\":13422:13424   */\n      0x20\n        /* \"#utility.yul\":13410:13419   */\n      dup3\n        /* \"#utility.yul\":13401:13408   */\n      dup5\n        /* \"#utility.yul\":13397:13420   */\n      sub\n        /* \"#utility.yul\":13393:13425   */\n      slt\n        /* \"#utility.yul\":13390:13509   */\n      iszero\n      tag_369\n      jumpi\n        /* \"#utility.yul\":13428:13507   */\n      tag_370\n      tag_170\n      jump\t// in\n    tag_370:\n        /* \"#utility.yul\":13390:13509   */\n    tag_369:\n        /* \"#utility.yul\":13576:13577   */\n      0x00\n        /* \"#utility.yul\":13565:13574   */\n      dup3\n        /* \"#utility.yul\":13561:13578   */\n      add\n        /* \"#utility.yul\":13548:13579   */\n      calldataload\n        /* \"#utility.yul\":13606:13624   */\n      0xffffffffffffffff\n        /* \"#utility.yul\":13598:13604   */\n      dup2\n        /* \"#utility.yul\":13595:13625   */\n      gt\n        /* \"#utility.yul\":13592:13709   */\n      iszero\n      tag_371\n      jumpi\n        /* \"#utility.yul\":13628:13707   */\n      tag_372\n      tag_171\n      jump\t// in\n    tag_372:\n        /* \"#utility.yul\":13592:13709   */\n    tag_371:\n        /* \"#utility.yul\":13733:13796   */\n      tag_373\n        /* \"#utility.yul\":13788:13795   */\n      dup5\n        /* \"#utility.yul\":13779:13785   */\n      dup3\n        /* \"#utility.yul\":13768:13777   */\n      dup6\n        /* \"#utility.yul\":13764:13786   */\n      add\n        /* \"#utility.yul\":13733:13796   */\n      tag_210\n      jump\t// in\n    tag_373:\n        /* \"#utility.yul\":13723:13796   */\n      swap2\n      pop\n        /* \"#utility.yul\":13519:13806   */\n      pop\n        /* \"#utility.yul\":13304:13813   */\n      swap3\n      swap2\n      pop\n      pop\n      jump\t// out\n        /* \"#utility.yul\":13819:14041   */\n    tag_63:\n        /* \"#utility.yul\":13912:13916   */\n      0x00\n        /* \"#utility.yul\":13950:13952   */\n      0x20\n        /* \"#utility.yul\":13939:13948   */\n      dup3\n        /* \"#utility.yul\":13935:13953   */\n      add\n        /* \"#utility.yul\":13927:13953   */\n      swap1\n      pop\n        /* \"#utility.yul\":13963:14034   */\n      tag_375\n        /* \"#utility.yul\":14031:14032   */\n      0x00\n        /* \"#utility.yul\":14020:14029   */\n      dup4\n        /* \"#utility.yul\":14016:14033   */\n      add\n        /* \"#utility.yul\":14007:14013   */\n      dup5\n        /* \"#utility.yul\":13963:14034   */\n      tag_180\n      jump\t// in\n    tag_375:\n        /* \"#utility.yul\":13819:14041   */\n      swap3\n      swap2\n      pop\n      pop\n      jump\t// out\n        /* \"#utility.yul\":14047:14379   */\n    tag_68:\n        /* \"#utility.yul\":14168:14172   */\n      0x00\n        /* \"#utility.yul\":14206:14208   */\n      0x40\n        /* \"#utility.yul\":14195:14204   */\n      dup3\n        /* \"#utility.yul\":14191:14209   */\n      add\n        /* \"#utility.yul\":14183:14209   */\n      swap1\n      pop\n        /* \"#utility.yul\":14219:14290   */\n      tag_377\n        /* \"#utility.yul\":14287:14288   */\n      0x00\n        /* \"#utility.yul\":14276:14285   */\n      dup4\n        /* \"#utility.yul\":14272:14289   */\n      add\n        /* \"#utility.yul\":14263:14269   */\n      dup6\n        /* \"#utility.yul\":14219:14290   */\n      tag_180\n      jump\t// in\n    tag_377:\n        /* \"#utility.yul\":14300:14372   */\n      tag_378\n        /* \"#utility.yul\":14368:14370   */\n      0x20\n        /* \"#utility.yul\":14357:14366   */\n      dup4\n        /* \"#utility.yul\":14353:14371   */\n      add\n        /* \"#utility.yul\":14344:14350   */\n      dup5\n        /* \"#utility.yul\":14300:14372   */\n      tag_179\n      jump\t// in\n    tag_378:\n        /* \"#utility.yul\":14047:14379   */\n      swap4\n      swap3\n      pop\n      pop\n      pop\n      jump\t// out\n        /* \"#utility.yul\":14385:14565   */\n    tag_211:\n        /* \"#utility.yul\":14433:14510   */\n      0x4e487b7100000000000000000000000000000000000000000000000000000000\n        /* \"#utility.yul\":14430:14431   */\n      0x00\n        /* \"#utility.yul\":14423:14511   */\n      mstore\n        /* \"#utility.yul\":14530:14534   */\n      0x22\n        /* \"#utility.yul\":14527:14528   */\n      0x04\n        /* \"#utility.yul\":14520:14535   */\n      mstore\n        /* \"#utility.yul\":14554:14558   */\n      0x24\n        /* \"#utility.yul\":14551:14552   */\n      0x00\n        /* \"#utility.yul\":14544:14559   */\n      revert\n        /* \"#utility.yul\":14571:14891   */\n    tag_76:\n        /* \"#utility.yul\":14615:14621   */\n      0x00\n        /* \"#utility.yul\":14652:14653   */\n      0x02\n        /* \"#utility.yul\":14646:14650   */\n      dup3\n        /* \"#utility.yul\":14642:14654   */\n      div\n        /* \"#utility.yul\":14632:14654   */\n      swap1\n      pop\n        /* \"#utility.yul\":14699:14700   */\n      0x01\n        /* \"#utility.yul\":14693:14697   */\n      dup3\n        /* \"#utility.yul\":14689:14701   */\n      and\n        /* \"#utility.yul\":14720:14738   */\n      dup1\n        /* \"#utility.yul\":14710:14791   */\n      tag_381\n      jumpi\n        /* \"#utility.yul\":14776:14780   */\n      0x7f\n        /* \"#utility.yul\":14768:14774   */\n      dup3\n        /* \"#utility.yul\":14764:14781   */\n      and\n        /* \"#utility.yul\":14754:14781   */\n      swap2\n      pop\n        /* \"#utility.yul\":14710:14791   */\n    tag_381:\n        /* \"#utility.yul\":14838:14840   */\n      0x20\n        /* \"#utility.yul\":14830:14836   */\n      dup3\n        /* \"#utility.yul\":14827:14841   */\n      lt\n        /* \"#utility.yul\":14807:14825   */\n      dup2\n        /* \"#utility.yul\":14804:14842   */\n      sub\n        /* \"#utility.yul\":14801:14885   */\n      tag_382\n      jumpi\n        /* \"#utility.yul\":14857:14875   */\n      tag_383\n      tag_211\n      jump\t// in\n    tag_383:\n        /* \"#utility.yul\":14801:14885   */\n    tag_382:\n        /* \"#utility.yul\":14622:14891   */\n      pop\n        /* \"#utility.yul\":14571:14891   */\n      swap2\n      swap1\n      pop\n      jump\t// out\n        /* \"#utility.yul\":14897:15077   */\n    tag_93:\n        /* \"#utility.yul\":14945:15022   */\n      0x4e487b7100000000000000000000000000000000000000000000000000000000\n        /* \"#utility.yul\":14942:14943   */\n      0x00\n        /* \"#utility.yul\":14935:15023   */\n      mstore\n        /* \"#utility.yul\":15042:15046   */\n      0x32\n        /* \"#utility.yul\":15039:15040   */\n      0x04\n        /* \"#utility.yul\":15032:15047   */\n      mstore\n        /* \"#utility.yul\":15066:15070   */\n      0x24\n        /* \"#utility.yul\":15063:15064   */\n      0x00\n        /* \"#utility.yul\":15056:15071   */\n      revert\n        /* \"#utility.yul\":15083:15252   */\n    tag_212:\n        /* \"#utility.yul\":15223:15244   */\n      0x545745455420444f45534e275420455849535400000000000000000000000000\n        /* \"#utility.yul\":15219:15220   */\n      0x00\n        /* \"#utility.yul\":15211:15217   */\n      dup3\n        /* \"#utility.yul\":15207:15221   */\n      add\n        /* \"#utility.yul\":15200:15245   */\n      mstore\n        /* \"#utility.yul\":15083:15252   */\n      pop\n      jump\t// out\n        /* \"#utility.yul\":15258:15624   */\n    tag_213:\n        /* \"#utility.yul\":15400:15403   */\n      0x00\n        /* \"#utility.yul\":15421:15488   */\n      tag_387\n        /* \"#utility.yul\":15485:15487   */\n      0x13\n        /* \"#utility.yul\":15480:15483   */\n      dup4\n        /* \"#utility.yul\":15421:15488   */\n      tag_182\n      jump\t// in\n    tag_387:\n        /* \"#utility.yul\":15414:15488   */\n      swap2\n      pop\n        /* \"#utility.yul\":15497:15590   */\n      tag_388\n        /* \"#utility.yul\":15586:15589   */\n      dup3\n        /* \"#utility.yul\":15497:15590   */\n      tag_212\n      jump\t// in\n    tag_388:\n        /* \"#utility.yul\":15615:15617   */\n      0x20\n        /* \"#utility.yul\":15610:15613   */\n      dup3\n        /* \"#utility.yul\":15606:15618   */\n      add\n        /* \"#utility.yul\":15599:15618   */\n      swap1\n      pop\n        /* \"#utility.yul\":15258:15624   */\n      swap2\n      swap1\n      pop\n      jump\t// out\n        /* \"#utility.yul\":15630:16049   */\n    tag_97:\n        /* \"#utility.yul\":15796:15800   */\n      0x00\n        /* \"#utility.yul\":15834:15836   */\n      0x20\n        /* \"#utility.yul\":15823:15832   */\n      dup3\n        /* \"#utility.yul\":15819:15837   */\n      add\n        /* \"#utility.yul\":15811:15837   */\n      swap1\n      pop\n        /* \"#utility.yul\":15883:15892   */\n      dup2\n        /* \"#utility.yul\":15877:15881   */\n      dup2\n        /* \"#utility.yul\":15873:15893   */\n      sub\n        /* \"#utility.yul\":15869:15870   */\n      0x00\n        /* \"#utility.yul\":15858:15867   */\n      dup4\n        /* \"#utility.yul\":15854:15871   */\n      add\n        /* \"#utility.yul\":15847:15894   */\n      mstore\n        /* \"#utility.yul\":15911:16042   */\n      tag_390\n        /* \"#utility.yul\":16037:16041   */\n      dup2\n        /* \"#utility.yul\":15911:16042   */\n      tag_213\n      jump\t// in\n    tag_390:\n        /* \"#utility.yul\":15903:16042   */\n      swap1\n      pop\n        /* \"#utility.yul\":15630:16049   */\n      swap2\n      swap1\n      pop\n      jump\t// out\n        /* \"#utility.yul\":16055:16223   */\n    tag_214:\n        /* \"#utility.yul\":16195:16215   */\n      0x544845524520415245204e4f204c494b45530000000000000000000000000000\n        /* \"#utility.yul\":16191:16192   */\n      0x00\n        /* \"#utility.yul\":16183:16189   */\n      dup3\n        /* \"#utility.yul\":16179:16193   */\n      add\n        /* \"#utility.yul\":16172:16216   */\n      mstore\n        /* \"#utility.yul\":16055:16223   */\n      pop\n      jump\t// out\n        /* \"#utility.yul\":16229:16595   */\n    tag_215:\n        /* \"#utility.yul\":16371:16374   */\n      0x00\n        /* \"#utility.yul\":16392:16459   */\n      tag_393\n        /* \"#utility.yul\":16456:16458   */\n      0x12\n        /* \"#utility.yul\":16451:16454   */\n      dup4\n        /* \"#utility.yul\":16392:16459   */\n      tag_182\n      jump\t// in\n    tag_393:\n        /* \"#utility.yul\":16385:16459   */\n      swap2\n      pop\n        /* \"#utility.yul\":16468:16561   */\n      tag_394\n        /* \"#utility.yul\":16557:16560   */\n      dup3\n        /* \"#utility.yul\":16468:16561   */\n      tag_214\n      jump\t// in\n    tag_394:\n        /* \"#utility.yul\":16586:16588   */\n      0x20\n        /* \"#utility.yul\":16581:16584   */\n      dup3\n        /* \"#utility.yul\":16577:16589   */\n      add\n        /* \"#utility.yul\":16570:16589   */\n      swap1\n      pop\n        /* \"#utility.yul\":16229:16595   */\n      swap2\n      swap1\n      pop\n      jump\t// out\n        /* \"#utility.yul\":16601:17020   */\n    tag_103:\n        /* \"#utility.yul\":16767:16771   */\n      0x00\n        /* \"#utility.yul\":16805:16807   */\n      0x20\n        /* \"#utility.yul\":16794:16803   */\n      dup3\n        /* \"#utility.yul\":16790:16808   */\n      add\n        /* \"#utility.yul\":16782:16808   */\n      swap1\n      pop\n        /* \"#utility.yul\":16854:16863   */\n      dup2\n        /* \"#utility.yul\":16848:16852   */\n      dup2\n        /* \"#utility.yul\":16844:16864   */\n      sub\n        /* \"#utility.yul\":16840:16841   */\n      0x00\n        /* \"#utility.yul\":16829:16838   */\n      dup4\n        /* \"#utility.yul\":16825:16842   */\n      add\n        /* \"#utility.yul\":16818:16865   */\n      mstore\n        /* \"#utility.yul\":16882:17013   */\n      tag_396\n        /* \"#utility.yul\":17008:17012   */\n      dup2\n        /* \"#utility.yul\":16882:17013   */\n      tag_215\n      jump\t// in\n    tag_396:\n        /* \"#utility.yul\":16874:17013   */\n      swap1\n      pop\n        /* \"#utility.yul\":16601:17020   */\n      swap2\n      swap1\n      pop\n      jump\t// out\n        /* \"#utility.yul\":17026:17206   */\n    tag_216:\n        /* \"#utility.yul\":17074:17151   */\n      0x4e487b7100000000000000000000000000000000000000000000000000000000\n        /* \"#utility.yul\":17071:17072   */\n      0x00\n        /* \"#utility.yul\":17064:17152   */\n      mstore\n        /* \"#utility.yul\":17171:17175   */\n      0x11\n        /* \"#utility.yul\":17168:17169   */\n      0x04\n        /* \"#utility.yul\":17161:17176   */\n      mstore\n        /* \"#utility.yul\":17195:17199   */\n      0x24\n        /* \"#utility.yul\":17192:17193   */\n      0x00\n        /* \"#utility.yul\":17185:17200   */\n      revert\n        /* \"#utility.yul\":17212:17383   */\n    tag_108:\n        /* \"#utility.yul\":17251:17254   */\n      0x00\n        /* \"#utility.yul\":17274:17298   */\n      tag_399\n        /* \"#utility.yul\":17292:17297   */\n      dup3\n        /* \"#utility.yul\":17274:17298   */\n      tag_176\n      jump\t// in\n    tag_399:\n        /* \"#utility.yul\":17265:17298   */\n      swap2\n      pop\n        /* \"#utility.yul\":17320:17324   */\n      0x00\n        /* \"#utility.yul\":17313:17318   */\n      dup3\n        /* \"#utility.yul\":17310:17325   */\n      sub\n        /* \"#utility.yul\":17307:17348   */\n      tag_400\n      jumpi\n        /* \"#utility.yul\":17328:17346   */\n      tag_401\n      tag_216\n      jump\t// in\n    tag_401:\n        /* \"#utility.yul\":17307:17348   */\n    tag_400:\n        /* \"#utility.yul\":17375:17376   */\n      0x01\n        /* \"#utility.yul\":17368:17373   */\n      dup3\n        /* \"#utility.yul\":17364:17377   */\n      sub\n        /* \"#utility.yul\":17357:17377   */\n      swap1\n      pop\n        /* \"#utility.yul\":17212:17383   */\n      swap2\n      swap1\n      pop\n      jump\t// out\n        /* \"#utility.yul\":17389:17564   */\n    tag_217:\n        /* \"#utility.yul\":17529:17556   */\n      0x596f752063616e277420666f6c6c6f7720796f757273656c6600000000000000\n        /* \"#utility.yul\":17525:17526   */\n      0x00\n        /* \"#utility.yul\":17517:17523   */\n      dup3\n        /* \"#utility.yul\":17513:17527   */\n      add\n        /* \"#utility.yul\":17506:17557   */\n      mstore\n        /* \"#utility.yul\":17389:17564   */\n      pop\n      jump\t// out\n        /* \"#utility.yul\":17570:17936   */\n    tag_218:\n        /* \"#utility.yul\":17712:17715   */\n      0x00\n        /* \"#utility.yul\":17733:17800   */\n      tag_404\n        /* \"#utility.yul\":17797:17799   */\n      0x19\n        /* \"#utility.yul\":17792:17795   */\n      dup4\n        /* \"#utility.yul\":17733:17800   */\n      tag_182\n      jump\t// in\n    tag_404:\n        /* \"#utility.yul\":17726:17800   */\n      swap2\n      pop\n        /* \"#utility.yul\":17809:17902   */\n      tag_405\n        /* \"#utility.yul\":17898:17901   */\n      dup3\n        /* \"#utility.yul\":17809:17902   */\n      tag_217\n      jump\t// in\n    tag_405:\n        /* \"#utility.yul\":17927:17929   */\n      0x20\n        /* \"#utility.yul\":17922:17925   */\n      dup3\n        /* \"#utility.yul\":17918:17930   */\n      add\n        /* \"#utility.yul\":17911:17930   */\n      swap1\n      pop\n        /* \"#utility.yul\":17570:17936   */\n      swap2\n      swap1\n      pop\n      jump\t// out\n        /* \"#utility.yul\":17942:18361   */\n    tag_116:\n        /* \"#utility.yul\":18108:18112   */\n      0x00\n        /* \"#utility.yul\":18146:18148   */\n      0x20\n        /* \"#utility.yul\":18135:18144   */\n      dup3\n        /* \"#utility.yul\":18131:18149   */\n      add\n        /* \"#utility.yul\":18123:18149   */\n      swap1\n      pop\n        /* \"#utility.yul\":18195:18204   */\n      dup2\n        /* \"#utility.yul\":18189:18193   */\n      dup2\n        /* \"#utility.yul\":18185:18205   */\n      sub\n        /* \"#utility.yul\":18181:18182   */\n      0x00\n        /* \"#utility.yul\":18170:18179   */\n      dup4\n        /* \"#utility.yul\":18166:18183   */\n      add\n        /* \"#utility.yul\":18159:18206   */\n      mstore\n        /* \"#utility.yul\":18223:18354   */\n      tag_407\n        /* \"#utility.yul\":18349:18353   */\n      dup2\n        /* \"#utility.yul\":18223:18354   */\n      tag_218\n      jump\t// in\n    tag_407:\n        /* \"#utility.yul\":18215:18354   */\n      swap1\n      pop\n        /* \"#utility.yul\":17942:18361   */\n      swap2\n      swap1\n      pop\n      jump\t// out\n        /* \"#utility.yul\":18367:18537   */\n    tag_219:\n        /* \"#utility.yul\":18507:18529   */\n      0x594f55275245204e4f5420544845204f574e4552000000000000000000000000\n        /* \"#utility.yul\":18503:18504   */\n      0x00\n        /* \"#utility.yul\":18495:18501   */\n      dup3\n        /* \"#utility.yul\":18491:18505   */\n      add\n        /* \"#utility.yul\":18484:18530   */\n      mstore\n        /* \"#utility.yul\":18367:18537   */\n      pop\n      jump\t// out\n        /* \"#utility.yul\":18543:18909   */\n    tag_220:\n        /* \"#utility.yul\":18685:18688   */\n      0x00\n        /* \"#utility.yul\":18706:18773   */\n      tag_410\n        /* \"#utility.yul\":18770:18772   */\n      0x14\n        /* \"#utility.yul\":18765:18768   */\n      dup4\n        /* \"#utility.yul\":18706:18773   */\n      tag_182\n      jump\t// in\n    tag_410:\n        /* \"#utility.yul\":18699:18773   */\n      swap2\n      pop\n        /* \"#utility.yul\":18782:18875   */\n      tag_411\n        /* \"#utility.yul\":18871:18874   */\n      dup3\n        /* \"#utility.yul\":18782:18875   */\n      tag_219\n      jump\t// in\n    tag_411:\n        /* \"#utility.yul\":18900:18902   */\n      0x20\n        /* \"#utility.yul\":18895:18898   */\n      dup3\n        /* \"#utility.yul\":18891:18903   */\n      add\n        /* \"#utility.yul\":18884:18903   */\n      swap1\n      pop\n        /* \"#utility.yul\":18543:18909   */\n      swap2\n      swap1\n      pop\n      jump\t// out\n        /* \"#utility.yul\":18915:19334   */\n    tag_123:\n        /* \"#utility.yul\":19081:19085   */\n      0x00\n        /* \"#utility.yul\":19119:19121   */\n      0x20\n        /* \"#utility.yul\":19108:19117   */\n      dup3\n        /* \"#utility.yul\":19104:19122   */\n      add\n        /* \"#utility.yul\":19096:19122   */\n      swap1\n      pop\n        /* \"#utility.yul\":19168:19177   */\n      dup2\n        /* \"#utility.yul\":19162:19166   */\n      dup2\n        /* \"#utility.yul\":19158:19178   */\n      sub\n        /* \"#utility.yul\":19154:19155   */\n      0x00\n        /* \"#utility.yul\":19143:19152   */\n      dup4\n        /* \"#utility.yul\":19139:19156   */\n      add\n        /* \"#utility.yul\":19132:19179   */\n      mstore\n        /* \"#utility.yul\":19196:19327   */\n      tag_413\n        /* \"#utility.yul\":19322:19326   */\n      dup2\n        /* \"#utility.yul\":19196:19327   */\n      tag_220\n      jump\t// in\n    tag_413:\n        /* \"#utility.yul\":19188:19327   */\n      swap1\n      pop\n        /* \"#utility.yul\":18915:19334   */\n      swap2\n      swap1\n      pop\n      jump\t// out\n        /* \"#utility.yul\":19340:19573   */\n    tag_137:\n        /* \"#utility.yul\":19379:19382   */\n      0x00\n        /* \"#utility.yul\":19402:19426   */\n      tag_415\n        /* \"#utility.yul\":19420:19425   */\n      dup3\n        /* \"#utility.yul\":19402:19426   */\n      tag_176\n      jump\t// in\n    tag_415:\n        /* \"#utility.yul\":19393:19426   */\n      swap2\n      pop\n        /* \"#utility.yul\":19448:19514   */\n      0xffffffffffffffffffffffffffffffffffffffffffffffffffffffffffffffff\n        /* \"#utility.yul\":19441:19446   */\n      dup3\n        /* \"#utility.yul\":19438:19515   */\n      sub\n        /* \"#utility.yul\":19435:19538   */\n      tag_416\n      jumpi\n        /* \"#utility.yul\":19518:19536   */\n      tag_417\n      tag_216\n      jump\t// in\n    tag_417:\n        /* \"#utility.yul\":19435:19538   */\n    tag_416:\n        /* \"#utility.yul\":19565:19566   */\n      0x01\n        /* \"#utility.yul\":19558:19563   */\n      dup3\n        /* \"#utility.yul\":19554:19567   */\n      add\n        /* \"#utility.yul\":19547:19567   */\n      swap1\n      pop\n        /* \"#utility.yul\":19340:19573   */\n      swap2\n      swap1\n      pop\n      jump\t// out\n        /* \"#utility.yul\":19579:19800   */\n    tag_221:\n        /* \"#utility.yul\":19719:19753   */\n      0x4e4f20434f4e54454e542c20504c4541534520575249544520534f4d45544849\n        /* \"#utility.yul\":19715:19716   */\n      0x00\n        /* \"#utility.yul\":19707:19713   */\n      dup3\n        /* \"#utility.yul\":19703:19717   */\n      add\n        /* \"#utility.yul\":19696:19754   */\n      mstore\n        /* \"#utility.yul\":19788:19792   */\n      0x4e47000000000000000000000000000000000000000000000000000000000000\n        /* \"#utility.yul\":19783:19785   */\n      0x20\n        /* \"#utility.yul\":19775:19781   */\n      dup3\n        /* \"#utility.yul\":19771:19786   */\n      add\n        /* \"#utility.yul\":19764:19793   */\n      mstore\n        /* \"#utility.yul\":19579:19800   */\n      pop\n      jump\t// out\n        /* \"#utility.yul\":19806:20172   */\n    tag_222:\n        /* \"#utility.yul\":19948:19951   */\n      0x00\n        /* \"#utility.yul\":19969:20036   */\n      tag_420\n        /* \"#utility.yul\":20033:20035   */\n      0x22\n        /* \"#utility.yul\":20028:20031   */\n      dup4\n        /* \"#utility.yul\":19969:20036   */\n      tag_182\n      jump\t// in\n    tag_420:\n        /* \"#utility.yul\":19962:20036   */\n      swap2\n      pop\n        /* \"#utility.yul\":20045:20138   */\n      tag_421\n        /* \"#utility.yul\":20134:20137   */\n      dup3\n        /* \"#utility.yul\":20045:20138   */\n      tag_221\n      jump\t// in\n    tag_421:\n        /* \"#utility.yul\":20163:20165   */\n      0x40\n        /* \"#utility.yul\":20158:20161   */\n      dup3\n        /* \"#utility.yul\":20154:20166   */\n      add\n        /* \"#utility.yul\":20147:20166   */\n      swap1\n      pop\n        /* \"#utility.yul\":19806:20172   */\n      swap2\n      swap1\n      pop\n      jump\t// out\n        /* \"#utility.yul\":20178:20597   */\n    tag_156:\n        /* \"#utility.yul\":20344:20348   */\n      0x00\n        /* \"#utility.yul\":20382:20384   */\n      0x20\n        /* \"#utility.yul\":20371:20380   */\n      dup3\n        /* \"#utility.yul\":20367:20385   */\n      add\n        /* \"#utility.yul\":20359:20385   */\n      swap1\n      pop\n        /* \"#utility.yul\":20431:20440   */\n      dup2\n        /* \"#utility.yul\":20425:20429   */\n      dup2\n        /* \"#utility.yul\":20421:20441   */\n      sub\n        /* \"#utility.yul\":20417:20418   */\n      0x00\n        /* \"#utility.yul\":20406:20415   */\n      dup4\n        /* \"#utility.yul\":20402:20419   */\n      add\n        /* \"#utility.yul\":20395:20442   */\n      mstore\n        /* \"#utility.yul\":20459:20590   */\n      tag_423\n        /* \"#utility.yul\":20585:20589   */\n      dup2\n        /* \"#utility.yul\":20459:20590   */\n      tag_222\n      jump\t// in\n    tag_423:\n        /* \"#utility.yul\":20451:20590   */\n      swap1\n      pop\n        /* \"#utility.yul\":20178:20597   */\n      swap2\n      swap1\n      pop\n      jump\t// out\n        /* \"#utility.yul\":20603:20779   */\n    tag_223:\n        /* \"#utility.yul\":20743:20771   */\n      0x544845204d4158494d554d205457454554532052454143484544000000000000\n        /* \"#utility.yul\":20739:20740   */\n      0x00\n        /* \"#utility.yul\":20731:20737   */\n      dup3\n        /* \"#utility.yul\":20727:20741   */\n      add\n        /* \"#utility.yul\":20720:20772   */\n      mstore\n        /* \"#utility.yul\":20603:20779   */\n      pop\n      jump\t// out\n        /* \"#utility.yul\":20785:21151   */\n    tag_224:\n        /* \"#utility.yul\":20927:20930   */\n      0x00\n        /* \"#utility.yul\":20948:21015   */\n      tag_426\n        /* \"#utility.yul\":21012:21014   */\n      0x1a\n        /* \"#utility.yul\":21007:21010   */\n      dup4\n        /* \"#utility.yul\":20948:21015   */\n      tag_182\n      jump\t// in\n    tag_426:\n        /* \"#utility.yul\":20941:21015   */\n      swap2\n      pop\n        /* \"#utility.yul\":21024:21117   */\n      tag_427\n        /* \"#utility.yul\":21113:21116   */\n      dup3\n        /* \"#utility.yul\":21024:21117   */\n      tag_223\n      jump\t// in\n    tag_427:\n        /* \"#utility.yul\":21142:21144   */\n      0x20\n        /* \"#utility.yul\":21137:21140   */\n      dup3\n        /* \"#utility.yul\":21133:21145   */\n      add\n        /* \"#utility.yul\":21126:21145   */\n      swap1\n      pop\n        /* \"#utility.yul\":20785:21151   */\n      swap2\n      swap1\n      pop\n      jump\t// out\n        /* \"#utility.yul\":21157:21576   */\n    tag_159:\n        /* \"#utility.yul\":21323:21327   */\n      0x00\n        /* \"#utility.yul\":21361:21363   */\n      0x20\n        /* \"#utility.yul\":21350:21359   */\n      dup3\n        /* \"#utility.yul\":21346:21364   */\n      add\n        /* \"#utility.yul\":21338:21364   */\n      swap1\n      pop\n        /* \"#utility.yul\":21410:21419   */\n      dup2\n        /* \"#utility.yul\":21404:21408   */\n      dup2\n        /* \"#utility.yul\":21400:21420   */\n      sub\n        /* \"#utility.yul\":21396:21397   */\n      0x00\n        /* \"#utility.yul\":21385:21394   */\n      dup4\n        /* \"#utility.yul\":21381:21398   */\n      add\n        /* \"#utility.yul\":21374:21421   */\n      mstore\n        /* \"#utility.yul\":21438:21569   */\n      tag_429\n        /* \"#utility.yul\":21564:21568   */\n      dup2\n        /* \"#utility.yul\":21438:21569   */\n      tag_224\n      jump\t// in\n    tag_429:\n        /* \"#utility.yul\":21430:21569   */\n      swap1\n      pop\n        /* \"#utility.yul\":21157:21576   */\n      swap2\n      swap1\n      pop\n      jump\t// out\n        /* \"#utility.yul\":21582:21723   */\n    tag_225:\n        /* \"#utility.yul\":21631:21635   */\n      0x00\n        /* \"#utility.yul\":21654:21657   */\n      dup2\n        /* \"#utility.yul\":21646:21657   */\n      swap1\n      pop\n        /* \"#utility.yul\":21677:21680   */\n      dup2\n        /* \"#utility.yul\":21674:21675   */\n      0x00\n        /* \"#utility.yul\":21667:21681   */\n      mstore\n        /* \"#utility.yul\":21711:21715   */\n      0x20\n        /* \"#utility.yul\":21708:21709   */\n      0x00\n        /* \"#utility.yul\":21698:21716   */\n      keccak256\n        /* \"#utility.yul\":21690:21716   */\n      swap1\n      pop\n        /* \"#utility.yul\":21582:21723   */\n      swap2\n      swap1\n      pop\n      jump\t// out\n        /* \"#utility.yul\":21729:21822   */\n    tag_226:\n        /* \"#utility.yul\":21766:21772   */\n      0x00\n        /* \"#utility.yul\":21813:21815   */\n      0x20\n        /* \"#utility.yul\":21808:21810   */\n      0x1f\n        /* \"#utility.yul\":21801:21806   */\n      dup4\n        /* \"#utility.yul\":21797:21811   */\n      add\n        /* \"#utility.yul\":21793:21816   */\n      div\n        /* \"#utility.yul\":21783:21816   */\n      swap1\n      pop\n        /* \"#utility.yul\":21729:21822   */\n      swap2\n      swap1\n      pop\n      jump\t// out\n        /* \"#utility.yul\":21828:21935   */\n    tag_227:\n        /* \"#utility.yul\":21872:21880   */\n      0x00\n        /* \"#utility.yul\":21922:21927   */\n      dup3\n        /* \"#utility.yul\":21916:21920   */\n      dup3\n        /* \"#utility.yul\":21912:21928   */\n      shl\n        /* \"#utility.yul\":21891:21928   */\n      swap1\n      pop\n        /* \"#utility.yul\":21828:21935   */\n      swap3\n      swap2\n      pop\n      pop\n      jump\t// out\n        /* \"#utility.yul\":21941:22334   */\n    tag_228:\n        /* \"#utility.yul\":22010:22016   */\n      0x00\n        /* \"#utility.yul\":22060:22061   */\n      0x08\n        /* \"#utility.yul\":22048:22058   */\n      dup4\n        /* \"#utility.yul\":22044:22062   */\n      mul\n        /* \"#utility.yul\":22083:22180   */\n      tag_434\n        /* \"#utility.yul\":22113:22179   */\n      0xffffffffffffffffffffffffffffffffffffffffffffffffffffffffffffffff\n        /* \"#utility.yul\":22102:22111   */\n      dup3\n        /* \"#utility.yul\":22083:22180   */\n      tag_227\n      jump\t// in\n    tag_434:\n        /* \"#utility.yul\":22201:22240   */\n      tag_435\n        /* \"#utility.yul\":22231:22239   */\n      dup7\n        /* \"#utility.yul\":22220:22229   */\n      dup4\n        /* \"#utility.yul\":22201:22240   */\n      tag_227\n      jump\t// in\n    tag_435:\n        /* \"#utility.yul\":22189:22240   */\n      swap6\n      pop\n        /* \"#utility.yul\":22273:22277   */\n      dup1\n        /* \"#utility.yul\":22269:22278   */\n      not\n        /* \"#utility.yul\":22262:22267   */\n      dup5\n        /* \"#utility.yul\":22258:22279   */\n      and\n        /* \"#utility.yul\":22249:22279   */\n      swap4\n      pop\n        /* \"#utility.yul\":22322:22326   */\n      dup1\n        /* \"#utility.yul\":22312:22320   */\n      dup7\n        /* \"#utility.yul\":22308:22327   */\n      and\n        /* \"#utility.yul\":22301:22306   */\n      dup5\n        /* \"#utility.yul\":22298:22328   */\n      or\n        /* \"#utility.yul\":22288:22328   */\n      swap3\n      pop\n        /* \"#utility.yul\":22017:22334   */\n      pop\n      pop\n        /* \"#utility.yul\":21941:22334   */\n      swap4\n      swap3\n      pop\n      pop\n      pop\n      jump\t// out\n        /* \"#utility.yul\":22340:22400   */\n    tag_229:\n        /* \"#utility.yul\":22368:22371   */\n      0x00\n        /* \"#utility.yul\":22389:22394   */\n      dup2\n        /* \"#utility.yul\":22382:22394   */\n      swap1\n      pop\n        /* \"#utility.yul\":22340:22400   */\n      swap2\n      swap1\n      pop\n      jump\t// out\n        /* \"#utility.yul\":22406:22548   */\n    tag_230:\n        /* \"#utility.yul\":22456:22465   */\n      0x00\n        /* \"#utility.yul\":22489:22542   */\n      tag_438\n        /* \"#utility.yul\":22507:22541   */\n      tag_439\n        /* \"#utility.yul\":22516:22540   */\n      tag_440\n        /* \"#utility.yul\":22534:22539   */\n      dup5\n        /* \"#utility.yul\":22516:22540   */\n      tag_176\n      jump\t// in\n    tag_440:\n        /* \"#utility.yul\":22507:22541   */\n      tag_229\n      jump\t// in\n    tag_439:\n        /* \"#utility.yul\":22489:22542   */\n      tag_176\n      jump\t// in\n    tag_438:\n        /* \"#utility.yul\":22476:22542   */\n      swap1\n      pop\n        /* \"#utility.yul\":22406:22548   */\n      swap2\n      swap1\n      pop\n      jump\t// out\n        /* \"#utility.yul\":22554:22629   */\n    tag_231:\n        /* \"#utility.yul\":22597:22600   */\n      0x00\n        /* \"#utility.yul\":22618:22623   */\n      dup2\n        /* \"#utility.yul\":22611:22623   */\n      swap1\n      pop\n        /* \"#utility.yul\":22554:22629   */\n      swap2\n      swap1\n      pop\n      jump\t// out\n        /* \"#utility.yul\":22635:22904   */\n    tag_232:\n        /* \"#utility.yul\":22745:22784   */\n      tag_443\n        /* \"#utility.yul\":22776:22783   */\n      dup4\n        /* \"#utility.yul\":22745:22784   */\n      tag_230\n      jump\t// in\n    tag_443:\n        /* \"#utility.yul\":22806:22897   */\n      tag_444\n        /* \"#utility.yul\":22855:22896   */\n      tag_445\n        /* \"#utility.yul\":22879:22895   */\n      dup3\n        /* \"#utility.yul\":22855:22896   */\n      tag_231\n      jump\t// in\n    tag_445:\n        /* \"#utility.yul\":22847:22853   */\n      dup5\n        /* \"#utility.yul\":22840:22844   */\n      dup5\n        /* \"#utility.yul\":22834:22845   */\n      sload\n        /* \"#utility.yul\":22806:22897   */\n      tag_228\n      jump\t// in\n    tag_444:\n        /* \"#utility.yul\":22800:22804   */\n      dup3\n        /* \"#utility.yul\":22793:22898   */\n      sstore\n        /* \"#utility.yul\":22711:22904   */\n      pop\n        /* \"#utility.yul\":22635:22904   */\n      pop\n      pop\n      pop\n      jump\t// out\n        /* \"#utility.yul\":22910:22983   */\n    tag_233:\n        /* \"#utility.yul\":22955:22958   */\n      0x00\n        /* \"#utility.yul\":22910:22983   */\n      swap1\n      jump\t// out\n        /* \"#utility.yul\":22989:23178   */\n    tag_234:\n        /* \"#utility.yul\":23066:23098   */\n      tag_448\n      tag_233\n      jump\t// in\n    tag_448:\n        /* \"#utility.yul\":23107:23172   */\n      tag_449\n        /* \"#utility.yul\":23165:23171   */\n      dup2\n        /* \"#utility.yul\":23157:23163   */\n      dup5\n        /* \"#utility.yul\":23151:23155   */\n      dup5\n        /* \"#utility.yul\":23107:23172   */\n      tag_232\n      jump\t// in\n    tag_449:\n        /* \"#utility.yul\":23042:23178   */\n      pop\n        /* \"#utility.yul\":22989:23178   */\n      pop\n      pop\n      jump\t// out\n        /* \"#utility.yul\":23184:23370   */\n    tag_235:\n        /* \"#utility.yul\":23244:23364   */\n    tag_451:\n        /* \"#utility.yul\":23261:23264   */\n      dup2\n        /* \"#utility.yul\":23254:23259   */\n      dup2\n        /* \"#utility.yul\":23251:23265   */\n      lt\n        /* \"#utility.yul\":23244:23364   */\n      iszero\n      tag_453\n      jumpi\n        /* \"#utility.yul\":23315:23354   */\n      tag_454\n        /* \"#utility.yul\":23352:23353   */\n      0x00\n        /* \"#utility.yul\":23345:23350   */\n      dup3\n        /* \"#utility.yul\":23315:23354   */\n      tag_234\n      jump\t// in\n    tag_454:\n        /* \"#utility.yul\":23288:23289   */\n      0x01\n        /* \"#utility.yul\":23281:23286   */\n      dup2\n        /* \"#utility.yul\":23277:23290   */\n      add\n        /* \"#utility.yul\":23268:23290   */\n      swap1\n      pop\n        /* \"#utility.yul\":23244:23364   */\n      jump(tag_451)\n    tag_453:\n        /* \"#utility.yul\":23184:23370   */\n      pop\n      pop\n      jump\t// out\n        /* \"#utility.yul\":23376:23919   */\n    tag_236:\n        /* \"#utility.yul\":23477:23479   */\n      0x1f\n        /* \"#utility.yul\":23472:23475   */\n      dup3\n        /* \"#utility.yul\":23469:23480   */\n      gt\n        /* \"#utility.yul\":23466:23912   */\n      iszero\n      tag_456\n      jumpi\n        /* \"#utility.yul\":23511:23549   */\n      tag_457\n        /* \"#utility.yul\":23543:23548   */\n      dup2\n        /* \"#utility.yul\":23511:23549   */\n      tag_225\n      jump\t// in\n    tag_457:\n        /* \"#utility.yul\":23595:23624   */\n      tag_458\n        /* \"#utility.yul\":23613:23623   */\n      dup5\n        /* \"#utility.yul\":23595:23624   */\n      tag_226\n      jump\t// in\n    tag_458:\n        /* \"#utility.yul\":23585:23593   */\n      dup2\n        /* \"#utility.yul\":23581:23625   */\n      add\n        /* \"#utility.yul\":23778:23780   */\n      0x20\n        /* \"#utility.yul\":23766:23776   */\n      dup6\n        /* \"#utility.yul\":23763:23781   */\n      lt\n        /* \"#utility.yul\":23760:23809   */\n      iszero\n      tag_459\n      jumpi\n        /* \"#utility.yul\":23799:23807   */\n      dup2\n        /* \"#utility.yul\":23784:23807   */\n      swap1\n      pop\n        /* \"#utility.yul\":23760:23809   */\n    tag_459:\n        /* \"#utility.yul\":23822:23902   */\n      tag_460\n        /* \"#utility.yul\":23878:23900   */\n      tag_461\n        /* \"#utility.yul\":23896:23899   */\n      dup6\n        /* \"#utility.yul\":23878:23900   */\n      tag_226\n      jump\t// in\n    tag_461:\n        /* \"#utility.yul\":23868:23876   */\n      dup4\n        /* \"#utility.yul\":23864:23901   */\n      add\n        /* \"#utility.yul\":23851:23862   */\n      dup3\n        /* \"#utility.yul\":23822:23902   */\n      tag_235\n      jump\t// in\n    tag_460:\n        /* \"#utility.yul\":23481:23912   */\n      pop\n      pop\n        /* \"#utility.yul\":23466:23912   */\n    tag_456:\n        /* \"#utility.yul\":23376:23919   */\n      pop\n      pop\n      pop\n      jump\t// out\n        /* \"#utility.yul\":23925:24042   */\n    tag_237:\n        /* \"#utility.yul\":23979:23987   */\n      0x00\n        /* \"#utility.yul\":24029:24034   */\n      dup3\n        /* \"#utility.yul\":24023:24027   */\n      dup3\n        /* \"#utility.yul\":24019:24035   */\n      shr\n        /* \"#utility.yul\":23998:24035   */\n      swap1\n      pop\n        /* \"#utility.yul\":23925:24042   */\n      swap3\n      swap2\n      pop\n      pop\n      jump\t// out\n        /* \"#utility.yul\":24048:24217   */\n    tag_238:\n        /* \"#utility.yul\":24092:24098   */\n      0x00\n        /* \"#utility.yul\":24125:24176   */\n      tag_464\n        /* \"#utility.yul\":24173:24174   */\n      0x00\n        /* \"#utility.yul\":24169:24175   */\n      not\n        /* \"#utility.yul\":24161:24166   */\n      dup5\n        /* \"#utility.yul\":24158:24159   */\n      0x08\n        /* \"#utility.yul\":24154:24167   */\n      mul\n        /* \"#utility.yul\":24125:24176   */\n      tag_237\n      jump\t// in\n    tag_464:\n        /* \"#utility.yul\":24121:24177   */\n      not\n        /* \"#utility.yul\":24206:24210   */\n      dup1\n        /* \"#utility.yul\":24200:24204   */\n      dup4\n        /* \"#utility.yul\":24196:24211   */\n      and\n        /* \"#utility.yul\":24186:24211   */\n      swap2\n      pop\n        /* \"#utility.yul\":24099:24217   */\n      pop\n        /* \"#utility.yul\":24048:24217   */\n      swap3\n      swap2\n      pop\n      pop\n      jump\t// out\n        /* \"#utility.yul\":24222:24517   */\n    tag_239:\n        /* \"#utility.yul\":24298:24302   */\n      0x00\n        /* \"#utility.yul\":24444:24473   */\n      tag_466\n        /* \"#utility.yul\":24469:24472   */\n      dup4\n        /* \"#utility.yul\":24463:24467   */\n      dup4\n        /* \"#utility.yul\":24444:24473   */\n      tag_238\n      jump\t// in\n    tag_466:\n        /* \"#utility.yul\":24436:24473   */\n      swap2\n      pop\n        /* \"#utility.yul\":24506:24509   */\n      dup3\n        /* \"#utility.yul\":24503:24504   */\n      0x02\n        /* \"#utility.yul\":24499:24510   */\n      mul\n        /* \"#utility.yul\":24493:24497   */\n      dup3\n        /* \"#utility.yul\":24490:24511   */\n      or\n        /* \"#utility.yul\":24482:24511   */\n      swap1\n      pop\n        /* \"#utility.yul\":24222:24517   */\n      swap3\n      swap2\n      pop\n      pop\n      jump\t// out\n        /* \"#utility.yul\":24522:25917   */\n    tag_162:\n        /* \"#utility.yul\":24639:24676   */\n      tag_468\n        /* \"#utility.yul\":24672:24675   */\n      dup3\n        /* \"#utility.yul\":24639:24676   */\n      tag_181\n      jump\t// in\n    tag_468:\n        /* \"#utility.yul\":24741:24759   */\n      0xffffffffffffffff\n        /* \"#utility.yul\":24733:24739   */\n      dup2\n        /* \"#utility.yul\":24730:24760   */\n      gt\n        /* \"#utility.yul\":24727:24783   */\n      iszero\n      tag_469\n      jumpi\n        /* \"#utility.yul\":24763:24781   */\n      tag_470\n      tag_204\n      jump\t// in\n    tag_470:\n        /* \"#utility.yul\":24727:24783   */\n    tag_469:\n        /* \"#utility.yul\":24807:24845   */\n      tag_471\n        /* \"#utility.yul\":24839:24843   */\n      dup3\n        /* \"#utility.yul\":24833:24844   */\n      sload\n        /* \"#utility.yul\":24807:24845   */\n      tag_76\n      jump\t// in\n    tag_471:\n        /* \"#utility.yul\":24892:24959   */\n      tag_472\n        /* \"#utility.yul\":24952:24958   */\n      dup3\n        /* \"#utility.yul\":24944:24950   */\n      dup3\n        /* \"#utility.yul\":24938:24942   */\n      dup6\n        /* \"#utility.yul\":24892:24959   */\n      tag_236\n      jump\t// in\n    tag_472:\n        /* \"#utility.yul\":24986:24987   */\n      0x00\n        /* \"#utility.yul\":25010:25014   */\n      0x20\n        /* \"#utility.yul\":24997:25014   */\n      swap1\n      pop\n        /* \"#utility.yul\":25042:25044   */\n      0x1f\n        /* \"#utility.yul\":25034:25040   */\n      dup4\n        /* \"#utility.yul\":25031:25045   */\n      gt\n        /* \"#utility.yul\":25059:25060   */\n      0x01\n        /* \"#utility.yul\":25054:25672   */\n      dup2\n      eq\n      tag_474\n      jumpi\n        /* \"#utility.yul\":25716:25717   */\n      0x00\n        /* \"#utility.yul\":25733:25739   */\n      dup5\n        /* \"#utility.yul\":25730:25807   */\n      iszero\n      tag_475\n      jumpi\n        /* \"#utility.yul\":25782:25791   */\n      dup3\n        /* \"#utility.yul\":25777:25780   */\n      dup8\n        /* \"#utility.yul\":25773:25792   */\n      add\n        /* \"#utility.yul\":25767:25793   */\n      mload\n        /* \"#utility.yul\":25758:25793   */\n      swap1\n      pop\n        /* \"#utility.yul\":25730:25807   */\n    tag_475:\n        /* \"#utility.yul\":25833:25900   */\n      tag_476\n        /* \"#utility.yul\":25893:25899   */\n      dup6\n        /* \"#utility.yul\":25886:25891   */\n      dup3\n        /* \"#utility.yul\":25833:25900   */\n      tag_239\n      jump\t// in\n    tag_476:\n        /* \"#utility.yul\":25827:25831   */\n      dup7\n        /* \"#utility.yul\":25820:25901   */\n      sstore\n        /* \"#utility.yul\":25689:25911   */\n      pop\n        /* \"#utility.yul\":25024:25911   */\n      jump(tag_473)\n        /* \"#utility.yul\":25054:25672   */\n    tag_474:\n        /* \"#utility.yul\":25106:25110   */\n      0x1f\n        /* \"#utility.yul\":25102:25111   */\n      not\n        /* \"#utility.yul\":25094:25100   */\n      dup5\n        /* \"#utility.yul\":25090:25112   */\n      and\n        /* \"#utility.yul\":25140:25177   */\n      tag_477\n        /* \"#utility.yul\":25172:25176   */\n      dup7\n        /* \"#utility.yul\":25140:25177   */\n      tag_225\n      jump\t// in\n    tag_477:\n        /* \"#utility.yul\":25199:25200   */\n      0x00\n        /* \"#utility.yul\":25213:25421   */\n    tag_478:\n        /* \"#utility.yul\":25227:25234   */\n      dup3\n        /* \"#utility.yul\":25224:25225   */\n      dup2\n        /* \"#utility.yul\":25221:25235   */\n      lt\n        /* \"#utility.yul\":25213:25421   */\n      iszero\n      tag_480\n      jumpi\n        /* \"#utility.yul\":25306:25315   */\n      dup5\n        /* \"#utility.yul\":25301:25304   */\n      dup10\n        /* \"#utility.yul\":25297:25316   */\n      add\n        /* \"#utility.yul\":25291:25317   */\n      mload\n        /* \"#utility.yul\":25283:25289   */\n      dup3\n        /* \"#utility.yul\":25276:25318   */\n      sstore\n        /* \"#utility.yul\":25357:25358   */\n      0x01\n        /* \"#utility.yul\":25349:25355   */\n      dup3\n        /* \"#utility.yul\":25345:25359   */\n      add\n        /* \"#utility.yul\":25335:25359   */\n      swap2\n      pop\n        /* \"#utility.yul\":25404:25406   */\n      0x20\n        /* \"#utility.yul\":25393:25402   */\n      dup6\n        /* \"#utility.yul\":25389:25407   */\n      add\n        /* \"#utility.yul\":25376:25407   */\n      swap5\n      pop\n        /* \"#utility.yul\":25250:25254   */\n      0x20\n        /* \"#utility.yul\":25247:25248   */\n      dup2\n        /* \"#utility.yul\":25243:25255   */\n      add\n        /* \"#utility.yul\":25238:25255   */\n      swap1\n      pop\n        /* \"#utility.yul\":25213:25421   */\n      jump(tag_478)\n    tag_480:\n        /* \"#utility.yul\":25449:25455   */\n      dup7\n        /* \"#utility.yul\":25440:25447   */\n      dup4\n        /* \"#utility.yul\":25437:25456   */\n      lt\n        /* \"#utility.yul\":25434:25613   */\n      iszero\n      tag_481\n      jumpi\n        /* \"#utility.yul\":25507:25516   */\n      dup5\n        /* \"#utility.yul\":25502:25505   */\n      dup10\n        /* \"#utility.yul\":25498:25517   */\n      add\n        /* \"#utility.yul\":25492:25518   */\n      mload\n        /* \"#utility.yul\":25550:25598   */\n      tag_482\n        /* \"#utility.yul\":25592:25596   */\n      0x1f\n        /* \"#utility.yul\":25584:25590   */\n      dup10\n        /* \"#utility.yul\":25580:25597   */\n      and\n        /* \"#utility.yul\":25569:25578   */\n      dup3\n        /* \"#utility.yul\":25550:25598   */\n      tag_238\n      jump\t// in\n    tag_482:\n        /* \"#utility.yul\":25542:25548   */\n      dup4\n        /* \"#utility.yul\":25535:25599   */\n      sstore\n        /* \"#utility.yul\":25457:25613   */\n      pop\n        /* \"#utility.yul\":25434:25613   */\n    tag_481:\n        /* \"#utility.yul\":25659:25660   */\n      0x01\n        /* \"#utility.yul\":25655:25656   */\n      0x02\n        /* \"#utility.yul\":25647:25653   */\n      dup9\n        /* \"#utility.yul\":25643:25657   */\n      mul\n        /* \"#utility.yul\":25639:25661   */\n      add\n        /* \"#utility.yul\":25633:25637   */\n      dup9\n        /* \"#utility.yul\":25626:25662   */\n      sstore\n        /* \"#utility.yul\":25061:25672   */\n      pop\n      pop\n      pop\n        /* \"#utility.yul\":25024:25911   */\n    tag_473:\n      pop\n        /* \"#utility.yul\":24614:25917   */\n      pop\n      pop\n      pop\n        /* \"#utility.yul\":24522:25917   */\n      pop\n      pop\n      jump\t// out\n        /* \"#utility.yul\":25923:26567   */\n    tag_164:\n        /* \"#utility.yul\":26120:26124   */\n      0x00\n        /* \"#utility.yul\":26158:26161   */\n      0x80\n        /* \"#utility.yul\":26147:26156   */\n      dup3\n        /* \"#utility.yul\":26143:26162   */\n      add\n        /* \"#utility.yul\":26135:26162   */\n      swap1\n      pop\n        /* \"#utility.yul\":26172:26243   */\n      tag_484\n        /* \"#utility.yul\":26240:26241   */\n      0x00\n        /* \"#utility.yul\":26229:26238   */\n      dup4\n        /* \"#utility.yul\":26225:26242   */\n      add\n        /* \"#utility.yul\":26216:26222   */\n      dup8\n        /* \"#utility.yul\":26172:26243   */\n      tag_179\n      jump\t// in\n    tag_484:\n        /* \"#utility.yul\":26290:26299   */\n      dup2\n        /* \"#utility.yul\":26284:26288   */\n      dup2\n        /* \"#utility.yul\":26280:26300   */\n      sub\n        /* \"#utility.yul\":26275:26277   */\n      0x20\n        /* \"#utility.yul\":26264:26273   */\n      dup4\n        /* \"#utility.yul\":26260:26278   */\n      add\n        /* \"#utility.yul\":26253:26301   */\n      mstore\n        /* \"#utility.yul\":26318:26396   */\n      tag_485\n        /* \"#utility.yul\":26391:26395   */\n      dup2\n        /* \"#utility.yul\":26382:26388   */\n      dup7\n        /* \"#utility.yul\":26318:26396   */\n      tag_185\n      jump\t// in\n    tag_485:\n        /* \"#utility.yul\":26310:26396   */\n      swap1\n      pop\n        /* \"#utility.yul\":26406:26478   */\n      tag_486\n        /* \"#utility.yul\":26474:26476   */\n      0x40\n        /* \"#utility.yul\":26463:26472   */\n      dup4\n        /* \"#utility.yul\":26459:26477   */\n      add\n        /* \"#utility.yul\":26450:26456   */\n      dup6\n        /* \"#utility.yul\":26406:26478   */\n      tag_179\n      jump\t// in\n    tag_486:\n        /* \"#utility.yul\":26488:26560   */\n      tag_487\n        /* \"#utility.yul\":26556:26558   */\n      0x60\n        /* \"#utility.yul\":26545:26554   */\n      dup4\n        /* \"#utility.yul\":26541:26559   */\n      add\n        /* \"#utility.yul\":26532:26538   */\n      dup5\n        /* \"#utility.yul\":26488:26560   */\n      tag_179\n      jump\t// in\n    tag_487:\n        /* \"#utility.yul\":25923:26567   */\n      swap6\n      swap5\n      pop\n      pop\n      pop\n      pop\n      pop\n      jump\t// out\n\n    auxdata: 0xa2646970667358221220c83abbd75e462d225ed4341e6a02b88444e1d66bb429864f7583fccc4c834c2364736f6c634300081a0033\n}\n",
				"bytecode": {
					"linkReferences": {},
					"object": "608060405260c85f806101000a81548161ffff021916908361ffff160217905550348015602a575f80fd5b50335f60026101000a81548173ffffffffffffffffffffffffffffffffffffffff021916908373ffffffffffffffffffffffffffffffffffffffff160217905550611f7d806100785f395ff3fe608060405234801561000f575f80fd5b50600436106100cd575f3560e01c806362a9edca1161008a5780637c9cd2bc116100645780637c9cd2bc146102115780638da5cb5b1461022d5780639139cda51461024b578063ebd009d31461027c576100cd565b806362a9edca146101a757806363378216146101c5578063728540c0146101e1576100cd565b806305a1b4a9146100d157806312e7ee1c1461010557806332b0aa6a146101355780634dbf27cc1461015157806358bfa4ab1461016d5780635a34bd5e14610189575b5f80fd5b6100eb60048036038101906100e691906112ea565b6102ad565b6040516100fc9594939291906113b6565b60405180910390f35b61011f600480360381019061011a919061140e565b61039e565b60405161012c91906115cd565b60405180910390f35b61014f600480360381019061014a91906112ea565b610539565b005b61016b6004803603810190610166919061140e565b61079b565b005b61018760048036038101906101829190611624565b610a08565b005b610191610b03565b60405161019e919061164f565b60405180910390f35b6101af610b4a565b6040516101bc9190611677565b60405180910390f35b6101df60048036038101906101da91906112ea565b610b5b565b005b6101fb60048036038101906101f691906112ea565b610d1d565b6040516102089190611703565b60405180910390f35b61022b6004803603810190610226919061184f565b610e95565b005b610235611134565b6040516102429190611896565b60405180910390f35b610265600480360381019061026091906112ea565b611159565b6040516102739291906118af565b60405180910390f35b610296600480360381019061029191906112ea565b6111b2565b6040516102a49291906118af565b60405180910390f35b6001602052815f5260405f2081815481106102c6575f80fd5b905f5260205f2090600502015f9150915050805f015490806001015f9054906101000a900473ffffffffffffffffffffffffffffffffffffffff169080600201805461031190611903565b80601f016020809104026020016040519081016040528092919081815260200182805461033d90611903565b80156103885780601f1061035f57610100808354040283529160200191610388565b820191905f5260205f20905b81548152906001019060200180831161036b57829003601f168201915b5050505050908060030154908060040154905085565b606060015f8373ffffffffffffffffffffffffffffffffffffffff1673ffffffffffffffffffffffffffffffffffffffff1681526020019081526020015f20805480602002602001604051908101604052809291908181526020015f905b8282101561052e578382905f5260205f2090600502016040518060a00160405290815f8201548152602001600182015f9054906101000a900473ffffffffffffffffffffffffffffffffffffffff1673ffffffffffffffffffffffffffffffffffffffff1673ffffffffffffffffffffffffffffffffffffffff16815260200160028201805461048b90611903565b80601f01602080910402602001604051908101604052809291908181526020018280546104b790611903565b80156105025780601f106104d957610100808354040283529160200191610502565b820191905f5260205f20905b8154815290600101906020018083116104e557829003601f168201915b5050505050815260200160038201548152602001600482015481525050815260200190600101906103fc565b505050509050919050565b8060015f8473ffffffffffffffffffffffffffffffffffffffff1673ffffffffffffffffffffffffffffffffffffffff1681526020019081526020015f20828154811061058957610588611933565b5b905f5260205f2090600502015f0154146105d8576040517f08c379a00000000000000000000000000000000000000000000000000000000081526004016105cf906119aa565b60405180910390fd5b5f60015f8473ffffffffffffffffffffffffffffffffffffffff1673ffffffffffffffffffffffffffffffffffffffff1681526020019081526020015f20828154811061062857610627611933565b5b905f5260205f2090600502016004015411610678576040517f08c379a000000000000000000000000000000000000000000000000000000000815260040161066f90611a12565b60405180910390fd5b60015f8373ffffffffffffffffffffffffffffffffffffffff1673ffffffffffffffffffffffffffffffffffffffff1681526020019081526020015f2081815481106106c7576106c6611933565b5b905f5260205f2090600502016004015f8154809291906106e690611a5d565b91905055508173ffffffffffffffffffffffffffffffffffffffff167fc06fdb2b696e45a97339c90f1d695147e89ad3202c3ff65f8b27d76937e7b51560015f3373ffffffffffffffffffffffffffffffffffffffff1673ffffffffffffffffffffffffffffffffffffffff1681526020019081526020015f20838154811061077257610771611933565b5b905f5260205f2090600502016004015460405161078f919061164f565b60405180910390a25050565b3373ffffffffffffffffffffffffffffffffffffffff168173ffffffffffffffffffffffffffffffffffffffff1603610809576040517f08c379a000000000000000000000000000000000000000000000000000000000815260040161080090611ace565b60405180910390fd5b5f60405180604001604052808373ffffffffffffffffffffffffffffffffffffffff16815260200142815250905060025f3373ffffffffffffffffffffffffffffffffffffffff1673ffffffffffffffffffffffffffffffffffffffff1681526020019081526020015f2081908060018154018082558091505060019003905f5260205f2090600202015f909190919091505f820151815f015f6101000a81548173ffffffffffffffffffffffffffffffffffffffff021916908373ffffffffffffffffffffffffffffffffffffffff1602179055506020820151816001015550508173ffffffffffffffffffffffffffffffffffffffff163373ffffffffffffffffffffffffffffffffffffffff167fdca1d35ba6427504c77f0d9182e8566bccaf25e2f14b29ff7960040b7a209ef642604051610948919061164f565b60405180910390a360035f8373ffffffffffffffffffffffffffffffffffffffff1673ffffffffffffffffffffffffffffffffffffffff1681526020019081526020015f2081908060018154018082558091505060019003905f5260205f2090600202015f909190919091505f820151815f015f6101000a81548173ffffffffffffffffffffffffffffffffffffffff021916908373ffffffffffffffffffffffffffffffffffffffff1602179055506020820151816001015550505050565b5f60029054906101000a900473ffffffffffffffffffffffffffffffffffffffff1673ffffffffffffffffffffffffffffffffffffffff163373ffffffffffffffffffffffffffffffffffffffff1614610a97576040517f08c379a0000000000000000000000000000000000000000000000000000000008152600401610a8e90611b36565b60405180910390fd5b805f806101000a81548161ffff021916908361ffff1602179055503373ffffffffffffffffffffffffffffffffffffffff167f8323d82658670a49edff6f681164658b57381017bf33c952fe8a116e1c6b1a6782604051610af89190611677565b60405180910390a250565b5f60015f3373ffffffffffffffffffffffffffffffffffffffff1673ffffffffffffffffffffffffffffffffffffffff1681526020019081526020015f2080549050905090565b5f8054906101000a900461ffff1681565b8060015f8473ffffffffffffffffffffffffffffffffffffffff1673ffffffffffffffffffffffffffffffffffffffff1681526020019081526020015f208281548110610bab57610baa611933565b5b905f5260205f2090600502015f015414610bfa576040517f08c379a0000000000000000000000000000000000000000000000000000000008152600401610bf1906119aa565b60405180910390fd5b60015f8373ffffffffffffffffffffffffffffffffffffffff1673ffffffffffffffffffffffffffffffffffffffff1681526020019081526020015f208181548110610c4957610c48611933565b5b905f5260205f2090600502016004015f815480929190610c6890611b54565b91905055508173ffffffffffffffffffffffffffffffffffffffff167f8a386948f7e93ab4fcd287c576a77bebdc96097ff7ce25d207a8242bb1de398b60015f3373ffffffffffffffffffffffffffffffffffffffff1673ffffffffffffffffffffffffffffffffffffffff1681526020019081526020015f208381548110610cf457610cf3611933565b5b905f5260205f20906005020160040154604051610d11919061164f565b60405180910390a25050565b610d2561120b565b60015f8473ffffffffffffffffffffffffffffffffffffffff1673ffffffffffffffffffffffffffffffffffffffff1681526020019081526020015f208281548110610d7457610d73611933565b5b905f5260205f2090600502016040518060a00160405290815f8201548152602001600182015f9054906101000a900473ffffffffffffffffffffffffffffffffffffffff1673ffffffffffffffffffffffffffffffffffffffff1673ffffffffffffffffffffffffffffffffffffffff168152602001600282018054610df990611903565b80601f0160208091040260200160405190810160405280929190818152602001828054610e2590611903565b8015610e705780601f10610e4757610100808354040283529160200191610e70565b820191905f5260205f20905b815481529060010190602001808311610e5357829003601f168201915b5050505050815260200160038201548152602001600482015481525050905092915050565b5f815111610ed8576040517f08c379a0000000000000000000000000000000000000000000000000000000008152600401610ecf90611c0b565b60405180910390fd5b5f8054906101000a900461ffff1661ffff1660015f3373ffffffffffffffffffffffffffffffffffffffff1673ffffffffffffffffffffffffffffffffffffffff1681526020019081526020015f208054905010610f6b576040517f08c379a0000000000000000000000000000000000000000000000000000000008152600401610f6290611c73565b60405180910390fd5b5f6040518060a0016040528060015f3373ffffffffffffffffffffffffffffffffffffffff1673ffffffffffffffffffffffffffffffffffffffff1681526020019081526020015f208054905081526020013373ffffffffffffffffffffffffffffffffffffffff1681526020018381526020014281526020015f815250905060015f3373ffffffffffffffffffffffffffffffffffffffff1673ffffffffffffffffffffffffffffffffffffffff1681526020019081526020015f2081908060018154018082558091505060019003905f5260205f2090600502015f909190919091505f820151815f01556020820151816001015f6101000a81548173ffffffffffffffffffffffffffffffffffffffff021916908373ffffffffffffffffffffffffffffffffffffffff16021790555060408201518160020190816110b29190611e2e565b5060608201518160030155608082015181600401555050806020015173ffffffffffffffffffffffffffffffffffffffff167f881ee5e736450a2211622934b24ae6488e14ca8444788d6e26fdbe582d098391825f01518360400151846060015185608001516040516111289493929190611efd565b60405180910390a25050565b5f60029054906101000a900473ffffffffffffffffffffffffffffffffffffffff1681565b6003602052815f5260405f208181548110611172575f80fd5b905f5260205f2090600202015f9150915050805f015f9054906101000a900473ffffffffffffffffffffffffffffffffffffffff16908060010154905082565b6002602052815f5260405f2081815481106111cb575f80fd5b905f5260205f2090600202015f9150915050805f015f9054906101000a900473ffffffffffffffffffffffffffffffffffffffff16908060010154905082565b6040518060a001604052805f81526020015f73ffffffffffffffffffffffffffffffffffffffff168152602001606081526020015f81526020015f81525090565b5f604051905090565b5f80fd5b5f80fd5b5f73ffffffffffffffffffffffffffffffffffffffff82169050919050565b5f6112868261125d565b9050919050565b6112968161127c565b81146112a0575f80fd5b50565b5f813590506112b18161128d565b92915050565b5f819050919050565b6112c9816112b7565b81146112d3575f80fd5b50565b5f813590506112e4816112c0565b92915050565b5f8060408385031215611300576112ff611255565b5b5f61130d858286016112a3565b925050602061131e858286016112d6565b9150509250929050565b611331816112b7565b82525050565b6113408161127c565b82525050565b5f81519050919050565b5f82825260208201905092915050565b8281835e5f83830152505050565b5f601f19601f8301169050919050565b5f61138882611346565b6113928185611350565b93506113a2818560208601611360565b6113ab8161136e565b840191505092915050565b5f60a0820190506113c95f830188611328565b6113d66020830187611337565b81810360408301526113e8818661137e565b90506113f76060830185611328565b6114046080830184611328565b9695505050505050565b5f6020828403121561142357611422611255565b5b5f611430848285016112a3565b91505092915050565b5f81519050919050565b5f82825260208201905092915050565b5f819050602082019050919050565b61146b816112b7565b82525050565b61147a8161127c565b82525050565b5f82825260208201905092915050565b5f61149a82611346565b6114a48185611480565b93506114b4818560208601611360565b6114bd8161136e565b840191505092915050565b5f60a083015f8301516114dd5f860182611462565b5060208301516114f06020860182611471565b50604083015184820360408601526115088282611490565b915050606083015161151d6060860182611462565b5060808301516115306080860182611462565b508091505092915050565b5f61154683836114c8565b905092915050565b5f602082019050919050565b5f61156482611439565b61156e8185611443565b93508360208202850161158085611453565b805f5b858110156115bb578484038952815161159c858261153b565b94506115a78361154e565b925060208a01995050600181019050611583565b50829750879550505050505092915050565b5f6020820190508181035f8301526115e5818461155a565b905092915050565b5f61ffff82169050919050565b611603816115ed565b811461160d575f80fd5b50565b5f8135905061161e816115fa565b92915050565b5f6020828403121561163957611638611255565b5b5f61164684828501611610565b91505092915050565b5f6020820190506116625f830184611328565b92915050565b611671816115ed565b82525050565b5f60208201905061168a5f830184611668565b92915050565b5f60a083015f8301516116a55f860182611462565b5060208301516116b86020860182611471565b50604083015184820360408601526116d08282611490565b91505060608301516116e56060860182611462565b5060808301516116f86080860182611462565b508091505092915050565b5f6020820190508181035f83015261171b8184611690565b905092915050565b5f80fd5b5f80fd5b7f4e487b71000000000000000000000000000000000000000000000000000000005f52604160045260245ffd5b6117618261136e565b810181811067ffffffffffffffff821117156117805761177f61172b565b5b80604052505050565b5f61179261124c565b905061179e8282611758565b919050565b5f67ffffffffffffffff8211156117bd576117bc61172b565b5b6117c68261136e565b9050602081019050919050565b828183375f83830152505050565b5f6117f36117ee846117a3565b611789565b90508281526020810184848401111561180f5761180e611727565b5b61181a8482856117d3565b509392505050565b5f82601f83011261183657611835611723565b5b81356118468482602086016117e1565b91505092915050565b5f6020828403121561186457611863611255565b5b5f82013567ffffffffffffffff81111561188157611880611259565b5b61188d84828501611822565b91505092915050565b5f6020820190506118a95f830184611337565b92915050565b5f6040820190506118c25f830185611337565b6118cf6020830184611328565b9392505050565b7f4e487b71000000000000000000000000000000000000000000000000000000005f52602260045260245ffd5b5f600282049050600182168061191a57607f821691505b60208210810361192d5761192c6118d6565b5b50919050565b7f4e487b71000000000000000000000000000000000000000000000000000000005f52603260045260245ffd5b7f545745455420444f45534e2754204558495354000000000000000000000000005f82015250565b5f611994601383611350565b915061199f82611960565b602082019050919050565b5f6020820190508181035f8301526119c181611988565b9050919050565b7f544845524520415245204e4f204c494b455300000000000000000000000000005f82015250565b5f6119fc601283611350565b9150611a07826119c8565b602082019050919050565b5f6020820190508181035f830152611a29816119f0565b9050919050565b7f4e487b71000000000000000000000000000000000000000000000000000000005f52601160045260245ffd5b5f611a67826112b7565b91505f8203611a7957611a78611a30565b5b600182039050919050565b7f596f752063616e277420666f6c6c6f7720796f757273656c66000000000000005f82015250565b5f611ab8601983611350565b9150611ac382611a84565b602082019050919050565b5f6020820190508181035f830152611ae581611aac565b9050919050565b7f594f55275245204e4f5420544845204f574e45520000000000000000000000005f82015250565b5f611b20601483611350565b9150611b2b82611aec565b602082019050919050565b5f6020820190508181035f830152611b4d81611b14565b9050919050565b5f611b5e826112b7565b91507fffffffffffffffffffffffffffffffffffffffffffffffffffffffffffffffff8203611b9057611b8f611a30565b5b600182019050919050565b7f4e4f20434f4e54454e542c20504c4541534520575249544520534f4d455448495f8201527f4e47000000000000000000000000000000000000000000000000000000000000602082015250565b5f611bf5602283611350565b9150611c0082611b9b565b604082019050919050565b5f6020820190508181035f830152611c2281611be9565b9050919050565b7f544845204d4158494d554d2054574545545320524541434845440000000000005f82015250565b5f611c5d601a83611350565b9150611c6882611c29565b602082019050919050565b5f6020820190508181035f830152611c8a81611c51565b9050919050565b5f819050815f5260205f209050919050565b5f6020601f8301049050919050565b5f82821b905092915050565b5f60088302611ced7fffffffffffffffffffffffffffffffffffffffffffffffffffffffffffffffff82611cb2565b611cf78683611cb2565b95508019841693508086168417925050509392505050565b5f819050919050565b5f611d32611d2d611d28846112b7565b611d0f565b6112b7565b9050919050565b5f819050919050565b611d4b83611d18565b611d5f611d5782611d39565b848454611cbe565b825550505050565b5f90565b611d73611d67565b611d7e818484611d42565b505050565b5b81811015611da157611d965f82611d6b565b600181019050611d84565b5050565b601f821115611de657611db781611c91565b611dc084611ca3565b81016020851015611dcf578190505b611de3611ddb85611ca3565b830182611d83565b50505b505050565b5f82821c905092915050565b5f611e065f1984600802611deb565b1980831691505092915050565b5f611e1e8383611df7565b9150826002028217905092915050565b611e3782611346565b67ffffffffffffffff811115611e5057611e4f61172b565b5b611e5a8254611903565b611e65828285611da5565b5f60209050601f831160018114611e96575f8415611e84578287015190505b611e8e8582611e13565b865550611ef5565b601f198416611ea486611c91565b5f5b82811015611ecb57848901518255600182019150602085019450602081019050611ea6565b86831015611ee85784890151611ee4601f891682611df7565b8355505b6001600288020188555050505b505050505050565b5f608082019050611f105f830187611328565b8181036020830152611f22818661137e565b9050611f316040830185611328565b611f3e6060830184611328565b9594505050505056fea2646970667358221220c83abbd75e462d225ed4341e6a02b88444e1d66bb429864f7583fccc4c834c2364736f6c634300081a0033",
					"opcodes": "PUSH1 0x80 PUSH1 0x40 MSTORE PUSH1 0xC8 PUSH0 DUP1 PUSH2 0x100 EXP DUP2 SLOAD DUP2 PUSH2 0xFFFF MUL NOT AND SWAP1 DUP4 PUSH2 0xFFFF AND MUL OR SWAP1 SSTORE POP CALLVALUE DUP1 ISZERO PUSH1 0x2A JUMPI PUSH0 DUP1 REVERT JUMPDEST POP CALLER PUSH0 PUSH1 0x2 PUSH2 0x100 EXP DUP2 SLOAD DUP2 PUSH20 0xFFFFFFFFFFFFFFFFFFFFFFFFFFFFFFFFFFFFFFFF MUL NOT AND SWAP1 DUP4 PUSH20 0xFFFFFFFFFFFFFFFFFFFFFFFFFFFFFFFFFFFFFFFF AND MUL OR SWAP1 SSTORE POP PUSH2 0x1F7D DUP1 PUSH2 0x78 PUSH0 CODECOPY PUSH0 RETURN INVALID PUSH1 0x80 PUSH1 0x40 MSTORE CALLVALUE DUP1 ISZERO PUSH2 0xF JUMPI PUSH0 DUP1 REVERT JUMPDEST POP PUSH1 0x4 CALLDATASIZE LT PUSH2 0xCD JUMPI PUSH0 CALLDATALOAD PUSH1 0xE0 SHR DUP1 PUSH4 0x62A9EDCA GT PUSH2 0x8A JUMPI DUP1 PUSH4 0x7C9CD2BC GT PUSH2 0x64 JUMPI DUP1 PUSH4 0x7C9CD2BC EQ PUSH2 0x211 JUMPI DUP1 PUSH4 0x8DA5CB5B EQ PUSH2 0x22D JUMPI DUP1 PUSH4 0x9139CDA5 EQ PUSH2 0x24B JUMPI DUP1 PUSH4 0xEBD009D3 EQ PUSH2 0x27C JUMPI PUSH2 0xCD JUMP JUMPDEST DUP1 PUSH4 0x62A9EDCA EQ PUSH2 0x1A7 JUMPI DUP1 PUSH4 0x63378216 EQ PUSH2 0x1C5 JUMPI DUP1 PUSH4 0x728540C0 EQ PUSH2 0x1E1 JUMPI PUSH2 0xCD JUMP JUMPDEST DUP1 PUSH4 0x5A1B4A9 EQ PUSH2 0xD1 JUMPI DUP1 PUSH4 0x12E7EE1C EQ PUSH2 0x105 JUMPI DUP1 PUSH4 0x32B0AA6A EQ PUSH2 0x135 JUMPI DUP1 PUSH4 0x4DBF27CC EQ PUSH2 0x151 JUMPI DUP1 PUSH4 0x58BFA4AB EQ PUSH2 0x16D JUMPI DUP1 PUSH4 0x5A34BD5E EQ PUSH2 0x189 JUMPI JUMPDEST PUSH0 DUP1 REVERT JUMPDEST PUSH2 0xEB PUSH1 0x4 DUP1 CALLDATASIZE SUB DUP2 ADD SWAP1 PUSH2 0xE6 SWAP2 SWAP1 PUSH2 0x12EA JUMP JUMPDEST PUSH2 0x2AD JUMP JUMPDEST PUSH1 0x40 MLOAD PUSH2 0xFC SWAP6 SWAP5 SWAP4 SWAP3 SWAP2 SWAP1 PUSH2 0x13B6 JUMP JUMPDEST PUSH1 0x40 MLOAD DUP1 SWAP2 SUB SWAP1 RETURN JUMPDEST PUSH2 0x11F PUSH1 0x4 DUP1 CALLDATASIZE SUB DUP2 ADD SWAP1 PUSH2 0x11A SWAP2 SWAP1 PUSH2 0x140E JUMP JUMPDEST PUSH2 0x39E JUMP JUMPDEST PUSH1 0x40 MLOAD PUSH2 0x12C SWAP2 SWAP1 PUSH2 0x15CD JUMP JUMPDEST PUSH1 0x40 MLOAD DUP1 SWAP2 SUB SWAP1 RETURN JUMPDEST PUSH2 0x14F PUSH1 0x4 DUP1 CALLDATASIZE SUB DUP2 ADD SWAP1 PUSH2 0x14A SWAP2 SWAP1 PUSH2 0x12EA JUMP JUMPDEST PUSH2 0x539 JUMP JUMPDEST STOP JUMPDEST PUSH2 0x16B PUSH1 0x4 DUP1 CALLDATASIZE SUB DUP2 ADD SWAP1 PUSH2 0x166 SWAP2 SWAP1 PUSH2 0x140E JUMP JUMPDEST PUSH2 0x79B JUMP JUMPDEST STOP JUMPDEST PUSH2 0x187 PUSH1 0x4 DUP1 CALLDATASIZE SUB DUP2 ADD SWAP1 PUSH2 0x182 SWAP2 SWAP1 PUSH2 0x1624 JUMP JUMPDEST PUSH2 0xA08 JUMP JUMPDEST STOP JUMPDEST PUSH2 0x191 PUSH2 0xB03 JUMP JUMPDEST PUSH1 0x40 MLOAD PUSH2 0x19E SWAP2 SWAP1 PUSH2 0x164F JUMP JUMPDEST PUSH1 0x40 MLOAD DUP1 SWAP2 SUB SWAP1 RETURN JUMPDEST PUSH2 0x1AF PUSH2 0xB4A JUMP JUMPDEST PUSH1 0x40 MLOAD PUSH2 0x1BC SWAP2 SWAP1 PUSH2 0x1677 JUMP JUMPDEST PUSH1 0x40 MLOAD DUP1 SWAP2 SUB SWAP1 RETURN JUMPDEST PUSH2 0x1DF PUSH1 0x4 DUP1 CALLDATASIZE SUB DUP2 ADD SWAP1 PUSH2 0x1DA SWAP2 SWAP1 PUSH2 0x12EA JUMP JUMPDEST PUSH2 0xB5B JUMP JUMPDEST STOP JUMPDEST PUSH2 0x1FB PUSH1 0x4 DUP1 CALLDATASIZE SUB DUP2 ADD SWAP1 PUSH2 0x1F6 SWAP2 SWAP1 PUSH2 0x12EA JUMP JUMPDEST PUSH2 0xD1D JUMP JUMPDEST PUSH1 0x40 MLOAD PUSH2 0x208 SWAP2 SWAP1 PUSH2 0x1703 JUMP JUMPDEST PUSH1 0x40 MLOAD DUP1 SWAP2 SUB SWAP1 RETURN JUMPDEST PUSH2 0x22B PUSH1 0x4 DUP1 CALLDATASIZE SUB DUP2 ADD SWAP1 PUSH2 0x226 SWAP2 SWAP1 PUSH2 0x184F JUMP JUMPDEST PUSH2 0xE95 JUMP JUMPDEST STOP JUMPDEST PUSH2 0x235 PUSH2 0x1134 JUMP JUMPDEST PUSH1 0x40 MLOAD PUSH2 0x242 SWAP2 SWAP1 PUSH2 0x1896 JUMP JUMPDEST PUSH1 0x40 MLOAD DUP1 SWAP2 SUB SWAP1 RETURN JUMPDEST PUSH2 0x265 PUSH1 0x4 DUP1 CALLDATASIZE SUB DUP2 ADD SWAP1 PUSH2 0x260 SWAP2 SWAP1 PUSH2 0x12EA JUMP JUMPDEST PUSH2 0x1159 JUMP JUMPDEST PUSH1 0x40 MLOAD PUSH2 0x273 SWAP3 SWAP2 SWAP1 PUSH2 0x18AF JUMP JUMPDEST PUSH1 0x40 MLOAD DUP1 SWAP2 SUB SWAP1 RETURN JUMPDEST PUSH2 0x296 PUSH1 0x4 DUP1 CALLDATASIZE SUB DUP2 ADD SWAP1 PUSH2 0x291 SWAP2 SWAP1 PUSH2 0x12EA JUMP JUMPDEST PUSH2 0x11B2 JUMP JUMPDEST PUSH1 0x40 MLOAD PUSH2 0x2A4 SWAP3 SWAP2 SWAP1 PUSH2 0x18AF JUMP JUMPDEST PUSH1 0x40 MLOAD DUP1 SWAP2 SUB SWAP1 RETURN JUMPDEST PUSH1 0x1 PUSH1 0x20 MSTORE DUP2 PUSH0 MSTORE PUSH1 0x40 PUSH0 KECCAK256 DUP2 DUP2 SLOAD DUP2 LT PUSH2 0x2C6 JUMPI PUSH0 DUP1 REVERT JUMPDEST SWAP1 PUSH0 MSTORE PUSH1 0x20 PUSH0 KECCAK256 SWAP1 PUSH1 0x5 MUL ADD PUSH0 SWAP2 POP SWAP2 POP POP DUP1 PUSH0 ADD SLOAD SWAP1 DUP1 PUSH1 0x1 ADD PUSH0 SWAP1 SLOAD SWAP1 PUSH2 0x100 EXP SWAP1 DIV PUSH20 0xFFFFFFFFFFFFFFFFFFFFFFFFFFFFFFFFFFFFFFFF AND SWAP1 DUP1 PUSH1 0x2 ADD DUP1 SLOAD PUSH2 0x311 SWAP1 PUSH2 0x1903 JUMP JUMPDEST DUP1 PUSH1 0x1F ADD PUSH1 0x20 DUP1 SWAP2 DIV MUL PUSH1 0x20 ADD PUSH1 0x40 MLOAD SWAP1 DUP2 ADD PUSH1 0x40 MSTORE DUP1 SWAP3 SWAP2 SWAP1 DUP2 DUP2 MSTORE PUSH1 0x20 ADD DUP3 DUP1 SLOAD PUSH2 0x33D SWAP1 PUSH2 0x1903 JUMP JUMPDEST DUP1 ISZERO PUSH2 0x388 JUMPI DUP1 PUSH1 0x1F LT PUSH2 0x35F JUMPI PUSH2 0x100 DUP1 DUP4 SLOAD DIV MUL DUP4 MSTORE SWAP2 PUSH1 0x20 ADD SWAP2 PUSH2 0x388 JUMP JUMPDEST DUP3 ADD SWAP2 SWAP1 PUSH0 MSTORE PUSH1 0x20 PUSH0 KECCAK256 SWAP1 JUMPDEST DUP2 SLOAD DUP2 MSTORE SWAP1 PUSH1 0x1 ADD SWAP1 PUSH1 0x20 ADD DUP1 DUP4 GT PUSH2 0x36B JUMPI DUP3 SWAP1 SUB PUSH1 0x1F AND DUP3 ADD SWAP2 JUMPDEST POP POP POP POP POP SWAP1 DUP1 PUSH1 0x3 ADD SLOAD SWAP1 DUP1 PUSH1 0x4 ADD SLOAD SWAP1 POP DUP6 JUMP JUMPDEST PUSH1 0x60 PUSH1 0x1 PUSH0 DUP4 PUSH20 0xFFFFFFFFFFFFFFFFFFFFFFFFFFFFFFFFFFFFFFFF AND PUSH20 0xFFFFFFFFFFFFFFFFFFFFFFFFFFFFFFFFFFFFFFFF AND DUP2 MSTORE PUSH1 0x20 ADD SWAP1 DUP2 MSTORE PUSH1 0x20 ADD PUSH0 KECCAK256 DUP1 SLOAD DUP1 PUSH1 0x20 MUL PUSH1 0x20 ADD PUSH1 0x40 MLOAD SWAP1 DUP2 ADD PUSH1 0x40 MSTORE DUP1 SWAP3 SWAP2 SWAP1 DUP2 DUP2 MSTORE PUSH1 0x20 ADD PUSH0 SWAP1 JUMPDEST DUP3 DUP3 LT ISZERO PUSH2 0x52E JUMPI DUP4 DUP3 SWAP1 PUSH0 MSTORE PUSH1 0x20 PUSH0 KECCAK256 SWAP1 PUSH1 0x5 MUL ADD PUSH1 0x40 MLOAD DUP1 PUSH1 0xA0 ADD PUSH1 0x40 MSTORE SWAP1 DUP2 PUSH0 DUP3 ADD SLOAD DUP2 MSTORE PUSH1 0x20 ADD PUSH1 0x1 DUP3 ADD PUSH0 SWAP1 SLOAD SWAP1 PUSH2 0x100 EXP SWAP1 DIV PUSH20 0xFFFFFFFFFFFFFFFFFFFFFFFFFFFFFFFFFFFFFFFF AND PUSH20 0xFFFFFFFFFFFFFFFFFFFFFFFFFFFFFFFFFFFFFFFF AND PUSH20 0xFFFFFFFFFFFFFFFFFFFFFFFFFFFFFFFFFFFFFFFF AND DUP2 MSTORE PUSH1 0x20 ADD PUSH1 0x2 DUP3 ADD DUP1 SLOAD PUSH2 0x48B SWAP1 PUSH2 0x1903 JUMP JUMPDEST DUP1 PUSH1 0x1F ADD PUSH1 0x20 DUP1 SWAP2 DIV MUL PUSH1 0x20 ADD PUSH1 0x40 MLOAD SWAP1 DUP2 ADD PUSH1 0x40 MSTORE DUP1 SWAP3 SWAP2 SWAP1 DUP2 DUP2 MSTORE PUSH1 0x20 ADD DUP3 DUP1 SLOAD PUSH2 0x4B7 SWAP1 PUSH2 0x1903 JUMP JUMPDEST DUP1 ISZERO PUSH2 0x502 JUMPI DUP1 PUSH1 0x1F LT PUSH2 0x4D9 JUMPI PUSH2 0x100 DUP1 DUP4 SLOAD DIV MUL DUP4 MSTORE SWAP2 PUSH1 0x20 ADD SWAP2 PUSH2 0x502 JUMP JUMPDEST DUP3 ADD SWAP2 SWAP1 PUSH0 MSTORE PUSH1 0x20 PUSH0 KECCAK256 SWAP1 JUMPDEST DUP2 SLOAD DUP2 MSTORE SWAP1 PUSH1 0x1 ADD SWAP1 PUSH1 0x20 ADD DUP1 DUP4 GT PUSH2 0x4E5 JUMPI DUP3 SWAP1 SUB PUSH1 0x1F AND DUP3 ADD SWAP2 JUMPDEST POP POP POP POP POP DUP2 MSTORE PUSH1 0x20 ADD PUSH1 0x3 DUP3 ADD SLOAD DUP2 MSTORE PUSH1 0x20 ADD PUSH1 0x4 DUP3 ADD SLOAD DUP2 MSTORE POP POP DUP2 MSTORE PUSH1 0x20 ADD SWAP1 PUSH1 0x1 ADD SWAP1 PUSH2 0x3FC JUMP JUMPDEST POP POP POP POP SWAP1 POP SWAP2 SWAP1 POP JUMP JUMPDEST DUP1 PUSH1 0x1 PUSH0 DUP5 PUSH20 0xFFFFFFFFFFFFFFFFFFFFFFFFFFFFFFFFFFFFFFFF AND PUSH20 0xFFFFFFFFFFFFFFFFFFFFFFFFFFFFFFFFFFFFFFFF AND DUP2 MSTORE PUSH1 0x20 ADD SWAP1 DUP2 MSTORE PUSH1 0x20 ADD PUSH0 KECCAK256 DUP3 DUP2 SLOAD DUP2 LT PUSH2 0x589 JUMPI PUSH2 0x588 PUSH2 0x1933 JUMP JUMPDEST JUMPDEST SWAP1 PUSH0 MSTORE PUSH1 0x20 PUSH0 KECCAK256 SWAP1 PUSH1 0x5 MUL ADD PUSH0 ADD SLOAD EQ PUSH2 0x5D8 JUMPI PUSH1 0x40 MLOAD PUSH32 0x8C379A000000000000000000000000000000000000000000000000000000000 DUP2 MSTORE PUSH1 0x4 ADD PUSH2 0x5CF SWAP1 PUSH2 0x19AA JUMP JUMPDEST PUSH1 0x40 MLOAD DUP1 SWAP2 SUB SWAP1 REVERT JUMPDEST PUSH0 PUSH1 0x1 PUSH0 DUP5 PUSH20 0xFFFFFFFFFFFFFFFFFFFFFFFFFFFFFFFFFFFFFFFF AND PUSH20 0xFFFFFFFFFFFFFFFFFFFFFFFFFFFFFFFFFFFFFFFF AND DUP2 MSTORE PUSH1 0x20 ADD SWAP1 DUP2 MSTORE PUSH1 0x20 ADD PUSH0 KECCAK256 DUP3 DUP2 SLOAD DUP2 LT PUSH2 0x628 JUMPI PUSH2 0x627 PUSH2 0x1933 JUMP JUMPDEST JUMPDEST SWAP1 PUSH0 MSTORE PUSH1 0x20 PUSH0 KECCAK256 SWAP1 PUSH1 0x5 MUL ADD PUSH1 0x4 ADD SLOAD GT PUSH2 0x678 JUMPI PUSH1 0x40 MLOAD PUSH32 0x8C379A000000000000000000000000000000000000000000000000000000000 DUP2 MSTORE PUSH1 0x4 ADD PUSH2 0x66F SWAP1 PUSH2 0x1A12 JUMP JUMPDEST PUSH1 0x40 MLOAD DUP1 SWAP2 SUB SWAP1 REVERT JUMPDEST PUSH1 0x1 PUSH0 DUP4 PUSH20 0xFFFFFFFFFFFFFFFFFFFFFFFFFFFFFFFFFFFFFFFF AND PUSH20 0xFFFFFFFFFFFFFFFFFFFFFFFFFFFFFFFFFFFFFFFF AND DUP2 MSTORE PUSH1 0x20 ADD SWAP1 DUP2 MSTORE PUSH1 0x20 ADD PUSH0 KECCAK256 DUP2 DUP2 SLOAD DUP2 LT PUSH2 0x6C7 JUMPI PUSH2 0x6C6 PUSH2 0x1933 JUMP JUMPDEST JUMPDEST SWAP1 PUSH0 MSTORE PUSH1 0x20 PUSH0 KECCAK256 SWAP1 PUSH1 0x5 MUL ADD PUSH1 0x4 ADD PUSH0 DUP2 SLOAD DUP1 SWAP3 SWAP2 SWAP1 PUSH2 0x6E6 SWAP1 PUSH2 0x1A5D JUMP JUMPDEST SWAP2 SWAP1 POP SSTORE POP DUP2 PUSH20 0xFFFFFFFFFFFFFFFFFFFFFFFFFFFFFFFFFFFFFFFF AND PUSH32 0xC06FDB2B696E45A97339C90F1D695147E89AD3202C3FF65F8B27D76937E7B515 PUSH1 0x1 PUSH0 CALLER PUSH20 0xFFFFFFFFFFFFFFFFFFFFFFFFFFFFFFFFFFFFFFFF AND PUSH20 0xFFFFFFFFFFFFFFFFFFFFFFFFFFFFFFFFFFFFFFFF AND DUP2 MSTORE PUSH1 0x20 ADD SWAP1 DUP2 MSTORE PUSH1 0x20 ADD PUSH0 KECCAK256 DUP4 DUP2 SLOAD DUP2 LT PUSH2 0x772 JUMPI PUSH2 0x771 PUSH2 0x1933 JUMP JUMPDEST JUMPDEST SWAP1 PUSH0 MSTORE PUSH1 0x20 PUSH0 KECCAK256 SWAP1 PUSH1 0x5 MUL ADD PUSH1 0x4 ADD SLOAD PUSH1 0x40 MLOAD PUSH2 0x78F SWAP2 SWAP1 PUSH2 0x164F JUMP JUMPDEST PUSH1 0x40 MLOAD DUP1 SWAP2 SUB SWAP1 LOG2 POP POP JUMP JUMPDEST CALLER PUSH20 0xFFFFFFFFFFFFFFFFFFFFFFFFFFFFFFFFFFFFFFFF AND DUP2 PUSH20 0xFFFFFFFFFFFFFFFFFFFFFFFFFFFFFFFFFFFFFFFF AND SUB PUSH2 0x809 JUMPI PUSH1 0x40 MLOAD PUSH32 0x8C379A000000000000000000000000000000000000000000000000000000000 DUP2 MSTORE PUSH1 0x4 ADD PUSH2 0x800 SWAP1 PUSH2 0x1ACE JUMP JUMPDEST PUSH1 0x40 MLOAD DUP1 SWAP2 SUB SWAP1 REVERT JUMPDEST PUSH0 PUSH1 0x40 MLOAD DUP1 PUSH1 0x40 ADD PUSH1 0x40 MSTORE DUP1 DUP4 PUSH20 0xFFFFFFFFFFFFFFFFFFFFFFFFFFFFFFFFFFFFFFFF AND DUP2 MSTORE PUSH1 0x20 ADD TIMESTAMP DUP2 MSTORE POP SWAP1 POP PUSH1 0x2 PUSH0 CALLER PUSH20 0xFFFFFFFFFFFFFFFFFFFFFFFFFFFFFFFFFFFFFFFF AND PUSH20 0xFFFFFFFFFFFFFFFFFFFFFFFFFFFFFFFFFFFFFFFF AND DUP2 MSTORE PUSH1 0x20 ADD SWAP1 DUP2 MSTORE PUSH1 0x20 ADD PUSH0 KECCAK256 DUP2 SWAP1 DUP1 PUSH1 0x1 DUP2 SLOAD ADD DUP1 DUP3 SSTORE DUP1 SWAP2 POP POP PUSH1 0x1 SWAP1 SUB SWAP1 PUSH0 MSTORE PUSH1 0x20 PUSH0 KECCAK256 SWAP1 PUSH1 0x2 MUL ADD PUSH0 SWAP1 SWAP2 SWAP1 SWAP2 SWAP1 SWAP2 POP PUSH0 DUP3 ADD MLOAD DUP2 PUSH0 ADD PUSH0 PUSH2 0x100 EXP DUP2 SLOAD DUP2 PUSH20 0xFFFFFFFFFFFFFFFFFFFFFFFFFFFFFFFFFFFFFFFF MUL NOT AND SWAP1 DUP4 PUSH20 0xFFFFFFFFFFFFFFFFFFFFFFFFFFFFFFFFFFFFFFFF AND MUL OR SWAP1 SSTORE POP PUSH1 0x20 DUP3 ADD MLOAD DUP2 PUSH1 0x1 ADD SSTORE POP POP DUP2 PUSH20 0xFFFFFFFFFFFFFFFFFFFFFFFFFFFFFFFFFFFFFFFF AND CALLER PUSH20 0xFFFFFFFFFFFFFFFFFFFFFFFFFFFFFFFFFFFFFFFF AND PUSH32 0xDCA1D35BA6427504C77F0D9182E8566BCCAF25E2F14B29FF7960040B7A209EF6 TIMESTAMP PUSH1 0x40 MLOAD PUSH2 0x948 SWAP2 SWAP1 PUSH2 0x164F JUMP JUMPDEST PUSH1 0x40 MLOAD DUP1 SWAP2 SUB SWAP1 LOG3 PUSH1 0x3 PUSH0 DUP4 PUSH20 0xFFFFFFFFFFFFFFFFFFFFFFFFFFFFFFFFFFFFFFFF AND PUSH20 0xFFFFFFFFFFFFFFFFFFFFFFFFFFFFFFFFFFFFFFFF AND DUP2 MSTORE PUSH1 0x20 ADD SWAP1 DUP2 MSTORE PUSH1 0x20 ADD PUSH0 KECCAK256 DUP2 SWAP1 DUP1 PUSH1 0x1 DUP2 SLOAD ADD DUP1 DUP3 SSTORE DUP1 SWAP2 POP POP PUSH1 0x1 SWAP1 SUB SWAP1 PUSH0 MSTORE PUSH1 0x20 PUSH0 KECCAK256 SWAP1 PUSH1 0x2 MUL ADD PUSH0 SWAP1 SWAP2 SWAP1 SWAP2 SWAP1 SWAP2 POP PUSH0 DUP3 ADD MLOAD DUP2 PUSH0 ADD PUSH0 PUSH2 0x100 EXP DUP2 SLOAD DUP2 PUSH20 0xFFFFFFFFFFFFFFFFFFFFFFFFFFFFFFFFFFFFFFFF MUL NOT AND SWAP1 DUP4 PUSH20 0xFFFFFFFFFFFFFFFFFFFFFFFFFFFFFFFFFFFFFFFF AND MUL OR SWAP1 SSTORE POP PUSH1 0x20 DUP3 ADD MLOAD DUP2 PUSH1 0x1 ADD SSTORE POP POP POP POP JUMP JUMPDEST PUSH0 PUSH1 0x2 SWAP1 SLOAD SWAP1 PUSH2 0x100 EXP SWAP1 DIV PUSH20 0xFFFFFFFFFFFFFFFFFFFFFFFFFFFFFFFFFFFFFFFF AND PUSH20 0xFFFFFFFFFFFFFFFFFFFFFFFFFFFFFFFFFFFFFFFF AND CALLER PUSH20 0xFFFFFFFFFFFFFFFFFFFFFFFFFFFFFFFFFFFFFFFF AND EQ PUSH2 0xA97 JUMPI PUSH1 0x40 MLOAD PUSH32 0x8C379A000000000000000000000000000000000000000000000000000000000 DUP2 MSTORE PUSH1 0x4 ADD PUSH2 0xA8E SWAP1 PUSH2 0x1B36 JUMP JUMPDEST PUSH1 0x40 MLOAD DUP1 SWAP2 SUB SWAP1 REVERT JUMPDEST DUP1 PUSH0 DUP1 PUSH2 0x100 EXP DUP2 SLOAD DUP2 PUSH2 0xFFFF MUL NOT AND SWAP1 DUP4 PUSH2 0xFFFF AND MUL OR SWAP1 SSTORE POP CALLER PUSH20 0xFFFFFFFFFFFFFFFFFFFFFFFFFFFFFFFFFFFFFFFF AND PUSH32 0x8323D82658670A49EDFF6F681164658B57381017BF33C952FE8A116E1C6B1A67 DUP3 PUSH1 0x40 MLOAD PUSH2 0xAF8 SWAP2 SWAP1 PUSH2 0x1677 JUMP JUMPDEST PUSH1 0x40 MLOAD DUP1 SWAP2 SUB SWAP1 LOG2 POP JUMP JUMPDEST PUSH0 PUSH1 0x1 PUSH0 CALLER PUSH20 0xFFFFFFFFFFFFFFFFFFFFFFFFFFFFFFFFFFFFFFFF AND PUSH20 0xFFFFFFFFFFFFFFFFFFFFFFFFFFFFFFFFFFFFFFFF AND DUP2 MSTORE PUSH1 0x20 ADD SWAP1 DUP2 MSTORE PUSH1 0x20 ADD PUSH0 KECCAK256 DUP1 SLOAD SWAP1 POP SWAP1 POP SWAP1 JUMP JUMPDEST PUSH0 DUP1 SLOAD SWAP1 PUSH2 0x100 EXP SWAP1 DIV PUSH2 0xFFFF AND DUP2 JUMP JUMPDEST DUP1 PUSH1 0x1 PUSH0 DUP5 PUSH20 0xFFFFFFFFFFFFFFFFFFFFFFFFFFFFFFFFFFFFFFFF AND PUSH20 0xFFFFFFFFFFFFFFFFFFFFFFFFFFFFFFFFFFFFFFFF AND DUP2 MSTORE PUSH1 0x20 ADD SWAP1 DUP2 MSTORE PUSH1 0x20 ADD PUSH0 KECCAK256 DUP3 DUP2 SLOAD DUP2 LT PUSH2 0xBAB JUMPI PUSH2 0xBAA PUSH2 0x1933 JUMP JUMPDEST JUMPDEST SWAP1 PUSH0 MSTORE PUSH1 0x20 PUSH0 KECCAK256 SWAP1 PUSH1 0x5 MUL ADD PUSH0 ADD SLOAD EQ PUSH2 0xBFA JUMPI PUSH1 0x40 MLOAD PUSH32 0x8C379A000000000000000000000000000000000000000000000000000000000 DUP2 MSTORE PUSH1 0x4 ADD PUSH2 0xBF1 SWAP1 PUSH2 0x19AA JUMP JUMPDEST PUSH1 0x40 MLOAD DUP1 SWAP2 SUB SWAP1 REVERT JUMPDEST PUSH1 0x1 PUSH0 DUP4 PUSH20 0xFFFFFFFFFFFFFFFFFFFFFFFFFFFFFFFFFFFFFFFF AND PUSH20 0xFFFFFFFFFFFFFFFFFFFFFFFFFFFFFFFFFFFFFFFF AND DUP2 MSTORE PUSH1 0x20 ADD SWAP1 DUP2 MSTORE PUSH1 0x20 ADD PUSH0 KECCAK256 DUP2 DUP2 SLOAD DUP2 LT PUSH2 0xC49 JUMPI PUSH2 0xC48 PUSH2 0x1933 JUMP JUMPDEST JUMPDEST SWAP1 PUSH0 MSTORE PUSH1 0x20 PUSH0 KECCAK256 SWAP1 PUSH1 0x5 MUL ADD PUSH1 0x4 ADD PUSH0 DUP2 SLOAD DUP1 SWAP3 SWAP2 SWAP1 PUSH2 0xC68 SWAP1 PUSH2 0x1B54 JUMP JUMPDEST SWAP2 SWAP1 POP SSTORE POP DUP2 PUSH20 0xFFFFFFFFFFFFFFFFFFFFFFFFFFFFFFFFFFFFFFFF AND PUSH32 0x8A386948F7E93AB4FCD287C576A77BEBDC96097FF7CE25D207A8242BB1DE398B PUSH1 0x1 PUSH0 CALLER PUSH20 0xFFFFFFFFFFFFFFFFFFFFFFFFFFFFFFFFFFFFFFFF AND PUSH20 0xFFFFFFFFFFFFFFFFFFFFFFFFFFFFFFFFFFFFFFFF AND DUP2 MSTORE PUSH1 0x20 ADD SWAP1 DUP2 MSTORE PUSH1 0x20 ADD PUSH0 KECCAK256 DUP4 DUP2 SLOAD DUP2 LT PUSH2 0xCF4 JUMPI PUSH2 0xCF3 PUSH2 0x1933 JUMP JUMPDEST JUMPDEST SWAP1 PUSH0 MSTORE PUSH1 0x20 PUSH0 KECCAK256 SWAP1 PUSH1 0x5 MUL ADD PUSH1 0x4 ADD SLOAD PUSH1 0x40 MLOAD PUSH2 0xD11 SWAP2 SWAP1 PUSH2 0x164F JUMP JUMPDEST PUSH1 0x40 MLOAD DUP1 SWAP2 SUB SWAP1 LOG2 POP POP JUMP JUMPDEST PUSH2 0xD25 PUSH2 0x120B JUMP JUMPDEST PUSH1 0x1 PUSH0 DUP5 PUSH20 0xFFFFFFFFFFFFFFFFFFFFFFFFFFFFFFFFFFFFFFFF AND PUSH20 0xFFFFFFFFFFFFFFFFFFFFFFFFFFFFFFFFFFFFFFFF AND DUP2 MSTORE PUSH1 0x20 ADD SWAP1 DUP2 MSTORE PUSH1 0x20 ADD PUSH0 KECCAK256 DUP3 DUP2 SLOAD DUP2 LT PUSH2 0xD74 JUMPI PUSH2 0xD73 PUSH2 0x1933 JUMP JUMPDEST JUMPDEST SWAP1 PUSH0 MSTORE PUSH1 0x20 PUSH0 KECCAK256 SWAP1 PUSH1 0x5 MUL ADD PUSH1 0x40 MLOAD DUP1 PUSH1 0xA0 ADD PUSH1 0x40 MSTORE SWAP1 DUP2 PUSH0 DUP3 ADD SLOAD DUP2 MSTORE PUSH1 0x20 ADD PUSH1 0x1 DUP3 ADD PUSH0 SWAP1 SLOAD SWAP1 PUSH2 0x100 EXP SWAP1 DIV PUSH20 0xFFFFFFFFFFFFFFFFFFFFFFFFFFFFFFFFFFFFFFFF AND PUSH20 0xFFFFFFFFFFFFFFFFFFFFFFFFFFFFFFFFFFFFFFFF AND PUSH20 0xFFFFFFFFFFFFFFFFFFFFFFFFFFFFFFFFFFFFFFFF AND DUP2 MSTORE PUSH1 0x20 ADD PUSH1 0x2 DUP3 ADD DUP1 SLOAD PUSH2 0xDF9 SWAP1 PUSH2 0x1903 JUMP JUMPDEST DUP1 PUSH1 0x1F ADD PUSH1 0x20 DUP1 SWAP2 DIV MUL PUSH1 0x20 ADD PUSH1 0x40 MLOAD SWAP1 DUP2 ADD PUSH1 0x40 MSTORE DUP1 SWAP3 SWAP2 SWAP1 DUP2 DUP2 MSTORE PUSH1 0x20 ADD DUP3 DUP1 SLOAD PUSH2 0xE25 SWAP1 PUSH2 0x1903 JUMP JUMPDEST DUP1 ISZERO PUSH2 0xE70 JUMPI DUP1 PUSH1 0x1F LT PUSH2 0xE47 JUMPI PUSH2 0x100 DUP1 DUP4 SLOAD DIV MUL DUP4 MSTORE SWAP2 PUSH1 0x20 ADD SWAP2 PUSH2 0xE70 JUMP JUMPDEST DUP3 ADD SWAP2 SWAP1 PUSH0 MSTORE PUSH1 0x20 PUSH0 KECCAK256 SWAP1 JUMPDEST DUP2 SLOAD DUP2 MSTORE SWAP1 PUSH1 0x1 ADD SWAP1 PUSH1 0x20 ADD DUP1 DUP4 GT PUSH2 0xE53 JUMPI DUP3 SWAP1 SUB PUSH1 0x1F AND DUP3 ADD SWAP2 JUMPDEST POP POP POP POP POP DUP2 MSTORE PUSH1 0x20 ADD PUSH1 0x3 DUP3 ADD SLOAD DUP2 MSTORE PUSH1 0x20 ADD PUSH1 0x4 DUP3 ADD SLOAD DUP2 MSTORE POP POP SWAP1 POP SWAP3 SWAP2 POP POP JUMP JUMPDEST PUSH0 DUP2 MLOAD GT PUSH2 0xED8 JUMPI PUSH1 0x40 MLOAD PUSH32 0x8C379A000000000000000000000000000000000000000000000000000000000 DUP2 MSTORE PUSH1 0x4 ADD PUSH2 0xECF SWAP1 PUSH2 0x1C0B JUMP JUMPDEST PUSH1 0x40 MLOAD DUP1 SWAP2 SUB SWAP1 REVERT JUMPDEST PUSH0 DUP1 SLOAD SWAP1 PUSH2 0x100 EXP SWAP1 DIV PUSH2 0xFFFF AND PUSH2 0xFFFF AND PUSH1 0x1 PUSH0 CALLER PUSH20 0xFFFFFFFFFFFFFFFFFFFFFFFFFFFFFFFFFFFFFFFF AND PUSH20 0xFFFFFFFFFFFFFFFFFFFFFFFFFFFFFFFFFFFFFFFF AND DUP2 MSTORE PUSH1 0x20 ADD SWAP1 DUP2 MSTORE PUSH1 0x20 ADD PUSH0 KECCAK256 DUP1 SLOAD SWAP1 POP LT PUSH2 0xF6B JUMPI PUSH1 0x40 MLOAD PUSH32 0x8C379A000000000000000000000000000000000000000000000000000000000 DUP2 MSTORE PUSH1 0x4 ADD PUSH2 0xF62 SWAP1 PUSH2 0x1C73 JUMP JUMPDEST PUSH1 0x40 MLOAD DUP1 SWAP2 SUB SWAP1 REVERT JUMPDEST PUSH0 PUSH1 0x40 MLOAD DUP1 PUSH1 0xA0 ADD PUSH1 0x40 MSTORE DUP1 PUSH1 0x1 PUSH0 CALLER PUSH20 0xFFFFFFFFFFFFFFFFFFFFFFFFFFFFFFFFFFFFFFFF AND PUSH20 0xFFFFFFFFFFFFFFFFFFFFFFFFFFFFFFFFFFFFFFFF AND DUP2 MSTORE PUSH1 0x20 ADD SWAP1 DUP2 MSTORE PUSH1 0x20 ADD PUSH0 KECCAK256 DUP1 SLOAD SWAP1 POP DUP2 MSTORE PUSH1 0x20 ADD CALLER PUSH20 0xFFFFFFFFFFFFFFFFFFFFFFFFFFFFFFFFFFFFFFFF AND DUP2 MSTORE PUSH1 0x20 ADD DUP4 DUP2 MSTORE PUSH1 0x20 ADD TIMESTAMP DUP2 MSTORE PUSH1 0x20 ADD PUSH0 DUP2 MSTORE POP SWAP1 POP PUSH1 0x1 PUSH0 CALLER PUSH20 0xFFFFFFFFFFFFFFFFFFFFFFFFFFFFFFFFFFFFFFFF AND PUSH20 0xFFFFFFFFFFFFFFFFFFFFFFFFFFFFFFFFFFFFFFFF AND DUP2 MSTORE PUSH1 0x20 ADD SWAP1 DUP2 MSTORE PUSH1 0x20 ADD PUSH0 KECCAK256 DUP2 SWAP1 DUP1 PUSH1 0x1 DUP2 SLOAD ADD DUP1 DUP3 SSTORE DUP1 SWAP2 POP POP PUSH1 0x1 SWAP1 SUB SWAP1 PUSH0 MSTORE PUSH1 0x20 PUSH0 KECCAK256 SWAP1 PUSH1 0x5 MUL ADD PUSH0 SWAP1 SWAP2 SWAP1 SWAP2 SWAP1 SWAP2 POP PUSH0 DUP3 ADD MLOAD DUP2 PUSH0 ADD SSTORE PUSH1 0x20 DUP3 ADD MLOAD DUP2 PUSH1 0x1 ADD PUSH0 PUSH2 0x100 EXP DUP2 SLOAD DUP2 PUSH20 0xFFFFFFFFFFFFFFFFFFFFFFFFFFFFFFFFFFFFFFFF MUL NOT AND SWAP1 DUP4 PUSH20 0xFFFFFFFFFFFFFFFFFFFFFFFFFFFFFFFFFFFFFFFF AND MUL OR SWAP1 SSTORE POP PUSH1 0x40 DUP3 ADD MLOAD DUP2 PUSH1 0x2 ADD SWAP1 DUP2 PUSH2 0x10B2 SWAP2 SWAP1 PUSH2 0x1E2E JUMP JUMPDEST POP PUSH1 0x60 DUP3 ADD MLOAD DUP2 PUSH1 0x3 ADD SSTORE PUSH1 0x80 DUP3 ADD MLOAD DUP2 PUSH1 0x4 ADD SSTORE POP POP DUP1 PUSH1 0x20 ADD MLOAD PUSH20 0xFFFFFFFFFFFFFFFFFFFFFFFFFFFFFFFFFFFFFFFF AND PUSH32 0x881EE5E736450A2211622934B24AE6488E14CA8444788D6E26FDBE582D098391 DUP3 PUSH0 ADD MLOAD DUP4 PUSH1 0x40 ADD MLOAD DUP5 PUSH1 0x60 ADD MLOAD DUP6 PUSH1 0x80 ADD MLOAD PUSH1 0x40 MLOAD PUSH2 0x1128 SWAP5 SWAP4 SWAP3 SWAP2 SWAP1 PUSH2 0x1EFD JUMP JUMPDEST PUSH1 0x40 MLOAD DUP1 SWAP2 SUB SWAP1 LOG2 POP POP JUMP JUMPDEST PUSH0 PUSH1 0x2 SWAP1 SLOAD SWAP1 PUSH2 0x100 EXP SWAP1 DIV PUSH20 0xFFFFFFFFFFFFFFFFFFFFFFFFFFFFFFFFFFFFFFFF AND DUP2 JUMP JUMPDEST PUSH1 0x3 PUSH1 0x20 MSTORE DUP2 PUSH0 MSTORE PUSH1 0x40 PUSH0 KECCAK256 DUP2 DUP2 SLOAD DUP2 LT PUSH2 0x1172 JUMPI PUSH0 DUP1 REVERT JUMPDEST SWAP1 PUSH0 MSTORE PUSH1 0x20 PUSH0 KECCAK256 SWAP1 PUSH1 0x2 MUL ADD PUSH0 SWAP2 POP SWAP2 POP POP DUP1 PUSH0 ADD PUSH0 SWAP1 SLOAD SWAP1 PUSH2 0x100 EXP SWAP1 DIV PUSH20 0xFFFFFFFFFFFFFFFFFFFFFFFFFFFFFFFFFFFFFFFF AND SWAP1 DUP1 PUSH1 0x1 ADD SLOAD SWAP1 POP DUP3 JUMP JUMPDEST PUSH1 0x2 PUSH1 0x20 MSTORE DUP2 PUSH0 MSTORE PUSH1 0x40 PUSH0 KECCAK256 DUP2 DUP2 SLOAD DUP2 LT PUSH2 0x11CB JUMPI PUSH0 DUP1 REVERT JUMPDEST SWAP1 PUSH0 MSTORE PUSH1 0x20 PUSH0 KECCAK256 SWAP1 PUSH1 0x2 MUL ADD PUSH0 SWAP2 POP SWAP2 POP POP DUP1 PUSH0 ADD PUSH0 SWAP1 SLOAD SWAP1 PUSH2 0x100 EXP SWAP1 DIV PUSH20 0xFFFFFFFFFFFFFFFFFFFFFFFFFFFFFFFFFFFFFFFF AND SWAP1 DUP1 PUSH1 0x1 ADD SLOAD SWAP1 POP DUP3 JUMP JUMPDEST PUSH1 0x40 MLOAD DUP1 PUSH1 0xA0 ADD PUSH1 0x40 MSTORE DUP1 PUSH0 DUP2 MSTORE PUSH1 0x20 ADD PUSH0 PUSH20 0xFFFFFFFFFFFFFFFFFFFFFFFFFFFFFFFFFFFFFFFF AND DUP2 MSTORE PUSH1 0x20 ADD PUSH1 0x60 DUP2 MSTORE PUSH1 0x20 ADD PUSH0 DUP2 MSTORE PUSH1 0x20 ADD PUSH0 DUP2 MSTORE POP SWAP1 JUMP JUMPDEST PUSH0 PUSH1 0x40 MLOAD SWAP1 POP SWAP1 JUMP JUMPDEST PUSH0 DUP1 REVERT JUMPDEST PUSH0 DUP1 REVERT JUMPDEST PUSH0 PUSH20 0xFFFFFFFFFFFFFFFFFFFFFFFFFFFFFFFFFFFFFFFF DUP3 AND SWAP1 POP SWAP2 SWAP1 POP JUMP JUMPDEST PUSH0 PUSH2 0x1286 DUP3 PUSH2 0x125D JUMP JUMPDEST SWAP1 POP SWAP2 SWAP1 POP JUMP JUMPDEST PUSH2 0x1296 DUP2 PUSH2 0x127C JUMP JUMPDEST DUP2 EQ PUSH2 0x12A0 JUMPI PUSH0 DUP1 REVERT JUMPDEST POP JUMP JUMPDEST PUSH0 DUP2 CALLDATALOAD SWAP1 POP PUSH2 0x12B1 DUP2 PUSH2 0x128D JUMP JUMPDEST SWAP3 SWAP2 POP POP JUMP JUMPDEST PUSH0 DUP2 SWAP1 POP SWAP2 SWAP1 POP JUMP JUMPDEST PUSH2 0x12C9 DUP2 PUSH2 0x12B7 JUMP JUMPDEST DUP2 EQ PUSH2 0x12D3 JUMPI PUSH0 DUP1 REVERT JUMPDEST POP JUMP JUMPDEST PUSH0 DUP2 CALLDATALOAD SWAP1 POP PUSH2 0x12E4 DUP2 PUSH2 0x12C0 JUMP JUMPDEST SWAP3 SWAP2 POP POP JUMP JUMPDEST PUSH0 DUP1 PUSH1 0x40 DUP4 DUP6 SUB SLT ISZERO PUSH2 0x1300 JUMPI PUSH2 0x12FF PUSH2 0x1255 JUMP JUMPDEST JUMPDEST PUSH0 PUSH2 0x130D DUP6 DUP3 DUP7 ADD PUSH2 0x12A3 JUMP JUMPDEST SWAP3 POP POP PUSH1 0x20 PUSH2 0x131E DUP6 DUP3 DUP7 ADD PUSH2 0x12D6 JUMP JUMPDEST SWAP2 POP POP SWAP3 POP SWAP3 SWAP1 POP JUMP JUMPDEST PUSH2 0x1331 DUP2 PUSH2 0x12B7 JUMP JUMPDEST DUP3 MSTORE POP POP JUMP JUMPDEST PUSH2 0x1340 DUP2 PUSH2 0x127C JUMP JUMPDEST DUP3 MSTORE POP POP JUMP JUMPDEST PUSH0 DUP2 MLOAD SWAP1 POP SWAP2 SWAP1 POP JUMP JUMPDEST PUSH0 DUP3 DUP3 MSTORE PUSH1 0x20 DUP3 ADD SWAP1 POP SWAP3 SWAP2 POP POP JUMP JUMPDEST DUP3 DUP2 DUP4 MCOPY PUSH0 DUP4 DUP4 ADD MSTORE POP POP POP JUMP JUMPDEST PUSH0 PUSH1 0x1F NOT PUSH1 0x1F DUP4 ADD AND SWAP1 POP SWAP2 SWAP1 POP JUMP JUMPDEST PUSH0 PUSH2 0x1388 DUP3 PUSH2 0x1346 JUMP JUMPDEST PUSH2 0x1392 DUP2 DUP6 PUSH2 0x1350 JUMP JUMPDEST SWAP4 POP PUSH2 0x13A2 DUP2 DUP6 PUSH1 0x20 DUP7 ADD PUSH2 0x1360 JUMP JUMPDEST PUSH2 0x13AB DUP2 PUSH2 0x136E JUMP JUMPDEST DUP5 ADD SWAP2 POP POP SWAP3 SWAP2 POP POP JUMP JUMPDEST PUSH0 PUSH1 0xA0 DUP3 ADD SWAP1 POP PUSH2 0x13C9 PUSH0 DUP4 ADD DUP9 PUSH2 0x1328 JUMP JUMPDEST PUSH2 0x13D6 PUSH1 0x20 DUP4 ADD DUP8 PUSH2 0x1337 JUMP JUMPDEST DUP2 DUP2 SUB PUSH1 0x40 DUP4 ADD MSTORE PUSH2 0x13E8 DUP2 DUP7 PUSH2 0x137E JUMP JUMPDEST SWAP1 POP PUSH2 0x13F7 PUSH1 0x60 DUP4 ADD DUP6 PUSH2 0x1328 JUMP JUMPDEST PUSH2 0x1404 PUSH1 0x80 DUP4 ADD DUP5 PUSH2 0x1328 JUMP JUMPDEST SWAP7 SWAP6 POP POP POP POP POP POP JUMP JUMPDEST PUSH0 PUSH1 0x20 DUP3 DUP5 SUB SLT ISZERO PUSH2 0x1423 JUMPI PUSH2 0x1422 PUSH2 0x1255 JUMP JUMPDEST JUMPDEST PUSH0 PUSH2 0x1430 DUP5 DUP3 DUP6 ADD PUSH2 0x12A3 JUMP JUMPDEST SWAP2 POP POP SWAP3 SWAP2 POP POP JUMP JUMPDEST PUSH0 DUP2 MLOAD SWAP1 POP SWAP2 SWAP1 POP JUMP JUMPDEST PUSH0 DUP3 DUP3 MSTORE PUSH1 0x20 DUP3 ADD SWAP1 POP SWAP3 SWAP2 POP POP JUMP JUMPDEST PUSH0 DUP2 SWAP1 POP PUSH1 0x20 DUP3 ADD SWAP1 POP SWAP2 SWAP1 POP JUMP JUMPDEST PUSH2 0x146B DUP2 PUSH2 0x12B7 JUMP JUMPDEST DUP3 MSTORE POP POP JUMP JUMPDEST PUSH2 0x147A DUP2 PUSH2 0x127C JUMP JUMPDEST DUP3 MSTORE POP POP JUMP JUMPDEST PUSH0 DUP3 DUP3 MSTORE PUSH1 0x20 DUP3 ADD SWAP1 POP SWAP3 SWAP2 POP POP JUMP JUMPDEST PUSH0 PUSH2 0x149A DUP3 PUSH2 0x1346 JUMP JUMPDEST PUSH2 0x14A4 DUP2 DUP6 PUSH2 0x1480 JUMP JUMPDEST SWAP4 POP PUSH2 0x14B4 DUP2 DUP6 PUSH1 0x20 DUP7 ADD PUSH2 0x1360 JUMP JUMPDEST PUSH2 0x14BD DUP2 PUSH2 0x136E JUMP JUMPDEST DUP5 ADD SWAP2 POP POP SWAP3 SWAP2 POP POP JUMP JUMPDEST PUSH0 PUSH1 0xA0 DUP4 ADD PUSH0 DUP4 ADD MLOAD PUSH2 0x14DD PUSH0 DUP7 ADD DUP3 PUSH2 0x1462 JUMP JUMPDEST POP PUSH1 0x20 DUP4 ADD MLOAD PUSH2 0x14F0 PUSH1 0x20 DUP7 ADD DUP3 PUSH2 0x1471 JUMP JUMPDEST POP PUSH1 0x40 DUP4 ADD MLOAD DUP5 DUP3 SUB PUSH1 0x40 DUP7 ADD MSTORE PUSH2 0x1508 DUP3 DUP3 PUSH2 0x1490 JUMP JUMPDEST SWAP2 POP POP PUSH1 0x60 DUP4 ADD MLOAD PUSH2 0x151D PUSH1 0x60 DUP7 ADD DUP3 PUSH2 0x1462 JUMP JUMPDEST POP PUSH1 0x80 DUP4 ADD MLOAD PUSH2 0x1530 PUSH1 0x80 DUP7 ADD DUP3 PUSH2 0x1462 JUMP JUMPDEST POP DUP1 SWAP2 POP POP SWAP3 SWAP2 POP POP JUMP JUMPDEST PUSH0 PUSH2 0x1546 DUP4 DUP4 PUSH2 0x14C8 JUMP JUMPDEST SWAP1 POP SWAP3 SWAP2 POP POP JUMP JUMPDEST PUSH0 PUSH1 0x20 DUP3 ADD SWAP1 POP SWAP2 SWAP1 POP JUMP JUMPDEST PUSH0 PUSH2 0x1564 DUP3 PUSH2 0x1439 JUMP JUMPDEST PUSH2 0x156E DUP2 DUP6 PUSH2 0x1443 JUMP JUMPDEST SWAP4 POP DUP4 PUSH1 0x20 DUP3 MUL DUP6 ADD PUSH2 0x1580 DUP6 PUSH2 0x1453 JUMP JUMPDEST DUP1 PUSH0 JUMPDEST DUP6 DUP2 LT ISZERO PUSH2 0x15BB JUMPI DUP5 DUP5 SUB DUP10 MSTORE DUP2 MLOAD PUSH2 0x159C DUP6 DUP3 PUSH2 0x153B JUMP JUMPDEST SWAP5 POP PUSH2 0x15A7 DUP4 PUSH2 0x154E JUMP JUMPDEST SWAP3 POP PUSH1 0x20 DUP11 ADD SWAP10 POP POP PUSH1 0x1 DUP2 ADD SWAP1 POP PUSH2 0x1583 JUMP JUMPDEST POP DUP3 SWAP8 POP DUP8 SWAP6 POP POP POP POP POP POP SWAP3 SWAP2 POP POP JUMP JUMPDEST PUSH0 PUSH1 0x20 DUP3 ADD SWAP1 POP DUP2 DUP2 SUB PUSH0 DUP4 ADD MSTORE PUSH2 0x15E5 DUP2 DUP5 PUSH2 0x155A JUMP JUMPDEST SWAP1 POP SWAP3 SWAP2 POP POP JUMP JUMPDEST PUSH0 PUSH2 0xFFFF DUP3 AND SWAP1 POP SWAP2 SWAP1 POP JUMP JUMPDEST PUSH2 0x1603 DUP2 PUSH2 0x15ED JUMP JUMPDEST DUP2 EQ PUSH2 0x160D JUMPI PUSH0 DUP1 REVERT JUMPDEST POP JUMP JUMPDEST PUSH0 DUP2 CALLDATALOAD SWAP1 POP PUSH2 0x161E DUP2 PUSH2 0x15FA JUMP JUMPDEST SWAP3 SWAP2 POP POP JUMP JUMPDEST PUSH0 PUSH1 0x20 DUP3 DUP5 SUB SLT ISZERO PUSH2 0x1639 JUMPI PUSH2 0x1638 PUSH2 0x1255 JUMP JUMPDEST JUMPDEST PUSH0 PUSH2 0x1646 DUP5 DUP3 DUP6 ADD PUSH2 0x1610 JUMP JUMPDEST SWAP2 POP POP SWAP3 SWAP2 POP POP JUMP JUMPDEST PUSH0 PUSH1 0x20 DUP3 ADD SWAP1 POP PUSH2 0x1662 PUSH0 DUP4 ADD DUP5 PUSH2 0x1328 JUMP JUMPDEST SWAP3 SWAP2 POP POP JUMP JUMPDEST PUSH2 0x1671 DUP2 PUSH2 0x15ED JUMP JUMPDEST DUP3 MSTORE POP POP JUMP JUMPDEST PUSH0 PUSH1 0x20 DUP3 ADD SWAP1 POP PUSH2 0x168A PUSH0 DUP4 ADD DUP5 PUSH2 0x1668 JUMP JUMPDEST SWAP3 SWAP2 POP POP JUMP JUMPDEST PUSH0 PUSH1 0xA0 DUP4 ADD PUSH0 DUP4 ADD MLOAD PUSH2 0x16A5 PUSH0 DUP7 ADD DUP3 PUSH2 0x1462 JUMP JUMPDEST POP PUSH1 0x20 DUP4 ADD MLOAD PUSH2 0x16B8 PUSH1 0x20 DUP7 ADD DUP3 PUSH2 0x1471 JUMP JUMPDEST POP PUSH1 0x40 DUP4 ADD MLOAD DUP5 DUP3 SUB PUSH1 0x40 DUP7 ADD MSTORE PUSH2 0x16D0 DUP3 DUP3 PUSH2 0x1490 JUMP JUMPDEST SWAP2 POP POP PUSH1 0x60 DUP4 ADD MLOAD PUSH2 0x16E5 PUSH1 0x60 DUP7 ADD DUP3 PUSH2 0x1462 JUMP JUMPDEST POP PUSH1 0x80 DUP4 ADD MLOAD PUSH2 0x16F8 PUSH1 0x80 DUP7 ADD DUP3 PUSH2 0x1462 JUMP JUMPDEST POP DUP1 SWAP2 POP POP SWAP3 SWAP2 POP POP JUMP JUMPDEST PUSH0 PUSH1 0x20 DUP3 ADD SWAP1 POP DUP2 DUP2 SUB PUSH0 DUP4 ADD MSTORE PUSH2 0x171B DUP2 DUP5 PUSH2 0x1690 JUMP JUMPDEST SWAP1 POP SWAP3 SWAP2 POP POP JUMP JUMPDEST PUSH0 DUP1 REVERT JUMPDEST PUSH0 DUP1 REVERT JUMPDEST PUSH32 0x4E487B7100000000000000000000000000000000000000000000000000000000 PUSH0 MSTORE PUSH1 0x41 PUSH1 0x4 MSTORE PUSH1 0x24 PUSH0 REVERT JUMPDEST PUSH2 0x1761 DUP3 PUSH2 0x136E JUMP JUMPDEST DUP2 ADD DUP2 DUP2 LT PUSH8 0xFFFFFFFFFFFFFFFF DUP3 GT OR ISZERO PUSH2 0x1780 JUMPI PUSH2 0x177F PUSH2 0x172B JUMP JUMPDEST JUMPDEST DUP1 PUSH1 0x40 MSTORE POP POP POP JUMP JUMPDEST PUSH0 PUSH2 0x1792 PUSH2 0x124C JUMP JUMPDEST SWAP1 POP PUSH2 0x179E DUP3 DUP3 PUSH2 0x1758 JUMP JUMPDEST SWAP2 SWAP1 POP JUMP JUMPDEST PUSH0 PUSH8 0xFFFFFFFFFFFFFFFF DUP3 GT ISZERO PUSH2 0x17BD JUMPI PUSH2 0x17BC PUSH2 0x172B JUMP JUMPDEST JUMPDEST PUSH2 0x17C6 DUP3 PUSH2 0x136E JUMP JUMPDEST SWAP1 POP PUSH1 0x20 DUP2 ADD SWAP1 POP SWAP2 SWAP1 POP JUMP JUMPDEST DUP3 DUP2 DUP4 CALLDATACOPY PUSH0 DUP4 DUP4 ADD MSTORE POP POP POP JUMP JUMPDEST PUSH0 PUSH2 0x17F3 PUSH2 0x17EE DUP5 PUSH2 0x17A3 JUMP JUMPDEST PUSH2 0x1789 JUMP JUMPDEST SWAP1 POP DUP3 DUP2 MSTORE PUSH1 0x20 DUP2 ADD DUP5 DUP5 DUP5 ADD GT ISZERO PUSH2 0x180F JUMPI PUSH2 0x180E PUSH2 0x1727 JUMP JUMPDEST JUMPDEST PUSH2 0x181A DUP5 DUP3 DUP6 PUSH2 0x17D3 JUMP JUMPDEST POP SWAP4 SWAP3 POP POP POP JUMP JUMPDEST PUSH0 DUP3 PUSH1 0x1F DUP4 ADD SLT PUSH2 0x1836 JUMPI PUSH2 0x1835 PUSH2 0x1723 JUMP JUMPDEST JUMPDEST DUP2 CALLDATALOAD PUSH2 0x1846 DUP5 DUP3 PUSH1 0x20 DUP7 ADD PUSH2 0x17E1 JUMP JUMPDEST SWAP2 POP POP SWAP3 SWAP2 POP POP JUMP JUMPDEST PUSH0 PUSH1 0x20 DUP3 DUP5 SUB SLT ISZERO PUSH2 0x1864 JUMPI PUSH2 0x1863 PUSH2 0x1255 JUMP JUMPDEST JUMPDEST PUSH0 DUP3 ADD CALLDATALOAD PUSH8 0xFFFFFFFFFFFFFFFF DUP2 GT ISZERO PUSH2 0x1881 JUMPI PUSH2 0x1880 PUSH2 0x1259 JUMP JUMPDEST JUMPDEST PUSH2 0x188D DUP5 DUP3 DUP6 ADD PUSH2 0x1822 JUMP JUMPDEST SWAP2 POP POP SWAP3 SWAP2 POP POP JUMP JUMPDEST PUSH0 PUSH1 0x20 DUP3 ADD SWAP1 POP PUSH2 0x18A9 PUSH0 DUP4 ADD DUP5 PUSH2 0x1337 JUMP JUMPDEST SWAP3 SWAP2 POP POP JUMP JUMPDEST PUSH0 PUSH1 0x40 DUP3 ADD SWAP1 POP PUSH2 0x18C2 PUSH0 DUP4 ADD DUP6 PUSH2 0x1337 JUMP JUMPDEST PUSH2 0x18CF PUSH1 0x20 DUP4 ADD DUP5 PUSH2 0x1328 JUMP JUMPDEST SWAP4 SWAP3 POP POP POP JUMP JUMPDEST PUSH32 0x4E487B7100000000000000000000000000000000000000000000000000000000 PUSH0 MSTORE PUSH1 0x22 PUSH1 0x4 MSTORE PUSH1 0x24 PUSH0 REVERT JUMPDEST PUSH0 PUSH1 0x2 DUP3 DIV SWAP1 POP PUSH1 0x1 DUP3 AND DUP1 PUSH2 0x191A JUMPI PUSH1 0x7F DUP3 AND SWAP2 POP JUMPDEST PUSH1 0x20 DUP3 LT DUP2 SUB PUSH2 0x192D JUMPI PUSH2 0x192C PUSH2 0x18D6 JUMP JUMPDEST JUMPDEST POP SWAP2 SWAP1 POP JUMP JUMPDEST PUSH32 0x4E487B7100000000000000000000000000000000000000000000000000000000 PUSH0 MSTORE PUSH1 0x32 PUSH1 0x4 MSTORE PUSH1 0x24 PUSH0 REVERT JUMPDEST PUSH32 0x545745455420444F45534E275420455849535400000000000000000000000000 PUSH0 DUP3 ADD MSTORE POP JUMP JUMPDEST PUSH0 PUSH2 0x1994 PUSH1 0x13 DUP4 PUSH2 0x1350 JUMP JUMPDEST SWAP2 POP PUSH2 0x199F DUP3 PUSH2 0x1960 JUMP JUMPDEST PUSH1 0x20 DUP3 ADD SWAP1 POP SWAP2 SWAP1 POP JUMP JUMPDEST PUSH0 PUSH1 0x20 DUP3 ADD SWAP1 POP DUP2 DUP2 SUB PUSH0 DUP4 ADD MSTORE PUSH2 0x19C1 DUP2 PUSH2 0x1988 JUMP JUMPDEST SWAP1 POP SWAP2 SWAP1 POP JUMP JUMPDEST PUSH32 0x544845524520415245204E4F204C494B45530000000000000000000000000000 PUSH0 DUP3 ADD MSTORE POP JUMP JUMPDEST PUSH0 PUSH2 0x19FC PUSH1 0x12 DUP4 PUSH2 0x1350 JUMP JUMPDEST SWAP2 POP PUSH2 0x1A07 DUP3 PUSH2 0x19C8 JUMP JUMPDEST PUSH1 0x20 DUP3 ADD SWAP1 POP SWAP2 SWAP1 POP JUMP JUMPDEST PUSH0 PUSH1 0x20 DUP3 ADD SWAP1 POP DUP2 DUP2 SUB PUSH0 DUP4 ADD MSTORE PUSH2 0x1A29 DUP2 PUSH2 0x19F0 JUMP JUMPDEST SWAP1 POP SWAP2 SWAP1 POP JUMP JUMPDEST PUSH32 0x4E487B7100000000000000000000000000000000000000000000000000000000 PUSH0 MSTORE PUSH1 0x11 PUSH1 0x4 MSTORE PUSH1 0x24 PUSH0 REVERT JUMPDEST PUSH0 PUSH2 0x1A67 DUP3 PUSH2 0x12B7 JUMP JUMPDEST SWAP2 POP PUSH0 DUP3 SUB PUSH2 0x1A79 JUMPI PUSH2 0x1A78 PUSH2 0x1A30 JUMP JUMPDEST JUMPDEST PUSH1 0x1 DUP3 SUB SWAP1 POP SWAP2 SWAP1 POP JUMP JUMPDEST PUSH32 0x596F752063616E277420666F6C6C6F7720796F757273656C6600000000000000 PUSH0 DUP3 ADD MSTORE POP JUMP JUMPDEST PUSH0 PUSH2 0x1AB8 PUSH1 0x19 DUP4 PUSH2 0x1350 JUMP JUMPDEST SWAP2 POP PUSH2 0x1AC3 DUP3 PUSH2 0x1A84 JUMP JUMPDEST PUSH1 0x20 DUP3 ADD SWAP1 POP SWAP2 SWAP1 POP JUMP JUMPDEST PUSH0 PUSH1 0x20 DUP3 ADD SWAP1 POP DUP2 DUP2 SUB PUSH0 DUP4 ADD MSTORE PUSH2 0x1AE5 DUP2 PUSH2 0x1AAC JUMP JUMPDEST SWAP1 POP SWAP2 SWAP1 POP JUMP JUMPDEST PUSH32 0x594F55275245204E4F5420544845204F574E4552000000000000000000000000 PUSH0 DUP3 ADD MSTORE POP JUMP JUMPDEST PUSH0 PUSH2 0x1B20 PUSH1 0x14 DUP4 PUSH2 0x1350 JUMP JUMPDEST SWAP2 POP PUSH2 0x1B2B DUP3 PUSH2 0x1AEC JUMP JUMPDEST PUSH1 0x20 DUP3 ADD SWAP1 POP SWAP2 SWAP1 POP JUMP JUMPDEST PUSH0 PUSH1 0x20 DUP3 ADD SWAP1 POP DUP2 DUP2 SUB PUSH0 DUP4 ADD MSTORE PUSH2 0x1B4D DUP2 PUSH2 0x1B14 JUMP JUMPDEST SWAP1 POP SWAP2 SWAP1 POP JUMP JUMPDEST PUSH0 PUSH2 0x1B5E DUP3 PUSH2 0x12B7 JUMP JUMPDEST SWAP2 POP PUSH32 0xFFFFFFFFFFFFFFFFFFFFFFFFFFFFFFFFFFFFFFFFFFFFFFFFFFFFFFFFFFFFFFFF DUP3 SUB PUSH2 0x1B90 JUMPI PUSH2 0x1B8F PUSH2 0x1A30 JUMP JUMPDEST JUMPDEST PUSH1 0x1 DUP3 ADD SWAP1 POP SWAP2 SWAP1 POP JUMP JUMPDEST PUSH32 0x4E4F20434F4E54454E542C20504C4541534520575249544520534F4D45544849 PUSH0 DUP3 ADD MSTORE PUSH32 0x4E47000000000000000000000000000000000000000000000000000000000000 PUSH1 0x20 DUP3 ADD MSTORE POP JUMP JUMPDEST PUSH0 PUSH2 0x1BF5 PUSH1 0x22 DUP4 PUSH2 0x1350 JUMP JUMPDEST SWAP2 POP PUSH2 0x1C00 DUP3 PUSH2 0x1B9B JUMP JUMPDEST PUSH1 0x40 DUP3 ADD SWAP1 POP SWAP2 SWAP1 POP JUMP JUMPDEST PUSH0 PUSH1 0x20 DUP3 ADD SWAP1 POP DUP2 DUP2 SUB PUSH0 DUP4 ADD MSTORE PUSH2 0x1C22 DUP2 PUSH2 0x1BE9 JUMP JUMPDEST SWAP1 POP SWAP2 SWAP1 POP JUMP JUMPDEST PUSH32 0x544845204D4158494D554D205457454554532052454143484544000000000000 PUSH0 DUP3 ADD MSTORE POP JUMP JUMPDEST PUSH0 PUSH2 0x1C5D PUSH1 0x1A DUP4 PUSH2 0x1350 JUMP JUMPDEST SWAP2 POP PUSH2 0x1C68 DUP3 PUSH2 0x1C29 JUMP JUMPDEST PUSH1 0x20 DUP3 ADD SWAP1 POP SWAP2 SWAP1 POP JUMP JUMPDEST PUSH0 PUSH1 0x20 DUP3 ADD SWAP1 POP DUP2 DUP2 SUB PUSH0 DUP4 ADD MSTORE PUSH2 0x1C8A DUP2 PUSH2 0x1C51 JUMP JUMPDEST SWAP1 POP SWAP2 SWAP1 POP JUMP JUMPDEST PUSH0 DUP2 SWAP1 POP DUP2 PUSH0 MSTORE PUSH1 0x20 PUSH0 KECCAK256 SWAP1 POP SWAP2 SWAP1 POP JUMP JUMPDEST PUSH0 PUSH1 0x20 PUSH1 0x1F DUP4 ADD DIV SWAP1 POP SWAP2 SWAP1 POP JUMP JUMPDEST PUSH0 DUP3 DUP3 SHL SWAP1 POP SWAP3 SWAP2 POP POP JUMP JUMPDEST PUSH0 PUSH1 0x8 DUP4 MUL PUSH2 0x1CED PUSH32 0xFFFFFFFFFFFFFFFFFFFFFFFFFFFFFFFFFFFFFFFFFFFFFFFFFFFFFFFFFFFFFFFF DUP3 PUSH2 0x1CB2 JUMP JUMPDEST PUSH2 0x1CF7 DUP7 DUP4 PUSH2 0x1CB2 JUMP JUMPDEST SWAP6 POP DUP1 NOT DUP5 AND SWAP4 POP DUP1 DUP7 AND DUP5 OR SWAP3 POP POP POP SWAP4 SWAP3 POP POP POP JUMP JUMPDEST PUSH0 DUP2 SWAP1 POP SWAP2 SWAP1 POP JUMP JUMPDEST PUSH0 PUSH2 0x1D32 PUSH2 0x1D2D PUSH2 0x1D28 DUP5 PUSH2 0x12B7 JUMP JUMPDEST PUSH2 0x1D0F JUMP JUMPDEST PUSH2 0x12B7 JUMP JUMPDEST SWAP1 POP SWAP2 SWAP1 POP JUMP JUMPDEST PUSH0 DUP2 SWAP1 POP SWAP2 SWAP1 POP JUMP JUMPDEST PUSH2 0x1D4B DUP4 PUSH2 0x1D18 JUMP JUMPDEST PUSH2 0x1D5F PUSH2 0x1D57 DUP3 PUSH2 0x1D39 JUMP JUMPDEST DUP5 DUP5 SLOAD PUSH2 0x1CBE JUMP JUMPDEST DUP3 SSTORE POP POP POP POP JUMP JUMPDEST PUSH0 SWAP1 JUMP JUMPDEST PUSH2 0x1D73 PUSH2 0x1D67 JUMP JUMPDEST PUSH2 0x1D7E DUP2 DUP5 DUP5 PUSH2 0x1D42 JUMP JUMPDEST POP POP POP JUMP JUMPDEST JUMPDEST DUP2 DUP2 LT ISZERO PUSH2 0x1DA1 JUMPI PUSH2 0x1D96 PUSH0 DUP3 PUSH2 0x1D6B JUMP JUMPDEST PUSH1 0x1 DUP2 ADD SWAP1 POP PUSH2 0x1D84 JUMP JUMPDEST POP POP JUMP JUMPDEST PUSH1 0x1F DUP3 GT ISZERO PUSH2 0x1DE6 JUMPI PUSH2 0x1DB7 DUP2 PUSH2 0x1C91 JUMP JUMPDEST PUSH2 0x1DC0 DUP5 PUSH2 0x1CA3 JUMP JUMPDEST DUP2 ADD PUSH1 0x20 DUP6 LT ISZERO PUSH2 0x1DCF JUMPI DUP2 SWAP1 POP JUMPDEST PUSH2 0x1DE3 PUSH2 0x1DDB DUP6 PUSH2 0x1CA3 JUMP JUMPDEST DUP4 ADD DUP3 PUSH2 0x1D83 JUMP JUMPDEST POP POP JUMPDEST POP POP POP JUMP JUMPDEST PUSH0 DUP3 DUP3 SHR SWAP1 POP SWAP3 SWAP2 POP POP JUMP JUMPDEST PUSH0 PUSH2 0x1E06 PUSH0 NOT DUP5 PUSH1 0x8 MUL PUSH2 0x1DEB JUMP JUMPDEST NOT DUP1 DUP4 AND SWAP2 POP POP SWAP3 SWAP2 POP POP JUMP JUMPDEST PUSH0 PUSH2 0x1E1E DUP4 DUP4 PUSH2 0x1DF7 JUMP JUMPDEST SWAP2 POP DUP3 PUSH1 0x2 MUL DUP3 OR SWAP1 POP SWAP3 SWAP2 POP POP JUMP JUMPDEST PUSH2 0x1E37 DUP3 PUSH2 0x1346 JUMP JUMPDEST PUSH8 0xFFFFFFFFFFFFFFFF DUP2 GT ISZERO PUSH2 0x1E50 JUMPI PUSH2 0x1E4F PUSH2 0x172B JUMP JUMPDEST JUMPDEST PUSH2 0x1E5A DUP3 SLOAD PUSH2 0x1903 JUMP JUMPDEST PUSH2 0x1E65 DUP3 DUP3 DUP6 PUSH2 0x1DA5 JUMP JUMPDEST PUSH0 PUSH1 0x20 SWAP1 POP PUSH1 0x1F DUP4 GT PUSH1 0x1 DUP2 EQ PUSH2 0x1E96 JUMPI PUSH0 DUP5 ISZERO PUSH2 0x1E84 JUMPI DUP3 DUP8 ADD MLOAD SWAP1 POP JUMPDEST PUSH2 0x1E8E DUP6 DUP3 PUSH2 0x1E13 JUMP JUMPDEST DUP7 SSTORE POP PUSH2 0x1EF5 JUMP JUMPDEST PUSH1 0x1F NOT DUP5 AND PUSH2 0x1EA4 DUP7 PUSH2 0x1C91 JUMP JUMPDEST PUSH0 JUMPDEST DUP3 DUP2 LT ISZERO PUSH2 0x1ECB JUMPI DUP5 DUP10 ADD MLOAD DUP3 SSTORE PUSH1 0x1 DUP3 ADD SWAP2 POP PUSH1 0x20 DUP6 ADD SWAP5 POP PUSH1 0x20 DUP2 ADD SWAP1 POP PUSH2 0x1EA6 JUMP JUMPDEST DUP7 DUP4 LT ISZERO PUSH2 0x1EE8 JUMPI DUP5 DUP10 ADD MLOAD PUSH2 0x1EE4 PUSH1 0x1F DUP10 AND DUP3 PUSH2 0x1DF7 JUMP JUMPDEST DUP4 SSTORE POP JUMPDEST PUSH1 0x1 PUSH1 0x2 DUP9 MUL ADD DUP9 SSTORE POP POP POP JUMPDEST POP POP POP POP POP POP JUMP JUMPDEST PUSH0 PUSH1 0x80 DUP3 ADD SWAP1 POP PUSH2 0x1F10 PUSH0 DUP4 ADD DUP8 PUSH2 0x1328 JUMP JUMPDEST DUP2 DUP2 SUB PUSH1 0x20 DUP4 ADD MSTORE PUSH2 0x1F22 DUP2 DUP7 PUSH2 0x137E JUMP JUMPDEST SWAP1 POP PUSH2 0x1F31 PUSH1 0x40 DUP4 ADD DUP6 PUSH2 0x1328 JUMP JUMPDEST PUSH2 0x1F3E PUSH1 0x60 DUP4 ADD DUP5 PUSH2 0x1328 JUMP JUMPDEST SWAP6 SWAP5 POP POP POP POP POP JUMP INVALID LOG2 PUSH5 0x6970667358 0x22 SLT KECCAK256 0xC8 GASPRICE 0xBB 0xD7 MCOPY CHAINID 0x2D 0x22 MCOPY 0xD4 CALLVALUE 0x1E PUSH11 0x2B88444E1D66BB429864F PUSH22 0x83FCCC4C834C2364736F6C634300081A003300000000 "
				},
				"gasEstimates": {
					"creation": {
						"codeDepositCost": "1612200",
						"executionCost": "50266",
						"totalCost": "1662466"
					},
					"external": {
						"MAX_TWEET_LIMIT()": "2486",
						"changeTweetLength(uint16)": "infinite",
						"createTweet(string)": "infinite",
						"follow(address)": "144219",
						"followers(address,uint256)": "infinite",
						"following(address,uint256)": "infinite",
						"getAllTweets(address)": "infinite",
						"likeTweet(address,uint256)": "infinite",
						"numberOfTweets()": "2638",
						"owner()": "2602",
						"tweets(address,uint256)": "infinite",
						"unLlikeTweet(address,uint256)": "infinite",
						"viewTweet(address,uint256)": "infinite"
					}
				},
				"methodIdentifiers": {
					"MAX_TWEET_LIMIT()": "62a9edca",
					"changeTweetLength(uint16)": "58bfa4ab",
					"createTweet(string)": "7c9cd2bc",
					"follow(address)": "4dbf27cc",
					"followers(address,uint256)": "ebd009d3",
					"following(address,uint256)": "9139cda5",
					"getAllTweets(address)": "12e7ee1c",
					"likeTweet(address,uint256)": "63378216",
					"numberOfTweets()": "5a34bd5e",
					"owner()": "8da5cb5b",
					"tweets(address,uint256)": "05a1b4a9",
					"unLlikeTweet(address,uint256)": "32b0aa6a",
					"viewTweet(address,uint256)": "728540c0"
				}
			},
			"storageLayout": {
				"storage": [
					{
						"astId": 20,
						"contract": "twitterDapp.sol:Twitter",
						"label": "MAX_TWEET_LIMIT",
						"offset": 0,
						"slot": "0",
						"type": "t_uint16"
					},
					{
						"astId": 22,
						"contract": "twitterDapp.sol:Twitter",
						"label": "owner",
						"offset": 2,
						"slot": "0",
						"type": "t_address"
					},
					{
						"astId": 28,
						"contract": "twitterDapp.sol:Twitter",
						"label": "tweets",
						"offset": 0,
						"slot": "1",
						"type": "t_mapping(t_address,t_array(t_struct(Tweet)12_storage)dyn_storage)"
					},
					{
						"astId": 34,
						"contract": "twitterDapp.sol:Twitter",
						"label": "followers",
						"offset": 0,
						"slot": "2",
						"type": "t_mapping(t_address,t_array(t_struct(Follow)17_storage)dyn_storage)"
					},
					{
						"astId": 40,
						"contract": "twitterDapp.sol:Twitter",
						"label": "following",
						"offset": 0,
						"slot": "3",
						"type": "t_mapping(t_address,t_array(t_struct(Follow)17_storage)dyn_storage)"
					}
				],
				"types": {
					"t_address": {
						"encoding": "inplace",
						"label": "address",
						"numberOfBytes": "20"
					},
					"t_array(t_struct(Follow)17_storage)dyn_storage": {
						"base": "t_struct(Follow)17_storage",
						"encoding": "dynamic_array",
						"label": "struct Twitter.Follow[]",
						"numberOfBytes": "32"
					},
					"t_array(t_struct(Tweet)12_storage)dyn_storage": {
						"base": "t_struct(Tweet)12_storage",
						"encoding": "dynamic_array",
						"label": "struct Twitter.Tweet[]",
						"numberOfBytes": "32"
					},
					"t_mapping(t_address,t_array(t_struct(Follow)17_storage)dyn_storage)": {
						"encoding": "mapping",
						"key": "t_address",
						"label": "mapping(address => struct Twitter.Follow[])",
						"numberOfBytes": "32",
						"value": "t_array(t_struct(Follow)17_storage)dyn_storage"
					},
					"t_mapping(t_address,t_array(t_struct(Tweet)12_storage)dyn_storage)": {
						"encoding": "mapping",
						"key": "t_address",
						"label": "mapping(address => struct Twitter.Tweet[])",
						"numberOfBytes": "32",
						"value": "t_array(t_struct(Tweet)12_storage)dyn_storage"
					},
					"t_string_storage": {
						"encoding": "bytes",
						"label": "string",
						"numberOfBytes": "32"
					},
					"t_struct(Follow)17_storage": {
						"encoding": "inplace",
						"label": "struct Twitter.Follow",
						"members": [
							{
								"astId": 14,
								"contract": "twitterDapp.sol:Twitter",
								"label": "user",
								"offset": 0,
								"slot": "0",
								"type": "t_address"
							},
							{
								"astId": 16,
								"contract": "twitterDapp.sol:Twitter",
								"label": "timestamp",
								"offset": 0,
								"slot": "1",
								"type": "t_uint256"
							}
						],
						"numberOfBytes": "64"
					},
					"t_struct(Tweet)12_storage": {
						"encoding": "inplace",
						"label": "struct Twitter.Tweet",
						"members": [
							{
								"astId": 3,
								"contract": "twitterDapp.sol:Twitter",
								"label": "id",
								"offset": 0,
								"slot": "0",
								"type": "t_uint256"
							},
							{
								"astId": 5,
								"contract": "twitterDapp.sol:Twitter",
								"label": "author",
								"offset": 0,
								"slot": "1",
								"type": "t_address"
							},
							{
								"astId": 7,
								"contract": "twitterDapp.sol:Twitter",
								"label": "content",
								"offset": 0,
								"slot": "2",
								"type": "t_string_storage"
							},
							{
								"astId": 9,
								"contract": "twitterDapp.sol:Twitter",
								"label": "timestamp",
								"offset": 0,
								"slot": "3",
								"type": "t_uint256"
							},
							{
								"astId": 11,
								"contract": "twitterDapp.sol:Twitter",
								"label": "likes",
								"offset": 0,
								"slot": "4",
								"type": "t_uint256"
							}
						],
						"numberOfBytes": "160"
					},
					"t_uint16": {
						"encoding": "inplace",
						"label": "uint16",
						"numberOfBytes": "2"
					},
					"t_uint256": {
						"encoding": "inplace",
						"label": "uint256",
						"numberOfBytes": "32"
					}
				}
			},
			"userdoc": {
				"kind": "user",
				"methods": {},
				"version": 1
			}
		}
	}
}